:1000000080315E28053008007E1480312100901E6A
:100010000A280B2814282000901E0F2810281428C6
:100020008D310E2580315C282100101E18281928DA
:1000300022282000101E1D281E2822288D318925E7
:1000400080315C280B1F252826285C282100111DE3
:100050002A282B2836282000111D2F283028362842
:1000600031088A0030080A0080315C282100911D87
:100070003A283B2841282000911D3F28402841284C
:1000800030282100121D4528462851282000121D25
:100090004A284B28512825088A0024080A00803164
:1000A0005C282100921D552856285C282000921DAE
:1000B0005A285B285C284B287E1009008031602874
:1000C00070308400233085008030FE000030FF0057
:1000D0008C3183248031FB01FC01FD012030840040
:1000E000003085003A30FE000030FF008C31832460
:1000F0008031A0308400003085002C30FE000030BC
:10010000FF008C31832480317E1020008631892EBF
:100110002000350803198D288E2899284408EE0000
:100120003408EE0235086E0203189728982899289B
:10013000832BB5013A2BB801B80A832B3230E20089
:100140009030E3000330E4000030E5000030E600CA
:10015000E7000030E800E900EA01EB01EB0A0230B9
:10016000EC00ED01ED0A8431E6248031832B003070
:10017000E200E3000030E400E5007D30E6000030FE
:10018000E7000130E8000030E900EA01EA0A023045
:10019000EB000330EC00ED01ED0A8431E624803100
:1001A000832BC0307D05EE0080306E06031DD928FC
:1001B000DA28E3280430B8002008860021088700E8
:1001C0007D088100832B0F30B8007D08C039EE0018
:1001D00020088600210887006E088100832B2C30C0
:1001E000E2009030E3000330E4000030E50000302E
:1001F000E600E7000230E8000030E9000230EA00E3
:100200000430EB000530EC00ED01ED0A8431E6240A
:100210008031832B20088600210887007D0881001B
:100220002730873122278031003A031918291929EC
:10023000832B39302000E2009030E3000130E400ED
:100240000030E5000030E600E7000230E800003052
:10025000E9000430EA000530EB000630EC00ED0167
:100260008431E6248031832B2930E2009030E30092
:100270000330E4000030E5000030E600E700023023
:10028000E8000030E9000230EA000630EB000730F9
:10029000EC00ED01ED0A8431E6248031832B200847
:1002A0008600210887007D088100273087312227BA
:1002B0008031003A03195D295E29832B38302000F4
:1002C000E2009030E3000130E4000030E50000304F
:1002D000E600E7000230E8000030E9000430EA0000
:1002E0000730EB000830EC00ED018431E62480316A
:1002F000832B2630E2009030E3000330E40000302E
:10030000E5000030E600E7000230E8000030E900D8
:100310000230EA000830EB000930EC00ED01ED0A94
:100320008431E6248031832B200886002108870051
:100330007D0881002730873122278031003A031958
:10034000A229A329832B37302000E2009030E3005C
:100350000130E4000030E5000030E600E700023044
:10036000E8000030E9000430EA000930EB000A3010
:10037000EC00ED018431E6248031832B2330E20050
:100380009030E3000330E4000030E5000030E60088
:10039000E7000230E8000030E9000230EA000A30ED
:1003A000EB000B30EC00ED01ED0A8431E6248031E6
:1003B000832B20088600210887007D0881002730D4
:1003C000873122278031003A0319E729E829832B56
:1003D00036302000E2009030E3000130E4000030CD
:1003E000E5000030E600E7000230E8000030E900F8
:1003F0000430EA000B30EB000C30EC00ED018431EE
:10040000E6248031832B2030E2009030E30003307B
:10041000E4000030E5000030E600E7000230E800CC
:100420000030E9000230EA000C30EB000D30EC0047
:10043000ED01ED0A8431E6248031832B200886000B
:10044000210887007D0881002730873122278031ED
:10045000003A03192C2A2D2A832B35302000E20084
:100460009030E3000130E4000030E5000030E600A9
:10047000E7000230E8000030E9000430EA000D3007
:10048000EB000E30EC00ED018431E6248031832B4B
:100490002F30E2009030E3000330E4000030E5004C
:1004A0000030E600E7000030E800E900EA010E3025
:1004B000EB000F30EC00ED01ED0A8431E6248031D1
:1004C000832B1430B5004408B4001030B800832BDF
:1004D0000030E200E3000030E400E5000030E60018
:1004E000E7000030E800E900EA011030EB001130CD
:1004F000EC00ED01ED0A8431E62480310330200068
:10050000B5004408B400832B0030E200E300003063
:10051000E400E5004D30E6000030E7000430E8007C
:100520000030E900EA01EA0A1130EB001230EC0079
:10053000ED01ED0A8431E6248031832BC0304D0576
:10054000EE007D083F396E04FD000F30B8003F30EB
:10055000EE0020088600210887006E0881054D08FE
:10056000C039EE0020088600210887006E0881044B
:100570003F30EE006E08CD05200886002108870078
:1005800041314F08C03F5008C13F20088600210874
:10059000870043314D08C03F4E08C13F832B3308CD
:1005A000031DD32AD42AD82AB2013708B800832BD6
:1005B0003608B80015303202031CDF2AE02A832BEC
:1005C0001430B8002008860021088700FF30810021
:1005D00020088600210887004331FF30C03FFF30EC
:1005E000C13F20088600210887004131FF30C03F0D
:1005F000FF30C13F832B0130EE006E08B207360892
:10060000B80015303202031C062B072B832B143045
:10061000B8002008860021088700FF3081002008EC
:100620008600210887004331FF30C03FFF30C13FC3
:1006300020088600210887004131FF30C03FFF308D
:10064000C13F832B8D31BC2580312000EE00EF01AE
:100650006F08003A03192D2BFB2A6E08003A031984
:10066000CF2A013A0319832B033A0319FB2AFB2AE9
:10067000B801832B3808EE00EF016F08003A031928
:10068000422B382B6E08003A03199B28013A0319B4
:100690009E28033A0319B728013A0319D128073ACB
:1006A0000319EF28013A03190A29033A03193429D7
:1006B000013A03194F290F3A03197929013A03190D
:1006C0009429033A0319BE29013A0319D929073A93
:1006D0000319032A013A03191E2A033A0319482A67
:1006E000013A0319612A1F3A0319682A013A0319CA
:1006F000842A033A03199E2A013A0319222B073A46
:100700000319832B382B080020003F080319892B7D
:100710008A2BB72C4408E8003E08E8023F0868022C
:100720000318932B942BB72CE52CC201C20AE52C9D
:1007300022000C152000BF01BF0A4408BE00023091
:10074000C200E52C0230D5005530E2000130E30054
:100750000030E40000308F31C2278331003A0319A2
:10076000B22BB32BE52C0A302000C2003D08031940
:10077000BA2BBB2BBE2B0330C100C22B0530C100EE
:100780004408BA000230C000E52C22000C1164308D
:100790002000BF004408BE000430C200E52C220047
:1007A0000C152000BF01BF0A4408BE004408BA006F
:1007B0000530C200E52C0E1DDE2BDF2BE62BBF0122
:1007C000BF0A4408BE000630C200E52C4408E80019
:1007D000E9016908EB003A086802EA00031CEB0330
:1007E0006B08803AEC0080306C02031DF92B283036
:1007F0006A02031CFC2BFD2BE52C22000C1114308B
:100800002000BF004408BE00952B5530E2000330A5
:10081000E3000030E40002308F3185278331003A55
:100820000319132C142CE52C0A302000C2000730C9
:10083000C1000630C000E52C22088600230887008E
:10084000550881005608E8002208013EE900003002
:10085000233DEA00690886006A088700680881006D
:100860005708E8002208023EE9000030233DEA0074
:10087000690886006A088700680881000830C2009D
:10088000E52C660886006708870077300106031D9F
:100890004A2C4B2C6C2CD5011930D6005530E20077
:1008A0000230E3000030E40012308F31C227833180
:1008B000003A03195C2C5D2CE52C0A302000C200A4
:1008C0000930C1004408BA000230C0006608860042
:1008D000670887008101E52C3D080319702C712CF5
:1008E000742C0330C200E52C0530C2004408BA0065
:1008F000E52C8D31BC258331003A031D802C812CE1
:10090000E52C20003C08031D862C872C8B2CBB017A
:100910004108C200E52C4008C20015303B02031C10
:10092000922C932CE52C22000C110B302000C200DD
:100930002208860023088700FF3081002208013E3C
:10094000E8000030233DE900680886006908870058
:10095000FF3081002208023EE8000030233DE9001C
:100960006808860069088700FF308100E52C42088E
:10097000E800E9016908003A0319BF2CE52C680872
:10098000003A0319952B013A0319982B033A0319DE
:10099000A22B013A0319C52B073A0319CF2B013AB1
:1009A0000319DB2B033A0319052C013A03191C2CFC
:1009B0000F3A0319412C013A03196C2C033A03191D
:1009C000792C013A0319E52CE52C080020006D086C
:1009D0000319EB2CEC2CF52C3908873122278431B4
:1009E000003A031DF42CF52C612D2000B3016208A0
:1009F00063040319FC2CFD2C0E2D640865040319F7
:100A0000022D032D0E2D6308DB006208DA00650855
:100A1000DD006408DC008D31722584312000660819
:100A200067040319142D152D2C2D6808690403196A
:100A30001A2D1B2D2C2D6A08C9006630CA006908C2
:100A4000CC006808CB00CF30DE000530DF00493035
:100A5000E0008C317724843120006A030319312DA2
:100A6000322D402D1830DE000C30DF000030E00069
:100A7000E1008C316B2484318B31BB2384315A2DBE
:100A8000660867040319452D462D572D680869042B
:100A900003194B2D4C2D572D6708DB006608DA0033
:100AA0006908DD006808DC008D31722584318B31E6
:100AB000C023843120006C08B7006B08B6001330E7
:100AC000B80008008B313E2385318B31E32385311B
:100AD000003A03196C2D6D2D7D2D8B317F238531CF
:100AE000003A0319742D752D792D01302000C500B1
:100AF000B52D02302000C500B52D8B317F23853107
:100B0000003A0319842D852D892D03302000C5005E
:100B1000B52D04302000C500B52D8B31FF23853164
:100B20008B31EA238531003A0319972D982DCB2D6F
:100B30008E3114268531CB2D8B31FF238531CB2D82
:100B40008B31EA238531003A0319A72DA82DCB2D2F
:100B5000982D8B316B238531003A0319B02DB12DBF
:100B6000CB2D8731AC278531CB2D4508F900FA0113
:100B70007A08003A0319BD2DCB2D7908013A0319E3
:100B80008D2D033A03199C2D013A0319A02D073A24
:100B90000319A92DCB2D8B3141238531080077080E
:100BA0000319D32DD42D1A2E1C2E77088600870109
:100BB000033081007D30F0000030F1000130F200A0
:100BC0000030F3008C31C324853103302000C9008C
:100BD000770886008701413FCA007708023E8600F9
:100BE0008701403FCB00413FCC00CF30F4000530BF
:100BF000F5004930F6008C31602485310230322E08
:100C0000770A860087010108F000F1017708023EAB
:100C100086008701403FF200413FF3008C31C3243E
:100C200085310030F400F500F6018C316024853107
:100C30000430322E0130322E7708860087010108F9
:100C4000F800F9017908003A0319272E1A2E7808BE
:100C5000023A0319D52D013A0319002E073A031958
:100C6000002E1A2E08008B31C5238631003A031955
:100C70003A2E3B2E692E482E8B3193238631882EB7
:100C80008B3198238631882E8B31A2238631882E92
:100C900021002F08F7000630A03E86008701413F63
:100CA0008A00403F0A008631F100F2017208003AE2
:100CB00003195B2E442E7108013A0319442E033A9E
:100CC00003193C2E013A0319402E073A0319442E0A
:100CD000442E21003D103808F2003708F100B70A11
:100CE0000319B80A710884007208850000088B3166
:100CF0008923863101302100B9020030BA3B39081E
:100D00003A04031D842E852E872E0630882E03304C
:100D100008002000C4013730DA000B30DB008C31D2
:100D20002A24863138302000DA000B30DB008C3189
:100D300033248631FF302000DA000730DB008C31AD
:100D40003C248631CB302000DA000B30DB008C31C4
:100D5000572486318D315C2586318F314E2786317F
:100D60008731EB2786318B170B178B316823863140
:100D7000210054088D31A225863170302000DA0020
:100D80002330DB008C31A924863180302000DA004A
:100D90002330DB008D311D2586318031882086315E
:100DA00090302000E6002330E70083318423863131
:100DB0006400CD2E80315E2822008C018D018E01D1
:100DC000333021008C00F0308D00FF308E009130E8
:100DD00023008E008D0137308C0024008D018C01A2
:100DE0008E0125008C018D018E01373026008C008C
:100DF000F0308D00FF308E003F3027008C00F03047
:100E00008D00FF308E0099109911191398109811C8
:100E10001813971497151717210010160F303C0060
:100E20009E000C30A00019303D009E001B309F003A
:100E30001A309D0018309C000E303C00A1000D308F
:100E40009D0008002000DC00DD01DD0A21003D19C5
:100E50002A2F2B2F652F20005C082100B600BD1023
:100E60003D153D100E30BB00F430B4000130B5002C
:100E7000BD153930A0000B30A100AC013930A20003
:100E80000B30A300AD013930A4000B30A500AE013A
:100E90003930A6000B30A700AF010230A8000030A7
:100EA000A900B00177302000DA000B30DB008B3175
:100EB000D12387318B31592387318C319C24873161
:100EC0008B315C2387312000DD0120005D080800A4
:100ED000210037088600380887008B314D23873181
:100EE000810001302100B7070030B83D0130B90260
:100EF0000030BA3B39083A0403197F2F802F852F21
:100F00008B31732387310530AB2FBD158F2F8B317C
:100F1000B1238731AB2F8B31AC238731AB2F2C081A
:100F2000F70021088A0020080A008731F000F1014B
:100F30007108003A03199D2F8B2F7008013A03198D
:100F40008B2F033A0319872F013A0319872F073A8A
:100F500003198B2F8B2F08008B313B238731FC002B
:100F6000200046080319B52FB62FBA2F7C08FB00C6
:100F7000C601EA2F80307B020318BF2FC02FCD2F70
:100F800020307B02031CC52FC62FE62F7C08F00003
:100F90007B088D31F5258731E62FA0307B02031CBD
:100FA000D22FD32FE62F7B08F300F401F030F500A9
:100FB0002230F60073087507F7007408763DF800D4
:100FC00077088600780887007C0881000130F300EC
:100FD0007308FB0708002000DB015B08703E8600F9
:100FE00087012330873D81010130DA005A08DB0791
:100FF00080305B02031CFD2FFE2FED2F0800080040
:10166E0008000800013008002400110808002000BE
:10167E009111080024001516080024009E1408007D
:10168E0024001E15080024009E15080024001908C9
:10169E000800200092150800200092110800240076
:1016AE001E14080020009211080021009215080057
:1016BE0024009D12080021009211080021009115AE
:1016CE0008002000971708002400140801390800AC
:1016DE0024009E161E16080024009E121E160800D8
:1016EE008E31CE268B3108000E3021009700080077
:1016FE002400140C890C01390800F0007008240035
:10170E0091000800F00070082400990008002100E4
:10171E00BD10BC010E3008008B3144238B310130DB
:10172E0008008B3144238B31023008008B31442367
:10173E008B31013008008B3147238B31003008008C
:10174E008B3173238B31053008008B316F238B3136
:10175E000A3008008B316F238B31093008002100CD
:10176E00BD10BC010E30080000308D31D7258B31F5
:10177E00080001308D31D7258B31080024001E0E54
:10178E00890C890C013908000130F0007008200026
:10179E00C407080020005B08A5005A08A400080032
:1017AE0020005B08B1005A08B00008002000DA00E3
:1017BE005A3524009300080003102400941E0314CD
:1017CE000030093D080003102400141C03140030DF
:1017DE00093D080021003D108B314A238B31043026
:1017EE0008002000DA005A08FE3924009200080092
:1017FE008B313B238B312000C7000130C60008001F
:10180E003200910192019301940195019601080015
:10181E002000BC01BC0A0130F8007808BB0701307B
:10182E0008002000B301B30A0130F8007808B207AF
:10183E000130080021003D140314360D8B3189232D
:10184E008C310530080020005B082100D3002000F9
:10185E005A082100D200080020005B082100D100A8
:10186E0020005A082100D000080020005B0821004B
:10187E00CF0020005A082100CE00080024009C0151
:10188E0008309D009E0109309A009D1208006030BC
:10189E00320099009B019D0103309F009E010800BC
:1018AE0020005B082100CD0020005A082100CC004A
:1018BE0008007508F1007408F0007608F200003098
:1018CE008E3138268C31080020005F08DB005E0860
:1018DE00DA006008DC0002308E315C268C310800A4
:1018EE0020005F08DB005E08DA006008DC000030D4
:1018FE008E315C268C31080064008001013101308C
:10190E00FE020030FF3B7F087E04031D842C003452
:10191E00F000703031009200700891001517151408
:10192E000000000031001308080024009D1AA02CAE
:10193E00A12CA82C9C0108309D009E0109309A0014
:10194E009D16080027302000B9005B08A1005A0838
:10195E00A000B801B701B501B301B20108004930CA
:10196E00200098006130960095019012210090168B
:10197E0080302000970008002100BD1DC72CC82C08
:10198E00D12C7108B8007008B7007308BA0072083D
:10199E00B900BD11080021003D1436358B31892365
:1019AE008C312100BD19DC2CDD2CDF2C0330E02C1A
:1019BE000A3008002100520853040319E72CE82CC2
:1019CE00ED2C53088A0052080A008C31270099101A
:1019DE0008002100500851040319F62CF72CFC2C9A
:1019EE0051088A0050080A008C312700991108000E
:1019FE0021004E084F040319052D062D0B2D4F08FF
:101A0E008A004E080A008D312700191308002000A5
:101A1E00901221004C084D040319162D172D1C2D64
:101A2E004D088A004C080A008D31080020005B0822
:101A3E00A3005A08A200C201C101C001BF01BD012D
:101A4E00BD0A4130C300BC0108002400951A302D98
:101A5E00312D3B2D940106302000DA005A08240067
:101A6E0095048130960095160800240094010630E6
:101A7E002000DA005A082400950481309600951251
:101A8E0001302000C600FB0108002000DA00703093
:101A9E003100920020005A083100910015171514DC
:101AAE00000000003100130808008C3107248D312E
:101ABE008D313C258D318C3145248D318631DC269E
:101ACE008D318C314E248D318B317B238D318C3188
:101ADE00B6248D3108002100BD1D762D772D882D61
:101AEE0020005B082100B80020005A082100B70032
:101AFE0020005D082100BA0020005C082100B9001A
:101B0E00BD1108002700991C8D2D8E2D912D8C3125
:101B1E00E1248D312700991D952D962D992D8C310F
:101B2E00F0248D312700191F9D2D9E2DA12D8C3156
:101B3E00FF248D3108002000DC008D312C258D31E5
:101B4E0020005C088B31F8238D317F308B31DD2303
:101B5E008D3162302000DA000530DB008B31D72367
:101B6E008D318B3165238D3108002000DA01DA0AC0
:101B7E002100BD18C32DC42DD42D3D11FF30B6004C
:101B8E008B3159238D318B3162238D318B315F2314
:101B9E008D3121003C082000DA0020005A08080090
:101BAE002000DA00DB01DB0A2100BD18DF2DE02D5D
:101BBE00F22DBD142000DB015A080319E72DE82D84
:101BCE00EC2D2100BB01BB0AEF2D02302100BB0022
:101BDE008B3156238D3120005B080800F100003058
:101BEE008B1B0130F20070303100920071089100B1
:101BFE0070089300151715158B1355309600AA30E3
:101C0E009600951495180C2E0D2E092E1511720C8A
:101C1E00031C8B1303188B17080080307B020318EC
:101C2E00192E1A2E222E7B088C318F248E318B3159
:101C3E0084238E31332E7B08F100F201F030F30055
:101C4E002230F4007108730786007208743D870015
:101C5E0001088B3184238E310130F1007108FB07AE
:101C6E000800F3007008710403193E2E3F2E4E2E0D
:101C7E007335A03E860087017008C03F7108C13FD2
:101C8E007308AC3E86008701720881005B2E7335A7
:101C9E00A03E860087013930C03F0B30C13F73082C
:101CAE00AC3E86008701810108002000DD005A0845
:101CBE005B040319632E642E732E5D35A03E8600E1
:101CCE0087015A08C03F5B08C13F5D08AC3E8600E5
:101CDE0087015C088100802E5D35A03E860087015D
:101CEE003930C03F0B30C13F5D08AC3E86008701E6
:101CFE00810108002000DB0000308B1B0130DC006E
:101D0E0070303100920020005B08310091002000FD
:101D1E005A0831009300151715158B135530960080
:101D2E00AA309600951495189D2E9E2E9A2E15115A
:101D3E0020005C0C031C8B1303188B17080021006A
:101D4E003D100230BC00B32E8B319D238E31CD2E33
:101D5E008B31A2238E31CD2E2E08F7000430A03EFB
:101D6E0086008701413F8A00403F0A008E31F00015
:101D7E00F1017108003A0319C52EAF2E7008023A10
:101D8E000319AB2E013A0319AB2EAF2E08008B317F
:101D9E0053238E3121003D1CD52ED62EE12E8B31B4
:101DAE00C5238E31003A0319DD2EDE2EE12E0F30C3
:101DBE002100BB0021003B08F300F401F335F40DC4
:101DCE000030730784001030743D80388500013F69
:101DDE008A00003F0A008E312100BB000800770800
:101DEE000319FA2EFB2E1F2F770A86008701010892
:101DFE00F000F1017708023E86008701403FF200B5
:101E0E00413FF3008C31C3248E310030F400F500D5
:101E1E00F6018C3160248E31770886008701010827
:101E2E0003191A2F1B2F1D2F0430202F0230202FA5
:101E3E00013008002100BD15312F8B319D238F31CC
:101E4E004D2F8B3150238F3103304D2F8B31A223E9
:101E5E008F314D2F2C08F70021088A0020080A0028
:101E6E008F31F000F1017108003A03193F2F2D2F29
:101E7E007008013A03192D2F033A0319242F013A42
:101E8E000319242F073A0319282F2D2F080000308D
:101E9E008D314C258F312100D400540A031D582F4B
:101EAE00592F842F1030D40010302000DA0000306B
:101EBE008E3181268F31AA302000DA0001308E312A
:101ECE0081268F312000DA0102308E3181268F314A
:101EDE0030302000DA0003308E3181268F313130E0
:101EEE002000DA0004308E3181268F313030200010
:101EFE00DA0005308E3181268F3108002000E50092
:101F0E004308873122278F31003A031D8F2F902FE0
:101F1E00C02F20006208D2006408D4006308D300EA
:101F2E00D101F630DE000E30DF005130E0008C3192
:101F3E0077248F3120006508D9005930DA0000303F
:101F4E00DB000130DC000030DD008D3172258F3179
:101F5E002000BC010F30DE000C30DF000030E0004E
:101F6E00E1008C316B248F318B31BB238F310130EB
:101F7E00C12F003008002000E500430887312227DA
:101F8E008F31003A031DCC2FCD2FFE2F200062087B
:101F9E00D2006408D4006308D3000130D100F630BB
:101FAE00DE000E30DF005130E0008C3177248F31AF
:101FBE0020006508D9005930DA000030DB0001300E
:101FCE00DC000030DD008D3172258F312000BC0128
:101FDE000F30DE000C30DF000030E000E1008C310D
:101FEE006B248F318B31BB238F310130FF2F0030AB
:101FFE0008008E340B3421340C34D2340C34333488
:10200E00063468340734F1340B3421340F349334EE
:10201E000B3498340B349D340B34A2340B34A73468
:10202E000B34AC340B34B1340B34B6340B34A6341D
:10203E000E341B34003400341A3400340034193496
:10204E00003400341834003400341C3400340034AE
:10205E00803400340034A034003400345B345A34FD
:06206E00593458345C34C3
:020000040001F9
:08000E00EC3FFF3FFF3FFF3F05
:00000001FF
