:10000000803164289D1408007E1480312100901EE8
:1000100010282000901E10289E31F826803162287A
:100020002100101E1A282000101E1A2893319E232A
:10003000803162280B1F62282100111D2928200011
:10004000111D2928210033088A0032080A00803156
:100050006228210091192000911922282100121DE7
:100060003B282000121D3B2821002F088A002E0863
:100070000A00803162282100921920009219342848
:100080002100111E4D282000111E4D2822005F085E
:100090008A005E080A00803162282100911E5A28D9
:1000A0002000911E5A2822005D088A005C080A0080
:1000B000803162282100911C62282000911C622856
:1000C0009D3169257E1009008031662870308400DA
:1000D000233085008030FE000030FF009F311C2758
:1000E00080314E308400003085001630FE00003034
:1000F000FF009F311C278031A03084000030850034
:100100004E30FE000030FF009F311C278031203030
:100110008400013085003230FE000030FF009F3146
:100120001C278031A0308400013085002830FE007B
:100130000030FF009F311C277E1020008C31742C72
:10014000C201EC2C1330B90004303502031CAD2879
:1001500002302000D0001730842B2000D001D00ABC
:10016000912D10302000BC00D730BD0039309531C2
:1001700070258031003A0319C2282100B801B80A5D
:100180000230D42C2100B901B90A912D92310522F7
:100190008031013A0319912D2100B8019131EC21F0
:1001A0008031003A031DDC2801302000C1004108E5
:1001B0002100B507B901912D2100B5010F30B9001B
:1001C000D71FEA287F302000C10041082100D70551
:1001D0000330B9005B0A0319F128FF30DB0003305C
:1001E000B9005C0A0319F828FF30DC000330B900BD
:1001F0005D0A0319FF28FF30DD000330B9005E0AF5
:1002000003190629FF30DE000330B9005F08031927
:100210000C29DF010330B900600803191229E0013D
:100220000330B900631D912DFB302000C10041084F
:100230002100E3050330D42C10302000BC00D7305F
:10024000BD0039309531AC258031003A0319912D2C
:100250002100B801B80A0430D42C92310522803133
:10026000013A0319912D2100B8019131EC2180311F
:10027000003A0319D4282100B5010930842BD73066
:100280002000BC0006309431FD248031003A03196F
:100290004E292100B801B80A0630D42C0530842B31
:1002A000923105228031013A0319912D2100B801C4
:1002B0009131EC218031003A0319D4282100B50195
:1002C000B901B90AD7184E29912D10302000BC0071
:1002D000D730BD003830953170258031003A031990
:1002E00076292100B801B80A0C30D42C0B30842BAD
:1002F000923105228031013A0319912D2100B80174
:100300009131EC218031003A0319D4282100B50144
:10031000B901B90A660A03199129FF30E6000D30C8
:10032000D42C02302000DA00912D10302000BC00C7
:10033000D730BD0038309531AC258031003A0319F3
:10034000912D2100B801B80A0E30D42C923105222B
:100350008031013A0319912D2100B8019131EC212E
:100360008031003A0319D4282100B5010530B900C5
:100370009129D7302000BC0006309431FD24803113
:10038000003A03193D292100B801B80A0A30D42CDB
:10039000923105228031013A0319912D2100B801D3
:1003A0009131EC218031003A0319D4282100B501A4
:1003B0000F30B900D7183D29912D10302000BC0016
:1003C000D730BD003A30953170258031003A03199D
:1003D000EE292100B801B80A1030D42C0F30842B3C
:1003E000923105228031013A0319912D2100B80183
:1003F0009131EC218031003A0319D4282100B50154
:100400001930B90057030319912D0130D70011306D
:10041000D42C10302000BC00D730BD003A309531CC
:10042000AC258031003A0319912D2100B801B80A9A
:100430001230D42C923105228031013A0319912DCA
:100440002100B8019131EC218031003A0319D42800
:100450002100B5010730842B3C302000BC0028303F
:10046000BD0000309431CB248031003A0319912D26
:100470002100B801B80A1430D42C92310522803101
:10048000013A0319912D2100B8019131EC218031FD
:10049000003A0319D4282100B5011730B900A00192
:1004A000A101912D3C302000BC002830BD0000305F
:1004B0009431CB248031003A0319912D2100B801E9
:1004C000B80A1630D42C3D2A20005B080319702A84
:1004D0000F302100B9002000C201C20A0330712A86
:1004E0000230D0005A03031D912D0330500603192A
:1004F0007629912DD7302000BC0006309431FD24A0
:100500008031003A03192A2A2100B801B80A0830BC
:10051000D42C923105228031013A0319912D21000A
:10052000B8019131EC218031003A0319D42821001F
:10053000B5011930B900D7182A2A912D2000BC0125
:10054000BC0ABD01BD0A00309431CB248031003A91
:100550000319912D2100B801B80A1A30D42C923118
:1005600005228031013A0319912D2100B801913102
:10057000EC218031003A0319D4282100B5011B3049
:10058000D42C40302000BC004030BD0000309431FD
:10059000CB248031003A0319912D2100B801B80A0B
:1005A0001C30D42C923105228031013A0319912D4F
:1005B0002100B8019131EC218031003A0319D4288F
:1005C0002100B5011D30D42C3C302000BC003C3053
:1005D000BD0000309431CB248031003A0319912DB5
:1005E0002100B801B80A1E30D42C92310522803186
:1005F000013A0319912D2100B8019131EC2180318C
:10060000003A0319D4282100B5011F304E2A2000DA
:100610005B03031D0D2B2130742C01302100A0073A
:100620000030A13D01302102903003192002031C4B
:10063000912DA001A101D7302000BC0006309431DB
:10064000FD248031003A0319912D2100B801B80A28
:100650002030D42C923105228031013A0319912D9A
:100660002100B8019131EC218031003A0319D428DE
:100670002100B501571E412B2130B9000430200064
:10068000D0002100571C462B1F30D42C1330D42C03
:1006900010302000BC00D730BD00F83095317025F7
:1006A0008031003A0319592B2100B801B80A2230D1
:1006B000D42C2130842B923105228031013A031948
:1006C000912D2100B8019131EC218031003A0319BC
:1006D000D4282100B5012330B900D7309531E82561
:1006E0008031912D10302000BC00D730BD00FB3090
:1006F000953170258031003A0319832B2100B80110
:10070000B80A2430D42C23302100D42C9231052275
:100710008031013A0319912D2100B8019131EC216A
:100720008031003A0319D4282100B5012630D42C99
:1007300040302000BC00BD0100309431CB2480311A
:10074000003A0319912D2100B801B80A2730D42CA2
:10075000923105228031013A0319912D2100B8010F
:100760009131EC218031003A0319D4282100B501E0
:100770002A30D42C2000BC01BC0ABD0100309431C9
:10078000CB248031003A0319912D2100B801B80A19
:100790002B30D42C923105228031013A0319912D4E
:1007A0002100B8019131EC218031003A0319D4289D
:1007B0002100B5012830D42C40302000BC0040304E
:1007C000BD0000309431CB248031003A0319912DC3
:1007D0002100B801B80A2930D42C92310522803189
:1007E000013A0319912D2100B8019131EC2180319A
:1007F000003A0319D4282100B5012530D42C2C301F
:10080000B900D730873198278031912D10302000E2
:10081000BC00D730BD00F8309531AC258031003AAE
:100820000319912D2100B801B80A2D30D42C923132
:1008300005228031013A0319912D2100B80191312F
:10084000EC218031003A0319D4282100B5012E3063
:10085000D42C10302000BC00D730BD00FB309531C7
:10086000AC258031003A0319912D2100B801B80A56
:100870002F30D42C923105228031013A0319912D69
:100880002100B8019131EC218031003A0319D428BC
:100890002100B5013030D42C3C302000BC003C306D
:1008A000BD0000309431CB248031003A0319912DE2
:1008B0002100B801B80A3130D42C923105228031A0
:1008C000013A0319912D2100B8019131EC218031B9
:1008D000003A0319D4282100B50132304E2A2000F5
:1008E0005B03031D7A2C34302100B9000430200052
:1008F000D000912D01302100A0070030A13D013032
:100900002102903003192002031C912DA001A101A6
:10091000D7302000BC0006309431FD248031003AED
:100920000319912D2100B801B80A3330D42C92312B
:1009300005228031013A0319912D2100B80191312E
:10094000EC218031003A0319D4282100B501571E4B
:10095000AE2C3430B90004302000D0002100571CE8
:10096000462B3230D42C40302000BC00BD0100307A
:100970009431CB248031003A0319912D2100B80124
:10098000B80A3530D42C923105228031013A03194E
:10099000912D2100B8019131EC218031003A0319E9
:1009A000D4282100B5011930B900912D20005B0831
:1009B0000319E22C19302100B9002000C201C20A3B
:1009C0000330E32C0230D0005A03031D912D023076
:1009D0005006031DC228912D21003908003A031941
:1009E000A228013A0319B128033A0319C628013A8B
:1009F00003191C29073A03192D29013A03193F2924
:100A0000033A03195029013A03197A2A0F3A0319B4
:100A1000892A013A0319B929033A0319C829013A65
:100A200003196529073A03197829013A0319952909
:100A3000033A0319A629013A0319DD291F3A0319BC
:100A4000F029013A0319092A033A03191A2A013A2B
:100A500003192C2A073A03193D2A013A0319522A8D
:100A6000033A0319632A013A0319642A0E3A031957
:100A70009E2A033A0319AF2A013A0319C12A073AF9
:100A80000319D22A013A0319E42A033A0319F52A71
:100A9000013A0319072B3F3A03192A2B013A03198C
:100AA000482B033A03195B2B013A0319722B073ABF
:100AB0000319862B013A0319FF2B033A0319982BCC
:100AC000013A0319A82B0F3A0319DC2B013A031939
:100AD000ED2B033A0319BA2B013A0319CA2B073A33
:100AE0000319062C013A0319172C033A0319292C70
:100AF000013A03193A2C1F3A03194C2C013A0319F5
:100B00005D2C033A03196F2C013A0319972C073A0D
:100B10000319B32C013A0319C32C033A0319D62C39
:100B2000912D200042080800C600A22DC701B02D5B
:100B3000C701C70AB02D0230A02D21003F082000B8
:100B4000C700B02D4608003A03199D2D013A03193C
:100B5000962D033A0319982D013A03199B2D9D2DCB
:100B600021003E0803199D2E9D31A5258531003AAF
:100B70000319812E9E315E2685312C08CD002B086D
:100B8000CC006A2E4D082100A50020004C08210051
:100B9000A40020004C08AB004D08AC00AD01AE0134
:100BA0000030B2000030B1001130B0003F30AF0073
:100BB00094313C2485312E08CB002D08CA002C0826
:100BC000C9002B08C8000A30CB36CA0CC90CC80CA7
:100BD000890BE42D4B08BC004A08BB004908BA0049
:100BE0004808B9007830BD002330BE00883172203B
:100BF0008531752E4D082100A30020004C082100EE
:100C0000A20020004C08AB004D08AC00AD01AE01C5
:100C10000030B2000030B1000730B0008C30AF00BF
:100C200094313C2485312E08CB002D08CA002C08B5
:100C3000C9002B08C8000A30CB36CA0CC90CC80C36
:100C4000890B1C2E4B08BC004A08BB004908BA009F
:100C50004808B9007430BD002330BE0088317220CE
:100C60008531752E4D082200CD0020004C08220051
:100C7000CC0020004C08AB004D08AC00AD01AE012B
:100C80000030B2000030B1000130B0000A30AF00D7
:100C900094313C2485312E08CB002D08CA002C0845
:100CA000C9002B08C8000A30CB36CA0CC90CC80CC6
:100CB000890B542E4B08BC004A08BB004908BA00F7
:100CC0004808B9007C30BD002330BE008831722056
:100CD0008531752E4708003A0319C22D013A0319D0
:100CE000FA2D033A0319322E752E4608031D7D2E68
:100CF0000130C50045082100BF072100BE010130B9
:100D000008000030080017309F319D278531A92E3B
:100D100016309F319D278531A92E04309F319D27A4
:100D20008531A92E17309F319D2785312000460837
:100D3000031DA92E2100BF01A92E20004708003A5B
:100D40000319832E013A0319882E033A03198D2EB5
:100D5000922E2100BE01BE0A803102208531812EF3
:100D6000933086002330870077300106031DD52E8F
:100D700020005A08031DC42E0130DA007730AB0082
:100D80008030923121228631023020005A06031D24
:100D9000E12E93308600233087008101DA01AB0118
:100DA0008030923121228631E12E9330860023302B
:100DB000870001080319E12E933086002330870055
:100DC000810190308600233087000108031DED2E3D
:100DD00020008C1AED2E22008C16903086002330D5
:100DE000870077300106031DFA2E20008C1EFA2E94
:100DF00022008C12200052080319402F94319B24AA
:100E000086312000C400262F6208AB0002309231E8
:100E1000212286312000D201210040080319122F1F
:100E2000C001402F0E30232FFF30E2006208AB00DC
:100E300002309231212286312000D2012100400867
:100E4000031D102F06302000D900402F4408003A1F
:100E50000319142F013A0319402F033A0319042FE1
:100E6000013A0319142F073A0319142F013A0319F1
:100E7000142F033A0319142F013A0319142F402F8A
:100E80002100480803195E2F20005808BF00C00148
:100E90004008C2002100460820003F02C100031C98
:100EA000C2034208803AC30080304302031D5A2F18
:100EB00005304102031C5E2F2100C80121004A08B1
:100EC00003190800200058082100C600C801C80AFC
:100ED000200056080319802F5208031D0800210026
:100EE000CA0162302000BC00FF309631E5262000A8
:100EF000D201D20A2100C00110302000D900080020
:100F000052080319862F2100C001C00A0C302000AE
:100F100059060319932F0E3059060319932F1030D9
:100F20005906031D08000F30D9002100CA0108002E
:100F30002000AC005503031DA32F2C08073E86009C
:100F400087014430BA2FB1305502031CAB2FC43097
:100F50005502031CB52F023055060319B52F2C0876
:100F6000073E860087014330BA2F2C08073E8600D3
:100F7000870141308100023055060319CA2F2C0821
:100F8000053E8600870181012C08063E8600870108
:100F90008101D62F2C08053E860087015308810069
:100FA0002C08063E86008701540881009D312A25C1
:100FB000873120002C08073E8600870101089F31F9
:100FC000AC27873120002C08063E860087010108E7
:100FD0009F31AC27873120002C08043E8600870112
:100FE0002C08053E8400850100089F31AC27810054
:100FF00008002000AB002B08FE3924009A000800EE
:10100000AC00AD01AD0A2200C3182128C314200092
:10101000AD0100309D316D2588319C31F52488313A
:101020002C0803191928413086000130870001304F
:101030001E284130860001308700023081009D313A
:10104000242520002D0808009D311225883120001C
:10105000DD0021004E080319332820005D08DC0064
:101060002100CE010800803020005C0203185528C2
:1010700020305C02031C6C28310095183C281517A1
:1010800015157030920020005C0831009100940129
:1010900020005D08310093008B1355309600AA3074
:1010A0009600951415118B176C28A0305C02031C58
:1010B0006C285C08F000F101F030F2002230F300FF
:1010C00070087207F4007108733DF500740886001B
:1010D000750887005D0881000130F000700820006D
:1010E000DC0708000330C4000030AE000030AD0063
:1010F0000030AC000A30AB003C08B2003B08B10045
:101100003A08B0003908AF009631A32688312B0881
:10111000303EBF004408C000C101C01BC1034008ED
:101120003D07C20041083E3DC30042088600430817
:1011300087003F08810044080319B9280030AE0039
:101140000030AD000030AC000A30AB003C08B2000B
:101150003B08B1003A08B0003908AF008831C02020
:1011600088312E08BC002D08BB002C08BA002B08C3
:10117000B900FF30BF003F08C407C41B0800742833
:101180000030B7000030B6000030B5000030B400C9
:101190002E082D042C042B0403190929B801B80AC0
:1011A000AE1BDE280130AB35AC0DAD0DAE0D890B9D
:1011B000D3280130B3003308B807D0280130B43544
:1011C000B50DB60DB70D890BDF282E083202031DB1
:1011D000F3282D083102031DF3282C083002031DCB
:1011E000F3282B082F02031CFE282B08AF022C0823
:1011F000B03B2D08B13B2E08B23B34140130AE3663
:10120000AD0CAC0CAB0C890BFF280130B802031DF0
:10121000DE283708AE003608AD003508AC003408CB
:10122000AB000800AF012F08703EAD00AE012330C7
:10123000AE3D2D0886002E088700FF30810001306A
:10124000AD002D08AF0780302F02031C132970302A
:101250008600233087005530C03F90308600233011
:10126000870081018830860023308700303081007C
:101270008930860023308700323081008A30860032
:101280002330870032308100E101E0012100D601E6
:1012900080309F31902789312000AD009330860047
:1012A000233087002D08810093308600233087008B
:1012B000010A031D08009330860023308700810156
:1012C000AB0180309231212208009D318725893180
:1012D000003A031D752991299D31452508009D314E
:1012E000492508009D315125080022003308FC00E3
:1012F0003208FB0020308600013087004631413F34
:101300008A00403F0A008931013A03197229033AE1
:1013100003196C29013A03196F29073A0319722935
:101320007229220043103E082000A50022003D083B
:101330002000A4002200BD0A0319BE0A20002408D0
:1013400086002508870001089D317D2589310130FF
:101350002200BF020030C03B3F084004031DB229F9
:101360000630B32903302000A6000030A70026086D
:101370000800FA00700871040319E5297A08F400DE
:10138000F501F435F50D2030F6000130F700740852
:10139000760786007508773D87007008C03F7108A2
:1013A000C13F7A08F400F501F435F50D2C30F60054
:1013B0000130F7007408760786007508773D8700CE
:1013C0007208C03F7308C13F0800F130F4001C30C0
:1013D000F5007A08F600F701F635F70D2030F80031
:1013E0000130F9007608780786007708793D870094
:1013F0007408C03F7508C13F7A08F400F501F43560
:10140000F50D2C30F6000130F700740876078600E1
:101410007508773D87000030C03FC13F0800B50028
:101420002B082C0403193B2A3508AF00B001AF3557
:10143000B00D2030B1000130B2002F083107860016
:101440003008323D87002B08C03F2C08C13F3508CB
:10145000AF00B001AF35B00D2C30B1000130B2009B
:101460002F08310786003008323D87002D08C03F25
:101470002E08C13F0800F130AF001C30B000350825
:10148000B100B201B135B20D2030B3000130B4006B
:101490003108330786003208343D87002F08C03FEB
:1014A0003008C13F3508AF00B001AF35B00D2C306A
:1014B000B1000130B2002F08310786003008323DFC
:1014C00087000030C03FC13F08009D3115258A319B
:1014D0009D31C0258A31003A0319782A9D31612552
:1014E0008A31003A0319762A0130812A0230812A92
:1014F0009D3161258A31003A0319802A0330812AFF
:1015000004302100CD00AB2A00309E31EC268A3118
:101510009D31C7258A31003A0319B92A8B316D23D1
:101520008A31B92A01309E31EC268A31B92A9D319F
:10153000C7258A31003A0319B92A9D3193258A318A
:101540008B2A9D3165258A31003A0319B92A8831E1
:1015500024208A31B92A4D08013A0319842A033A12
:101560000319922A013A0319972A073A0319A12A63
:10157000B92A9D31182508002000AD00AE01AE0A41
:1015800022004319102B3C308600013087002000D8
:101590002D0881002200C3104315431041308600FE
:1015A000013087000E3081000130BB00F430BA00FA
:1015B000C315F130A0001C30A100AC01AD011C30FE
:1015C000A300F130A200AE01AF011C30A500F13044
:1015D000A400B001B1011C30A700F130A600B20197
:1015E000B3011C30A900F330A800B401B5010F30DD
:1015F0002000AB001D30AC009D31D6258A319D31D5
:101600001B258A319E31A8268A319D3127258A31B2
:101610002000AE016B30AB001430AC009D31DE25F4
:1016200020002E0808009D310C258B312200431C20
:10163000252B9D3187258B31003A0319252B41300D
:101640008600013087000F30810022004318512BA3
:101650009D3187258B31003A0319512B2200410817
:101660002000A800A901A835A90D00302807840092
:101670001830293D80388500013F8A00003F0A006C
:101680008B312000AA0041308600013087002A08F3
:1016900081000A3022004106031D08009D31AB2560
:1016A0000800220041082000A800A901A835A90DC2
:1016B0000030280784001830293D80388500013F1C
:1016C0008A00003F0A008B312000AA0041308600CA
:1016D000013087002A0881000800803020005C0269
:1016E0000318802B310015177030920020005C0821
:1016F00031009100151413089D3182258B31BE2BCA
:1017000090305C06031DC42B61080319C42B013003
:10171000E102031DC42B7030860023308700503156
:1017200001089D3182258B318030B92B6008031967
:10173000C82B0130E002031DC82B70308600233017
:101740008700513101089D3182258B318130B92BC1
:10175000210056080319CC2B0130D602031DCC2BD7
:101760007030860023308700523101089D31822578
:101770008230860023308700FF3081000130F10085
:1017800071082000DC07080091305C060319962BD5
:1017900092305C060319A82B20005C08F100F201CE
:1017A000F030F3002230F4007108730786007208ED
:1017B000743D870001089D3182258B31BE2B2200AC
:1017C0008C018D018E01173021008C00F0308D00CE
:1017D000FB308E00C03023008E008D0110308C0055
:1017E000503024008D0004308C001B308E0025000A
:1017F0008C018D018E01373026008C00A0308D00C9
:10180000FF308E003F3027008C00F0308D00FF301D
:101810008E00131112151115961296139516951721
:1018200094169417191099109911191218149814E4
:10183000981518161714971497151716E8302000E6
:10184000AB001C30AC009E3116268B31E9302000F5
:10185000AB001C30AC009E311E268B31EA302000DC
:10186000AB001C30AC009E3126268B31EB302000C3
:10187000AB001C30AC009E312E268B31EC302000AA
:10188000AB001C30AC009E3136268B31ED30200091
:10189000AB001C30AC009E313E268B31EE30200078
:1018A000AB001C30AC009E314626210010161530CE
:1018B0003C00A40014303D00A3001A3091000E300B
:1018C0003C00A0001B303D0090000C303C00A1000B
:1018D00018303D009E0001303C009D0019303D0055
:1018E0009C003C009E0108002300CF01D101D201E1
:1018F0002000D501933111238C3199302000AB00A9
:101900001D30AC009E3156268C319D3136258C31F0
:1019100000300C1901302100C900003020000E18E1
:1019200001302100C500003020008E180130D600A3
:10193000560803199E2C2100CA01A12C0130210058
:10194000CA0059302000AB001230AC009E31162680
:101950008C31BD302000AB001130AC009E312E2602
:101960008C3166302000AB001E30AC009E31362634
:101970008C31BC302000AB001F30AC009E311E26E5
:101980008C31CD302000AB001F30AC009E312626BC
:101990008C316F302000AB001E30AC009E314626EB
:1019A0008C31DE302000AB001F30AC009E313E2673
:1019B0008C3121000E1424000E1422000C1521007D
:1019C0000C1522000E158C168B170B1796316426FA
:1019D0008C31893112218C3155309F31EF278C3178
:1019E00036309E3178268C3192313D228C318631D1
:1019F000B0268C31200057030319DB2F2300520837
:101A00000319272E200058082300C8005008C802D8
:101A100052084802031C5D2ED2015D2E023057068B
:101A20000319BD2D0A302300D200200058082300DE
:101A3000D0002000D901D90A5D2E0330D90023003F
:101A4000CE015D2E003097312A278C31003A0319E0
:101A50005D2E0230D32DBC01BC0A7330BD00233093
:101A6000BE0000309731B4278C312300D3005308D7
:101A7000031D3C2D0430D32D5308013A03195D2E6C
:101A8000033A03195D2E5D2E94319B248C31230083
:101A9000D30002305306031D4F2D0530D32D5303C1
:101AA00003195D2E0130C8004808CE070A304E02E7
:101AB000031C292D05302000D90073308600233007
:101AC0008700FF3081005D2E013097312A278C314D
:101AD000003A03195D2ED02D9231F2228C3107305D
:101AE000D42D0130853194258C31003A03195D2EB7
:101AF0000830D32D2100C701C70A0C1122000C1198
:101B00000E1102302300D200200058082300D0001C
:101B10000930D32D0230853194258C31003A0319D8
:101B20005D2E22000E150C1521000C15C7010A3080
:101B300020001E2D0B30D42D9D312D258C312300FE
:101B4000C80002304802031C5D2E0C30D32D7330C8
:101B500086002330870001308100D62D033021001C
:101B600025024430031924020318BF2D023023003C
:101B7000D200200058082300D0000E30D32D14309E
:101B8000CA2D0030210023026A30031922020318F3
:101B9000B62DFF302300D200200058082300D000CB
:101BA0000630D32D0F302000D9005D2E7030860016
:101BB0002330870043310108013A0319AE2D033A5F
:101BC0000319C12DD22D230051080319F02D210036
:101BD000C701C70A0C1122000C112300CF01CF0A44
:101BE0009D312D258C31023A031D062E5808230005
:101BF000C8004D08C80228304802031C5D2E510859
:101C00000319D22D21000C15C701BD2D5808230042
:101C1000CD005D2E2300D101D10A4F080319162EE5
:101C2000CF0122000C1521000C15C70120000E1D4C
:101C30005D2E22000E115D2E2300D10120000E1911
:101C40005D2E232ED90122000E158C165D2E20004C
:101C50005908003A03190E2D013A03191D2D033AB4
:101C600003192B2D013A0319222D073A0319442D8C
:101C7000013A0319642D033A03196C2D013A031933
:101C8000712D0F3A03197A2D013A03198A2D033A5F
:101C900003199A2D013A03199C2D073A0319A72D10
:101CA000013A0319E32D033A03190A2E013A0319E5
:101CB0001C2E1F3A03195D2E222E0B3020005902D4
:101CC000031CDF2F91308600233087007730010618
:101CD0000319B12F8031A0208C3121004108031D50
:101CE000AB2EB12F04309F3190278C312000D400CF
:101CF00003309F3190278C312000D3000230D50073
:101D00002100C101C02E06309F3190278C31200068
:101D1000D4000530792E08309F3190278C31200077
:101D2000D4000730792E0A309F3190278C31200063
:101D3000D4000930792E0C309F3190278C3120004F
:101D4000D4000B30792E0E309F3190278C3120003B
:101D5000D4000D30792E20005508B93A0319722E9F
:101D6000063A0319832E7F3A03198B2E013A031981
:101D7000932E033A03199B2E013A0319A32EC02E6A
:101D80009D312D258C31023A03197E2FB12F540835
:101D9000AB000430923121228C3120005308AB007B
:101DA0000330923121228C31AD2F5408AB00063024
:101DB000923121228C3120005308AB000530923142
:101DC00021228C31AD2F5408AB00083092312122F2
:101DD0008C3120005308AB000730923121228C3126
:101DE000AD2F5408AB000A30923121228C312000F3
:101DF0005308AB000930923121228C31AD2F5408A9
:101E0000AB000C30923121228C3120005308AB0002
:101E10000B30923121228C31AD2F5408AB000E30A3
:101E2000923121228C3120005308AB000D309231C9
:101E300021228C31AD2F8030860023308700550859
:101E40008100813086002330870054088100823071
:101E500086002330870053088100E101E10AE00198
:101E6000E00A2100D601D60AC701C70A0C112200D8
:101E70000C112300CF01CF0A0E302000D900AD2F66
:101E8000803086002330870055088100813086002D
:101E90002330870054088100823086002330870079
:101EA000530881000230E1000230E00002302100DE
:101EB000D600732F803086002330870055088100BC
:101EC00081308600233087005408810082308600EC
:101ED0002330870053088100E101E10AE001E00AB4
:101EE0002100D601D60A0E1022000E10013021006A
:101EF000C400200058082100C300342F5508003AC0
:101F00000319AD2F013A0319AD2FB03A03191B2F56
:101F1000033A03191B2F013A0319402F073A0319FB
:101F20001B2F013A03195A2F033A03191B2F013AA9
:101F300003195A2F0F3A0319C72E023A0319D52E47
:101F4000013A0319E32E073A0319F12E013A031956
:101F5000FF2E033A03190D2FAD2F2000D5012100CC
:101F6000C101210044080319D12F20005808230083
:101F7000C800C9014908CB002100430823004802DA
:101F8000CA00031CCB034B08803ACC0080304C02C3
:101F9000031DCC2F14304A02031CD12F2100C40191
:101FA0000E140E3020005906031DDF2F003085313E
:101FB00094258C31DF2F0E1DDF2F22000E116400BF
:101FC000200057030319F72C913100218C31003A7E
:101FD000031DF72C9D312D258C31023A031DF72C62
:101FE0000F305906031DFC2F2100171032009813E3
:101FF000630021001714F72C320098176300F72CA8
:10200000003407340E3409341C341B3412341534B4
:1020100038343F3436343134243423342A342D34A4
:10202000703477347E3479346C346B346234653494
:1020300048344F3446344134543453345A345D3484
:10204000E034E734EE34E934FC34FB34F234F53474
:10205000D834DF34D634D134C434C334CA34CD3464
:10206000903497349E3499348C348B348234853454
:10207000A834AF34A634A134B434B334BA34BD3444
:10208000C734C034C934CE34DB34DC34D534D23434
:10209000FF34F834F134F634E334E434ED34EA3424
:1020A000B734B034B934BE34AB34AC34A534A23414
:1020B0008F34883481348634933494349D349A3404
:1020C0002734203429342E343B343C3435343234F4
:1020D0001F34183411341634033404340D340A34E4
:1020E0005734503459345E344B344C3445344234D4
:1020F0006F34683461346634733474347D347A34C4
:1021000089348E3487348034953492349B349C34B3
:10211000B134B634BF34B834AD34AA34A334A434A3
:10212000F934FE34F734F034E534E234EB34EC3493
:10213000C134C634CF34C834DD34DA34D334D43483
:1021400069346E3467346034753472347B347C3473
:10215000513456345F3458344D344A344334443463
:1021600019341E3417341034053402340B340C3453
:10217000213426342F3428343D343A343334343443
:102180004E34493440344734523455345C345B3433
:102190007634713478347F346A346D346434633423
:1021A0003E34393430343734223425342C342B3413
:1021B0000634013408340F341A341D341434133403
:1021C000AE34A934A034A734B234B534BC34BB34F3
:1021D0009634913498349F348A348D3484348334E3
:1021E000DE34D934D034D734C234C534CC34CB34D3
:1021F000E634E134E834EF34FA34FD34F434F334C3
:102200002200430C890C013908002000E301210061
:10221000EF01EF0A02302200EE00240094010830A2
:10222000950096014F30920095120800FF309E00F5
:102230009D01911021009114F0302000AB001C3062
:10224000AC009D31DE25233020009F0008004D307A
:1022500020009800303096009501901221009016D1
:10226000EF302000AB001C30AC009E315626803091
:102270002000970008002200C31D080020002C0841
:102280002200BE0020002B082200BD0020002E08E6
:102290002200C00020002D082200BF00C31108004A
:1022A0002100921120009211121124009D129C0114
:1022B00006309D0001309E0001302100CE0020003C
:1022C000DC0110302100EE0008007C08F1007B08E2
:1022D000F0000230F2000030F3009E31D42691313C
:1022E00000302000A000A1000030A200A3009E3119
:1022F000E026043008007C08F1007B08F000013083
:10230000F2000030F3009E31D426913100302000DD
:10231000A000A1000030A200A3009E31E026023000
:1023200008007C08F1007B08F0000230F200003069
:10233000F3009E31D426913100302000A000A1008E
:102340000030A200A3009E31E026023008007C0885
:10235000F1007B08F0000130F2000030F3009E3104
:10236000D426913100302000A000A1000030A2004E
:10237000A3009E31E02604300800003020000E1833
:1023800001302100C5000630200059060319CC2970
:102390000F305906031D080021004508031D0800E1
:1023A0000E302000D900080020005E08A03E860004
:1023B000013087002300190881000130F000700807
:1023C0002000DE0708305E020318DE010130F00055
:1023D00070082100D207080020004E08031DF229D2
:1023E00001300800CE1CF72902302100BA0020007D
:1023F0004E1DFD292100BA01BA0A20004E1C032AF5
:1024000003302100BA00003008002000AB01AB0A05
:102410002200C3181E2A43113C3086000130870079
:10242000FF3081009D311B2592319D312125923154
:102430009D311E25220042082000AB0020002B0801
:102440000800AC0031009518222A151715157030B8
:10245000920020002C0831009100940120002B08EC
:10246000310093008B1355309600AA3096009514D6
:102470009518382A15118B17080001302100CE005D
:102480002000DC0121006E088731F92792317F306E
:102490009D319F25923165302000AB000A30AC00A1
:1024A0009D31E62592319E31932692319D3133251F
:1024B0000800003020000C1901302100C900470835
:1024C000031D080006302000590603196B2A0F303F
:1024D0005906031D080021004908031D080048088B
:1024E000031D08000E302000D9000800083021002C
:1024F00054020318932A20005F08A83E860001308A
:102500008700010823009A000130F00070082000C5
:10251000DF0708305F020318DF010130F0007008A8
:102520002100D4070800111208007B0886007C08EF
:1025300087004231403FF000413FF1007B088600B8
:102540007C088700403FF200413FF3009E31D426D3
:10255000923100302000A000A1000030A200A300B2
:102560009E31E02602300800C22A2000D114D12A70
:1025700020005115D12A20005114D12A0330200007
:10258000D100D12A7B0886007C0887000108003A28
:102590000319B52A013A0319B82A033A0319BB2AC9
:1025A000BE2A01300800E12A2000CE14F02A2000C3
:1025B0004E15F02A20004E14F02A07302000CE00DD
:1025C000F02A7B0886007C0887000108003A03197E
:1025D000D42A013A0319D72A033A0319DA2ADD2A41
:1025E000013008008D1BF72AAB01AC01FB2A7730C4
:1025F000AB000030AC0071308600233087002B0820
:1026000081008D1A062BAD01AE010A2B7730AD008B
:102610000030AE0072308600233087002D08810024
:1026200008009E314E2693318B31DF239331913157
:10263000052193319131502193319E318A26933176
:102640009D31792593319D31752593319E318126B8
:102650009331913127219331913116219331973163
:102660006F2708007B0886007C0887004231403FC6
:10267000F000413FF1007B0886007C088700403F66
:10268000F200413FF3009E31D42693310030200008
:10269000A000A1000030A200A3009E31E0267B082C
:1026A00086007C0887004431010808007B0886000A
:1026B0007C0887004231403FF000413FF1007B0839
:1026C00086007C088700403FF200413FF3009E31C6
:1026D000D426933100302000A000A1000030A200D9
:1026E000A3009E31E0267B0886007C0887004431E9
:1026F000010808002200C315872B9D314D250800D5
:102700009D310925033008009D31512508002D0811
:10271000FC002C08FB0021088A0020080A009331E5
:10272000013A0319842B033A03197D2B013A03194B
:102730007D2B073A0319802B842B08002700131DDB
:10274000A42B9F3128279331961EA92B9F31352723
:102750009331961FAE2B9F3142279331191CB32B17
:102760009F314F279331991CB82B9F315C279331B0
:10277000991DBD2B9F3169279331191E08009F3188
:10278000762708002200431042308600013087007F
:1027900002308100D12B9D314D2508009D315125FE
:1027A00008003108FC003008FB00203086000130B2
:1027B00087004431413F8A00403F0A009331023A8A
:1027C0000319CB2B013A0319CB2BCE2B0800323047
:1027D000B6001330B7003B08B9003A08B8009F3183
:1027E00004279331B430B6001230B7006330B8001C
:1027F0009E31B3269331B430B6001230B700EF30BB
:10280000B8009E31BE269331B430B6001230B70006
:102810006E30B8009F31102708005630B6001330D4
:10282000B7003B08B9003A08B8009F31042794313B
:10283000D330B6001230B700EF30B8009E31B32667
:102840009431D330B6001230B700EF30B8009E316B
:10285000C9269431D330B6001230B7006330B800C7
:102860009E31BE269431D330B6001230B7006E30A0
:10287000B8009F31102708000030B6000030B500C6
:102880000030B4000030B3002B1C4E2C2F08B307CF
:102890003008B43D3108B53D3208B63D0130AF35A2
:1028A000B00DB10DB20D890B4F2C0130AE36AD0C11
:1028B000AC0CAB0C890B562C2E082D042C042B04CD
:1028C000031D442C3608AE003508AD003408AC00BA
:1028D0003308AB0008000030FB00FC00203086000D
:1028E000013087004831413F8A00403F0A0094315F
:1028F0000230840098308500013F8A00003F0A00C2
:1029000094312000A800413086000130870028085B
:1029100081000030840098308500013F8A00003F2C
:102920000A0094312000A800413086000130870061
:1029300028088100080021003B080319C82C9231A7
:1029400005229431013A0319C82C2100BB01200053
:1029500051080319C22C03305106031DB12C043059
:10296000C02CD11CB62C05302100BC002000511D0C
:10297000BC2C06302100BC002000511CC82C0730A4
:102980002100C72C21003C03031DC82C0230BC00D1
:1029900021003C080800BE004F088A31BC22943157
:1029A000003A0319D52C00300800CE01FE3021007A
:1029B000D70020003E082100D80020003C0821005C
:1029C000D90020003D082100DA00D7302000AB00FC
:1029D0000030AC000430AD000030AE0091313B213E
:1029E0009431D7302000BA000030BB0094310D2460
:1029F00094319D31712501300800BD004F088A31A6
:102A0000BC229431003A0319072D003008003C081D
:102A10002100E900EA010130E7000030E800EB3076
:102A2000860000308700023081002000CE01FE3099
:102A30002100D70020003D082100D800D730200019
:102A4000AB000030AC000230AD000030AE00913180
:102A50003B219431E7302000BA000030BB009431B4
:102A60000D2494319D3171250130080020005E084D
:102A7000443E860001308700810123001D1D4D2D3D
:102A800020005E08443E8600013087008114220049
:102A90005B088A005A080A00953123009D1C5D2DB1
:102AA00020005E08443E86000130870001152200A8
:102AB00059088A0058080A00953120005E08443EF3
:102AC000860001308700010803196D2D2200570888
:102AD0008A0056080A00953108009131D421080077
:102AE000C0004F088A31BC229531003A03197A2D73
:102AF000003008003D082100E900EA0120003C0800
:102B0000BE00BF013E082100E70020003F08210071
:102B1000E800EB30860000308700023081002000A2
:102B2000CE0140082100EC00EC302000AB0000306A
:102B3000AC000130AD000030AE0091313B21953149
:102B4000E7302000BA000030BB0094310D249531ED
:102B50009D31712501300800C0004F088A31BC2228
:102B60009531003A0319B62D003008003D082100C8
:102B7000E900EA0120003C08BE00BF013E08210038
:102B8000E70020003F082100E800EB30860000301D
:102B90008700043081002000CE0140082100EC00B5
:102BA000EC302000AB000030AC000130AD00003054
:102BB000AE0091313B219531E7302000BA00003062
:102BC000BB0094310D2495319D31712501300800F1
:102BD0002000AC009D312A25953120002C08033EB1
:102BE0008600870101089F31AC27953120002C0811
:102BF000023E8600870101089F31AC2795312000F5
:102C00002C08860087012C0A8400850100089F316A
:102C1000AC2795310106031D1E2E20002C088600CE
:102C20008701433FD5002C0886008701423FD4002E
:102C30002C0886008701413FD300212E013020005F
:102C4000D50001302100C10008009D3106259631D4
:102C5000FD0020308600013087005D31403F840058
:102C6000413F85007D08800001302200BD07003013
:102C7000BE3D0130BF020030C03B3F084004031995
:102C8000452E9D31412505300800C3154D2E9D313F
:102C90005D2508009D31592508002D08FC002C08F1
:102CA000FB0021088A0020080A009631013A031926
:102CB0004A2E033A0319472E013A0319472E073AC1
:102CC00003194A2E4A2E080000309F319027963172
:102CD0002100EE006E0A031D6E08031D802E1030C9
:102CE0002000AB000030923121229631AA30200022
:102CF000AB00013092312122963110302100EE00DC
:102D000030309F31902796312000AD002D0A031DF1
:102D1000902EAB013030923121222000D7010800E3
:102D200077302D06031D972ED701D70A080088306B
:102D30002D06031D892EAB01303092312122023045
:102D40002000D70008002E082D042C042B040319A2
:102D5000DC2EB401B40AAE1BB92E0130AB35AC0D7C
:102D6000AD0DAE0D890BAE2E0130B3003308B407A4
:102D7000AB2E2E083202031DC72E2D083102031D73
:102D8000C72E2C083002031DC72E2B082F02031C50
:102D9000D12E2B08AF022C08B03B2D08B13B2E08DA
:102DA000B23B0130AE36AD0CAC0CAB0C890BD22E65
:102DB0000130B402031DB92E3208AE003108AD0057
:102DC0003008AC002F08AB000800BD0021003D0812
:102DD0008A31BC229631BE003E08031DF82E002F1A
:102DE00003302100BC00080004302100BC000800B2
:102DF0003E08013A0319F02E033A0319F42EF42E7B
:102E00003C082100E900EA010130E7000030E80059
:102E1000EB3086000030870002308100BB01BB0A26
:102E2000BC01BC0A2000D1013D30AB000030AC0039
:102E30000130AD000030AE0091313B219631E730DA
:102E40002000BA000030BB009331E72396319D315A
:102E500071250800AD002D080319542F9231052269
:102E60009731003A0319362F003008009D31302584
:102E700097311A303D0091000E303C00A0001B300D
:102E80003D0090000C303C00A10018303D009E0039
:102E900001303C009D0019303D009C003C009E012B
:102EA00092313D2297316D2F9D31302518303D00F4
:102EB000910001303C00A00019303D0090003C0022
:102EC000A1011A303D009E000E303C009D001B30D9
:102ED0003D009C000C303C009E00013008002100A9
:102EE000911236302000AB001530AC009E31062622
:102EF00097312100111276302000AB001230AC0067
:102F00009E310E269731083023009F0090309D009F
:102F100004309E0040309B0003309C00E7302000CE
:102F2000AB001C30AC009D31F625973139302000C4
:102F3000AB001D30AC009D31FE259731F7302000ED
:102F4000AB001C30AC009D31EE252100D101D50134
:102F50002000DF0108302100D4002000DE01210024
:102F6000D301D20191160800BF0054308A31BC222F
:102F70009731C0004008031DC42FCF2F0330C12F4D
:102F800004302100BC00CC2F4008013A0319BE2FA9
:102F9000033A0319C02FC02F2000400808003E0844
:102FA0002100EA0020003D082100E9000130E7008F
:102FB0000030E800EB3086000030870002308100EE
:102FC000BB01BB0ABC01BC0A2000D1013F082100A3
:102FD000ED00ED302000AB000030AC000130AD0062
:102FE0000030AE0091313B219731E7302000BA002C
:102FF0000030BB009331E72397319D3171250800E4
:10300000AB341D34CE341D34B2341D346534093430
:10301000253416348D341D347A34133445341D343C
:1030200049341D344D341D3451341D3455341D3450
:1030300059341D345D341D34B9341D34C234133455
:0430400002342434FE
:1039CE0008000800080008000800080008000800A9
:1039DE000800080001300800053008001F15080017
:1039EE009131D421080024009614080024001615E5
:1039FE00080020001F11080024009615080024005E
:103A0E0011080800200091150800200091110800EF
:103A1E008B3113230800240019080800200092118E
:103A2E00080024001D160800200091110800240033
:103A3E0095120800210091110800240016140800A8
:103A4E002100911508002100B40108002000500843
:103A5E0008009F31832708002100921508002000DE
:103A6E009717080023001D121D1608002400961635
:103A7E001616080024009612161608009C31FA2419
:103A8E00013008009C31FA24023008009C31FA24DF
:103A9E00013008009C31FD24003008009D31412585
:103AAE00053008009D313D250A3008009D313D2529
:103ABE00093008001C0C890C0139080024001C0870
:103ACE000139080091109E319D260800AB002B088D
:103ADE009D0008000030883100200800A23022002E
:103AEE00970008001330210097000800F0007008BE
:103AFE00240091000800F0007008240099000800CE
:103B0E002400160E890C890C01390800220043107E
:103B1E009D3103250430080003101E1F03140030CE
:103B2E00093D08000130F00070082000D807080099
:103B3E002000AB002B3524009B00080003109D1CB9
:103B4E0003140030093D08002200C310C2019D314C
:103B5E0000250E300800220043143C359D317D2592
:103B6E00033008002200C310C2019D3100250E3023
:103B7E000800031024009C1E03140030093D0800A9
:103B8E00031024001C1C03140030093D0800220001
:103B9E00431403143C0D9D317D25053008002C087F
:103BAE002100B30020002B082100B20008002C08D1
:103BBE002200D30020002B082200D20008002C087F
:103BCE002100AF0020002B082100AE0008002C08B9
:103BDE002200D70020002B082200D60008002C0857
:103BEE002200DB0020002B082200DA0008002C083F
:103BFE002200D90020002B082200D80008002C0833
:103C0E002200DD0020002B082200DC0008002C081A
:103C1E002200DF0020002B082200DE0008002C0806
:103C2E002200ED0020002B082200EC0008002C08DA
:103C3E002200EB0020002B082200EA0008002C08CE
:103C4E002200E90020002B082200E80008002C08C2
:103C5E002200E70020002B082200E60008002C08B6
:103C6E002200E50020002B082200E40008002C08AA
:103C7E002200E30020002B082200E20008002C089E
:103C8E002200E10020002B082200E0000800320094
:103C9E0091019201930194019501960108002C085F
:103CAE002200D50020002B082200D40008001C089A
:103CBE002000AC0021001B082000AB0008000030E3
:103CCE0020008E180130D60001302100CA000800F5
:103CDE00031020000E1E0314003003180130DB0009
:103CEE000800AB002B082100BD00BC01BB01200069
:103CFE00D1010800E33021009E009F019B019C0131
:103D0E0001309D0008006030320099009B019D013A
:103D1E0007309F009E01080024009D1A08009C0198
:103D2E0006309D0001309E009D16080022005208AC
:103D3E0053040319080053088A0052080A009E31E2
:103D4E0008002400951A0800940108309500960189
:103D5E004F309200951608003708AC003608AB00BD
:103D6E003808AD00AE0102308A310F220800370844
:103D7E00AC003608AB003808AD00AE0101308A3118
:103D8E000F2208003708AC003608AB003808AD002B
:103D9E00AE0103308A310F220800C31D08007108DE
:103DAE00BE007008BD007308C0007208BF00C311CA
:103DBE0008002108F1002008F0002308F300220873
:103DCE00F20000308931B9210800F0009D31122532
:103DDE009E312100CF007008031908000130CE007B
:103DEE0008009012220054085504031908005508C3
:103DFE008A0054080A009F3108003708AC003608C4
:103E0E00AB003908AE003808AD0000308A310F2201
:103E1E0008003708AC003608AB003808AD0001309A
:103E2E00AE0004308A310F22080064008001013197
:103E3E000130FE020030FF3B7F087E040319003480
:103E4E001D2F22006C086D040319322F6D088A0095
:103E5E006C080A009F3127001311080022006A081F
:103E6E006B0403193F2F6B088A006A080A009F3102
:103E7E0027009612080022006808690403194C2FC7
:103E8E0069088A0068080A009F3127009613080007
:103E9E002200660867040319592F67088A0066080E
:103EAE000A009F31270019100800220064086504DB
:103EBE000319662F65088A0064080A009F312700DF
:103ECE00991008002200620863040319732F630817
:103EDE008A0062080A009F3127009911080022000B
:103EEE00600861040319802F61088A0060080A00C7
:103EFE009F31270019120800210092112000921103
:103F0E00121124009D129C0106309D0001309E006E
:103F1E0008002000AB003100151770309200200011
:103F2E002B0831009100151413080800AC002C0862
:103F3E00AB00AB0DAB0D21001D0820002B06033985
:103F4E002B0621009D001D140800AB002100340833
:103F5E0020002B06003E840090300318013E8500A1
:103F6E0000082100B4003408080020008D1AC22F6A
:103F7E00F001F101C62F7730F0000030F100723001
:103F8E0086002330870070088100080020008D1BFA
:103F9E00D32FF001F101D72F7730F0000030F10070
:103FAE0071308600233087007008810008002000E1
:103FBE008E1DE82F9230860023308700FF3081005F
:103FCE000800923086002330870077308100080089
:103FDE002000AB002B08CF00CE012100B801B701A5
:103FEE00B9012000D0012100BA01B5012000DA018B
:023FFE000800B9
:020000040001F9
:08000000FF3FFF3FFF3FFF3F00
:08000E008C3FD53FFF3FFF3F8F
:00000001FF
