:10000000803164289D1408007E1480312100901EE8
:1000100010282000901E10289E31822680316228F0
:100020002100101E1A282000101E1A2893310F23B9
:10003000803162280B1F62282100111D2928200011
:10004000111D2928210031088A0030080A0080315A
:100050006228210091192000911922282100121DE7
:100060003B282000121D3B2821002D088A002C0867
:100070000A00803162282100921920009219342848
:100080002100111E4D282000111E4D2822005F085E
:100090008A005E080A00803162282100911E5A28D9
:1000A0002000911E5A2822005D088A005C080A0080
:1000B000803162282100911C62282000911C622856
:1000C0009C31F2247E100900803166287030840053
:1000D000233085008030FE000030FF009E31A626D0
:1000E00080314E308400003085001530FE00003035
:1000F000FF009E31A6268031A030840000308500AC
:100100004E30FE000030FF009E31A62680312030A8
:100110008400013085003430FE000030FF009E3145
:10012000A6268031A0308400013085002830FE00F2
:100130000030FF009E31A6267E1020008C31392C25
:10014000C201EC2C1330B70004303302031CAD287D
:1001500002302000D0001730842B2000D001D00ABC
:10016000912D10302000BC00D730BD0039309431C3
:10017000D3248031003A0319C2282100B601B60AFF
:100180000230D42C2100B701B70A912D913195216D
:100190008031013A0319912D2100B60191317C2162
:1001A0008031003A031DDC2801302000C1004108E5
:1001B0002100B307B701912D2100B3010F30B70023
:1001C000D71FEA287F302000C10041082100D70551
:1001D0000330B7005B0A0319F128FF30DB0003305E
:1001E000B7005C0A0319F828FF30DC000330B700C1
:1001F0005D0A0319FF28FF30DD000330B7005E0AF7
:1002000003190629FF30DE000330B7005F08031929
:100210000C29DF010330B700600803191229E0013F
:100220000330B700631D912DFB302000C100410851
:100230002100E3050330D42C10302000BC00D7305F
:10024000BD00393095310F258031003A0319912DC9
:100250002100B601B60A0430D42C913195218031A9
:10026000013A0319912D2100B60191317C21803191
:10027000003A0319D4282100B3010930842BD73068
:100280002000BC000630943160248031003A03190C
:100290004E292100B601B60A0630D42C0530842B35
:1002A000913195218031013A0319912D2100B60138
:1002B00091317C218031003A0319D4282100B30107
:1002C000B701B70AD7184E29912D10302000BC0075
:1002D000D730BD0038309431D3248031003A03192F
:1002E00076292100B601B60A0C30D42C0B30842BB1
:1002F000913195218031013A0319912D2100B601E8
:1003000091317C218031003A0319D4282100B301B6
:10031000B701B70A660A03199129FF30E6000D30CC
:10032000D42C02302000DB00912D10302000BC00C6
:10033000D730BD00383095310F258031003A031990
:10034000912D2100B601B60A0E30D42C91319521A1
:100350008031013A0319912D2100B60191317C21A0
:100360008031003A0319D4282100B3010530B700C9
:100370009129D7302000BC000630943160248031B0
:10038000003A03193D292100B601B60A0A30D42CDF
:10039000913195218031013A0319912D2100B60147
:1003A00091317C218031003A0319D4282100B30116
:1003B0000F30B700D7183D29912D10302000BC0018
:1003C000D730BD003A309431D3248031003A03193C
:1003D000EE292100B601B60A1030D42C0F30842B40
:1003E000913195218031013A0319912D2100B601F7
:1003F00091317C218031003A0319D4282100B301C6
:100400001930B70057030319912D0130D70011306F
:10041000D42C10302000BC00D730BD003A309531CC
:100420000F258031003A0319912D2100B601B60A3B
:100430001230D42C913195218031013A0319912D3C
:100440002100B60191317C218031003A0319D42872
:100450002100B3010730842B3C302000BC00283041
:10046000BD0000308731CD278031003A0319912D2E
:100470002100B601B60A1430D42C91319521803177
:10048000013A0319912D2100B60191317C2180316F
:10049000003A0319D4282100B3011730B700A00196
:1004A000A101912D3C302000BC002830BD0000305F
:1004B0008731CD278031003A0319912D2100B601F3
:1004C000B60A1630D42C3D2A20005C080319702A85
:1004D0000F302100B7002000C201C20A0330712A88
:1004E0000230D0005B03031D912D03305006031929
:1004F0007629912DD7302000BC000630943160243D
:100500008031003A03192A2A2100B601B60A0830C0
:10051000D42C913195218031013A0319912D21007C
:10052000B60191317C218031003A0319D428210091
:10053000B3011930B700D7182A2A912D2000BC0129
:10054000BC0ABD01BD0A00308731CD278031003A99
:100550000319912D2100B601B60A1A30D42C91311D
:1005600095218031013A0319912D2100B601913175
:100570007C218031003A0319D4282100B3011B30BB
:10058000D42C40302000BC004030BD00003087310A
:10059000CD278031003A0319912D2100B601B60A0A
:1005A0001C30D42C913195218031013A0319912DC1
:1005B0002100B60191317C218031003A0319D42801
:1005C0002100B3011D30D42C3C302000BC003C3055
:1005D000BD0000308731CD278031003A0319912DBD
:1005E0002100B601B60A1E30D42C913195218031FC
:1005F000013A0319912D2100B60191317C218031FE
:10060000003A0319D4282100B3011F304E2A2000DC
:100610005C03031D0D2B2130742C01302100A00739
:100620000030A13D01302102903003192002031C4B
:10063000912DA001A101D7302000BC0006309431DB
:1006400060248031003A0319912D2100B601B60AC9
:100650002030D42C913195218031013A0319912D0C
:100660002100B60191317C218031003A0319D42850
:100670002100B301571E412B2130B7000430200068
:10068000D0002100571C462B1F30D42C1330D42C03
:1006900010302000BC00D730BD00F8309431D32496
:1006A0008031003A0319592B2100B601B60A2230D5
:1006B000D42C2130842B913195218031013A0319BA
:1006C000912D2100B60191317C218031003A03192E
:1006D000D4282100B3012330B700D73095314B2502
:1006E0008031912D10302000BC00D730BD00FB3090
:1006F0009431D3248031003A0319832B2100B601B1
:10070000B60A2430D42C23302100D42C91319521E9
:100710008031013A0319912D2100B60191317C21DC
:100720008031003A0319D4282100B3012630D42C9B
:1007300040302000BC00BD0100308731CD27803122
:10074000003A0319912D2100B601B60A2730D42CA6
:10075000913195218031013A0319912D2100B60183
:1007600091317C218031003A0319D4282100B30152
:100770002A30D42C2000BC01BC0ABD0100308731D6
:10078000CD278031003A0319912D2100B601B60A18
:100790002B30D42C913195218031013A0319912DC0
:1007A0002100B60191317C218031003A0319D4280F
:1007B0002100B3012830D42C40302000BC00403050
:1007C000BD0000308731CD278031003A0319912DCB
:1007D0002100B601B60A2930D42C913195218031FF
:1007E000013A0319912D2100B60191317C2180310C
:1007F000003A0319D4282100B3012530D42C2C3021
:10080000B700D7308A31CD228031912D10302000B1
:10081000BC00D730BD00F83095310F258031003A4B
:100820000319912D2100B601B60A2D30D42C913137
:1008300095218031013A0319912D2100B6019131A2
:100840007C218031003A0319D4282100B3012E30D5
:10085000D42C10302000BC00D730BD00FB309531C7
:100860000F258031003A0319912D2100B601B60AF7
:100870002F30D42C913195218031013A0319912DDB
:100880002100B60191317C218031003A0319D4282E
:100890002100B3013030D42C3C302000BC003C306F
:1008A000BD0000308731CD278031003A0319912DEA
:1008B0002100B601B60A3130D42C91319521803116
:1008C000013A0319912D2100B60191317C2180312B
:1008D000003A0319D4282100B30132304E2A2000F7
:1008E0005C03031D7A2C34302100B7000430200053
:1008F000D000912D01302100A0070030A13D013032
:100900002102903003192002031C912DA001A101A6
:10091000D7302000BC000630943160248031003A8A
:100920000319912D2100B601B60A3330D42C913130
:1009300095218031013A0319912D2100B6019131A1
:100940007C218031003A0319D4282100B301571EBD
:10095000AE2C3430B70004302000D0002100571CEA
:10096000462B3230D42C40302000BC00BD0100307A
:100970008731CD278031003A0319912D2100B6012E
:10098000B60A3530D42C913195218031013A0319C2
:10099000912D2100B60191317C218031003A03195B
:1009A000D4282100B3011930B700912D20005C0834
:1009B0000319E22C19302100B7002000C201C20A3D
:1009C0000330E32C0230D0005B03031D912D023075
:1009D0005006031DC228912D21003708003A031943
:1009E000A228013A0319B128033A0319C628013A8B
:1009F00003191C29073A03192D29013A03193F2924
:100A0000033A03195029013A03197A2A0F3A0319B4
:100A1000892A013A0319B929033A0319C829013A65
:100A200003196529073A03197829013A0319952909
:100A3000033A0319A629013A0319DD291F3A0319BC
:100A4000F029013A0319092A033A03191A2A013A2B
:100A500003192C2A073A03193D2A013A0319522A8D
:100A6000033A0319632A013A0319642A0E3A031957
:100A70009E2A033A0319AF2A013A0319C12A073AF9
:100A80000319D22A013A0319E42A033A0319F52A71
:100A9000013A0319072B3F3A03192A2B013A03198C
:100AA000482B033A03195B2B013A0319722B073ABF
:100AB0000319862B013A0319FF2B033A0319982BCC
:100AC000013A0319A82B0F3A0319DC2B013A031939
:100AD000ED2B033A0319BA2B013A0319CA2B073A33
:100AE0000319062C013A0319172C033A0319292C70
:100AF000013A03193A2C1F3A03194C2C013A0319F5
:100B00005D2C033A03196F2C013A0319972C073A0D
:100B10000319B32C013A0319C32C033A0319D62C39
:100B2000912D200042080800933086002330870072
:100B300077300106031DB92D20005B08031DA82D89
:100B40000130DB007730AB0080309131CD21853131
:100B5000023020005B06031DC52D93308600233034
:100B600087008101DB01AB0180309131CD218531DE
:100B7000C52D933086002330870001080319C52D49
:100B80009330860023308700810190308600233027
:100B900087000108031DD12D20008C1AD12D2200C1
:100BA0008C16903086002330870077300106031DB5
:100BB000DE2D20008C1EDE2D22008C12200052081B
:100BC00003192C2E9431302485312000C400122EBC
:100BD0006108AB0002309131CD2185312000D20176
:100BE00021003F080319F62DBF012C2E013096314C
:100BF000D22685310E300F2EFF30E1006108AB00A8
:100C000002309131CD2185312000D20121003F08F1
:100C1000031DF42D01309631D22685310630200097
:100C2000DA002C2E4408003A0319FC2D013A03196E
:100C30002C2E033A0319E82D013A0319FC2D073A2B
:100C40000319FC2D013A0319FC2D033A0319FC2D5D
:100C5000013A0319FC2D2C2E200056080319492EA9
:100C60005908BF00C0014008C2002100450820000B
:100C70003F02C100031CC2034208803AC300803017
:100C80004302031D452E05304102031C492E20005E
:100C9000D601210048080319080020005908210046
:100CA000C5002000D601D60A570822006E06031997
:100CB000652E053021003E0203186E2E0130200003
:100CC000BF003F082100BE0708002100BE01200030
:100CD00057082200EE002100C80108002000570834
:100CE0000319942E0E305A06031D7E2E2100C801D2
:100CF000BE01200057082200EE0008005208031D24
:100D0000A92E00309631D226853161302000BC00FA
:100D1000FF309631482685312000D201D20A2100C9
:100D2000BF0110302000A82E520803199A2E21006E
:100D3000BF01BF0A0C3020005A060319A72E0E303F
:100D40005A060319A72E10305A06031DA92E0F307C
:100D5000DA002100C801BE01200057082200EE0081
:100D60000800C600BF2EC701CD2EC701C70ACD2E71
:100D70000230BD2E21003D082000C700CD2E4608C0
:100D8000003A0319BA2E013A0319B32E033A031994
:100D9000B52E013A0319B82EBA2E21003C080319CA
:100DA000BA2F9D3133258631003A03199E2F9D318C
:100DB000F32586312C08CD002B08CC00872F4D0859
:100DC0002100A50020004C082100A40020004C08B0
:100DD000AB004D08AC00AD01AE010030B2000030F8
:100DE000B1001130B0003F30AF009331D1238631D4
:100DF0002E08CB002D08CA002C08C9002B08C800FB
:100E00000A30CB36CA0CC90CC80C890B012F4B0811
:100E1000BC004A08BB004908BA004808B90078304D
:100E2000BD002330BE009731B2278631922F4D0886
:100E30002100A30020004C082100A20020004C0843
:100E4000AB004D08AC00AD01AE010030B200003087
:100E5000B1000730B0008C30AF009331D123863120
:100E60002E08CB002D08CA002C08C9002B08C8008A
:100E70000A30CB36CA0CC90CC80C890B392F4B0869
:100E8000BC004A08BB004908BA004808B9007430E1
:100E9000BD002330BE009731B2278631922F4D0816
:100EA0002200CD0020004C082200CC0020004C087D
:100EB000AB004D08AC00AD01AE010030B200003017
:100EC000B1000130B0000A30AF009331D123863138
:100ED0002E08CB002D08CA002C08C9002B08C8001A
:100EE0000A30CB36CA0CC90CC80C890B712F4B08C1
:100EF000BC004A08BB004908BA004808B9007C3069
:100F0000BD002330BE009731B2278631922F4708AB
:100F1000003A0319DF2E013A0319172F033A031978
:100F20004F2F922F4608031D9A2F0130C500450808
:100F30002100BD072100BC0101300800003008007D
:100F400017309F3127278631C62F16309F3127272C
:100F50008631C62F04309F3127278631C62F1730A0
:100F60009F312727863120004608031DC62F210008
:100F7000BD01C62F20004708003A0319A02F013AEF
:100F80000319A52F033A0319AA2FAF2F2100BC0183
:100F9000BC0A8031022086319E2FBE004F088A3164
:100FA0001C228731003A0319D72F00300800CE01E8
:100FB000FE302100D70020003E082100D80020008C
:100FC0003C082100D90020003D082100DA00D7307C
:100FD0002000AB000030AC000430AD000030AE00AB
:100FE0009F31C0278731D7302000BA000030BB00C6
:100FF0009331A22387319C31FA2401300800080084
:1010000008008D1B0628AB01AC010A287730AB0025
:101010000030AC0071308600233087002B0881003F
:101020008D1A1528AD01AE0119287730AD000030BA
:10103000AE0072308600233087002D088100080042
:101040000030B7000030B6000030B5000030B4000A
:101050002E082D042C042B0403196928B801B80AA2
:10106000AE1B3E280130AB35AC0DAD0DAE0D890B7E
:1010700033280130B3003308B80730280130B435C5
:10108000B50DB60DB70D890B3F282E083202031D92
:1010900053282D083102031D53282C083002031D4C
:1010A00053282B082F02031C5E282B08AF022C08A4
:1010B000B03B2D08B13B2E08B23B34140130AE36A4
:1010C000AD0CAC0CAB0C890B5F280130B802031DD2
:1010D0003E283708AE003608AD003508AC003408AD
:1010E000AB000800AF012F08703EAD00AE01233009
:1010F000AE3D2D0886002E088700FF3081000130AC
:10110000AD002D08AF0780302F02031C732870300C
:101110008600233087005530C03F90308600233052
:1011200087008101883086002330870030308100BD
:101130008930860023308700323081008A30860073
:1011400023308700343081002100D601D501D4013D
:1011500080309F311A2788312000AD0093308600FF
:10116000233087002D0881009330860023308700CC
:10117000010A031D08009330860023308700810197
:10118000AB0180309131CD2108009D31152588318A
:10119000003A031DD528F1289C31CE2408009C314B
:1011A000D22408009C31DA24080022003308FC0015
:1011B0003208FB0020308600013087004631413F75
:1011C0008A00403F0A008831013A0319D228033AC5
:1011D0000319CC28013A0319CF28073A0319D2285A
:1011E000D228220043103E082000A50022003D081E
:1011F0002000A4002200BD0A0319BE0A2000240812
:1012000086002508870001089D31062588310130B8
:101210002200BF020030C03B3F084004031D1229DA
:101220000630132903302000A6000030A70026084E
:101230000800FA0070087104031945297A08F400BF
:10124000F501F435F50D2030F6000130F700740893
:10125000760786007508773D87007008C03F7108E3
:10126000C13F7A08F400F501F435F50D2C30F60095
:101270000130F7007408760786007508773D87000F
:101280007208C03F7308C13F08007A30F4001C3078
:10129000F5007A08F600F701F635F70D2030F80072
:1012A0000130F9007608780786007708793D8700D5
:1012B0007408C03F7508C13F7A08F400F501F435A1
:1012C000F50D2C30F6000130F70074087607860023
:1012D0007508773D87000030C03FC13F0800B5006A
:1012E0002B082C0403199B293508AF00B001AF353A
:1012F000B00D2030B1000130B2002F083107860058
:101300003008323D87002B08C03F2C08C13F35080C
:10131000AF00B001AF35B00D2C30B1000130B200DC
:101320002F08310786003008323D87002D08C03F66
:101330002E08C13F08007A30AF001C30B0003508DD
:10134000B100B201B135B20D2030B3000130B400AC
:101350003108330786003208343D87002F08C03F2C
:101360003008C13F3508AF00B001AF35B00D2C30AB
:10137000B1000130B2002F08310786003008323D3D
:1013800087000030C03FC13F08009C319E24893156
:101390009D314E258931003A0319D8299C31EA2420
:1013A0008931003A0319D6290130E1290230E129B7
:1013B0009C31EA248931003A0319E0290330E129FC
:1013C00004302100CB000B2A00309E317626893173
:1013D0009D3155258931003A0319192A8B312E2365
:1013E0008931192A01309E3176268931192A9D3199
:1013F00055258931003A0319192A9D312125893152
:10140000EB299C31EE248931003A0319192A9731CE
:1014100064278931192A4B08013A0319E429033A50
:101420000319F229013A0319F729073A0319012A86
:10143000192A9C31A12408002000AD00AE01AE0A9B
:1014400022004319702A3C308600013087002000BA
:101450002D0881002200C31043154310413086003F
:10146000013087000E3081000130BB00F430BA003B
:10147000C3157A30A0001C30A100AC01AD011C30B6
:10148000A3007A30A200AE01AF011C30A5007A3073
:10149000A400B001B1011C30A7007A30A600B2014F
:1014A000B3011C30A9007C30A800B401B50198300C
:1014B0002000AB001C30AC009D316B258A319C3183
:1014C000A4248A319E313D268A319C31B0248A3150
:1014D0002000AE010030AB001430AC009D3173250C
:1014E00020002E0808009C3195248A312200431CDC
:1014F000852A9D3115258A31003A0319852A413004
:101500008600013087000F30810022004318B12A85
:101510009D3115258A31003A0319B12A220041086C
:101520002000A800A901A835A90D003028078400D3
:101530001830293D80388500013F8A00003F0A00AD
:101540008A312000AA0041308600013087002A0835
:1015500081000A3022004106031D08009D31392513
:101560000800220041082000A800A901A835A90D03
:101570000030280784001830293D80388500013F5D
:101580008A00003F0A008A312000AA00413086000C
:10159000013087002A08810008002000AC005503B4
:1015A000031DD82A2C08073E860087014430EF2A05
:1015B000B1305502031CE02AC4305502031CEA2A4C
:1015C000023055060319EA2A2C08073E86008701D7
:1015D0004330EF2A2C08073E860087014130810006
:1015E000023055060319FF2A2C08053E86008701A4
:1015F00081012C08063E8600870181010B2B2C08F7
:10160000053E86008701530881002C08063E8600AF
:101610008701540881009C31B9248A3120002C08AC
:10162000073E8600870101089F3136278A31200056
:101630002C08063E8600870101089F3136278A3133
:1016400020002C08043E860087012C08053E8400FB
:10165000850100089F313627810008008030200076
:101660005D020318412B31001517703092002000E5
:101670005D0831009100151413089D310B258B3145
:10168000812B90305D06031D872B2100560803191E
:10169000872B0130D602031D872B70308600233044
:1016A0008700503101089D310B258B3180307C2B18
:1016B0002100550803198C2B0130D502031D8C2BFA
:1016C0007030860023308700513101089D310B2591
:1016D0008B3181307C2B210054080319912B013070
:1016E000D402031D912B70308600233087005231C5
:1016F00001089D310B258230860023308700FF30A2
:1017000081000130F10071082000DD0708009130F0
:1017100020005D060319582B923020005D06031946
:101720006B2B20005D08F100F201F030F300223055
:10173000F4007108730786007208743D8700010881
:101740009D310B258B31812B22008C018D018E0167
:10175000173021008C00F0308D00FB308E00C0303F
:1017600023008E008D0110308C00503024008D003D
:1017700004308C001B308E0025008C018D018E0101
:10178000373026008C00A0308D00FF308E003F30B7
:1017900027008C00F0308D00FF308E0013111215E1
:1017A00011159612961395169517941694171910ED
:1017B00099109911191218149814981518161714CD
:1017C00097149715171673302000AB001C30AC002F
:1017D0009D31AB258B3174302000AB001C30AC0048
:1017E0009D31B3258B3175302000AB001C30AC002F
:1017F0009D31BB258B3176302000AB001C30AC0016
:101800009D31C3258B3177302000AB001C30AC00FC
:101810009D31CB258B3178302000AB001C30AC00E3
:101820009D31D3258B3179302000AB001C30AC00CA
:101830009D31DB252100101615303C00A40014302A
:101840003D00A3001A3091000E303C00A0001B3078
:101850003D0090000C303C00A10018303D009E007F
:1018600001303C009D0019303D009C003C009E0171
:1018700008002300D101D401D001D2012000D501FC
:10188000923182228C3127302000AB001D30AC0019
:101890009D31EB258C319C31BF248C3100300C19EB
:1018A00001302100C700003020000E180130210057
:1018B000C400003020008E180130D70057082200E5
:1018C000EE002100BE012000570803196A2C2100F8
:1018D000C8016D2C01302100C800E9302000AB00A8
:1018E0001130AC009D31AB258C314D302000AB0068
:1018F0001130AC009D31C3258C31FB302000AB0092
:101900001D30AC009D31CB258C3146302000AB0022
:101910001F30AC009D31B3258C3157302000AB0017
:101920001F30AC009D31BB258C3104302000AB0052
:101930001E30AC009D31DB258C3168302000AB00BF
:101940001F30AC009D31D3258C3121000E142400B2
:101950000E1422000C1521000C1522000E158C16F9
:101960008B170B179531C7258C31883172208C313C
:1019700055309F3179278C3136309E310D268C3190
:101980009131B1218C31853194258C31200058035F
:101990000319D82F230052080319192E20005908C3
:1019A0002300C8004F08C80252084802031C4F2EEB
:1019B000D2014F2E023058060319902D0A30230011
:1019C000D200200059082300CF002000DA01DA0AF3
:1019D0004F2E0330DA002300CE014F2E0030963117
:1019E000D2268C31003A03194F2E0230A62DBC01AD
:1019F000BC0A7330BD002330BE0000309731182779
:101A00008C312300D3005308031D082D0430A62D6C
:101A10005308013A03194F2E033A03194F2E4F2E44
:101A2000943130248C312300D30002305306031D3F
:101A30001B2D0530A62D530303194F2E0130C8006E
:101A40004808CE070A304E02031CF52C0530200052
:101A5000DA007330860023308700FF3081004F2E7C
:101A600001309631D2268C31003A03194F2EA32D26
:101A7000883101208C310730A72D01308631B12605
:101A80008C31003A03194F2E0830A62D2100C601D3
:101A9000C60A0C1122000C112300D101D10AD40175
:101AA00022000E1102302300D2002000590823002A
:101AB000CF000930A62D02308631B1268C31003A94
:101AC00003194F2E22000E150C1521000C15C6010E
:101AD0002300D1010A302000EA2C0B30A72D9C31C5
:101AE000BC248C312300C80002304802031C4F2E56
:101AF0000C30A62D73308600233087000130810022
:101B0000A92D0330210025024430031924020318B3
:101B1000922D02302300D200200059082300CF006C
:101B20000E30A62D14309D2D0030210023026A3086
:101B3000031922020318892DFF302300D200200050
:101B400059082300CF000630A62D0F302000DA0000
:101B50004F2E703086002330870043310108013A50
:101B60000319812D033A0319942DA52D2300500844
:101B70000319C42D2100C601C60A0C1122000C1144
:101B80002300D101D10AD4019C31BC248C31023A0A
:101B9000031DDA2D59082300C8004D08C80228305B
:101BA0004802031C4F2E50080319A52D21000C15C7
:101BB000C601902D59082300CD004F2E2300D001DF
:101BC000D00A51080319EF2D5408031DEF2DD10140
:101BD000D40122000C1521000C15C601082E20008E
:101BE00059082300C800C9014908CB00540848021D
:101BF000CA00031CCB034B08803ACC0080304C0257
:101C0000031D042E06304A02031C082E2300D401B3
:101C100020000E1D4F2E22000E114F2E2300D0014A
:101C200020000E194F2E152EDA0122000E158C16EB
:101C30004F2E20005A08003A0319DA2C013A0319F2
:101C4000E92C033A0319F72C013A0319EE2C073A51
:101C50000319102D013A0319302D033A0319382DB9
:101C6000013A03193D2D0F3A0319462D013A031984
:101C70005B2D033A03196D2D013A03196F2D073AB5
:101C800003197A2D013A0319B62D033A0319DE2DF3
:101C9000013A03190E2E1F3A03194F2E142E0B3042
:101CA00020005A02031CDC2F91308600233087006D
:101CB000773001060319AE2F8031A0208C3121002E
:101CC0004008031D9D2EAE2F04309F311A278C3102
:101CD0002000D40003309F311A278C312000D3001C
:101CE0000230D5002100C001B22E06309F311A27E4
:101CF0008C312000D40005306B2E08309F311A271C
:101D00008C312000D40007306B2E0A309F311A2707
:101D10008C312000D40009306B2E0C309F311A27F3
:101D20008C312000D4000B306B2E0E309F311A27DF
:101D30008C312000D4000D306B2E20005508B93AAC
:101D40000319642E063A0319752E7F3A03197D2E66
:101D5000013A0319852E033A03198D2E013A03190E
:101D6000952EB22E9C31BC248C31023A03197B2F64
:101D7000AE2F5408AB0004309131CD218C312000BE
:101D80005308AB0003309131CD218C31AA2F540878
:101D9000AB0006309131CD218C3120005308AB00CF
:101DA00005309131CD218C31AA2F5408AB00083079
:101DB0009131CD218C3120005308AB000730913197
:101DC000CD218C31AA2F5408AB000A309131CD219E
:101DD0008C3120005308AB0009309131CD218C317A
:101DE000AA2F5408AB000C309131CD218C3120004A
:101DF0005308AB000B309131CD218C31AA2F540800
:101E0000AB000E309131CD218C3120005308AB0056
:101E10000D309131CD218C31AA2F803086002330B6
:101E200087005508810081308600233087005408E0
:101E30008100823086002330870053088100210012
:101E4000D601D60AD501D50AD401D40AC601C60ADC
:101E50000C1122000C112300D101D10A20005908D5
:101E60002300D4005408031D392F0130C80048084E
:101E7000D4070E302000DA00AA2F803086002330ED
:101E80008700550881008130860023308700540880
:101E900081008230860023308700530881000230A1
:101EA0002100D6000230D5000230D400702F8030DF
:101EB000860023308700550881008130860023305A
:101EC0008700540881008230860023308700530841
:101ED00081002100D601D60AD501D50AD401D40A41
:101EE0000E1022000E1001302100C30020005908FE
:101EF0002100C200262F5508003A0319AA2F013AE3
:101F00000319AA2FB03A03190D2F033A03190D2F05
:101F1000013A03193D2F073A03190D2F013A03190E
:101F2000572F033A03190D2F013A0319572F0F3A70
:101F30000319B92E023A0319C72E013A0319D52EF7
:101F4000073A0319E32E013A0319F12E033A031954
:101F5000FF2EAA2F2000D5012100C0012100430837
:101F60000319CE2F200059082300C800C9014908D1
:101F7000CB002100420823004802CA00031CCB0307
:101F80004B08803ACC0080304C02031DC92F14301E
:101F90004A02031CCE2F2100C3010E140E30200074
:101FA0005A06031DDC2F00308631B1268C31DC2F20
:101FB0000E1DDC2F22000E116400200058030319AF
:101FC000C32C9D3110258C31003A031DC32C9C314C
:101FD000BC248C31023A031DC32C0F305A06031D5A
:101FE000FC2F5608031DC32C210017103200981334
:101FF000630021001714C32C320098176300C32C10
:10200000003407340E3409341C341B3412341534B4
:1020100038343F3436343134243423342A342D34A4
:10202000703477347E3479346C346B346234653494
:1020300048344F3446344134543453345A345D3484
:10204000E034E734EE34E934FC34FB34F234F53474
:10205000D834DF34D634D134C434C334CA34CD3464
:10206000903497349E3499348C348B348234853454
:10207000A834AF34A634A134B434B334BA34BD3444
:10208000C734C034C934CE34DB34DC34D534D23434
:10209000FF34F834F134F634E334E434ED34EA3424
:1020A000B734B034B934BE34AB34AC34A534A23414
:1020B0008F34883481348634933494349D349A3404
:1020C0002734203429342E343B343C3435343234F4
:1020D0001F34183411341634033404340D340A34E4
:1020E0005734503459345E344B344C3445344234D4
:1020F0006F34683461346634733474347D347A34C4
:1021000089348E3487348034953492349B349C34B3
:10211000B134B634BF34B834AD34AA34A334A434A3
:10212000F934FE34F734F034E534E234EB34EC3493
:10213000C134C634CF34C834DD34DA34D334D43483
:1021400069346E3467346034753472347B347C3473
:10215000513456345F3458344D344A344334443463
:1021600019341E3417341034053402340B340C3453
:10217000213426342F3428343D343A343334343443
:102180004E34493440344734523455345C345B3433
:102190007634713478347F346A346D346434633423
:1021A0003E34393430343734223425342C342B3413
:1021B0000634013408340F341A341D341434133403
:1021C000AE34A934A034A734B234B534BC34BB34F3
:1021D0009634913498349F348A348D3484348334E3
:1021E000DE34D934D034D734C234C534CC34CB34D3
:1021F000E634E134E834EF34FA34FD34F434F334C3
:102200003708AC003608AB003808AD00AE0103302B
:1022100089316F2108007C08F1007B08F000013053
:10222000F2000030F3009E315E2691310030200034
:10223000A000A1000030A200A3009E316A26023057
:1022400008007C08F1007B08F0000230F20000304A
:10225000F3009E315E26913100302000A000A100E5
:102260000030A200A3009E316A26023008007C08DC
:10227000F1007B08F0000130F2000030F3009E31E5
:102280005E26913100302000A000A1000030A200A5
:10229000A3009E316A2604300800003020000E188A
:1022A00001302100C400063020005A0603195C29C1
:1022B0000F305A06031D080021004408031D0800C2
:1022C0000E302000DA00080020005F08A03E8600E3
:1022D000013087002300190881000130F0007008E8
:1022E0002000DF0708305F020318DF010130F00033
:1022F00070082100D007080020004E08031D822925
:1023000001300800CE1C872902302100B8002000CF
:102310004E1D8D292100B801B80A20004E1C9329BA
:1023200003302100B800003008002000AB01AB0AE8
:102330002200C318AE2943113C30860001308700CB
:10234000FF3081009C31A42491319C31AA24913129
:102350009C31A724220042082000AB0020002B085B
:10236000080001302100CC002000DD0121006E08B2
:102370009D315C2591317F309D312D259131C530C6
:102380002000AB000930AC009D317B2591319E319E
:10239000282691319C31B6240800AC0031009518F4
:1023A000CE29151715157030920020002C08310029
:1023B0009100940120002B08310093008B135530BD
:1023C0009600AA30960095149518E42915118B17DC
:1023D0000800003020000C1901302100C700460819
:1023E000031D0800063020005A060319FB290F3090
:1023F0005A06031D080021004708031D080020009D
:102400005608031D08000E30DA00080008302100CD
:1024100052020318232A20006008A83E86000130DB
:102420008700010823009A000130F00070082000A6
:10243000E007083060020318E0010130F000700886
:102440002100D2070800111208007B0886007C08D2
:1024500087004231403FF000413FF1007B08860099
:102460007C088700403FF200413FF3009E315E262A
:10247000923100302000A000A1000030A200A30093
:102480009E316A2602300800522A2000D114612AA7
:1024900020005115612A20005114612A03302000C8
:1024A000D100612A7B0886007C0887000108003A79
:1024B0000319452A013A0319482A033A03194B2AFA
:1024C0004E2A01300800712A2000CE14802A2000F4
:1024D0004E15802A20004E14802A07302000CE009E
:1024E000802A7B0886007C0887000108003A0319CF
:1024F000642A013A0319672A033A03196A2A6D2AE2
:10250000013008009D31E32592318B31A4239231B3
:102510009F318A2792319F31D52792319E311F26D4
:1025200092319D31022592319C31FE2492319E31AF
:10253000162692319F31AC2792319F319B279231E1
:1025400096318D2608007B0886007C088700423182
:10255000403FF000413FF1007B0886007C08870087
:10256000403FF200413FF3009E315E269231003041
:102570002000A000A1000030A200A3009E316A2626
:102580007B0886007C0887004431010808007B082E
:1025900086007C0887004231403FF000413FF10057
:1025A0007B0886007C088700403FF200413FF30033
:1025B0009E315E26923100302000A000A100003044
:1025C000A200A3009E316A267B0886007C08870053
:1025D0004431010808002200C315F82A9C31D62492
:1025E00008009C319224033008009C31DA24080052
:1025F0002D08FC002C08FB0021088A0020080A0096
:102600009331013A0319F52A033A0319EE2A013AE4
:102610000319EE2A073A0319F12AF52A08002700C0
:10262000131D152B9E31B2269331961E1A2B9E3107
:10263000BF269331961F1F2B9E31CC269331191C38
:10264000242B9E31D9269331991C292B9E31E626C5
:102650009331991D2E2B9E31F3269331191E0800BC
:102660009F3100270800AC00AD01AD0A2200C3185D
:10267000542BC3142000AD0100309C31F62493315B
:102680009C317E2493312C0803194C2B4130860059
:10269000013087000130512B413086000130870026
:1026A000023081009C31AD2420002D08080022005A
:1026B0004310423086000130870002308100662BD3
:1026C0009C31D62408009C31DA2408003108FC0033
:1026D0003008FB0020308600013087004431413F44
:1026E0008A00403F0A009331023A0319602B013AF5
:1026F0000319602B632B0800A330B6001230B7001B
:102700003B08B9003A08B8009E318E269331443018
:10271000B6001230B7006230B8009E3148269331BF
:102720004430B6001230B700EF30B8009E31532667
:1027300093314430B6001230B7006F30B8009E318C
:102740009A260800C730B6001230B7003B08B9001F
:102750003A08B8009E318E2693316330B6001230AD
:10276000B700EF30B8009E31482693316330B60091
:102770001230B700EF30B80091310021933163304F
:10278000B6001230B7006230B8009E315326933144
:102790006330B6001230B7006F30B8009E319A2611
:1027A00008000030B6000030B5000030B400003042
:1027B000B3002B1CE32B2F08B3073008B43D3108BE
:1027C000B53D3208B63D0130AF35B00DB10DB20D9B
:1027D000890BE42B0130AE36AD0CAC0CAB0C890B85
:1027E000EB2B2E082D042C042B04031DD92B3608AB
:1027F000AE003508AD003408AC003308AB0008006B
:102800000030FB00FC00203086000130870048319A
:10281000413F8A00403F0A009431023084009830E2
:102820008500013F8A00003F0A0094312000A80083
:102830004130860001308700280881000030840084
:1028400098308500013F8A00003F0A009431200043
:10285000A800413086000130870028088100080068
:102860002100390803195D2C913195219431013AE9
:1028700003195D2C2100B901200051080319572CC0
:1028800003305106031D462C0430552CD11C4B2C13
:1028900005302100BA002000511D512C06302100C6
:1028A000BA002000511C5D2C073021005C2C210057
:1028B0003A03031D5D2C0230BA0021003A080800DB
:1028C000BD004F088A311C229431003A03196A2C4A
:1028D000003008003C082100E900EA010130E7006F
:1028E0000030E800EB3086000030870002308100C5
:1028F0002000CE01FE302100D70020003D0821003D
:10290000D800D7302000AB000030AC000230AD0062
:102910000030AE009F31C0279431E7302000BA006C
:102920000030BB009331A22394319C31FA24013052
:10293000080020005F08443E8600013087008101C6
:1029400023001D1DB02C20005F08443E860001308E
:102950008700811422005B088A005A080A0094311B
:1029600023009D1CC02C20005F08443E86000130DF
:1029700087000115220059088A0058080A0094317E
:1029800020005F08443E86000130870001080319DB
:10299000D02C230056088A0055080A0094310800FC
:1029A000913164210800C0004F088A311C22943103
:1029B000003A0319DD2C003008003D082100E90031
:1029C000EA0120003C08BE00BF013E082100E700EC
:1029D00020003F082100E800EB308600003087002F
:1029E000023081002000CE0140082100EC00EC30D4
:1029F0002000AB000030AC000130AD000030AE0074
:102A00009F31C0279431E7302000BA000030BB006E
:102A10009331A22394319C31FA2401300800C00084
:102A20004F088A311C229531003A0319192D0030C4
:102A300008003D082100E900EA0120003C08BE0032
:102A4000BF013E082100E70020003F082100E80008
:102A5000EB30860000308700043081002000CE017A
:102A600040082100EC00EC302000AB000030AC004E
:102A70000130AD000030AE009F31C0279531E73006
:102A80002000BA000030BB009331A22395319C3165
:102A9000FA24013008002000AC009C31B9249531A3
:102AA00020002C08033E8600870101089F3136274D
:102AB000953120002C08023E8600870101089F31D5
:102AC0003627953120002C08860087012C0A8400C7
:102AD000850100089F31362795310106031D812DA0
:102AE00020002C0886008701433FD5002C08860073
:102AF0008701423FD4002C0886008701413FD30064
:102B0000842D01302000D50001302100C0000800D4
:102B10009C318F249531FD002030860001308700E4
:102B20005D31403F8400413F85007D0880000130D9
:102B30002200BD070030BE3D0130BF020030C03B67
:102B40003F0840040319A82D9C31CA240530080011
:102B5000C315B02D9C31E62408009C31E224080006
:102B60002D08FC002C08FB0021088A0020080A0020
:102B70009531013A0319AD2D033A0319AA2D013AF3
:102B80000319AA2D073A0319AD2DAD2D0800003009
:102B90009F311A2795312100EE006E0A031D6E0841
:102BA000031DE32D10302000AB0000309131CD210A
:102BB0009531AA302000AB0001309131CD21953103
:102BC00010302100EE0030309F311A27953120005F
:102BD000AD002D0A031DF32DAB0130309131CD2115
:102BE0002000D801080077302D06031DFA2DD801EA
:102BF000D80A080088302D06031DEC2DAB013030BB
:102C00009131CD2102302000D80008002E082D047B
:102C10002C042B0403193F2EB401B40AAE1B1C2E46
:102C20000130AB35AC0DAD0DAE0D890B112E013061
:102C3000B3003308B4070E2E2E083202031D2A2ECD
:102C40002D083102031D2A2E2C083002031D2A2EC6
:102C50002B082F02031C342E2B08AF022C08B03B8C
:102C60002D08B13B2E08B23B0130AE36AD0CAC0C9A
:102C7000AB0C890B352E0130B402031D1C2E32081B
:102C8000AE003108AD003008AC002F08AB000800E2
:102C9000BD0021003B088A311C229631BE003E084F
:102CA000031D5B2E632E03302100BA0008000430A0
:102CB0002100BA0008003E08013A0319532E033AD6
:102CC0000319572E572E3C082100E900EA01013074
:102CD000E7000030E800EB3086000030870002306B
:102CE0008100B901B90ABA01BA0A2000D1013D3008
:102CF000AB000030AC000130AD000030AE009F31C1
:102D0000C0279631E7302000BA000030BB00933175
:102D10007C2396319C31FA240800210091129930CD
:102D20002000AB001430AC009D319B259631210072
:102D3000111206302000AB001230AC009D31A325EB
:102D40009631083023009F0090309D0004309E0093
:102D500040309B0003309C0072302000AB001C30E0
:102D6000AC009D318B259631C2302000AB001C3069
:102D7000AC009D319325963180302000AB001C3093
:102D8000AC009D3183252100CF01D3012000E0015B
:102D900008302100D2002000DF012100D101D00144
:102DA000911608002000AD002D080319FD2E913169
:102DB00095219631003A0319DF2E003008009C312E
:102DC000B32496311A303D0091000E303C00A00033
:102DD0001B303D0090000C303C00A10018303D003D
:102DE0009E0001303C009D0019303D009C003C00DD
:102DF0009E019131B1219631162F9C31B3241830A8
:102E00003D00910001303C00A00019303D009000D1
:102E10003C00A1011A303D009E000E303C009D0098
:102E20001B303D009C000C303C009E00013008002F
:102E3000BF0054308A311C229731C0004008031D66
:102E4000282F332F0330252F04302100BA00302FD4
:102E50004008013A0319222F033A0319242F242F83
:102E60002000400808003E082100EA0020003D083C
:102E70002100E9000130E7000030E800EB30860077
:102E80000030870002308100B901B90ABA01BA0ADC
:102E90002000D1013F082100ED00ED302000AB0003
:102EA0000030AC000130AD000030AE009F31C027D3
:102EB0009731E7302000BA000030BB0093317C230B
:102EC00097319C31FA2408009C319B2497312000D3
:102ED000DE0021004C080319732F20005E08DD007E
:102EE0002100CC010800803020005D020318952FDE
:102EF00020305D02031CAC2F310095187C2F151774
:102F000015157030920020005D0831009100940189
:102F100020005E08310093008B1355309600AA30D4
:102F20009600951415118B17AC2FA0305D02031C71
:102F3000AC2F5D08F000F101F030F2002230F30018
:102F400070087207F4007108733DF500740886007C
:102F5000750887005E0881000130F00070082000CD
:102F6000DD0708000330C4000030AE000030AD00C3
:102F70000030AC000A30AB003C08B2003B08B100A6
:102F80003A08B0003908AF009631062697312B0871
:102F9000303EBF004408C000C101C01BC10340084F
:102FA0003D07C20041083E3DC30042088600430879
:102FB00087003F08810044080319F92F0030AE0054
:102FC0000030AD000030AC000A30AB003C08B2006D
:102FD0003B08B1003A08B0003908AF008831202022
:102FE00097312E08BC002D08BB002C08BA002B0816
:102FF000B900FF30BF003F08C407C41B0800B42F4E
:1030000039341D3463341D3440341D34C534083420
:10301000883415341B341D34EB341234CE341C3454
:10302000D2341C34D6341C34DA341C34DE341C3430
:10303000E2341C34E6341C3447341D345734133422
:0430400002342434FE
:1038E4000800080008000800080008000800080094
:1038F40001300800053008001F15080091316421CB
:10390400080024009614080024001615080020005E
:103914001F1108002400961508002400110808004F
:103924002000911508002000911108008A317322AB
:10393400080024001908080020009211080024003F
:103944001D1608002000911108002400951208009B
:10395400210091110800240016140800210091157B
:1039640008009F310D27080021009215080021004E
:10397400B201080020005008080020009717080032
:1039840023001D121D1608002400961616160800A2
:1039940024009612161608009C3183240130080076
:1039A4009C318324023008009C31832401300800B8
:1039B4009C318624003008009C31CA24053008005C
:1039C4009C31C6240A3008009C31C6240930080002
:1039D4001C0C890C0139080024001C08013908005A
:1039E40091109E3132260800AB002B089D00080080
:1039F4000030933133230800A230220097000800DE
:103A04001330210097000800F00070082400910092
:103A14000800F00070082400990008002200430CFC
:103A2400890C013908002400160E890C890C01390F
:103A34000800220043109C318C2404300800031039
:103A44001E1F03140030093D08000130F000700807
:103A54002000D90708002000AB002B3524009B0070
:103A6400080003109D1C03140030093D08002200C7
:103A7400C310C2019C3189240E3008002200431473
:103A84003C359D310625033008002200C310C201D5
:103A94009C3189240E300800031024009C1E03145A
:103AA4000030093D0800031024001C1C03140030DE
:103AB400093D08002000AB002B08FE3924009A00C1
:103AC40008002200431403143C0D9D3106250530E3
:103AD40008002C082100B10020002B082100B000B0
:103AE40008002C082200D50020002B082200D40056
:103AF40008002C082100AD0020002B082100AC0098
:103B040008002C082300D60020002B082300D50031
:103B140008002C082200DB0020002B082200DA0019
:103B240008002C082200D90020002B082200D8000D
:103B340008002C082200DD0020002B082200DC00F5
:103B440008002C082200DF0020002B082200DE00E1
:103B540008002C082200ED0020002B082200EC00B5
:103B640008002C082200EB0020002B082200EA00A9
:103B740008002C082200E90020002B082200E8009D
:103B840008002C082200E70020002B082200E60091
:103B940008002C082200E50020002B082200E40085
:103BA40008002C082200E30020002B082200E20079
:103BB40008002C082200E10020002B082200E0006D
:103BC400080032009101920193019401950196013C
:103BD40008002C082200D70020002B082200D60061
:103BE40008001C082000AC0021001B082000AB00CA
:103BF4000800003020008E180130D7000130210069
:103C0400C8000800031020000E1E0314003003181F
:103C14000130DC000800AB002B082100BB00BA0116
:103C2400B9012000D1010800E33021009E009F016A
:103C34009B019C0101309D00080060303200990016
:103C44009B019D0107309F009E01080024009D1ADE
:103C540008009C0106309D0001309E009D1608005E
:103C64002200540855040319080055088A00540812
:103C74000A009E3108002400951A080094010830B7
:103C8400950096014F309200951608003708AC0055
:103C94003608AB003808AD00AE01023089316F211F
:103CA40008003708AC003608AB003808AD00AE0198
:103CB400013089316F210800C31D08007108BE005E
:103CC4007008BD007308C0007208BF00C31108006B
:103CD4002108F1002008F0002308F3002208F20074
:103CE4000030893119210800F0009C319B249E3159
:103CF4002100CD007008031908000130CC00080031
:103D040090122200560857040319080057088A0025
:103D140056080A009E3108003708AC003608AB008C
:103D24003908AE003808AD00003089316F21080031
:103D34003708AC003608AB003808AD000130AE00DF
:103D4400043089316F2108006400800101310130A1
:103D5400FE020030FF3B7F087E0403190034A72EC7
:103D640022006C086D040319BC2E6D088A006C08CF
:103D74000A009E3127001311080022006A086B0410
:103D84000319C92E6B088A006A080A009E312700AD
:103D9400961208002200680869040319D62E6908DF
:103DA4008A0068080A009E31270096130800220042
:103DB400660867040319E32E67088A0066080A0088
:103DC4009E312700191008002200640865040319B5
:103DD400F02E65088A0064080A009E3127009910B5
:103DE40008002200620863040319FD2E63088A0098
:103DF40062080A009E312700991108002200600819
:103E0400610403190A2F61088A0060080A009F31BF
:103E1400270019120800210092112000921112119A
:103E240024009D129C0106309D0001309E00080074
:103E34002000AB00310015177030920020002B08D1
:103E440031009100151413080800AC002C08AB00D5
:103E5400AB0DAB0D21001D0820002B0603392B06EA
:103E640021009D001D140800AB0021003208200031
:103E74002B06003E840090300318013E85000008A4
:103E84002100B2003208080020008D1A4C2FF001E6
:103E9400F101502F7730F0000030F10072308600CD
:103EA4002330870070088100080020008D1B5D2FDF
:103EB400F001F101612F7730F0000030F100713032
:103EC40086002330870070088100080020008E1DC2
:103ED400722F9230860023308700FF308100080063
:103EE400923086002330870077308100080020005C
:103EF400AB002B08CF00CE012100B601B501B701FC
:103F04002000D0012100B801B3012000DB0108002A
:103F14002000E2012100EF01EF0A02302200EF004D
:103F2400240094010830950096014F3092009512B8
:103F34000800FF309E009D01911021009114FF3074
:103F44002000AB000730AC009D31732523302000E6
:103F54009F0008004D3020009800303096009501F5
:103F640090122100901600302000AB000830AC0005
:103F74009D31EB2580302000970008002200C31DEE
:103F8400080020002C082200BE0020002B0822007C
:103F9400BD0020002E082200C00020002D082200B1
:103FA400BF00C311080021009211200092111211C8
:103FB40024009D129C0106309D0001309E000130BA
:103FC4002100CC002000DD0110302100EE000800AB
:103FD4007C08F1007B08F0000230F2000030F300AE
:103FE4009E315E269F3100302000A000A1000030E9
:0C3FF400A200A3009E316A2604300800E1
:020000040001F9
:08000000FF3FFF3FFF3FFF3F00
:08000E008C3FF53FFF3FFF3F6F
:00000001FF
