:1000000080315E28013008007E1480312100901E6E
:100010000A280B2814282000901E0F2810281428C6
:100020008C31BD2480315C282100101E182819282D
:1000300022282000101E1D281E2822288D314C2524
:1000400080315C280B1F252826285C282100111DE3
:100050002A282B2836282000111D2F283028362842
:1000600031088A0030080A0080315C282100911D87
:100070003A283B2841282000911D3F28402841284C
:1000800030282100121D4528462851282000121D25
:100090004A284B28512825088A0024080A00803164
:1000A0005C282100921D552856285C282000921DAE
:1000B0005A285B285C284B287E1009008031602874
:1000C00070308400233085008030FE000030FF0057
:1000D0008C3132248031FB01FC01FD012030840091
:1000E000003085003A30FE000030FF008C313224B1
:1000F0008031A0308400003085002C30FE000030BC
:10010000FF008C31322480317E1020008631E52EB4
:100110002000350803198D288E2899284408EE0000
:100120003408EE0235086E0203189728982899289B
:10013000832BB5013A2BB801B80A832B3230E20089
:100140009030E3000330E4000030E5000030E600CA
:10015000E7000030E800E900EA01EB01EB0A0230B9
:10016000EC00ED01ED0A8431DE248031832B003078
:10017000E200E3000030E400E5007D30E6000030FE
:10018000E7000130E8000030E900EA01EA0A023045
:10019000EB000330EC00ED01ED0A8431DE24803108
:1001A000832BC0307D05EE0080306E06031DD928FC
:1001B000DA28E3280430B8002008860021088700E8
:1001C0007D088100832B0F30B8007D08C039EE0018
:1001D00020088600210887006E088100832B2C30C0
:1001E000E2009030E3000330E4000030E50000302E
:1001F000E600E7000230E8000030E9000230EA00E3
:100200000430EB000530EC00ED01ED0A8431DE2412
:100210008031832B20088600210887007D0881001B
:1002200027308F31BA278031003A0319182919294C
:10023000832B39302000E2009030E3000130E400ED
:100240000030E5000030E600E7000230E800003052
:10025000E9000430EA000530EB000630EC00ED0167
:100260008431DE248031832B2930E2009030E3009A
:100270000330E4000030E5000030E600E700023023
:10028000E8000030E9000230EA000630EB000730F9
:10029000EC00ED01ED0A8431DE248031832B20084F
:1002A0008600210887007D08810027308F31BA271A
:1002B0008031003A03195D295E29832B38302000F4
:1002C000E2009030E3000130E4000030E50000304F
:1002D000E600E7000230E8000030E9000430EA0000
:1002E0000730EB000830EC00ED018431DE24803172
:1002F000832B2630E2009030E3000330E40000302E
:10030000E5000030E600E7000230E8000030E900D8
:100310000230EA000830EB000930EC00ED01ED0A94
:100320008431DE248031832B200886002108870059
:100330007D08810027308F31BA278031003A0319B8
:10034000A229A329832B37302000E2009030E3005C
:100350000130E4000030E5000030E600E700023044
:10036000E8000030E9000430EA000930EB000A3010
:10037000EC00ED018431DE248031832B2330E20058
:100380009030E3000330E4000030E5000030E60088
:10039000E7000230E8000030E9000230EA000A30ED
:1003A000EB000B30EC00ED01ED0A8431DE248031EE
:1003B000832B20088600210887007D0881002730D4
:1003C0008F31BA278031003A0319E729E829832BB6
:1003D00036302000E2009030E3000130E4000030CD
:1003E000E5000030E600E7000230E8000030E900F8
:1003F0000430EA000B30EB000C30EC00ED018431EE
:10040000DE248031832B2030E2009030E300033083
:10041000E4000030E5000030E600E7000230E800CC
:100420000030E9000230EA000C30EB000D30EC0047
:10043000ED01ED0A8431DE248031832B2008860013
:10044000210887007D08810027308F31BA2780314D
:10045000003A03192C2A2D2A832B35302000E20084
:100460009030E3000130E4000030E5000030E600A9
:10047000E7000230E8000030E9000430EA000D3007
:10048000EB000E30EC00ED018431DE248031832B53
:100490002F30E2009030E3000330E4000030E5004C
:1004A0000030E600E7000030E800E900EA010E3025
:1004B000EB000F30EC00ED01ED0A8431DE248031D9
:1004C000832B1430B5004408B4001030B800832BDF
:1004D0000030E200E3000030E400E5000030E60018
:1004E000E7000030E800E900EA011030EB001130CD
:1004F000EC00ED01ED0A8431DE2480310330200070
:10050000B5004408B400832B0030E200E300003063
:10051000E400E5004D30E6000030E7000430E8007C
:100520000030E900EA01EA0A1130EB001230EC0079
:10053000ED01ED0A8431DE248031832BC0304D057E
:10054000EE007D083F396E04FD000F30B8003F30EB
:10055000EE0020088600210887006E0881054D08FE
:10056000C039EE0020088600210887006E0881044B
:100570003F30EE006E08CD05200886002108870078
:1005800041314F08C03F5008C13F20088600210874
:10059000870043314D08C03F4E08C13F832B3308CD
:1005A000031DD32AD42AD82AB2013708B800832BD6
:1005B0003608B80015303202031CDF2AE02A832BEC
:1005C0001430B8002008860021088700FF30810021
:1005D00020088600210887004331FF30C03FFF30EC
:1005E000C13F20088600210887004131FF30C03F0D
:1005F000FF30C13F832B0130EE006E08B207360892
:10060000B80015303202031C062B072B832B143045
:10061000B8002008860021088700FF3081002008EC
:100620008600210887004331FF30C03FFF30C13FC3
:1006300020088600210887004131FF30C03FFF308D
:10064000C13F832B8D317F2580312000EE00EF01EB
:100650006F08003A03192D2BFB2A6E08003A031984
:10066000CF2A013A0319832B033A0319FB2AFB2AE9
:10067000B801832B3808EE00EF016F08003A031928
:10068000422B382B6E08003A03199B28013A0319B4
:100690009E28033A0319B728013A0319D128073ACB
:1006A0000319EF28013A03190A29033A03193429D7
:1006B000013A03194F290F3A03197929013A03190D
:1006C0009429033A0319BE29013A0319D929073A93
:1006D0000319032A013A03191E2A033A0319482A67
:1006E000013A0319612A1F3A0319682A013A0319CA
:1006F000842A033A03199E2A013A0319222B073A46
:100700000319832B382B080020003F080319892B7D
:100710008A2BAF2C4408E8003E08E8023F08680234
:100720000318932B942BAF2CDD2CC201C20ADD2CB5
:1007300022000C1502302000BF004408BE00023029
:10074000C200DD2C0230D5005530E2000130E3005C
:100750000030E40000308E31F9268331003A03196D
:10076000B22BB32BDD2C0A302000C2000530C100B3
:100770004408BA000230C000DD2C22000C116430A5
:100780002000BF004408BE000430C200DD2C22005F
:100790000C1502302000BF004408BE004408BA0017
:1007A0000530C200DD2C0E1DD62BD72BDE2B0230E0
:1007B000BF004408BE000630C200DD2C4408E8003B
:1007C000E9016908EB003A086802EA00031CEB0340
:1007D0006B08803AEC0080306C02031DF12B28304E
:1007E0006A02031CF42BF52BDD2C22000C111430B3
:1007F0002000BF004408BE00952B5530E2000330B6
:10080000E3000030E40002308E31BC268331003A30
:1008100003190B2C0C2CDD2C0A302000C2000730F1
:10082000C1000630C000DD2C2208860023088700A6
:10083000550881005608E8002208013EE900003012
:10084000233DEA00690886006A088700680881007D
:100850005708E8002208023EE9000030233DEA0084
:10086000690886006A088700680881000830C200AD
:10087000DD2C660886006708870077300106031DB7
:10088000422C432C642CD5011930D6005530E2009F
:100890000230E3000030E40012308E31F92683315B
:1008A000003A0319542C552CDD2C0A302000C200CC
:1008B0000930C1004408BA000230C0006608860052
:1008C000670887008101DD2C3D080319682C692C1D
:1008D0006C2C0330C200DD2C0530C2004408BA0085
:1008E000DD2C8D317F258331003A031D782C792C46
:1008F000DD2C20003C08031D7E2C7F2C832CBB01AB
:100900004108C200DD2C4008C20015303B02031C28
:100910008A2C8B2CDD2C22000C110B302000C20005
:100920002208860023088700FF3081002208013E4C
:10093000E8000030233DE900680886006908870068
:10094000FF3081002208023EE8000030233DE9002C
:100950006808860069088700FF308100DD2C4208A6
:10096000E800E9016908003A0319B72CDD2C680892
:10097000003A0319952B013A0319982B033A0319EE
:10098000A22B013A0319BD2B073A0319C72B013AD1
:100990000319D32B033A0319FD2B013A0319142C25
:1009A0000F3A0319392C013A0319642C033A03193D
:1009B000712C013A0319DD2CDD2C080020006D0894
:1009C0000319E32CE42CED2C39088F31BA2784313C
:1009D000003A031DEC2CED2C592D2000B3016208C8
:1009E00063040319F42CF52C062D6408650403191F
:1009F000FA2CFB2C062D6308DB006208DA00650880
:100A0000DD006408DC008D31352584312000660866
:100A1000670403190C2D0D2D242D68086904031992
:100A2000122D132D242D6A08C9006630CA006908EA
:100A3000CC006808CB002B30DE000630DF004930E8
:100A4000E0008C312624843120006A030319292D0B
:100A50002A2D382DC730DE000B30DF000030E000DB
:100A6000E1008C311A2484318B316A238431522D78
:100A70006608670403193D2D3E2D4F2D6808690453
:100A80000319432D442D4F2D6708DB006608DA005B
:100A90006908DD006808DC008D31352584318B3133
:100AA0006F23843120006C08B7006B08B600133048
:100AB000B80008008A31ED2285318B3192238531CF
:100AC000003A0319642D652D752D8B312E23853148
:100AD000003A03196C2D6D2D712D01302000C500D9
:100AE000AD2D02302000C500AD2D8B312E23853178
:100AF000003A03197C2D7D2D812D03302000C50087
:100B0000AD2D04302000C500AD2D8B31AE238531D5
:100B10008B3199238531003A03198F2D902DC32DE8
:100B20008D31D7258531C32D8B31AE238531C32D32
:100B30008B3199238531003A03199F2DA02DC32DA8
:100B4000902D8B311A238531003A0319A82DA92D38
:100B5000C32D8F3137278531C32D4508F900FA01A0
:100B60007A08003A0319B52DC32D7908013A031903
:100B7000852D033A0319942D013A0319982D073A4C
:100B80000319A12DC32D8A31F022853108000030D0
:100B90008C31FB2485312100D400540A031DD12D52
:100BA000D22DDB2D1030D40010302000DA000030C0
:100BB0008E314426853101308C31FB248531AA3AAF
:100BC0000319E32DE42DEB2DAA302000DA000130CB
:100BD0008E314426853102308C31FB248531003A38
:100BE0000319F32DF42DFA2D2000DA0102308E3195
:100BF0004426853103308C31FB248531303A03198A
:100C0000022E032E0A2E30302000DA0003308E31FF
:100C10004426853104308C31FB248531313A031967
:100C2000122E132E1A2E31302000DA0004308E31AD
:100C30004426853105308C31FB248531313A031946
:100C4000222E232E2A2E31302000DA0005308E315C
:100C5000442685310800770803192F2E302E762E72
:100C6000782E770886008701033081007D30F00000
:100C70000030F1000130F2000030F3008C317224BA
:100C8000863103302000C900770886008701413F84
:100C9000CA007708023E86008701403FCB00413FF3
:100CA000CC002B30F4000630F5004930F6008C31D2
:100CB0000F24863102308E2E770A860087010108C4
:100CC000F000F1017708023E86008701403FF20004
:100CD000413FF3008C31722486310030F400F5007E
:100CE000F6018C310F24863104308E2E01308E2E89
:100CF0007708860087010108F800F9017908003AB1
:100D00000319832E762E7808023A0319312E013A00
:100D100003195C2E073A03195C2E762E08008B31DE
:100D200074238631003A0319962E972EC52EA42ED1
:100D30008B3142238631E42E8B3147238631E42EDA
:100D40008B3151238631E42E21002F08F700063025
:100D5000A03E86008701413F8A00403F0A0086315D
:100D6000F100F2017208003A0319B72EA02E7108A3
:100D7000013A0319A02E033A0319982E013A0319D8
:100D80009C2E073A0319A02EA02E21003D103808F2
:100D9000F2003708F100B70A0319B80A7108840095
:100DA0007208850000088B3138238631013021001C
:100DB000B9020030BA3B39083A04031DE02EE12E97
:100DC000E32E0630E42E033008002000C401E73093
:100DD000DA000A30DB008B31D9238631E83020007D
:100DE000DA000A30DB008B31E2238631E930200063
:100DF000DA000A30DB008B31EB2386317A302000B9
:100E0000DA000B30DB008C31062486318D311F2552
:100E100086318531C72586318D310B2586318B177B
:100E20000B178B3117238631210054088D3165252E
:100E3000863170302000DA002330DB008C315824FA
:100E4000863180302000DA002330DB008C31CC2466
:100E5000863180318820863190302000E6002330B2
:100E6000E7008331842386316400292F80315E2896
:100E70008B310223873121003D1C3F2F402F4B2F08
:100E80008B3174238731003A0319472F482F4B2F9A
:100E90000F302100BB0021003D184F2F502F762F1F
:100EA0008B3174238731003A0319572F582F762F2F
:100EB00021003B08F300F401F335F40D0030730713
:100EC00084001030743D80388500013F8A00003F67
:100ED0000A0087312100BB000A303B06031D712F39
:100EE000722F8A2F8B313D2387318A2F21003B08B7
:100EF000F300F401F335F40D003073078400103073
:100F0000743D80388500013F8A00003F0A00873128
:100F10002100BB00080022008C018D018E013330BE
:100F200021008C00F0308D00FF308E0091302300C6
:100F30008E008D0137308C0024008D018C018E01D4
:100F400025008C018D018E01373026008C00F03099
:100F50008D00FF308E003F3027008C00F0308D0078
:100F6000FF308E00991099111913981098111813C9
:100F7000971497151717210010160F303C009E008C
:100F80000C30A00019303D009E001B309F001A302D
:100F90009D0018309C000E303C00A1000D309D00DB
:100FA00008002100BD15E12F8B314C238731FD2F27
:100FB0008A31FF2287310330FD2F8B315123873156
:100FC000FD2F2C08F70021088A0020080A0087312D
:100FD000F000F1017108003A0319EF2FDD2F7008BE
:100FE000013A0319DD2F033A0319D42F013A0319EB
:100FF000D42F073A0319D82FDD2F08000530080039
:1015CE0008000800080024001108080020009111EE
:1015DE00080024001516080024009E14080024009C
:1015EE001E15080024009E15080024001908080086
:1015FE0020009215080020009211080024001E14ED
:10160E000800200092110800210092150800240005
:10161E009D1208002100921108002100911508006A
:10162E002000971708002400140801390800240030
:10163E009E161E16080024009E121E1608008731E4
:10164E0038278B3108000E30210097000800240047
:10165E00140C890C01390800F00070082400910068
:10166E000800F00070082400990008002100BD1049
:10167E00BC010E3008008A31F3228B310130080094
:10168E008A31F3228B31023008008A31F3228B31FA
:10169E00013008008A31F6228B31003008008B3180
:1016AE0022238B31053008008B311E238B310A30FB
:1016BE0008008B311E238B31093008002100BD102C
:1016CE00BC010E30080000308D319A258B31080098
:1016DE0001308D319A258B31080024001E0E890CA5
:1016EE00890C013908000130F00070082000C40791
:1016FE00080020005B08A5005A08A400080020007E
:10170E005B08B1005A08B00008002000DA005A3514
:10171E0024009300080003102400941E03140030CC
:10172E00093D080003102400141C03140030093D69
:10173E00080021003D108A31F9228B310430080057
:10174E002000DA005A08FE392400920008008A317F
:10175E00EA228B312000C7000130C600080032009B
:10176E0091019201930194019501960108002000C8
:10177E00BC01BC0A0130F8007808BB070130080034
:10178E002000B301B30A0130F8007808B207013027
:10179E00080021003D140314360D8B3138238B3194
:1017AE000530080020005B082100D30020005A08F5
:1017BE002100D200080020005B082100D10020008B
:1017CE005A082100D000080020005B082100CF003D
:1017DE0020005A082100CE00080024009C01083089
:1017EE009D009E0109309A009D1208006030320063
:1017FE0099009B019D0103309F009E01080020006F
:10180E005B082100CD0020005A082100CC00080002
:10181E007508F1007408F0007608F20000308D3182
:10182E00FB258C31080020005F08DB005E08DA0023
:10183E006008DC0002308E311F268C31080020003B
:10184E005F08DB005E08DA006008DC0000308E31D5
:10185E001F268C3108006400800101310130FE0228
:10186E000030FF3B7F087E04031D332C0034F00054
:10187E007030310092007008910015171514000099
:10188E00000031001308080024009D1A4F2C502C24
:10189E00572C9C0108309D009E0109309A009D1620
:1018AE00080027302000B9005B08A1005A08A000EC
:1018BE00B801B701B501B301B201080049302000EB
:1018CE00980061309600950190122100901680309C
:1018DE002000970008002100BD1D762C772C802C4F
:1018EE007108B8007008B7007308BA007208B90022
:1018FE00BD11080021003D1436358B3138238C3153
:10190E002100BD198B2C8C2C8E2C03308F2C0A3081
:10191E0008002100520853040319962C972C9C2C76
:10192E0053088A0052080A008C31270099100800CB
:10193E002100500851040319A52CA62CAB2C5108DC
:10194E008A0050080A008C312700991108002100E6
:10195E004E084F040319B42CB52CBA2C4F088A002C
:10196E004E080A008C31270019130800200090122F
:10197E0021004C084D040319C52CC62CCB2C4D0848
:10198E008A004C080A008C31080020005B08A30076
:10199E005A08A200C201C101C001BF01BD01BD0AAA
:1019AE004130C300BC0108002400951ADF2CE02C46
:1019BE00EA2C940106302000DA005A08240095041F
:1019CE008130960095160800240094010630200000
:1019DE00DA005A08240095048130960095120130E1
:1019EE002000C600FB0108002000DA007030310034
:1019FE00920020005A0831009100151715140000AE
:101A0E0000003100130808002000DB015B08703E67
:101A1E00860087012330873D81010130DA005A08A4
:101A2E00DB0780305B02031C1D2D1E2D0D2D0800C3
:101A3E008B31B6238D318C31EB248D318B31F423E8
:101A4E008D3187318B278D318B31FD238D318B314C
:101A5E002A238D318C3165248D3108002100BD1D66
:101A6E00392D3A2D4B2D20005B082100B8002000A7
:101A7E005A082100B70020005D082100BA0020009E
:101A8E005C082100B900BD1108002700991C502DDB
:101A9E00512D542D8C3190248D312700991D582DA8
:101AAE00592D5C2D8C319F248D312700191F602DEF
:101ABE00612D642D8C31AE248D3108002000DC00A8
:101ACE008C31DB248D3120005C088B31A7238D31C6
:101ADE007F308B318C238D315A302000DA00053067
:101AEE00DB008B3186238D318B3114238D31080031
:101AFE002000DA01DA0A2100BD18862D872D972DD8
:101B0E003D11FF30B6008B3108238D318B311123FF
:101B1E008D318B310E238D3121003C082000DA00EF
:101B2E0020005A0808002000DA00DB01DB0A210041
:101B3E00BD18A22DA32DB52DBD142000DB015A0812
:101B4E000319AA2DAB2DAF2D2100BB01BB0AB22D5F
:101B5E0002302100BB008B3105238D3120005B0844
:101B6E000800F10000308B1B0130F20070303100A4
:101B7E0092007108910070089300151715158B13BC
:101B8E0055309600AA30960095149518CF2DD02D6D
:101B9E00CC2D1511720C031C8B1303188B17080018
:101BAE0080307B020318DC2DDD2DE52D7B088C317A
:101BBE003E248D318B3133238D31F62D7B08F10090
:101BCE00F201F030F3002230F40071087307860042
:101BDE007208743D870001088B3133238D3101303B
:101BEE00F1007108FB070800F30070087104031977
:101BFE00012E022E112E7335A03E8600870170082D
:101C0E00C03F7108C13F7308AC3E86008701720861
:101C1E0081001E2E7335A03E860087010230C03F24
:101C2E000030C13F7308AC3E860087018101080079
:101C3E002000DD005A085B040319262E272E362EAF
:101C4E005D35A03E860087015A08C03F5B08C13F44
:101C5E005D08AC3E860087015C088100432E5D3531
:101C6E00A03E860087010230C03F0030C13F5D08B4
:101C7E00AC3E86008701810108002000DB000030A9
:101C8E008B1B0130DC0070303100920020005B08AD
:101C9E003100910020005A083100930015171515D8
:101CAE008B1355309600AA30960095149518602E19
:101CBE00612E5D2E151120005C0C031C8B13031876
:101CCE008B17080021003D100230BC00762E8B31A0
:101CDE004C238E31902E8B3151238E31902E2E0827
:101CEE00F7000430A03E86008701413F8A00403F46
:101CFE000A008E31F000F1017108003A0319882EA6
:101D0E00722E7008023A03196E2E013A03196E2EC6
:101D1E00722E080077080319952E962EBA2E770A82
:101D2E00860087010108F000F1017708023E860067
:101D3E008701403FF200413FF3008C3172248E3117
:101D4E000030F400F500F6018C310F248E31770847
:101D5E008600870101080319B52EB62EB82E043061
:101D6E00BB2E0230BB2E013008002000E5004308D8
:101D7E008F31BA278E31003A031DC62EC72EF72E8D
:101D8E0020006208D2006408D4006308D300D10199
:101D9E009130DE000E30DF005130E0008C31262411
:101DAE008E3120006508D9005930DA000030DB0092
:101DBE000130DC000030DD008D3135258E31200004
:101DCE00BC01BE30DE000B30DF000030E000E10071
:101DDE008C311A248E318B316A238E310130F82EDC
:101DEE00003008002000E50043088F31BA278E31FD
:101DFE00003A031D032F042F352F20006208D20056
:101E0E006408D4006308D3000130D1009130DE00A5
:101E1E000E30DF005130E0008C3126248E31200050
:101E2E006508D9005930DA000030DB000130DC00E3
:101E3E000030DD008D3135258E312000BC01BE30E5
:101E4E00DE000B30DF000030E000E1008C311A24A0
:101E5E008E318B316A238E310130362F00300800DF
:101E6E008A31EA228F31FC00200046080319402FE8
:101E7E00412F452F7C08FB00C601752F80307B0259
:101E8E0003184A2F4B2F582F20307B02031C502F44
:101E9E00512F712F7C08F0007B088D31B8258F31C2
:101EAE00712FA0307B02031C5D2F5E2F712F7B08DC
:101EBE00F300F401F030F5002230F60073087507D8
:101ECE00F7007408763DF8007708860078088700DA
:101EDE007C0881000130F3007308FB070800210025
:101EEE0037088600380887008A31FC228F3181003E
:101EFE0001302100B7070030B83D0130B902003083
:101F0E00BA3B39083A0403198D2F8E2F932F8B313C
:101F1E0022238F310530B92FBD159D2F8B316023B4
:101F2E008F31B92F8B315B238F31B92F2C08F700EE
:101F3E0021088A0020080A008F31F000F101710893
:101F4E00003A0319AB2F992F7008013A0319992FF4
:101F5E00033A0319952F013A0319952F073A0319DE
:101F6E00992F992F08002000DC00DD01DD0A2100E9
:101F7E003D19C22FC32FFD2F20005C082100B60093
:101F8E00BD103D153D100E30BB00F430B4000130D5
:101F9E00B500BD150230A0000030A100AC0102302A
:101FAE00A2000030A300AD010230A4000030A50055
:101FBE00AE010230A6000030A700AF01FE30A8002F
:101FCE000730A900B00126302000DA000B30DB000C
:101FDE008B3180238F318B3108238F318C314B2401
:101FEE008F318B310B238F312000DD0120005D08F6
:101FFE0008003D340B34D0340B3481340C348F3420
:10200E00063476340F34A0340B34D13407344234D2
:10201E000B3447340B344C340B3451340B345634AC
:10202E000B345B340B3460340B3465340B3469344D
:10203E000E341B34003400341A3400340034193496
:10204E00003400341834003400341C3400340034AE
:10205E00803400340034A034003400345B345A34FD
:06206E00593458345C34C3
:020000040001F9
:08000E00EC3FFF3FFF3FFF3F05
:00000001FF
