:1000000080316028053008007E1480312100901E68
:100010000A280B2814282000901E0F2810281428C6
:100020008C31D42480315E282100101E1828192814
:1000300022282000101E1D281E2822288D317325FD
:1000400080315E280B1F252826285E282100111DDF
:100050002A282B2837282000111D2F283028372840
:1000600021003B088A003A080A0080315E282100FE
:10007000911D3B283C2842282000911D4028412802
:10008000422830282100121D4628472853282000E6
:10009000121D4B284C28532821002F088A002E08B7
:1000A0000A0080315E282100921D572858285E28BA
:1000B0002000921D5C285D285E284C287E100900D7
:1000C0008031622870308400233085008030FE004B
:1000D0000030FF008C3149248031FB01FC01FD011F
:1000E00020308400003085003830FE000030FF00F2
:1000F0008C3149248031A0308400003085002E30BE
:10010000FE000030FF008C31492480317E10200039
:100110008631CB2E2000450803198F2890289B2874
:100120005308EE004408EE0245086E0203189928B1
:100130009A289B286E2BC501252BC801C80A6E2B57
:100140003230E2009030E3000330E4000030E5009C
:100150000030E600E7000030E800E900EA01EB01CA
:10016000EB0A0230EC00ED01ED0A8431BD24803150
:100170006E2B0030E200E3000030E400E5007D304B
:10018000E6000030E7000130E8000030E900EA0155
:10019000EA0A0230EB000330EC00ED01ED0A843195
:1001A000BD2480316E2BC0307D05EE0080306E06A0
:1001B000031DDB28DC28E5280430C8003E08860043
:1001C0003F0887007D0881006E2B0F30C8007D0836
:1001D000C039EE003E0886003F0887006E088100A7
:1001E0006E2B2C30E2009030E3000330E40000304E
:1001F000E5000030E600E7000230E8000030E900EA
:100200000230EA000430EB000530EC00ED01ED0AAD
:100210008431BD2480316E2B3E0886003F08870064
:100220007D08810027308F3138278031003A03194B
:100230001A291B296E2B39302000E2009030E30090
:100240000130E4000030E5000030E600E700023055
:10025000E8000030E9000430EA000530EB00063029
:10026000EC00ED018431BD2480316E2B2930E20099
:100270009030E3000330E4000030E5000030E60099
:10028000E7000230E8000030E9000230EA00063002
:10029000EB000730EC00ED01ED0A8431BD24803124
:1002A0006E2B3E0886003F0887007D0881002730BE
:1002B0008F3138278031003A03195F2960296E2B6E
:1002C00038302000E2009030E3000130E4000030DC
:1002D000E5000030E600E7000230E8000030E90009
:1002E0000430EA000730EB000830EC00ED01843107
:1002F000BD2480316E2B2630E2009030E3000330C5
:10030000E4000030E5000030E600E7000230E800DD
:100310000030E9000230EA000830EB000930EC0060
:10032000ED01ED0A8431BD2480316E2B3E0886003C
:100330003F0887007D08810027308F3138278031C2
:10034000003A0319A429A5296E2B37302000E200BA
:100350009030E3000130E4000030E5000030E600BA
:10036000E7000230E8000030E9000430EA0009301C
:10037000EB000A30EC00ED018431BD2480316E2B9E
:100380002330E2009030E3000330E4000030E50069
:100390000030E600E7000230E8000030E9000230FB
:1003A000EA000A30EB000B30EC00ED01ED0A84317D
:1003B000BD2480316E2B3E0886003F0887007D08F3
:1003C000810027308F3138278031003A0319E9291D
:1003D000EA296E2B36302000E2009030E300013035
:1003E000E4000030E5000030E600E7000230E800FD
:1003F0000030E9000430EA000B30EB000C30EC0078
:10040000ED018431BD2480316E2B2030E20090302C
:10041000E3000330E4000030E5000030E600E700D0
:100420000230E8000030E9000230EA000C30EB0056
:100430000D30EC00ED01ED0A8431BD2480316E2BCE
:100440003E0886003F0887007D08810027308F31F5
:1004500038278031003A03192E2A2F2A6E2B353087
:100460002000E2009030E3000130E4000030E500BD
:100470000030E600E7000230E8000030E900043018
:10048000EA000D30EB000E30EC00ED018431BD24AC
:1004900080316E2B2F30E2009030E3000330E40017
:1004A0000030E5000030E600E7000030E800E90039
:1004B000EA010E30EB000F30EC00ED01ED0A843163
:1004C000BD2480316E2B1430C5005308C400103099
:1004D000C8006E2B0030E200E3000030E400E500CD
:1004E0000030E600E7000030E800E900EA011030E3
:1004F000EB001130EC00ED01ED0A8431BD248031B8
:1005000003302000C5005308C4006E2B0030E20009
:10051000E3000030E400E500C230E6000030E70010
:100520000430E8000030E900EA01EA0A1130EB008B
:100530001230EC00ED01ED0A8431BD2480316E2BC8
:10054000C030210042052000EE007D083F396E04D6
:10055000FD000F30C8003F30EE003E0886003F0827
:1005600087006E08810521004208C0392000EE0096
:100570003E0886003F0887006E0881043F30EE0089
:100580006E082100C20520003E0886003F08870053
:10059000413121004408C03F4508C13F20003E08CA
:1005A00086003F088700433121004208C03F4308CE
:1005B000C13F6E2B4308031DDE2ADF2AE32AC20156
:1005C0004708C8006E2B4608C8006E2B0130EE00AD
:1005D0006E08C2074608C80015304202031CF12A03
:1005E000F22A6E2B1430C8003E0886003F088700B0
:1005F000FF3081003E0886003F0887004331FF300E
:10060000C03FFF30C13F3E0886003F0887004131B0
:10061000FF30C03FFF30C13F6E2B8D315B258031F5
:100620002000EE00EF016F08003A0319182BE62AAC
:100630006E08003A0319DA2A013A03196E2B033ABD
:100640000319E62AE62AC8016E2B4808EE00EF01DE
:100650006F08003A03192D2B232B6E08003A03195B
:100660009D28013A0319A028033A0319B928013A31
:100670000319D328073A0319F128013A03190C2961
:10068000033A03193629013A031951290F3A03197C
:100690007B29013A03199629033A0319C029013A23
:1006A0000319DB29073A0319052A013A0319202AFD
:1006B000033A03194A2A013A0319632A1F3A031914
:1006C0006A2A013A0319862A033A0319A02A013A31
:1006D00003190D2B073A03196E2B232B080020005A
:1006E0004E080319742B752B802B5308E8004D0816
:1006F000E8024E08680203187E2B7F2B802BBC2C4F
:10070000CE018E2CD101D10ABC2C22000C15023056
:100710002000CE005308CD000230D100BC2C0230A6
:100720002100CA00CA302000E2000130E30000309E
:10073000E40000308731B7278331003A0319A12B39
:10074000A22BBC2C0A302000D1000530D000530869
:10075000CA000230CF00BC2C22000C1164302000F3
:10076000CE005308CD000430D100BC2C22000C1563
:1007700002302000CE005308CD005308CA000530D7
:10078000D100BC2C0E1DC52BC62BDA2B0230CE009F
:100790005308CD0066088600670887007730010699
:1007A000031DD32BD42BD72B0830D100BC2C063003
:1007B000D100BC2C5308E800E9016908EB004A08A5
:1007C0006802EA00031CEB036B08803AEC008030FF
:1007D0006C02031DED2B28306A02031CF02BF12B59
:1007E000BC2C22000C1114302000CE005308CD0088
:1007F000822BCA30E2000330E3000030E400023014
:100800008F3179278331003A0319072C082CBC2C2F
:100810000A302000D1000730D0000630CF00BC2CB9
:10082000400886004108870021004A0881004B08E3
:100830002000E8004008013EE9000030413DEA00A8
:10084000690886006A0887006808810021004C0852
:100850002000E8004008023EE9000030413DEA0087
:10086000690886006A08870068088100D42B66083A
:1008700086006708870077300106031D402C412C55
:10088000632C2100CA01CA0ACA302000E2000130EC
:10089000E3000030E40005308731B7278331003AA8
:1008A0000319532C542CBC2C0A302000D1000930E1
:1008B000D0005308CA000230CF00660886006708DF
:1008C00087008101BC2C0930D100BC2C4C080319D5
:1008D0006A2C6B2C722C0230CE005308CD000330F2
:1008E000D100BC2C0530D1005308CA00BC2C8D317E
:1008F0005B258331003A031D7E2C7F2CBC2C20000D
:100900004B08031D842C852C8B2C2100BC0120005E
:100910005008D100BC2C4F08D100BC2C5108E80075
:10092000E9016908003A0319962CBC2C6808003AC2
:100930000319822B013A0319852B033A03198F2BD4
:10094000013A0319AC2B073A0319B62B013A0319E4
:10095000C22B033A0319F92B013A0319102C0F3A51
:100960000319372C013A0319662C033A0319772C23
:10097000013A0319BC2CBC2C080020006D08031997
:10098000C22CC32CCC2C49088F3138278431003A33
:10099000031DCB2CCC2C3E2D2000C3016208630428
:1009A0000319D32CD42CE52C640865040319D92C25
:1009B000DA2CE52C6308D9006208D8006508DB0052
:1009C0006408DA008C31E32484312000660867046F
:1009D0000319EB2CEC2C092D680869040319F12C80
:1009E000F22C092D6A082100BE006630BF002000ED
:1009F00069082100C100200068082100C000AC3057
:100A00002000DE000530DF00BE30E0008C313D24E8
:100A1000843120006A0303190E2D0F2D1D2DC230C5
:100A2000DE000B30DF000030E000E1008C313124CB
:100A300084318B317E238431372D66086704031996
:100A4000222D232D342D680869040319282D292D02
:100A5000342D6708D9006608D8006908DB006808EB
:100A6000DA008C31E32484318731FB278431200084
:100A70006C08C7006B08C6001330C80008008B3133
:100A8000012385318B3195238531003A0319492D96
:100A90004A2D5A2D8B3142238531003A0319512DAD
:100AA000522D562D01302000D400922D023020000E
:100AB000D400922D8B3142238531003A0319612DE8
:100AC000622D662D03302000D400922D04302000CA
:100AD000D400922D8B31B92385318B319C23853104
:100AE000003A0319742D752DA82D8D31DF25853120
:100AF000A82D8B31B9238531A82D8B319C238531CD
:100B0000003A0319842D852DA82D752D8B312E23A8
:100B10008531003A03198D2D8E2DA82D8E31F926A1
:100B20008531A82D5408F900FA017A08003A031912
:100B30009A2DA82D7908013A03196A2D033A031951
:100B4000792D013A03197D2D073A0319862DA82D19
:100B50008B3104238531080079080319B02DB12D9C
:100B6000F72DF92D790886008701033081007D304B
:100B7000F0000030F1000130F2000030F3008C3161
:100B80008924853103302100BE0079088600870161
:100B9000413FBF007908023E86008701403FC00008
:100BA000413FC100AC30F6000530F700BE30F80020
:100BB0008C31262485310230102E790A8600870177
:100BC0000108F000F1017908023E86008701403FEC
:100BD000F200413FF3008C31892485310030F6006A
:100BE000F700F8018C31262485310430102E0130B5
:100BF000102E79088600870101082000D800D9014D
:100C00005908003A0319052EF72D5808023A03191E
:100C1000B22D013A0319DD2D073A0319DD2DF72D09
:100C2000080000308D31212586312100D600560A7A
:100C3000031D1B2E1C2E252E1030D6001030200038
:100C4000D80000308E310326863101308D312125C8
:100C50008631AA3A03192D2E2E2E352EAA302000C9
:100C6000D80001308E310326863102308D312125A6
:100C70008631003A03193D2E3E2E442E2000D80125
:100C800002308E310326863103308D3121258631A5
:100C9000303A03194C2E4D2E542E30302000D800FF
:100CA00003308E310326863104308D312125863183
:100CB000313A03195C2E5D2E642E31302000D800AD
:100CC00004308E310326863105308D312125863161
:100CD000333A03196C2E6D2E742E33302000D80059
:100CE00005308E310326863108008B31832386310F
:100CF000003A03197C2E7D2EAB2E8A2E8B31562383
:100D00008631CA2E8B315B238631CA2E8B31652307
:100D10008631CA2E20002F08F9000630203E8600BA
:100D20008701413F8A00403F0A008631F100F2010D
:100D30007208003A03199D2E862E7108013A031994
:100D4000862E033A03197E2E013A0319822E073AA2
:100D50000319862E862E20003D103808F200370831
:100D6000F100B70A0319B80A7108840072088500F7
:100D700000088B314C23863101302000B90200304D
:100D8000BA3B39083A04031DC62EC72EC92E0630B9
:100D9000CA2E033008002000D301F930D8000A30F1
:100DA000D9008B31E6238631FA302000D8000A3092
:100DB000D9008B31EF238631FB302000D8000A3078
:100DC000D9008B31F823863189302000D8000B30D0
:100DD000D9008C31132486318D31452586318631F9
:100DE000112686318D31312586318B170B178B31CA
:100DF0002B238631210056088D31A625863170308F
:100E00002000D8002330D9008C316F248631803007
:100E10002000D8002330D9008C31F2248631803173
:100E20008A20863190302000E6002330E7008331AD
:100E30006F23863164000F2F803160288B31162399
:100E4000873120003D1C252F262F312F8B31832306
:100E50008731003A03192D2F2E2F312F0F3020000C
:100E6000BB0020003D18352F362F5C2F8B3183239C
:100E70008731003A03193D2F3E2F5C2F20003B089D
:100E8000F300F401F335F40D0030730784001030E3
:100E9000743D80388500013F8A00003F0A00873199
:100EA0002000BB000A303B06031D572F582F702F20
:100EB0008B3151238731702F20003B08F300F40160
:100EC000F335F40D0030730784001030743D803822
:100ED0008500013F8A00003F0A0087312000BB00E7
:100EE000080022008C018D018E01333021008C001E
:100EF000F0308D00FF308E00913023008E008D0188
:100F000037308C0024008D018C018E0125008C016E
:100F10008D018E01373026008C00F0308D00FF30BF
:100F20008E003F3027008C00F0308D00FF308E00A7
:100F3000991099111913981098111813971497155F
:100F40001717210010160F303C009E000C30A00037
:100F500019303D009E001B309F001A309D00183054
:100F60009C000E303C00A1000D309D0008002000C8
:100F7000E50052088F3138278731003A031DC12F11
:100F8000C22FF92F200062082100C700200064084A
:100F90002100C900200063082100C8000130C600FC
:100FA000A1302000DE000E30DF00C630E0008C31C2
:100FB0003D24873120006508D7005730D800003025
:100FC000D9000130DA000030DB008C31E3248731B6
:100FD0002000CB011C30DE000C30DF000030E000D0
:100FE000E1008C31312487318B317E238731013010
:100FF000FA2F0030080001308D318C258731080030
:1015F2000800080008000130080024001108080053
:1016020020009111080024001516080024009E14E1
:10161200080024001E15080024009E15080024005E
:1016220019080800200092150800200092110800F5
:1016320024001E14080020009211080021009215B7
:10164200080024009D1208002100921108002100C8
:10165200911508002000971708002400140801398A
:10166200080024009E161E16080024009E121E1654
:10167200080087311E278B3108000E3021009700A9
:1016820008002400140C890C01390800F0007008CD
:10169200240091000800F00070082400990008005E
:1016A2002000BD10BC010E3008008B3107238B31A6
:1016B200013008008B3107238B31023008008B3157
:1016C20007238B31013008008B310A238B31003024
:1016D20008008B3136238B31053008008B313223E1
:1016E2008B310A3008008B3132238B3109300800EC
:1016F2002000BD10BC010E30080000308D318C2559
:101702008B31080024001E0E890C890C0139080057
:101712000130F00070082000D30708002000D80034
:10172200583524009300080003102400941E03146B
:101732000030093D080003102400141C031400307B
:10174200093D080020003D108B310D238B31043000
:1017520008002000D8005808FE3924009200080032
:1017620032009101920193019401950196010800C2
:101772008A31FE228B312100BD0001302000D500CC
:1017820008002000C301C30A0130FA007A08C20728
:101792000130080020003D140314360D8B314C2318
:1017A2008B3105300800200059082100AF002000CD
:1017B20058082100AE000800200059082100BB0093
:1017C200200058082100BA00080020005908210012
:1017D200D500200058082100D40008002000590834
:1017E2002100D300200058082100D2000800200068
:1017F20059082100D100200058082100D00008001B
:1018020024009C0108309D009E0109309A009D121F
:1018120008006030320099009B019D0103309F0057
:101822009E010800200059082100CF00200058081E
:101832002100CE0008002000CB01CB0A0130FA00C3
:101842007A082100BC07013008007708F100760809
:10185200F0007808F20000308E3128268C31080022
:1018620020005F08D9005E08D8006008DA00023064
:101872008E3178268C31080020005F08D9005E087E
:10188200D8006008DA0000308E3178268C310800EA
:101892006400800101310130FE020030FF3B7F080D
:1018A2007E04031D4A2C0034F00070303100920097
:1018B200700891001517151400000000310013087C
:1018C200080024009D1A662C672C6E2C9C0108309F
:1018D2009D009E0109309A009D16080027302000C5
:1018E200C9005908BF005808BE00C801C701C50198
:1018F200C301C201080049302000980061309600FF
:101902009501901221009016803020009700080067
:101912002000BD1D8D2C8E2C972C7108B8007008EC
:10192200B7007308BA007208B900BD1108002000A0
:101932003D1436358B314C238C312000BD19A22C3D
:10194200A32CA52C0330A62C0A3008002100540831
:1019520055040319AD2CAE2CB32C55088A0054083B
:101962000A008C3127009910080021005208530404
:101972000319BC2CBD2CC22C53088A0052080A0041
:101982008C312700991108002100500851040319D5
:10199200CB2CCC2CD12C51088A0050080A008C3157
:1019A2002700191308002000901221004E084F044E
:1019B2000319DC2CDD2CE22C4F088A004E080A00A9
:1019C2008C3108002000BD1DE72CE82CF12C5908B1
:1019D200B8005808B7005B08BA005A08B900BD1130
:1019E200080020005908C1005808C000D101D001E8
:1019F200CF01CE01CC01CC0A4130D200CB0108008C
:101A02002400951A052D062D102D94010630200074
:101A1200D8005808240095048130960095160800D5
:101A22002400940106302000D800580824009504B0
:101A320081309600951201302000D500FB0108008C
:101A42002000D80070303100920020005808310088
:101A5200910015171514000000003100130808004A
:101A62002000D9015908703E860087012330873D46
:101A720081010130D8005808D90780305902031C6F
:101A8200432D442D332D08008B31B1238D318D31FF
:101A920011258D318C3101248D31873171278D31A2
:101AA2008C310A248D318B313E238D318C317C2453
:101AB2008D3108002000D801D80ABD18612D622D91
:101AC200712D3D11FF30B6008B311C238D318B31CE
:101AD20025238D318B3122238D3120003C08D80003
:101AE200580808002700991C772D782D7B2D8C3102
:101AF200A7248D312700991D7F2D802D832D8C31B8
:101B0200B6248D312700191F872D882D8B2D8C31FE
:101B1200C5248D3108002000D800D901D90ABD188A
:101B2200932D942DA32DBD14D901580803199A2D74
:101B32009B2D9E2D0130BB00A02D0230BB008B31AE
:101B420019238D312000590808002000DA008D3158
:101B520001258D3120005A088B31AA238D317F3027
:101B62008B318F238D313F302000D8000530D900D2
:101B72008B31DD238D318B3128238D310800F1002B
:101B820000308B1B0130F20070303100920071087E
:101B9200910070089300151715158B135530960098
:101BA200AA30960095149518D72DD82DD42D15113D
:101BB200720C031C8B1303188B17080080307B02F6
:101BC2000318E42DE52DED2D7B088C3155248D3144
:101BD2008B3147238D31FE2D7B08F100F201F0306D
:101BE200F3002230F4007108730786007208743D16
:101BF200870001088B3147238D310130F1007108D4
:101C0200FB0708002000D90000308B1B0130DA00EE
:101C120070303100920020005908310091002000FC
:101C2200580831009300151715158B13553096007F
:101C3200AA309600951495181F2E202E1C2E1511D1
:101C420020005A0C031C8B1303188B170800F50095
:101C52007008710403192E2E2F2E3E2E7535203E4C
:101C6200860087017008C03F7108C13F75082C3E8D
:101C720086008701720881004F2EFC30F3000A3083
:101C8200F4007535203E860087017308C03F740852
:101C9200C13F75082C3E86008701810108002000A3
:101CA2003D100230BC005D2E8B3160238E31772EC9
:101CB2008B3165238E31772E2E08F9000430203EB9
:101CC20086008701413F8A00403F0A008E31F000C2
:101CD200F1017108003A03196F2E592E7008023A69
:101CE2000319552E013A0319552E592E08002000CA
:101CF200DD005808590403197F2E802E8F2E5D3582
:101D0200203E860087015808C03F5908C13F5D0840
:101D12002C3E860087015A088100A02EFC30DB0091
:101D22000A30DC005D35203E860087015B08C03F3B
:101D32005C08C13F5D082C3E8600870181010800D6
:101D420079080319A52EA62ECA2E790A86008701C4
:101D52000108F000F1017908023E86008701403F48
:101D6200F200413FF3008C3189248E310030F600BD
:101D7200F700F8018C3126248E317908860087011C
:101D820001080319C52EC62EC82E0430CB2E0230F0
:101D9200CB2E013008002000BD15DC2E8B316023D4
:101DA2008E31F82E8B3113238E310330F82E8B3186
:101DB20065238E31F82E2C08F90021088A002008AC
:101DC2000A008E31F000F1017108003A0319EA2E7F
:101DD200D82E7008013A0319D82E033A0319CF2ED0
:101DE200013A0319CF2E073A0319D32ED82E080031
:101DF2008A31FE228E31FC00200055080319022F81
:101E0200032F072F7C08FB00D501372F80307B0280
:101E120003180C2F0D2F1A2F20307B02031C122FB8
:101E2200132F332F7C08F0007B088D31C0258E31B3
:101E3200332FA0307B02031C1F2F202F332F7B0850
:101E4200F300F401F030F5002230F6007308750754
:101E5200F7007408763DF800770886007808870056
:101E62007C0881000130F3007308FB0708002000A2
:101E7200DA00DB01DB0A3D193F2F402F772F5A088A
:101E8200B600BD103D153D100E30BB000130B5004F
:101E9200F430B400BD15FC30A0000A30A100AC0142
:101EA2000A30A300FC30A200AD010A30A500FC30CC
:101EB200A400AE010A30A700FC30A600AF0100303A
:101EC200A9000230A800B0013A30D8000B30D90086
:101ED2008B31D4238F318B311C238F318C3162248F
:101EE2008F318B311F238F312000DB015B0808000B
:101EF2002000E50052088F3138278F31003A031D48
:101F0200832F842FBA2F200062082100C7002000EF
:101F120064082100C900200063082100C800C6012E
:101F2200A1302000DE000E30DF00C630E0008C3130
:101F32003D248F3120006508D7005730D80000308B
:101F4200D9000130DA000030DB008C31E3248F311C
:101F52002000CB011C30DE000C30DF000030E0003E
:101F6200E1008C3131248F318B317E238F3101306E
:101F7200BB2F003008002000370886003808870091
:101F82008B3110238F31810001302000B7070030E0
:101F9200B83D0130B9020030BA3B39083A0403199E
:101FA200D32FD42FD92F8B3136238F310530FF2FEA
:101FB200BD15E32F8B3174238F31FF2F8B316F23AC
:101FC2008F31FF2F2C08F90021088A0020080A000F
:101FD2008F31F000F1017108003A0319F12FDF2F60
:101FE2007008013A0319DF2F033A0319DB2F013A74
:101FF2000319DB2F073A0319DF2FDF2F08005134B3
:102002000B34CB340B3498340C3475340634BC3472
:102012000F34A3340B34CC340E3456340B345B34CB
:102022000B3460340B3465340B346A340B346F3444
:102032000B3474340B3479340B3450340E341B3477
:10204200003400341A3400340034193400340034BB
:102052001834003400341C3400340034803400342A
:102062000034A034003400345B345A3459345834C8
:022072005C34DC
:020000040001F9
:08000E00EC3FFF3FFF3FFF3F05
:00000001FF
