:10000000803164289D1408007E1480312100901EE8
:1000100010282000901E10289E313826803162283A
:100020002100101E1A282000101E1A289231BB220F
:10003000803162280B1F62282100111D2928200011
:10004000111D292821002D088A002C080A00803162
:100050006228210091192000911922282100121DE7
:100060003B282000121D3B28210029088A0028086F
:100070000A00803162282100921920009219342848
:100080002100111E4D282000111E4D28220061085C
:100090008A0060080A00803162282100911E5A28D7
:1000A0002000911E5A2822005F088A005E080A007C
:1000B000803162282100911C62282000911C622856
:1000C0009C319B247E1009008031662870308400AA
:1000D000233085008030FE000030FF009E31502626
:1000E00080314E308400003085001330FE00003037
:1000F000FF009E3150268031A03084000030850002
:100100004D30FE000030FF009E31502680312030FF
:100110008400013085003830FE000030FF009E3141
:1001200050268031A0308400013085002830FE0048
:100130000030FF009E3150267E1020008B31DE2BD8
:10014000C201EB2C1330B30004302F02031CAC2887
:100150000230B4001730D02CB401B40A902D103006
:100160002000BC00D430BD0039309431812480316E
:10017000003A0319C0282100B201B20A0230D02C83
:100180002100B301B30A902D913122218031013A2F
:100190000319902D2100B201913109218031003ADB
:1001A000031DDA2801302000C10041082100AF07FB
:1001B000B301902D2100AF010F30B300D41FE82808
:1001C0007F302000C10041082100D4050330B30076
:1001D000580A0319EF28FF30D8000330B300590A3A
:1001E0000319F628FF30D9000330B3005A0A031967
:1001F000FD28FF30DA000330B3005B0A031904293D
:10020000FF30DB000330B3005C0803190A29DC016E
:100210000330B3005D0803191029DD010330B3007A
:10022000601D902DFB302000C10041082100E00539
:100230000330D02C10302000BC00D430BD00393049
:100240009431BD248031003A0319902D2100B20170
:10025000B20A0430D02C913122218031013A0319A5
:10026000902D2100B201913109218031003A03190A
:10027000D2282100AF010930832BD4302000BC00EC
:10028000063094310E248031003A03194C292100A4
:10029000B201B20A0630D02C0530832B91312221D5
:1002A0008031013A0319902D2100B20191310921C9
:1002B0008031003A0319D2282100AF01B301B30AFB
:1002C000D4184C29902D10302000BC00D430BD0033
:1002D0003830943181248031003A03197429210087
:1002E000B201B20A0C30D02C0B30832B9131222179
:1002F0008031013A0319902D2100B2019131092179
:100300008031003A0319D2282100AF01B301B30AAA
:10031000630A03198F29FF30E3000D30D02C02301F
:100320002000DB00902D10302000BC00D430BD0038
:1003300038309431BD248031003A0319902D2100CA
:10034000B201B20A0E30D02C913122218031013A13
:100350000319902D2100B201913109218031003A19
:100360000319D2282100AF010530B3008F29D43002
:100370002000BC00063094310E248031003A03196D
:100380003B292100B201B20A0A30D02C913122213E
:100390008031013A0319902D2100B20191310921D8
:1003A0008031003A0319D2282100AF010F30B30089
:1003B000D4183B29902D10302000BC00D430BD0053
:1003C0003A30943181248031003A0319EC2921001C
:1003D000B201B20A1030D02C0F30832B9131222180
:1003E0008031013A0319902D2100B2019131092188
:1003F0008031003A0319D2282100AF011930B3002F
:1004000054030319902D0130D4001130D02C10303A
:100410002000BC00D430BD003A309431BD2480317E
:10042000003A0319902D2100B201B20A1230D02CEB
:10043000913122218031013A0319902D2100B2011E
:10044000913109218031003A0319D2282100AF01EE
:100450000730832B3C302000BC002830BD0000302A
:100460009331DC238031003A0319902D2100B20131
:10047000B20A1430D02C913122218031013A031973
:10048000902D2100B201913109218031003A0319E8
:10049000D2282100AF011730B300A001A101902D97
:1004A0003C302000BC002830BD0000309331DC23FC
:1004B0008031003A0319902D2100B201B20A1630A2
:1004C000D02C3B2A20005C0803196E2A0F30210033
:1004D000B3002000C201C20A03306F2A023021009B
:1004E000B40020005B03031D902D0330210034066F
:1004F00003197429902DD4302000BC0006309431AB
:100500000E248031003A0319282A2100B201B20AD0
:100510000830D02C913122218031013A0319902DDD
:100520002100B201913109218031003A0319D2280A
:100530002100AF011930B300D418282A902D2000D3
:10054000BC01BC0ABD01BD0A00309331DC238031FF
:10055000003A0319902D2100B201B20A1A30D02CB2
:10056000913122218031013A0319902D2100B201ED
:10057000913109218031003A0319D2282100AF01BD
:100580001B30D02C40302000BC004030BD0000307B
:100590009331DC238031003A0319902D2100B20100
:1005A000B20A1C30D02C913122218031013A03193A
:1005B000902D2100B201913109218031003A0319B7
:1005C000D2282100AF011D30D02C3C302000BC00CF
:1005D0003C30BD0000309331DC238031003A0319F8
:1005E000902D2100B201B20A1E30D02C913122216F
:1005F0008031013A0319902D2100B2019131092176
:100600008031003A0319D2282100AF011F304C2A53
:1006100020005C03031D0E2B2130732C01302100C0
:10062000A0070030A13D01302102903003192002C3
:10063000031C902DA001A101D4302000BC00063085
:1006400094310E248031003A0319902D2100B2011B
:10065000B20A2030D02C913122218031013A031985
:10066000902D2100B201913109218031003A031906
:10067000D2282100AF01541E412B2130B300043099
:10068000B400541C452B1F30D02C1330D02C10300C
:100690002000BC00D430BD00F8309431812480317A
:1006A000003A0319582B2100B201B20A2230D02C93
:1006B0002130832B913122218031013A0319902D71
:1006C0002100B201913109218031003A0319D22869
:1006D0002100AF012330B300D4309431F9248031AC
:1006E000902D10302000BC00D430BD00FB30943180
:1006F00081248031003A0319822B2100B201B20A11
:100700002430D02C23302100D02C91312221803173
:10071000013A0319902D2100B20191310921803154
:10072000003A0319D2282100AF012630D02C4030E6
:100730002000BC00BD0100309331DC238031003A41
:100740000319902D2100B201B20A2730D02C91312B
:1007500022218031013A0319902D2100B2019131FB
:1007600009218031003A0319D2282100AF012A3033
:10077000D02C2000BC01BC0ABD0100309331DC2329
:100780008031003A0319902D2100B201B20A2B30BA
:10079000D02C913122218031013A0319902D210072
:1007A000B201913109218031003A0319D228210088
:1007B000AF012830D02C40302000BC004030BD00BC
:1007C00000309331DC238031003A0319902D210051
:1007D000B201B20A2930D02C913122218031013A64
:1007E0000319902D2100B201913109218031003A85
:1007F0000319D2282100AF012530D02C2C30B300B2
:10080000D4308A3172228031902D10302000BC000B
:10081000D430BD00F8309431BD248031003A031942
:10082000902D2100B201B20A2D30D02C913122211D
:100830008031013A0319902D2100B2019131092133
:100840008031003A0319D2282100AF012E30D02C7C
:1008500010302000BC00D430BD00FB309431BD24EA
:100860008031003A0319902D2100B201B20A2F30D5
:10087000D02C913122218031013A0319902D210091
:10088000B201913109218031003A0319D2282100A7
:10089000AF013030D02C3C302000BC003C30BD00DB
:1008A00000309331DC238031003A0319902D210070
:1008B000B201B20A3130D02C913122218031013A7B
:1008C0000319902D2100B201913109218031003AA4
:1008D0000319D2282100AF0132304C2A20005C03DA
:1008E000031D782C34302100B3000430B400902D67
:1008F00001302100A0070030A13D013021029030DD
:1009000003192002031C902DA001A101D430200066
:10091000BC00063094310E248031003A0319902D2A
:100920002100B201B20A3330D02C91312221803122
:10093000013A0319902D2100B20191310921803132
:10094000003A0319D2282100AF01541EAB2C3430D9
:10095000B3000430B400541C452B3230D02C40304E
:100960002000BC00BD0100309331DC238031003A0F
:100970000319902D2100B201B20A3530D02C9131EB
:1009800022218031013A0319902D2100B2019131C9
:1009900009218031003A0319D2282100AF01193012
:1009A000B300902D20005C080319DE2C19302100C3
:1009B000B3002000C201C20A0330DF2C0230210044
:1009C000B40020005B03031D902D0230210034068B
:1009D000031DC028902D21003308003A0319A228D6
:1009E000013A0319AF28033A0319C428013A03193D
:1009F0001A29073A03192B29013A03193D29033A09
:100A000003194E29013A03197B2A0F3A03198A2A3E
:100A1000013A0319B729033A0319C629013A031900
:100A20006329073A03197629013A03199329033AEE
:100A30000319A429013A0319DB291F3A0319EE29E6
:100A4000013A0319072A033A0319182A013A03192C
:100A50002A2A073A03193B2A013A0319502A033A72
:100A60000319612A013A0319622A0E3A03199F2ACF
:100A7000033A0319B02A013A0319C22A073A0319A3
:100A8000D32A013A0319E52A033A0319F62A013A4F
:100A90000319082B3F3A03192B2B013A0319472B53
:100AA000033A03195A2B013A0319712B073A031918
:100AB000852B013A0319FE2B033A0319972B013AB0
:100AC0000319A72B0F3A0319DB2B013A0319EC2B5F
:100AD000033A0319B92B013A0319C92B073A031931
:100AE000052C013A0319162C033A0319282C013A54
:100AF0000319392C1F3A03194B2C013A03195C2CAA
:100B0000033A03196E2C013A0319952C073A03197D
:100B1000AF2C013A0319BF2C033A0319D22C902DA4
:100B20002000420808009330860023308700773089
:100B30000106031DB82D20005B08031DA72D013001
:100B4000DB007730AB00803091315A2185310230A3
:100B500020005B06031DC42D9330860023308700E0
:100B60008101DB01AB01803091315A218531C42DE7
:100B7000933086002330870001080319C42D933079
:100B80008600233087008101903086002330870063
:100B90000108031DD02D20008C1AD02D22008C16A8
:100BA000903086002330870077300106031DDD2D4D
:100BB00020008C1EDD2D22008C122000510803190C
:100BC0002F2E8731D02785312000C400152E21001B
:100BD0006B082000AB00023091315A218531200092
:100BE000D10121003C080319F72DBC012F2E013043
:100BF0009631802685310E30122EFF302100EB0019
:100C00006B082000AB00023091315A218531200061
:100C1000D10121003C08031DF52D013096318026BD
:100C2000853106302000DA002F2E4408003A0319DF
:100C3000FD2D013A03192F2E033A0319E72D013A2E
:100C40000319FD2D073A0319FD2D013A0319FD2D56
:100C5000033A0319FD2D013A0319FD2D2F2E200013
:100C6000550803194C2E5908BF00C0014008C200A6
:100C70002100420820003F02C100031CC2034208B9
:100C8000803AC30080304302031D482E05304102E4
:100C9000031C4C2E2000D501210045080319080033
:100CA000200059082100C2002000D501D50A5608AD
:100CB00023005B060319682E053021003B02031850
:100CC000712E01302000BF003F082100BB07080043
:100CD0002100BB01200056082300DB002100C501D4
:100CE0000800200056080319972E0E305A06031DDF
:100CF000812E2100C501BB01200056082300DB0026
:100D000008005108031DAC2E003096318026853135
:100D1000EB302000BC00FF309531F62585312000F6
:100D2000D101D10A2100BC0110302000AB2E5108A6
:100D300003199D2E2100BC01BC0A0C3020005A066C
:100D40000319AA2E0E305A060319AA2E10305A067D
:100D5000031DAC2E0F30DA002100C501BB012000BD
:100D600056082300DB000800C600C22EC701D02EA3
:100D7000C701C70AD02E0230C02E21003A08200039
:100D8000C700D02E4608003A0319BD2E013A0319B8
:100D9000B62E033A0319B82E013A0319BB2EBD2E05
:100DA000210039080319BD2F9C31DC248631003A1B
:100DB0000319A12F9D319C2586312C08CD002B08CD
:100DC000CC008A2F4D082100A50020004C082100EE
:100DD000A40020004C08AB004D08AC00AD01AE01F2
:100DE0000030B2000030B1001130B0003F30AF0031
:100DF00093317D2386312E08CB002D08CA002C08A4
:100E0000C9002B08C8000A30CB36CA0CC90CC80C64
:100E1000890B042F4B08BC004A08BB004908BA00E4
:100E20004808B9007830BD002330BE0097316027F4
:100E30008631952F4D082100A30020004C08210089
:100E4000A20020004C08AB004D08AC00AD01AE0183
:100E50000030B2000030B1000730B0008C30AF007D
:100E600093317D2386312E08CB002D08CA002C0833
:100E7000C9002B08C8000A30CB36CA0CC90CC80CF4
:100E8000890B3C2F4B08BC004A08BB004908BA003C
:100E90004808B9007430BD002330BE009731602788
:100EA0008631952F4D082200CD0020004C082200ED
:100EB000CC0020004C08AB004D08AC00AD01AE01E9
:100EC0000030B2000030B1000130B0000A30AF0095
:100ED00093317D2386312E08CB002D08CA002C08C3
:100EE000C9002B08C8000A30CB36CA0CC90CC80C84
:100EF000890B742F4B08BC004A08BB004908BA0094
:100F00004808B9007C30BD002330BE00973160270F
:100F10008631952F4708003A0319E22E013A03194A
:100F20001A2F033A0319522F952F4608031D9D2FA0
:100F30000130C50045082100BA072100B901013080
:100F400008000030080017309E31EF268631C92F87
:100F500016309E31EF268631C92F04309E31EF26A0
:100F60008631C92F17309E31EF2686312000460882
:100F7000031DC92F2100BA01C92F20004708003ADC
:100F80000319A32F013A0319A82F033A0319AD2F10
:100F9000B22F2100B901B90A803102208631A12F78
:100FA000210036080319FD2F913122218731013AA2
:100FB0000319FD2F2100B601200050080319F72F57
:100FC00003305006031DE62F0430F52FD01CEB2F05
:100FD00005302100B7002000501DF12F0630210000
:100FE000B7002000501CFD2F07302100FC2F2100EE
:100FF0003703031DFD2F0230B7002100370808001A
:10100000003020000E1801302100C1000630200001
:101010005A0603190F280F305A06031D0800210035
:101020004108031D08000E302000DA000800AF015F
:101030002F08703EAD00AE012330AE3D2D08860076
:101040002E088700FF3081000130AD002D08AF076A
:1010500080302F02031C1828703086002330870050
:101060005530C03F903086002330870081018830A2
:10107000860023308700303081008930860023309D
:101080008700323081008A30860023308700353077
:1010900081002100D301D201D10180309E31C426CC
:1010A00088312000AD0093308600233087002D0862
:1010B00081009330860023308700010A031D080059
:1010C00093308600233087008101AB01803091315D
:1010D0005A2108009C31BE248831003A031D7A2829
:1010E00096289C31772408009C317B2408009C3191
:1010F0008324080022003308FC003208FB00203063
:101100008600013087004631413F8A00403F0A0097
:101110008831013A03197728033A03197128013AF3
:1011200003197428073A03197728772822004310F7
:101130003E082000A50022003D082000A400220057
:10114000BD0A0319BE0A200024088600250887006E
:1011500001089C31AF24883101302200BF020030E9
:10116000C03B3F084004031DB7280630B8280330B1
:101170002000A6000030A70026080800FA0070082A
:1011800071040319EA287A08F400F501F435F50D25
:101190002030F6000130F7007408760786007508E5
:1011A000773D87007008C03F7108C13F7A08F4009E
:1011B000F501F435F50D2C30F6000130F700740818
:1011C000760786007508773D87007208C03F730870
:1011D000C13F08002430F4001C30F5007A08F60006
:1011E000F701F635F70D2030F8000130F9007608E8
:1011F000780786007708793D87007408C03F750836
:10120000C13F7A08F400F501F435F50D2C30F600F5
:101210000130F7007408760786007508773D87006F
:101220000030C03FC13F0800B5002B082C04031953
:1012300040293508AF00B001AF35B00D2030B10006
:101240000130B2002F08310786003008323D870098
:101250002B08C03F2C08C13F3508AF00B001AF35A7
:10126000B00D2C30B1000130B2002F0831078600DC
:101270003008323D87002D08C03F2E08C13F0800CE
:101280002430AF001C30B0003508B100B201B135D8
:10129000B20D2030B3000130B400310833078600AE
:1012A0003208343D87002F08C03F3008C13F350861
:1012B000AF00B001AF35B00D2C30B1000130B2003D
:1012C0002F08310786003008323D87000030C03FCC
:1012D000C13F08009C314B2489319C31F72489316E
:1012E000003A03197D299C3193248931003A03196E
:1012F0007B2901308629023086299C31932489314B
:10130000003A031985290330862904302100C800DA
:10131000B02900309E312C2689319C31FE24893140
:10132000003A0319BE298A31D3228931BE290130FE
:101330009E312C268931BE299C31FE248931003A08
:101340000319BE299C31CA24893190299C319724E4
:101350008931003A0319BE29973112278931BE29F4
:101360004808013A03198929033A03199729013AD0
:1013700003199C29073A0319A629BE299C314E243A
:1013800008002000AD00AE01AE0A22004319152A64
:101390003C3086000130870020002D0881002200AB
:1013A000C3104315431041308600013087000E30D2
:1013B00081000130BB00F430BA00C3152430A00016
:1013C0001C30A100AC01AD011C30A3002430A200F0
:1013D000AE01AF011C30A5002430A400B001B10162
:1013E0001C30A7002430A600B201B3011C30A900B4
:1013F0002630A800B401B50145302000AB001C30F8
:10140000AC009D31142589319C31512489319D31A5
:10141000DD2589319C315D2489312000AE01AC305D
:10142000AB001330AC009D311C2520002E080800B5
:101430009C3142248A312200431C2A2A9C31BE243A
:101440008A31003A03192A2A413086000130870088
:101450000F30810022004318562A9C31BE248A3165
:10146000003A0319562A220041082000A800A901C9
:10147000A835A90D0030280784001830293D803890
:101480008500013F8A00003F0A008A312000AA003F
:1014900041308600013087002A0881000A3022008E
:1014A0004106031D08009C31E22408002200410887
:1014B0002000A800A901A835A90D00302807840044
:1014C0001830293D80388500013F8A00003F0A001E
:1014D0008A312000AA0041308600013087002A08A6
:1014E000810008002000AC005403031D7D2A2C0855
:1014F000073E860087014430942AB1305402031C11
:10150000852AC4305402031C8F2A02305406031962
:101510008F2A2C08073E860087014330942A2C0826
:10152000073E8600870141308100023054060319CE
:10153000A42A2C08053E8600870181012C08063E5E
:10154000860087018101B02A2C08053E86008701AC
:10155000520881002C08063E86008701530881004E
:101560009C3166248A3120002C08073E86008701C2
:1015700001089E31FE268A3120002C08063E860096
:10158000870101089E31FE268A3120002C08043E86
:10159000860087012C08053E8400850100089E31E5
:1015A000FE2681000800803020005D020318E62A34
:1015B000310015177030920020005D083100910055
:1015C000151413089C31B4248A31262B90305D0603
:1015D000031D2C2B2100530803192C2B0130D3029F
:1015E000031D2C2B703086002330870050310108FA
:1015F0009C31B4248A318030212B210052080319F8
:10160000312B0130D202031D312B70308600233084
:101610008700513101089C31B4248A318130212B5B
:10162000210051080319362B0130D102031D362B3E
:101630007030860023308700523101089C31B42479
:101640008230860023308700FF3081000130F100B6
:1016500071082000DD070800913020005D060319A5
:10166000FD2A923020005D060319102B20005D0832
:10167000F100F201F030F3002230F400710873073A
:1016800086007208743D870001089C31B4248A31B9
:10169000262B22008C018D018E01173021008C0039
:1016A000F0308D00FB308E00C03023008E008D01A5
:1016B00010308C00503024008D0004308C001B3022
:1016C0008E0025008C018D018E01373026008C00A4
:1016D000A0308D00FF308E003F3027008C00F030AE
:1016E0008D00FF308E0013111215111596129613EE
:1016F0009516951794169417191099109911191297
:101700001814981498151816171497149715171677
:101710001B302000AB001C30AC009D3154258B31B8
:101720001C302000AB001C30AC009D315C258B319F
:101730001D302000AB001C30AC009D3164258B3186
:101740001E302000AB001C30AC009D316C258B316D
:101750001F302000AB001C30AC009D3174258B3154
:1017600020302000AB001C30AC009D317C258B313B
:1017700021302000AB001C30AC009D3184252100BD
:10178000101615303C00A40014303D00A3001A30A0
:1017900091000E303C00A0001B303D0090000C304A
:1017A0003C00A10018303D009E0001303C009D002F
:1017B00019303D009C003C009E0108002300D2012E
:1017C000D601D101D301CF01D4012000D40192313F
:1017D0002E228B31D0302000AB001C30AC009D316C
:1017E00094258B319C316C248B3100300C190130E5
:1017F0002100C400003020000E1801302100C1007B
:10180000003020008E180130D60056082300DB007F
:101810002100BB01200056080319112C2100C5012D
:10182000142C01302100C50076302000AB001130AF
:10183000AC009D3154258B3100302000AB000830C6
:10184000AC009D316C258B31A4302000AB001D30E5
:10185000AC009D3174258B310E302000AB001F3061
:10186000AC009D315C258B311F302000AB001F3058
:10187000AC009D3164258B31AD302000AB001D30B4
:10188000AC009D3184258B3130302000AB001F30FF
:10189000AC009D317C258B3121000E1424000E14E8
:1018A00022000C1521000C1522000E158C168B172A
:1018B0000B17953175258B31883117208B315530B9
:1018C0009E31D1268B3136309D31B6258B31913109
:1018D0003E218B31853193258B312000570303192D
:1018E000D02F230054080319EA2D200059082300A3
:1018F000C8005008C80254084802031C202ED40116
:10190000202E0230570603193A2D0A302300D40046
:10191000200059082300D0002000DA01DA0A202E26
:101920000330DA002300CE01202E003096318026CD
:101930008B31003A0319202E0230502DBC01BC0A15
:101940007330BD002330BE0000309631C6268B3187
:101950002300D5005508031DAF2C0430502D550829
:10196000013A0319202E033A0319202E202E873125
:10197000D0278B312300D50002305506031DC22C21
:101980000530502D55030319202E0130C80048089A
:10199000CE070A304E02031C9C2C05302000DA00D2
:1019A0007330860023308700FF308100202E013005
:1019B000963180268B31003A0319202E4D2D92311D
:1019C0000F228B310730512D01308631B4268B31F7
:1019D000003A0319202E0830502D2100C301C30AFC
:1019E0000C1122000C112300D201D20AD6012000D2
:1019F000D801D80A22000E1102302300D4002000A2
:101A000059082300D0000930502D02308631B42609
:101A10008B31003A0319202E22000E150C152100DF
:101A20000C15C3012300D2010A302000912C0B3089
:101A3000512D9C3169248B312300C80002304802AB
:101A4000031C202E0C30502D73308600233087006D
:101A500001308100532D0330210025024430031949
:101A6000240203183C2D02302300D4002000590822
:101A70002300D0000E30502D1430472D00302100AF
:101A800023026A30031922020318332DFF3023008A
:101A9000D400200059082300D0000630502D0F300C
:101AA0002000DA00202E703086002330870043317A
:101AB0000108013A03192B2D033A03193E2D4F2D2E
:101AC0002300510803196E2D2100C301C30A0C1114
:101AD00022000C112300D201D20AD6019C316924C4
:101AE0008B31023A031D852D200059082300C800C0
:101AF0004D08C80228304802031C202E5108031943
:101B00004F2D21000C15C3013A2D20005908230048
:101B1000CD00202E2300D101D10A520803199B2D9C
:101B20005608031D9B2DD201D60122000C15210061
:101B30000C15C301B42D200059082300C800C901A9
:101B40004908CB0056084802CA00031CCB034B08C7
:101B5000803ACC0080304C02031DB02D06304A0282
:101B6000031CB42D2300D60120000E1D202ED80109
:101B7000D80A22000E11202E2300D10120000E19B8
:101B8000C52DD80122000E158C1623005308031909
:101B9000202E200059082300C800C9014908CB00A5
:101BA0004F084802CA00031CCB034B08803ACC0004
:101BB00080304C02031DDE2D04304A02031C202E0F
:101BC0002300D301CF013A2DDA01D80122000E15EE
:101BD0008C16202E20005A08003A0319812C013A55
:101BE0000319902C033A03199E2C013A0319952CE2
:101BF000073A0319B72C013A0319D72C033A0319F2
:101C0000DF2C013A0319E42C0F3A0319ED2C013AA9
:101C10000319052D033A0319172D013A0319192D3C
:101C2000073A0319242D013A0319602D033A0319C9
:101C30008A2D013A0319BC2D1F3A0319202EE42DD9
:101C40000B3020005A02031CD62F9130860023301F
:101C50008700773001060319A62F8031A0208B3131
:101C600021003D08031D6E2EA62F04309E31C42690
:101C70008B312000D30003309E31C4268B312000ED
:101C8000D2000230D4002100BD01832E06309E31E7
:101C9000C4268B312000D30005303C2E08309E3105
:101CA000C4268B312000D30007303C2E0A309E31F1
:101CB000C4268B312000D30009303C2E0C309E31DD
:101CC000C4268B312000D3000B303C2E0E309E31C9
:101CD000C4268B312000D3000D303C2E2000540848
:101CE000B93A0319352E063A0319462E7F3A0319DD
:101CF0004E2E013A0319562E033A03195E2E013A6D
:101D00000319662E832E9C3169248B31023A031904
:101D10005C2FA62F5308AB00043091315A218B3130
:101D200020005208AB00033091315A218B31972F9C
:101D30005308AB00063091315A218B3120005208F4
:101D4000AB00053091315A218B31972F5308AB00EE
:101D5000083091315A218B3120005208AB000730F6
:101D600091315A218B31972F5308AB000A309131B2
:101D70005A218B3120005208AB00093091315A2191
:101D80008B31972F5308AB000C3091315A218B3196
:101D900020005208AB000B3091315A218B31972F24
:101DA0005308AB000E3091315A218B31200052087C
:101DB000AB000D3091315A218B31972F5808031DFC
:101DC000972F8030860023308700540881008130AF
:101DD000860023308700530881008230860023303C
:101DE0008700520881002100D301D30AD201D20A10
:101DF000D101D10AC301C30A0C1122000C11230026
:101E0000D201D20A200059082300D6005608031D2B
:101E10000D2F0130C8004808D607200058080319C4
:101E20001B2F2300D301D30A200059082300CF0021
:101E30000F3020001C2F0E30DA00972F80308600E4
:101E400023308700540881008130860023308700CA
:101E500053088100823086002330870052088100B9
:101E600002302100D3000230D2000230D100512FC5
:101E7000803086002330870054088100813086003E
:101E8000233087005308810082308600233087008A
:101E9000520881002100D301D30AD201D20AD10114
:101EA000D10A0E1022000E1001302100C0002000C7
:101EB00059082100BF00FA2E20005408003A0319E7
:101EC000972F013A0319972FB03A0319DE2E033AE0
:101ED0000319E12E013A03191E2F073A0319E12EC7
:101EE000013A0319382F033A0319E12E013A031975
:101EF000382F0F3A03198A2E023A0319982E013A05
:101F00000319A62E073A0319B42E013A0319C22E5B
:101F1000033A0319D02E972F2300D301D30A2000B0
:101F200059082300CF000F302000DA00A32F200033
:101F30005408B23A03198C2F063A03198C2F023A2F
:101F400003198C2FA32FD4012100BD0121004008CB
:101F50000319C62F200059082300C800C9014908E9
:101F6000CB0021003F0823004802CA00031CCB031A
:101F70004B08803ACC0080304C02031DC12F143036
:101F80004A02031CC62F2100C0010E140E3020008F
:101F90005A06031DD62F00308631B4268B31D62F3A
:101FA0000E1DD62FD801D80A22000E116400200081
:101FB000570303196A2C9C31B9248B31003A031D55
:101FC0006A2C9C3169248B31023A031D6A2C0F3034
:101FD00020005A06031DFC2F23005308031DFC2F6D
:101FE00020005508031D6A2C210017103200981399
:101FF0006300210017146A2C3200981763006A2CC2
:10200000003407340E3409341C341B3412341534B4
:1020100038343F3436343134243423342A342D34A4
:10202000703477347E3479346C346B346234653494
:1020300048344F3446344134543453345A345D3484
:10204000E034E734EE34E934FC34FB34F234F53474
:10205000D834DF34D634D134C434C334CA34CD3464
:10206000903497349E3499348C348B348234853454
:10207000A834AF34A634A134B434B334BA34BD3444
:10208000C734C034C934CE34DB34DC34D534D23434
:10209000FF34F834F134F634E334E434ED34EA3424
:1020A000B734B034B934BE34AB34AC34A534A23414
:1020B0008F34883481348634933494349D349A3404
:1020C0002734203429342E343B343C3435343234F4
:1020D0001F34183411341634033404340D340A34E4
:1020E0005734503459345E344B344C3445344234D4
:1020F0006F34683461346634733474347D347A34C4
:1021000089348E3487348034953492349B349C34B3
:10211000B134B634BF34B834AD34AA34A334A434A3
:10212000F934FE34F734F034E534E234EB34EC3493
:10213000C134C634CF34C834DD34DA34D334D43483
:1021400069346E3467346034753472347B347C3473
:10215000513456345F3458344D344A344334443463
:1021600019341E3417341034053402340B340C3453
:10217000213426342F3428343D343A343334343443
:102180004E34493440344734523455345C345B3433
:102190007634713478347F346A346D346434633423
:1021A0003E34393430343734223425342C342B3413
:1021B0000634013408340F341A341D341434133403
:1021C000AE34A934A034A734B234B534BC34BB34F3
:1021D0009634913498349F348A348D3484348334E3
:1021E000DE34D934D034D734C234C534CC34CB34D3
:1021F000E634E134E834EF34FA34FD34F434F334C3
:102200006030320099009B019D0107309F009E01C4
:10221000080020004E08031D0F2901300800CE1CC5
:10222000142902302100B50020004E1D1A2921007A
:10223000B501B50A20004E1C202903302100B5004D
:10224000003008002000AB01AB0A2200C3183B2974
:1022500043113C30860001308700FF3081009C3103
:10226000512491319C31572491319C3154242200C6
:1022700042082000AB0020002B080800013021009C
:10228000C9002000DD0121006D089D310525913137
:102290007F309C31D62491316A302000AB00093068
:1022A000AC009D31242591319D31C82591319C315F
:1022B00063240800AC00310095185B29151715152B
:1022C0007030920020002C08310091009401200011
:1022D0002B08310093008B1355309600AA309600DE
:1022E00095149518712915118B17080000302000DE
:1022F0000C1901302100C4004308031D08000630FA
:1023000020005A06031988290F305A06031D0800B9
:1023100021004408031D080020005508031D080083
:102320000E30DA000800083021004F020318B029EF
:1023300020006008A83E86000130870001082300C5
:102340009A000130F00070082000E00708306002B9
:102350000318E0010130F00070082100CF070800E9
:10236000111208007B0886007C0887004231403F3C
:10237000F000413FF1007B0886007C088700403F69
:10238000F200413FF3009E311426913100302000CD
:10239000A000A1000030A200A3009E312026023040
:1023A0000800DF292000D014EE2920005015EE2966
:1023B00020005014EE2903302000D000EE297B08C5
:1023C00086007C0887000108003A0319D229013AE7
:1023D0000319D529033A0319D829DB29013008004C
:1023E000FE292000CE140D2A20004E150D2A2000B3
:1023F0004E140D2A07302000CE000D2A7B088600DF
:102400007C0887000108003A0319F129013A0319F1
:10241000F429033A0319F729FA29013008008D1B22
:10242000142AAB01AC01182A7730AB000030AC00A5
:1024300071308600233087002B0881008D1A232AF3
:10244000AD01AE01272A7730AD000030AE0072300A
:102450008600233087002D08810008009D318C25DF
:1024600092318B31492392319E31E02692319F3156
:102470007B2792319131002192319C31AB249231F2
:102480009C31A72492319D31BF2592319F31522733
:1024900092319F314127923196313B2608007B08CB
:1024A00086007C0887004231403FF000413FF10048
:1024B0007B0886007C088700403FF200413FF30024
:1024C0009E311426923100302000A000A10000307F
:1024D000A200A3009E3120267B0886007C0887008E
:1024E0004431010808007B0886007C0887004231DF
:1024F000403FF000413FF1007B0886007C088700E8
:10250000403FF200413FF3009E31142692310030EB
:102510002000A000A1000030A200A3009E312026D0
:102520007B0886007C0887004431010808002200EF
:10253000C315A42A9C317F2408009C313F2403301A
:1025400008009C31832408002D08FC002C08FB00A7
:1025500021088A0020080A009231013A0319A12AB1
:10256000033A03199A2A013A03199A2A073A0319D6
:102570009D2AA12A08002700131DC12A9E315C262E
:102580009231961EC62A9E3169269231961FCB2A19
:102590009E3176269231191CD02A9E3183269231A3
:1025A000991CD52A9E3190269231991DDA2A9E31A6
:1025B0009D269231191E08009E31AA260800AC0003
:1025C000AD01AD0A2200C318002BC3142000AD01D9
:1025D00000309C319F2492319C31282492312C0868
:1025E0000319F82A41308600013087000130FD2AA6
:1025F0004130860001308700023081009C315A242E
:1026000020002D08080022004310423086000130CF
:10261000870002308100122B9C317F2408009C31FE
:10262000832408003108FC003008FB0020308600BD
:10263000013087004431413F8A00403F0A00933116
:10264000023A03190C2B013A03190C2B0F2B08002B
:102650004F30B6001230B7003B08B9003A08B80056
:102660009E3144269331D130B6001130B700EC30A2
:10267000B8009D31E8259331D130B6001130B70054
:10268000EF30B8009D31FE259331D130B6001130C6
:10269000B700EE30B8009D31F32508007330B60066
:1026A0001230B7003B08B9003A08B8009E31442602
:1026B0009331F030B6001130B700EF30B8009D31E3
:1026C000E8259331F030B6001130B700EF30B80094
:1026D0009E3109269331F030B6001130B700EC304E
:1026E000B8009D31FE259331F030B6001130B700AF
:1026F000EE30B8009D31F32508000030B600003000
:10270000B5000030B4000030B3002B1C8F2B2F0815
:10271000B3073008B43D3108B53D3208B63D01304D
:10272000AF35B00DB10DB20D890B902B0130AE3627
:10273000AD0CAC0CAB0C890B972B2E082D042C0484
:102740002B04031D852B3608AE003508AD00340878
:10275000AC003308AB0008000030FB00FC00203068
:102760008600013087004831413F8A00403F0A001F
:1027700093310230840098308500013F8A00003F89
:102780000A0093312000A800413086000130870004
:10279000280881000030840098308500013F8A00BD
:1027A000003F0A0093312000A8004130860001302C
:1027B0008700280881000800BE004F088931C12128
:1027C0009331003A0319E62B00300800CE01FE30A9
:1027D0002100D40020003E082100D50020003C0844
:1027E0002100D60020003D082100D700D430200071
:1027F000AB000030AC000430AD000030AE009F31C3
:1028000066279331D4302000BA000030BB009331EA
:102810004E2393319C31A32401300800BD004F08A2
:102820008931C1219431003A0319182C0030080075
:102830003C082100E600E7010130E4000030E5003B
:10284000E830860000308700023081002000CE0191
:10285000FE302100D40020003D082100D500D430F6
:102860002000AB000030AC000230AD000030AE0004
:102870009F3166279431E4302000BA000030BB005D
:1028800093314E2394319C31A32401300800200061
:102890005F08443E860001308700810123001D1D32
:1028A0005E2C20005F08443E8600013087008114C2
:1028B00022005D088A005C080A00943123009D1CF8
:1028C0006E2C20005F08443E860001308700011511
:1028D00023005A088A0059080A00943120005F0832
:1028E000443E860001308700010803197E2C230036
:1028F00058088A0057080A00943108009F31E827D9
:102900000800C0004F088931C1219431003A0319F1
:102910008B2C003008003D082100E600E701200074
:102920003C08BE00BF013E082100E40020003F0833
:102930002100E500E8308600003087000230810089
:102940002000CE0140082100E900E9302000AB0062
:102950000030AC000130AD000030AE009F31662782
:102960009431E4302000BA000030BB0093314E2394
:1029700094319C31A32401300800C0004F088931F4
:10298000C1219431003A0319C72C003008003D08DA
:102990002100E600E70120003C08BE00BF013E0820
:1029A0002100E40020003F082100E500E830860017
:1029B00000308700043081002000CE014008210053
:1029C000E900E9302000AB000030AC000130AD0080
:1029D0000030AE009F3166279431E4302000BA0009
:1029E0000030BB0093314E2394319C31A32401303D
:1029F00008002000AC009C316624943120002C0893
:102A0000033E8600870101089E31FE269431200096
:102A10002C08023E8600870101089E31FE26943173
:102A200020002C08860087012C0A840085010008FC
:102A30009E31FE2694310106031D2F2D20002C0807
:102A400086008701433FD4002C0886008701423F5F
:102A5000D3002C0886008701413FD200322D01307F
:102A60002000D40001302100BD0008009C313C242E
:102A70009531FD0020308600013087005D31403FF8
:102A80008400413F85007D08800001302200BD07A1
:102A90000030BE3D0130BF020030C03B3F08400463
:102AA0000319562D9C31732405300800C3155E2D83
:102AB0009C318F2408009C318B2408002D08FC00D9
:102AC0002C08FB0021088A0020080A009531013AF1
:102AD00003195B2D033A0319582D013A0319582D98
:102AE000073A03195B2D5B2D080000309E31C42688
:102AF00095312100ED006D0A031D6D08031D912D18
:102B000010302000AB00003091315A219531AA30AD
:102B10002000AB00013091315A2195311030210055
:102B2000ED0030309E31C42695312000AD002D0AD5
:102B3000031DA12DAB01303091315A212000D70166
:102B4000080077302D06031DA82DD701D70A0800ED
:102B500088302D06031D9A2DAB01303091315A215A
:102B600002302000D70008002E082D042C042B046E
:102B70000319ED2DB401B40AAE1BCA2D0130AB35DB
:102B8000AC0DAD0DAE0D890BBF2D0130B300330878
:102B9000B407BC2D2E083202031DD82D2D0831029A
:102BA000031DD82D2C083002031DD82D2B082F0211
:102BB000031CE22D2B08AF022C08B03B2D08B13BC3
:102BC0002E08B23B0130AE36AD0CAC0CAB0C890B11
:102BD000E32D0130B402031DCA2D3208AE003108C6
:102BE000AD003008AC002F08AB000800BD0021008C
:102BF00038088931C1219531BE003E08031D092ED8
:102C0000112E03302100B700080004302100B70066
:102C100008003E08013A0319012E033A0319052E54
:102C2000052E3C082100E600E7010130E4000030F9
:102C3000E500E83086000030870002308100B601F0
:102C4000B60AB701B70A2000D0013D30AB00003012
:102C5000AC000130AD000030AE009F3166279531E9
:102C6000E4302000BA000030BB00933128239531B6
:102C70009C31A32408002100911247302000AB00B2
:102C80001430AC009D31442596312100111293304F
:102C90002000AB001130AC009D314C25963108303E
:102CA00023009F0090309D0004309E0040309B0028
:102CB00003309C001A302000AB001C30AC009D316A
:102CC000342596312D302000AB001C30AC009D31F6
:102CD0003C2596312A302000AB001C30AC009D31E1
:102CE0002C252100CC01D0012000E001083021007A
:102CF000CF002000DF012100CE01CD019116080098
:102D00002000AD002D080319AB2E91312221963100
:102D1000003A03198D2E003008009C316024963152
:102D20001A303D0091000E303C00A0001B303D00E9
:102D300090000C303C00A10018303D009E00013096
:102D40003C009D0019303D009C003C009E019131EB
:102D50003E219631C42E9C31602418303D009100F4
:102D600001303C00A00019303D0090003C00A10162
:102D70001A303D009E000E303C009D001B303D008F
:102D80009C000C303C009E0001300800BF00543015
:102D90008931C1219631C0004008031DD62EE12E95
:102DA0000330D32E04302100B700DE2E4008013A54
:102DB0000319D02E033A0319D22ED22E2000400838
:102DC00008003E082100E70020003D082100E60041
:102DD0000130E4000030E500E83086000030870074
:102DE00002308100B601B60AB701B70A2000D0014F
:102DF0003F082100EA00EA302000AB000030AC00C0
:102E00000130AD000030AE009F3166279631E430CE
:102E10002000BA000030BB009331282396319C314A
:102E2000A32408009C31482497312000DE002100B3
:102E300049080319212F20005E08DD002100C90187
:102E40000800803020005D020318432F20305D020F
:102E5000031C5A2F310095182A2F1517151570309D
:102E6000920020005D0831009100940120005E086E
:102E7000310093008B1355309600AA3096009514BC
:102E800015118B175A2FA0305D02031C5A2F5D08B5
:102E9000F000F101F030F2002230F3007008720708
:102EA000F4007108733DF50074088600750887000A
:102EB0005E0881000130F00070082000DD07080086
:102EC0000330C4000030AE000030AD000030AC0074
:102ED0000A30AB003C08B2003B08B1003A08B00031
:102EE0003908AF009531B42597312B08303EBF002B
:102EF0004408C000C101C01BC10340083D07C20017
:102F000041083E3DC30042088600430887003F0851
:102F1000810044080319A72F0030AE000030AD0037
:102F20000030AC000A30AB003C08B2003B08B100F6
:102F30003A08B0003908AF009731AE2797312E0814
:102F4000BC002D08BB002C08BA002B08B900FF30CC
:102F5000BF003F08C407C41B0800622F0030B70041
:102F60000030B6000030B5000030B4002E082D044B
:102F70002C042B040319F72FB801B80AAE1BCC2F71
:102F80000130AB35AC0DAD0DAE0D890BC12F01304D
:102F9000B3003308B807BE2F0130B435B50DB60DF8
:102FA000B70D890BCD2F2E083202031DE12F2D08FE
:102FB0003102031DE12F2C083002031DE12F2B08E5
:102FC0002F02031CEC2F2B08AF022C08B03B2D085E
:102FD000B13B2E08B23B34140130AE36AD0CAC0C14
:102FE000AB0C890BED2F0130B802031DCC2F370835
:102FF000AE003608AD003508AC003408AB00080060
:10300000E2341C340C341D34E9341C346A34083482
:1030100036341534C4341C349734123477341C34A9
:103020007B341C347F341C3483341C3487341C348C
:103030008B341C348F341C34F0341C34033413347C
:0430400002342434FE
:103834000800080008000800080008000800080044
:103844000800080001300800053008001F150800B2
:103854009F31E82708001D121D1608002400961445
:10386400080024001615080020001F110800240079
:10387400961508002400110808002000911508007E
:103884002000911108008A31182208002400190828
:10389400080020009211080024001D1608002000D2
:1038A40091110800240095120800210091110800CC
:1038B4002400161408002100911508009E31B72633
:1038C40008002100921508002100AE010800210023
:1038D40034080800200097170800240096161616CE
:1038E400080024009612161608009C31302401307A
:1038F40008009C313024023008009C31302401300F
:1039040008009C313324003008009C3173240530B6
:1039140008009C316F240A3008009C316F24093060
:1039240008001C0C890C0139080024001C0801390A
:10393400080091109D31D2250800AB002B089D0092
:10394400080000309231DF220800A23022009700E4
:1039540008001330210097000800F00070082400CC
:1039640091000800F000700824009900080022006B
:10397400430C890C013908002400160E890C890CAB
:1039840001390800220043109C3139240430080016
:1039940003101E1F03140030093D08000130F0001D
:1039A40070082000D90708002000AB002B35240044
:1039B4009B00080003109D1C03140030093D0800FF
:1039C4002200C310C2019C3136240E3008002200AC
:1039D40043143C359C31AF24033008002200C3104B
:1039E400C2019C3136240E300800031024009C1EB2
:1039F40003140030093D0800031024001C1C0314A8
:103A04000030093D08002000AB002B08FE392400DB
:103A14009A0008002200431403143C0D9C31AF2487
:103A2400053008002C082100AD0020002B082100DF
:103A3400AC0008002C082200D90020002B0822002A
:103A4400D80008002C082100A90020002B08210020
:103A5400A80008002C082300D80020002B0823000D
:103A6400D70008002C082200DD0020002B082200CB
:103A7400DC0008002C082300DA0020002B082300B7
:103A8400D90008002C082200DF0020002B082200A7
:103A9400DE0008002C082200E10020002B08220090
:103AA400E00008002C082200EF0020002B08220070
:103AB400EE0008002C082200ED0020002B08220054
:103AC400EC0008002C082200EB0020002B08220048
:103AD400EA0008002C082200E90020002B0822003C
:103AE400E80008002C082200E70020002B08220030
:103AF400E60008002C082200E50020002B08220024
:103B0400E40008002C082200E30020002B08220017
:103B1400E2000800320091019201930194019501A1
:103B2400960108002C082200DB0020002B0822004C
:103B3400DA0008001C082000AC0021001B0820004B
:103B4400AB000800003020008E180130D600013090
:103B54002100C5000800031020000E1E03140030CD
:103B640003180130DC000800AB002B082100B8006A
:103B7400B701B6012000D0010800E33021009E0007
:103B84009F019B019C0101309D00080024009D1AA7
:103B940008009C0106309D0001309E009D1608001F
:103BA4002200580859040319080059088A005808C3
:103BB4000A009D3108002400951A08009401083079
:103BC400950096014F309200951608003708AC0016
:103BD4003608AB003808AD00AE010230893114213B
:103BE40008003708AC003608AB003808AD00AE0159
:103BF40004308931142108003708AC003608AB00C2
:103C04003808AD00AE0101308931142108003708AD
:103C1400AC003608AB003808AD00AE010330893182
:103C240014210800C31D08007108BE007008BD00FF
:103C34007308C0007208BF00C31108002108F10016
:103C44002008F0002308F3002208F2000030883135
:103C5400BE200800F0009C3148249E312100CA0097
:103C64007008031908000130C900080090122200EE
:103C74005A085B04031908005B088A005A080A0002
:103C84009E3108003708AC003608AB003908AE0096
:103C94003808AD0000308931142108006400800127
:103CA40001310130FE020030FF3B7F087E0403191E
:103CB4000034512E22006E086F040319662E6F081B
:103CC4008A006E080A009E312700131108002200A2
:103CD4006C086D040319732E6D088A006C080A00C1
:103CE4009E3127009612080022006A086B0403190B
:103CF400802E6B088A006A080A009E3127009613FA
:103D0400080022006808690403198D2E69088A00D6
:103D140068080A009E31270019100800220066086E
:103D2400670403199A2E67088A0066080A009E3100
:103D34002700991008002200640865040319A72EBF
:103D440065088A0064080A009E312700991108005A
:103D54002200620863040319B42E63088A0062080F
:103D64000A009E3127001912080021009211200038
:103D74009211121124009D129C0106309D00013005
:103D84009E0008002000AB0031001517703092002F
:103D940020002B083100910015141308080020009E
:103DA400AB002B08CF00CE012100B201B101B30159
:103DB400B401B501AF012000DB0108002100EC01D2
:103DC400EF01EF0A0230EE00240094010830950060
:103DD40096014F30920095120800AC002C08AB00FD
:103DE400AB0DAB0D21001D0820002B0603392B065B
:103DF40021009D001D140800AB0021002E082000A6
:103E04002B06003E840090300318013E8500000814
:103E14002100AE002E08080020008D1A142FF00196
:103E2400F101182F7730F0000030F1007230860075
:103E34002330870070088100080020008D1B252F87
:103E4400F001F101292F7730F0000030F1007130DA
:103E540086002330870070088100080020008E1D32
:103E64003A2F9230860023308700FF30810008000B
:103E74009230860023308700773081000800FF30BD
:103E84009E009D0191102100911423302000AB006D
:103E94001C30AC009D311C25233020009F000800FD
:103EA4004D3020009800303096009501901221008A
:103EB400901622302000AB001C30AC009D319425BC
:103EC40080302000970008002200C31D0800200055
:103ED4002C082200BE0020002B082200BD00200078
:103EE4002E082200C00020002D082200BF00C311AC
:103EF40008002100921120009211121124009D1239
:103F04009C0106309D0001309E0001302100C90053
:103F14002000DD0110302100ED0008007C08F100D4
:103F24007B08F0000230F2000030F3009E311426CA
:103F34009F3100302000A000A1000030A200A300A7
:103F44009E312026043008007C08F1007B08F00034
:103F54000130F2000030F3009E3114269F3100300E
:103F64002000A000A1000030A200A3009E31202662
:103F7400023008007C08F1007B08F0000230F200F7
:103F84000030F3009E3114269F3100302000A00041
:103F9400A1000030A200A3009E31202602300800B8
:103FA4007C08F1007B08F0000130F2000030F300DF
:103FB4009E3114269F3100302000A000A100003063
:103FC400A200A3009E3120260430080020005F08D0
:103FD400A03E8600013087002300190881000130CB
:103FE400F00070082000DF0708305F020318DF01CB
:0C3FF4000130F00070082100CD0708002B
:020000040001F9
:08000000FF3FFF3FFF3FFF3F00
:08000E008C3FF53FFF3FFF3F6F
:00000001FF
