:1000000080315B289D1408007E1480312100901EF1
:1000100010282000901E10289F3174278031592805
:100020002100101E1A282000101E1A2893318A233E
:10003000803159280B1F59282100111E2928200022
:10004000111E292822005B088A005A080A00803104
:1000500059282100911E36282000911E36282200A2
:1000600059088A0058080A00803159282100111DBA
:1000700043282000111D4328210035088A00340838
:100080000A008031592821009119200091193C283B
:10009000210012192000121953282100921D5928FD
:1000A0002000921D5928210031088A0030080A00DA
:1000B00080317E10090080315D287030840023304B
:1000C00085008030FE000030FF009131002180313A
:1000D0004C308400003085001830FE000030FF00F6
:1000E000913100218031A0308400003085004E30F5
:1000F000FE000030FF00913100218031203084006B
:10010000013085003030FE000030FF0091310021C9
:100110008031A0308400013085002830FE0000309E
:10012000FF00913100217E1020008C31632CBE0134
:10013000E32C1330BB0004303702031CA428023028
:100140002000CE0017307B2B2000CE01CE0A882D58
:1001500010302000B800DB30B9003930953153251C
:100160008031003A0319B9282100BA01BA0A0230D5
:10017000CB2C2100BB01BB0A882D92319F228031FC
:10018000013A0319882D2100BA0192314E228031A3
:10019000003A031DD32801302000BD003D08210096
:1001A000B707BB01882D2100B7010F30BB00DB1F53
:1001B000E1287F302000BD003D082100DB05033031
:1001C000BB005F0A0319E828FF30DF000330BB00E3
:1001D000600A0319EF28FF30E0000330BB00610A1A
:1001E0000319F628FF30E1000330BB00620A03194F
:1001F000FD28FF30E2000330BB0063080319032928
:10020000E3010330BB00640803190929E40103304A
:10021000BB00671D882DFB302000BD003D0821007C
:10022000E7050330CB2C10302000B800DB30B900DC
:100230003930953189258031003A0319882D210004
:10024000BA01BA0A0430CB2C92319F228031013A94
:100250000319882D2100BA0192314E228031003AD3
:100260000319CB282100B70109307B2BDB3020009C
:10027000B80006309531BF258031003A0319452971
:100280002100BA01BA0A0630CB2C05307B2B923103
:100290009F228031013A0319882D2100BA01923141
:1002A0004E228031003A0319CB282100B701BB014F
:1002B000BB0ADB184529882D10302000B800DB3040
:1002C000B9003830953153258031003A03196D2932
:1002D0002100BA01BA0A0C30CB2C0B307B2B9231A7
:1002E0009F228031013A0319882D2100BA019231F1
:1002F0004E228031003A0319CB282100B701BB01FF
:10030000BB0A6A0A03198829FF30EA000D30CB2C9A
:1003100002302000D800882D10302000B800DB30DB
:10032000B9003830953189258031003A0319882D7C
:100330002100BA01BA0A0E30CB2C92319F228031B3
:10034000013A0319882D2100BA0192314E228031E1
:10035000003A0319CB282100B7010530BB008829DA
:10036000DB302000B80006309531BF258031003ADF
:10037000031934292100BA01BA0A0A30CB2C923170
:100380009F228031013A0319882D2100BA01923150
:100390004E228031003A0319CB282100B7010F30DB
:1003A000BB00DB183429882D10302000B800DB306A
:1003B000B9003A30953153258031003A0319E529C7
:1003C0002100BA01BA0A1030CB2C0F307B2B9231AE
:1003D0009F228031013A0319882D2100BA01923100
:1003E0004E228031003A0319CB282100B701193081
:1003F000BB005B030319882D0130DB001130CB2CCF
:1004000010302000B800DB30B9003A309531892532
:100410008031003A0319882D2100BA01BA0A12303E
:10042000CB2C92319F228031013A0319882D210073
:10043000BA0192314E228031003A0319CB282100B3
:10044000B70107307B2B3C302000B8002830B900C2
:100450000030953121258031003A0319882D210083
:10046000BA01BA0A1430CB2C92319F228031013A62
:100470000319882D2100BA0192314E228031003AB1
:100480000319CB282100B7011730BB00A001A1013F
:10049000882D3C302000B8002830B900003095315C
:1004A00021258031003A0319882D2100BA01BA0AAA
:1004B0001630CB2C342A200059080319672A0F3034
:1004C0002100BB002000BE01BE0A0330682A0230B2
:1004D000CE005803031D882D03304E0603196D29E5
:1004E000882DDB302000B80006309531BF258031E3
:1004F000003A0319212A2100BA01BA0A0830CB2C8C
:1005000092319F228031013A0319882D2100BA01CE
:1005100092314E228031003A0319CB282100B701D5
:100520001930BB00DB18212A882D2000B801B80A39
:10053000B901B90A0030953121258031003A0319FB
:10054000882D2100BA01BA0A1A30CB2C92319F2291
:100550008031013A0319882D2100BA0192314E22CF
:100560008031003A0319CB282100B7011B30CB2C76
:1005700040302000B8004030B900003095312125CE
:100580008031003A0319882D2100BA01BA0A1C30C3
:10059000CB2C92319F228031013A0319882D210002
:1005A000BA0192314E228031003A0319CB28210042
:1005B000B7011D30CB2C3C302000B8003C30B900D6
:1005C0000030953121258031003A0319882D210012
:1005D000BA01BA0A1E30CB2C92319F228031013AE7
:1005E0000319882D2100BA0192314E228031003A40
:1005F0000319CB282100B7011F30452A20005903D9
:10060000031D042B21306B2C01302100A00700308A
:10061000A13D01302102903003192002031C882DD6
:10062000A001A101DB302000B80006309531BF25C4
:100630008031003A0319882D2100BA01BA0A20300E
:10064000CB2C92319F228031013A0319882D210051
:10065000BA0192314E228031003A0319CB28210091
:10066000B7015B1E382B2130BB0004302000CE00C8
:1006700021005B1C3D2B1F30CB2C1330CB2C1030BA
:100680002000B800DB30B900F830953153258031B7
:10069000003A0319502B2100BA01BA0A2230CB2CA0
:1006A00021307B2B92319F228031013A0319882D12
:1006B0002100BA0192314E228031003A0319CB2831
:1006C0002100B7012330BB00DB309631302680316A
:1006D000882D10302000B800DB30B900FB30953198
:1006E00053258031003A03197A2B2100BA01BA0A46
:1006F0002430CB2C23302100CB2C92319F2280310F
:10070000013A0319882D2100BA0192314E2280311D
:10071000003A0319CB282100B7012630CB2C4030FA
:100720002000B800B9010030953121258031003A10
:100730000319882D2100BA01BA0A2730CB2C923137
:100740009F228031013A0319882D2100BA0192318C
:100750004E228031003A0319CB282100B7012A30FC
:10076000CB2C2000B801B80AB90100309531212501
:100770008031003A0319882D2100BA01BA0A2B30C2
:10078000CB2C92319F228031013A0319882D210010
:10079000BA0192314E228031003A0319CB28210050
:1007A000B7012830CB2C40302000B8004030B900D1
:1007B0000030953121258031003A0319882D210020
:1007C000BA01BA0A2930CB2C92319F228031013AEA
:1007D0000319882D2100BA0192314E228031003A4E
:1007E0000319CB282100B7012530CB2C2C30BB00BE
:1007F000DB3087318F278031882D10302000B80002
:10080000DB30B900F830953189258031003A031981
:10081000882D2100BA01BA0A2D30CB2C92319F22AB
:100820008031013A0319882D2100BA0192314E22FC
:100830008031003A0319CB282100B7012E30CB2C90
:1008400010302000B800DB30B900FB30953189252D
:100850008031003A0319882D2100BA01BA0A2F30DD
:10086000CB2C92319F228031013A0319882D21002F
:10087000BA0192314E228031003A0319CB2821006F
:10088000B7013030CB2C3C302000B8003C30B900F0
:100890000030953121258031003A0319882D21003F
:1008A000BA01BA0A3130CB2C92319F228031013A01
:1008B0000319882D2100BA0192314E228031003A6D
:1008C0000319CB282100B7013230452A20005903F3
:1008D000031D712C34302100BB0004302000CE00F9
:1008E000882D01302100A0070030A13D01302102F8
:1008F000903003192002031C882DA001A101DB30D8
:100900002000B80006309531BF258031003A031928
:10091000882D2100BA01BA0A3330CB2C92319F22A4
:100920008031013A0319882D2100BA0192314E22FB
:100930008031003A0319CB282100B7015B1EA52C9A
:100940003430BB0004302000CE0021005B1C3D2B66
:100950003230CB2C40302000B800B9010030953146
:1009600021258031003A0319882D2100BA01BA0AE5
:100970003530CB2C92319F228031013A0319882DDA
:100980002100BA0192314E228031003A0319CB285E
:100990002100B7011930BB00882D20005908031928
:1009A000D92C19302100BB002000BE01BE0A033043
:1009B000DA2C0230CE005803031D882D02304E067B
:1009C000031DB928882D21003B08003A03199928F6
:1009D000013A0319A828033A0319BD28013A03195B
:1009E0001329073A03192429013A03193629033A2E
:1009F00003194729013A0319712A0F3A0319802A6A
:100A0000013A0319B029033A0319BF29013A03191E
:100A10005C29073A03196F29013A03198C29033A13
:100A200003199D29013A0319D4291F3A0319E7290B
:100A3000013A0319002A033A0319112A013A03194A
:100A4000232A073A0319342A013A0319492A033A97
:100A500003195A2A013A03195B2A0E3A0319952AF7
:100A6000033A0319A62A013A0319B82A073A0319C7
:100A7000C92A013A0319DB2A033A0319EC2A013A7D
:100A80000319FE2A3F3A0319212B013A03193F2B80
:100A9000033A0319522B013A0319692B073A031938
:100AA0007D2B013A0319F62B033A03198F2B013AD8
:100AB00003199F2B0F3A0319D32B013A0319E42B87
:100AC000033A0319B12B013A0319C12B073A031951
:100AD000FD2B013A03190E2C033A0319202C013A7D
:100AE0000319312C1F3A0319432C013A0319542CD2
:100AF000033A0319662C013A03198E2C073A03199D
:100B0000AA2C013A0319BA2C033A0319CD2C882DCB
:100B100020003E080800C400992DC501A72DC5017D
:100B2000C50AA72D0230972D210041082000C500DD
:100B3000A72D4408003A0319942D013A03198D2D6D
:100B4000033A03198F2D013A0319922D942D210098
:100B500040080319942E9E3152268531003A03191C
:100B6000782E9E31FC2685312A08CB002908CA0040
:100B7000612E4B082100A50020004A082100A40096
:100B800020004A08A9004B08AA00AB01AC010030C4
:100B9000B0000030AF001130AE003F30AD009431F6
:100BA000C22485312C08C9002B08C8002A08C700B8
:100BB0002908C6000A30C936C80CC70CC60C890BF8
:100BC000DB2D4908BA004808B9004708B8004608B4
:100BD000B7007830BB002330BC008831B6208531A7
:100BE0006C2E4B082100A30020004A082100A2001F
:100BF00020004A08A9004B08AA00AB01AC01003054
:100C0000B0000030AF000730AE008C30AD00943142
:100C1000C22485312C08C9002B08C8002A08C70047
:100C20002908C6000A30C936C80CC70CC60C890B87
:100C3000132E4908BA004808B9004708B80046080A
:100C4000B7007430BB002330BC008831B62085313A
:100C50006C2E4B082200CD0020004A082200CC0058
:100C600020004A08A9004B08AA00AB01AC010030E3
:100C7000B0000030AF000130AE000A30AD0094315A
:100C8000C22485312C08C9002B08C8002A08C700D7
:100C90002908C6000A30C936C80CC70CC60C890B17
:100CA0004B2E4908BA004808B9004708B800460862
:100CB000B7007C30BB002330BC008831B6208531C2
:100CC0006C2E4508003A0319B92D013A0319F12D8C
:100CD000033A0319292E6C2E4408031D742E01308B
:100CE000C30043082100C1072100C00101300800F2
:100CF000003008001730913126218531A02E1630A2
:100D0000913126218531A02E043091312621853163
:100D1000A02E173091312621853120004408031D73
:100D2000A02E2100C101A02E20004508003A031981
:100D30007A2E013A03197F2E033A0319842E892E45
:100D40002100C001C00A803102208531782E933005
:100D500086002330870077300106031DCC2E20004B
:100D60005808031DBB2E0130D8007730A900803011
:100D70009231BB228631023020005806031DD82E46
:100D800093308600233087008101D801A90180308B
:100D90009231BB228631D82E9330860023308700D3
:100DA00001080319D82E9330860023308700810173
:100DB00090308600233087000108031DE42E2000B8
:100DC0008C1AE42E22008C16903086002330870087
:100DD00077300106031DF12E20008C1EF12E22001B
:100DE0008C12200050080319372F9431F1248631DA
:100DF0002000C0001D2F6308A90002309231BB22E1
:100E000086312000D001210042080319092FC201B8
:100E1000372F0E301A2FFF30E3006308A90002308D
:100E20009231BB2286312000D00121004208031DEF
:100E3000072F06302000D700372F4008003A03194B
:100E40000B2F013A0319372F033A0319FB2E013AEE
:100E500003190B2F073A03190B2F013A03190B2F14
:100E6000033A03190B2F013A03190B2F372F2100D7
:100E70004A080319552F20005608BB00BC013C0846
:100E8000BE002100480820003B02BD00031CBE0339
:100E90003E08803ABF0080303F02031D512F0530CD
:100EA0003D02031C552F2100CA0121004C080319E3
:100EB0000800200056082100C800CA01CA0A200004
:100EC00054080319772F5008031D08002100CC0196
:100ED00063302000B800FF30973131272000D00167
:100EE000D00A2100C20110302000D70008005008AD
:100EF00003197D2F2100C201C20A0C3020005706C1
:100F000003198A2F0E30570603198A2F10305706FF
:100F1000031D08000F30D7002100CC01080020007D
:100F2000AA005303031D9A2F2A08073E8600870153
:100F30004430B12FB1305302031CA22FC4305302EE
:100F4000031CAC2F023053060319AC2F2A08073EAE
:100F5000860087014330B12F2A08073E86008701AB
:100F600041308100023053060319C12F2A08053E83
:100F70008600870181012A08063E860087018101DB
:100F8000CD2F2A08053E86008701510881002A08D6
:100F9000063E86008701520881009D31D0258731A9
:100FA00020002A08073E860087010108913135217B
:100FB000873120002A08063E86008701010891310A
:100FC0003521873120002A08043E860087012A083F
:100FD000053E84008501000891313521810008001B
:100FE0002100ED01EF01EF0A02302200EA002400A7
:100FF00094010830950096014F3092009512080038
:101000009E31EC2688318B31CE2388318731F02711
:1010100088319131B22188319F31282788319E3122
:10102000172688319E31132688319F311F2788313A
:101030009131892188319731BB270800BB0054309A
:10104000893104218831BC003C08031D2E28392831
:1010500003302B2804302100BE0036283C08013A1A
:1010600003192828033A03192A282A2820003C08B3
:1010700008003A08E1003908E0000130DE000030E5
:10108000DF006230860000308700023081002100DE
:10109000BD01BD0ABE01BE0A2000CF013B082100F0
:1010A000EC00EC302000A9000030AA000130AB00B9
:1010B0000030AC0091319D2188315E302000B600B7
:1010C0000030B7009331F82388319E310F26080095
:1010D0009D31B82588312000DB002100500803191C
:1010E000772820005B08DA002100D001080080305A
:1010F00020005A020318992820305A02031CB028F5
:1011000031009518802815171515703092002000B1
:101110005A0831009100940120005B0831009300CF
:101120008B1355309600AA309600951415118B1725
:10113000B028A0305A02031CB0285A08F000F10170
:10114000F030F2002230F30070087207F4007108EA
:10115000733DF50074088600750887005B08810000
:101160000130F00070082000DA0708000330C200E8
:101170000030AC000030AB000030AA000A30A900FB
:101180003A08B0003908AF003808AE003708AD00A3
:101190009631AC2688312908303EBD004208BE0099
:1011A000BF01BE1BBF033E083B07C0003F083C3DDC
:1011B000C10040088600410887003D0881004208C0
:1011C0000319FD280030AC000030AB000030AA004D
:1011D0000A30A9003A08B0003908AF003808AE005C
:1011E0003708AD008931F82188312C08BA002B0866
:1011F000B9002A08B8002908B700FF30BD003D0833
:10120000C207C21B0800B8282000AB00AC01AC0A22
:101210002200431951293C3086000130870020000C
:101220002B0881002200C310431543104130860073
:10123000013087000E308100F430BA000130BB006D
:10124000C3159C30A0001D30A100AC01AD019C3045
:10125000A2001D30A300AE01AF019C30A4001D30E0
:10126000A500B001B1019C30A6001D30A700B2015D
:10127000B3019E30A8001D30A900B401B501B530FE
:101280002000A9001D30AA009E317C2689319D31A5
:10129000C12589319F313B2789319D31CD252000E2
:1012A000AC0120002C080800F80070087104031934
:1012B00080297808F400F501F435F50D2030F600AA
:1012C0000130F7007408760786007508773D8700BF
:1012D0007008C03F7108C13F7808F400F501F4358B
:1012E000F50D2C30F6000130F70074087607860003
:1012F0007508773D87007208C03F7308C13F08003A
:101300007808F400F501F435F50D2030F6000130D1
:10131000F7007408760786007508773D87009C30D3
:10132000C03F1D30C13F7808F400F501F435F50DDC
:101330002C30F6000130F700740876078600750837
:10134000773D87000030C03FC13F0800B100290849
:101350002A040319D2293108AD00AE01AD35AE0D16
:101360002030AF000130B0002D082F0786002E0876
:10137000303D87002908C03F2A08C13F3108AD0031
:10138000AE01AD35AE0D2C30AF000130B0002D08F0
:101390002F0786002E08303D87002B08C03F2C0801
:1013A000C13F08003108AD00AE01AD35AE0D2030B3
:1013B000AF000130B0002D082F0786002E08303D09
:1013C00087009C30C03F1D30C13F3108AD00AE01E9
:1013D000AD35AE0D2C30AF000130B0002D082F0719
:1013E00086002E08303D87000030C03FC13F080016
:1013F0000030B5000030B4000030B3000030B2005F
:101400002C082B042A0429040319412AB601B60A20
:10141000AC1B162A0130A935AA0DAB0DAC0D890BFA
:101420000B2A0130B1003108B607082A0130B23565
:10143000B30DB40DB50D890B172A2C083002031D0E
:101440002B2A2B082F02031D2B2A2A082E02031DEC
:101450002B2A29082D02031C362A2908AD022A0846
:10146000AE3B2B08AF3B2C08B03B32140130AC36FE
:10147000AB0CAA0CA90C890B372A0130B602031D4C
:10148000162A3508AC003408AB003308AA0032082D
:10149000A9000800AD012D08703EAB00AC0123305F
:1014A000AC3D2B0886002C088700FF3081000130FE
:1014B000AB002B08AD0780302D02031C4B2A703087
:1014C0008600233087005530C03F9030860023309F
:1014D00087008101703086002330870058318101F8
:1014E00070308600233087005931810170308600CA
:1014F000233087005A3181012100DA01D901D80156
:101500008030913119218A312000AB009330860060
:10151000233087002B08810093308600233087001A
:10152000010A031D080093308600233087008101E3
:10153000A90180309231BB2208009E3134268A31C5
:10154000003A031DAD2ACC2A9D31EB2508009D31C0
:10155000EF2508009D31F725080022003308200000
:10156000A100220032082000A000203086000130B7
:1015700087004631413F8A00403F0A008A31013AE4
:101580000319AA2A033A0319A42A013A0319A72A1C
:10159000073A0319AA2AAA2A220043103E0820006B
:1015A000A30022003D082000A2002200BD0A03196A
:1015B000BE0A2000220886002308870001089E3109
:1015C0001B268A3101302200BF020030C03B3F0899
:1015D0004004031DED2A0630EE2A03302000A4004B
:1015E0000030A500240808009D31BB258A319E31BA
:1015F0005F268A31003A0319072B9E3107268A316C
:10160000003A0319052B0130102B0230102B9E31AC
:1016100007268A31003A03190F2B0330102B0430B0
:101620002100CF003A2B00309F3168278A319E314C
:1016300066268A31003A0319482B8B314B238A31B5
:10164000482B01309F3168278A31482B9E3166260E
:101650008A31003A0319482B9E3140268A311A2BD1
:101660009E310B268A31003A0319482B88316820B5
:101670008A31482B4F08013A0319132B033A0319F7
:10168000212B013A0319262B073A0319302B482B3B
:101690009D31BE250800803020005A0203185B2BC4
:1016A000310015177030920020005A083100910067
:1016B00015141308A02B90305A06031DA82B2100E7
:1016C0005A080319A82B0130DA02031DA82B703029
:1016D000860023308700503101089E312A268B3145
:1016E0008030972B210059080319AD2B0130D90206
:1016F000031DAD2B70308600233087005131010867
:101700009E312A268B318130972B210058080319EE
:10171000B22B0130D802031DB22B7030860023306B
:101720008700523101089E312A268B318230860093
:1017300023308700FF308100A22B3130A02B3030C6
:101740009E312A260130F10071082000DA070800D6
:10175000913020005A060319722B923020005A064D
:101760000319852B983020005A0603199F2B9930B6
:101770005A0603199D2B9A305A0603199F2B5A08B3
:10178000F100F201F030F3002230F4007108730729
:1017900086007208743D87000108A02B22008C018E
:1017A0008D018E01173021008C00F0308D00FB3050
:1017B0008E00C03023008E008D0110308C00503020
:1017C00024008D0004308C001B308E0025008C011D
:1017D0008D018E01373026008C00A0308D00FF3047
:1017E0008E003F3027008C00F0308D00FF308E00DF
:1017F0001311121511159612961395169517941626
:101800009417191099109911191218149814981501
:101810001816171497149715171694302000A9005E
:101820001D30AA009E31B4268B3195302000A900CE
:101830001D30AA009E31BC268B3196302000A900B5
:101840001D30AA009E31C4268B3197302000A9009C
:101850001D30AA009E31CC268B3198302000A90083
:101860001D30AA009E31D4268B3199302000A9006A
:101870001D30AA009E31DC268B319A302000A90051
:101880001D30AA009E31E4262100101615303C00C0
:10189000A40014303D00A3001A3091000E303C002B
:1018A000A0001B303D0090000C303C00A10018301F
:1018B0003D009E0001303C009D0019303D009C0021
:1018C0003C009E0108002300CA01CC01CD0120008C
:1018D000D301883100208C3146302000A9001E3011
:1018E000AA009E31F4268C319D31DC258C310030EC
:1018F0000C1901302100CB00003020000E180130FF
:101900002100C700003020008E180130D400540898
:1019100003198D2C2100CC01902C01302100CC002A
:10192000F3302000A9001230AA009E31B4268C3179
:101930001F302000A9001230AA009E31CC268C3125
:1019400004302000A9001F30AA009E31D4268C311B
:1019500045302000A9001130AA009E31BC268C31F0
:1019600056302000A9001130AA009E31C4268C31C7
:101970000D302000A9001F30AA009E31E4268C31D2
:1019800067302000A9001130AA009E31DC268C317E
:1019900021000E1424000E1422000C1521000C1539
:1019A00022000E158C168B170B1796316D268C3175
:1019B0008A314A228C315530913178218C31363040
:1019C0009F3116278C319231D7228C318631A72650
:1019D0008C31200055030319DB2F23004D08031918
:1019E000272E200056082200EB0023004B0822007F
:1019F000EB0223004D0822006B02031C5D2E230026
:101A0000CD015D2E023055060319BA2D0A30230090
:101A1000CD00200056082300CB002000D701D70AB4
:101A20005D2E0330D7002300C9015D2E00309731B1
:101A300076278C31003A03195D2E0230D02DB80183
:101A4000B80A7330B9002330BA00003088311E2044
:101A50008C312300CE004E08031D302D0430D02DD4
:101A60004E08013A03195D2E033A03195D2E5D2ECF
:101A70009431F1248C312300CE0002304E06031D38
:101A8000432D0530D02D4E0303195D2E0130220069
:101A9000EB006B082300C9070A304902031C1D2D07
:101AA00005302000D7007330860023308700FF30D8
:101AB00081005D2E0130973176278C31003A031971
:101AC0005D2ECD2D93316B238C310730D12D01301C
:101AD00085318B258C31003A03195D2E0830D02DCD
:101AE0002100C901C90A0C1122000C110E1102308B
:101AF0002300CD00200056082300CB000930D02D54
:101B0000023085318B258C31003A03195D2E22007D
:101B10000E150C1521000C15C9010A302000122DDC
:101B20000B30D12D9D31D3258C312200EB000230BA
:101B30006B02031C5D2E0C30D02D733086002330D9
:101B4000870001308100D32D0030210023029E3018
:101B500003192202031CBC2D033025024430031953
:101B600024020318BC2D02302300CD0020005608AB
:101B70002300CB000E30D02D1430C72D00302100B3
:101B800023026A30031922020318B32DFF30230009
:101B9000CD00200056082300CB000630D02D0F309A
:101BA0002000D7005D2E703086002330870043313F
:101BB0000108013A0319A42D033A0319BE2DCF2DB4
:101BC00023004C080319ED2D2100C901C90A0C118D
:101BD00022000C112300CA01CA0A9D31D3258C3181
:101BE000023A031D062E56082200EB002300480887
:101BF0002200EB0228306B02031C5D2E23004C08F0
:101C00000319CF2D21000C15C901BA2D5608230048
:101C1000C8005D2E2300CC01CC0A4A080319162EF9
:101C2000CA0122000C1521000C15C90120000E1D4F
:101C30005D2E22000E115D2E2300CC0120000E1916
:101C40005D2E232ED70122000E158C165D2E20004E
:101C50005708003A0319022D013A0319112D033ACE
:101C600003191F2D013A0319162D073A0319382DB0
:101C7000013A03195A2D033A0319622D013A031947
:101C8000672D0F3A0319702D013A0319802D033A7D
:101C90000319902D013A0319922D073A03199D2D2E
:101CA000013A0319E02D033A03190A2E013A0319E8
:101CB0001C2E1F3A03195D2E222E0B3020005702D6
:101CC000031CDF2F91308600233087007730010618
:101CD0000319B12F803197208C3121004308031D57
:101CE000AB2EB12F0430913119218C312000D2005C
:101CF0000330913119218C312000D1000230D30002
:101D00002100C301C02E0630913119218C312000F1
:101D1000D2000530792E0830913119218C31200004
:101D2000D2000730792E0A30913119218C312000F0
:101D3000D2000930792E0C30913119218C312000DC
:101D4000D2000B30792E0E30913119218C312000C8
:101D5000D2000D30792E20005308B93A0319722EA3
:101D6000063A0319832E7F3A03198B2E013A031981
:101D7000932E033A03199B2E013A0319A32EC02E6A
:101D80009D31D3258C31023A03197E2FB12F520891
:101D9000A90004309231BB228C3120005108A900E7
:101DA00003309231BB228C31AD2F5208A90006308E
:101DB0009231BB228C3120005108A90005309231AC
:101DC000BB228C31AD2F5208A90008309231BB22C2
:101DD0008C3120005108A90007309231BB228C3190
:101DE000AD2F5208A9000A309231BB228C3120005D
:101DF0005108A90009309231BB228C31AD2F520815
:101E0000A9000C309231BB228C3120005108A9006E
:101E10000B309231BB228C31AD2F5208A9000E300D
:101E20009231BB228C3120005108A9000D30923133
:101E3000BB228C31AD2F80308600233087005308C1
:101E40008100813086002330870052088100823073
:101E5000860023308700510881002100DA01DA0A68
:101E6000D901D90AD801D80AC901C90A0C1122001E
:101E70000C112300CA01CA0A0E302000D700AD2F72
:101E8000803086002330870053088100813086002F
:101E9000233087005208810082308600233087007B
:101EA0005108810002302100DA000230D9000230EE
:101EB000D800732F803086002330870053088100BC
:101EC00081308600233087005208810082308600EE
:101ED00023308700510881002100DA01DA0AD90194
:101EE000D90AD801D80A0E1022000E1001302100A4
:101EF000C600200056082100C500342F5308003AC0
:101F00000319AD2F013A0319AD2FB03A03191B2F56
:101F1000033A03191B2F013A0319402F073A0319FB
:101F20001B2F013A03195A2F033A03191B2F013AA9
:101F300003195A2F0F3A0319C72E023A0319D52E47
:101F4000013A0319E32E073A0319F12E013A031956
:101F5000FF2E033A03190D2FAD2F2000D3012100CE
:101F6000C301210046080319D12F20005608220082
:101F7000EB00EC016C08EE002100450822006B022A
:101F8000ED00031CEE036E08803AEF0080306F0214
:101F9000031DCC2F14306D02031CD12F2100C6016C
:101FA0000E140E3020005706031DDF2F0030853140
:101FB0008B258C31DF2F0E1DDF2F22000E116400C8
:101FC000200055030319E62C9E312F268C31003A50
:101FD000031DE62C9D31D3258C31023A031DE62CDE
:101FE0000F305706031DFC2F2100171032009813E5
:101FF000630021001714E62C320098176300E62CCA
:10200000003407340E3409341C341B3412341534B4
:1020100038343F3436343134243423342A342D34A4
:10202000703477347E3479346C346B346234653494
:1020300048344F3446344134543453345A345D3484
:10204000E034E734EE34E934FC34FB34F234F53474
:10205000D834DF34D634D134C434C334CA34CD3464
:10206000903497349E3499348C348B348234853454
:10207000A834AF34A634A134B434B334BA34BD3444
:10208000C734C034C934CE34DB34DC34D534D23434
:10209000FF34F834F134F634E334E434ED34EA3424
:1020A000B734B034B934BE34AB34AC34A534A23414
:1020B0008F34883481348634933494349D349A3404
:1020C0002734203429342E343B343C3435343234F4
:1020D0001F34183411341634033404340D340A34E4
:1020E0005734503459345E344B344C3445344234D4
:1020F0006F34683461346634733474347D347A34C4
:1021000089348E3487348034953492349B349C34B3
:10211000B134B634BF34B834AD34AA34A334A434A3
:10212000F934FE34F734F034E534E234EB34EC3493
:10213000C134C634CF34C834DD34DA34D334D43483
:1021400069346E3467346034753472347B347C3473
:10215000513456345F3458344D344A344334443463
:1021600019341E3417341034053402340B340C3453
:10217000213426342F3428343D343A343334343443
:102180004E34493440344734523455345C345B3433
:102190007634713478347F346A346D346434633423
:1021A0003E34393430343734223425342C342B3413
:1021B0000634013408340F341A341D341434133403
:1021C000AE34A934A034A734B234B534BC34BB34F3
:1021D0009634913498349F348A348D3484348334E3
:1021E000DE34D934D034D734C234C534CC34CB34D3
:1021F000E634E134E834EF34FA34FD34F434F334C3
:102200006400800101310130FE020030FF3B7F0895
:102210007E0403190034012921009211200092113B
:10222000121124009D129C0106309D0001309E0079
:1022300008002000A900310015177030920020001E
:10224000290831009100151413080800AA002A0873
:10225000A900A90DA90D21001D0820002906033998
:10226000290621009D001D140800A9002100360840
:1022700020002906003E840090300318013E8500AE
:1022800000082100B6003608080020008D1A4B29EE
:10229000F001F1014F297730F0000030F100723089
:1022A00086002330870070088100080020008D1B05
:1022B0005C29F001F10160297730F0000030F10075
:1022C00071308600233087007008810008002000EC
:1022D0008E1D71299230860023308700FF308100E7
:1022E0000800923086002330870077308100080094
:1022F0002000A9002908CD00CC012100BA01B901B4
:10230000BB012000CE012100BC01B7012000D80193
:1023100008004D3020009800303096009501901252
:10232000210090169B302000A9001D30AA009E318C
:10233000F42680302000970008002200C31D08000A
:1023400020002A082200BE00200029082200BD002B
:1023500020002C082200C00020002B082200BF0013
:10236000C3110800210092112000921112112400C3
:102370009D129C0106309D0001309E00013021001D
:10238000D0002000DA0110302100EE00080020000B
:102390002108F1002008F0000230F2000030F300C4
:1023A0009F31982791310030F900FA000030FB008E
:1023B000FC009F315C270430080020002108F10058
:1023C0002008F0000130F2000030F3009F31982720
:1023D00091310030F900FA000030FB00FC009F3121
:1023E0005C270230080020002108F1002008F000DE
:1023F0000230F2000030F3009F3198279131003015
:10240000F900FA000030FB00FC009F315C2702302D
:10241000080020002108F1002008F0000130F2003F
:102420000030F3009F31982792310030F900FA0014
:102430000030FB00FC009F315C27043008000030B6
:1024400020000E1801302100C7000630200057067A
:1024500003192E2A0F305706031D080021004708D4
:10246000031D08000E302000D700080020005C0883
:10247000A03E86000130870023001908810001304A
:10248000F00070082000DC0708305C020318DC0153
:102490000130F00070082100D407080020004C082B
:1024A000031D542A01300800CC1C592A0230210097
:1024B000BC0020004C1D5F2A2100BC01BC0A20008A
:1024C0004C1C652A03302100BC0000300800712A32
:1024D000CF14812A4F15812A4F14812A0330CF004F
:1024E000812A200020088600210887000108003A80
:1024F0000319682A013A03196A2A033A03196C2A54
:102500006E2A013008008D2ACC149D2A4C159D2A74
:102510004C149D2A0730CC009D2A200020088600FC
:10252000210887000108003A0319842A013A031997
:10253000862A033A0319882A8A2A013008002000D3
:10254000A901A90A2200C318B82A43113C30860009
:1025500001308700FF3081009D31C12592319D31CE
:10256000C72592319D31C425220042082000A900D0
:10257000200029080800AA0031009518BC2A151768
:1025800015157030920020002A0831009100940146
:1025900020002908310093008B1355309600AA3093
:1025A000960095149518D22A15118B170800013042
:1025B0002100D0002000DA0121006E089E316D2636
:1025C00092317F309E314C269231F4302000A900A8
:1025D0000A30AA009E31842692319F3131279231F0
:1025E0009D31D9250800003020000C190130210050
:1025F000CB004908031D08000630200057060319C8
:10260000052B0F305706031D080021004B08031D42
:1026100008004A08031D08000E302000D7000800FB
:10262000A900AA01AA0A2200C3182A2BC314200059
:10263000AA0129080319222B4130860001308700A6
:102640000130272B413086000130870002308100A5
:102650009D31CA2520002A080800083021005602B2
:1026600003184A2B20005D08A83E86000130870031
:10267000010823009A000130F00070082000DD07F7
:1026800008305D020318DD010130F0007008210000
:10269000D607080011120800200020088600210833
:1026A00087004231403FF000413FF10020088600A2
:1026B00021088700403FF200413FF3009F319827F7
:1026C00093310030F900FA000030FB00FC009F312C
:1026D0005C27023008008D1B702BA901AA01742B06
:1026E0007730A9000030AA007130860023308700BF
:1026F000290881008D1A7F2BAB01AC01832B773029
:10270000AB000030AC0072308600233087002B080D
:10271000810008002700131D902B9F31A5279331BE
:10272000961E952B9F31B2279331961F9A2B9F317E
:10273000BF279331191C9F2B9F31CC279331991CB4
:10274000A42B9F31D9279331991DA92B9F31E627BF
:102750009331191E08009F31F3270800200020083C
:102760008600210887004231403FF000413FF100E0
:102770002008860021088700403FF200413FF30017
:102780009F31982793310030F900FA000030FB00A8
:10279000FC009F315C27200020088600210887006C
:1027A0004431010808002000200886002108870025
:1027B0004231403FF000413FF100200886002108EF
:1027C0008700403FF200413FF3009F31982793314B
:1027D0000030F900FA000030FB00FC009F315C275C
:1027E00020002008860021088700443101080800E5
:1027F000AE30B2001330B3003708B5003608B4006D
:102800009F31802793316730B2001230B300ED3032
:10281000B4009F31462793316730B2001230B300C5
:10282000EF30B4009F31512793316730B20012303E
:10283000B3006A30B4009F318C270800D330B20057
:102840001330B3003708B5003608B4009F31802735
:1028500094318330B2001230B300EF30B4009F31B6
:10286000462794318330B2001230B300ED30B4000B
:102870009F31512794318330B2001230B3006A3057
:10288000B4009F318C2708002200C315512C9D31C4
:10289000F32508009D31AF25033008009D31F72551
:1028A00008002D082000A10022002C082000A00014
:1028B000220021088A0020080A009431013A0319F5
:1028C0004E2C033A0319472C013A0319472C073AB7
:1028D00003194A2C4E2C0800220043104230860077
:1028E00001308700023081007B2C9D31F3250800E8
:1028F0009D31F725080031082000A1002200300892
:102900002000A00020308600013087004431413F84
:102910008A00403F0A009431023A0319752C013AAB
:102920000319752C782C08009D31B22594312200B2
:10293000431CA62C9E3134269431003A0319A62C50
:1029400041308600013087000F30810022004108AD
:102950002000A600A701A635A70D00302607840099
:102960001830273D80388500013F8A00003F0A006B
:1029700094312000A80041308600013087002808EB
:10298000810008000030B4000030B3000030B20015
:102990000030B100291CD42C2D08B1072E08B23DFF
:1029A0002F08B33D3008B43D0130AD35AE0DAF0D4D
:1029B000B00D890BD52C0130AC36AB0CAA0CA90C90
:1029C000890BDC2C2C082B042A042904031DCA2C97
:1029D0003408AC003308AB003208AA003108A90063
:1029E000080021003D0803191E2D92319F229431C9
:1029F000013A03191E2D2100BD0120004F080319C3
:102A0000182D03304F06031D072D0430162DCF1C43
:102A10000C2D05302100BE0020004F1D122D063068
:102A20002100BE0020004F1C1E2D073021001D2D4F
:102A300021003E03031D1E2D0230BE0021003E0872
:102A40000800BA004D08893104219531003A031974
:102A50002B2D00300800CC01FE302100DB002000CF
:102A60003A082100DC00200038082100DD002000A9
:102A700039082100DE00DB302000A9000030AA0068
:102A80000430AB000030AC0091319D219531DB303A
:102A90002000B6000030B70094311E2495319E31DD
:102AA0000F2601300800BC004D0889310421953102
:102AB000003A03195D2D003008003908E000E101FB
:102AC0003808BA00BB013A08DE003B08DF0062307C
:102AD00086000030870002308100CC013C082100D4
:102AE000EB00EB302000A9000030AA000130AB0061
:102AF0000030AC0091319D2195315E302000B60050
:102B00000030B70094311E2495319E310F260130DC
:102B10000800BC004D08893104219531003A0319A1
:102B2000932D003008003908E000E1013808BA00B0
:102B3000BB013A08DE003B08DF006230860000304F
:102B4000870004308100CC013C082100EB00EB3011
:102B50002000A9000030AA000130AB000030AC001A
:102B600091319D2195315E302000B6000030B700D4
:102B700094311E2495319E310F2601300800B90092
:102B80004D08893104219531003A0319C92D0030CF
:102B900008003808E000E1010130DE000030DF000D
:102BA000623086000030870002308100CC01FE30A8
:102BB0002100DB00200039082100DC00DB30200090
:102BC000A9000030AA000230AB000030AC00913107
:102BD0009D2195315E302000B6000030B700943161
:102BE0001E2495319E310F260130080020005C081C
:102BF000443E860001308700810123001D1D0D2EFB
:102C000020005C08443E86000130870081142200C9
:102C100057088A0056080A00963123009D1C1D2E75
:102C200020005C08443E8600013087000115220028
:102C300055088A0054080A00963120005C08443E7A
:102C4000860001308700010803192D2E2200530849
:102C50008A0052080A009631080092313622080094
:102C60002000AA009D31D025963120002A08033E7D
:102C700086008701010891313521963120002A080C
:102C8000023E8600870101089131352196312000EE
:102C90002A08860087012A0A8400850100089131EC
:102CA000352196310106031D662E20002A08860074
:102CB0008701433FD3002A0886008701423FD200A4
:102CC0002A0886008701413FD100692E013020008B
:102CD000D30001302100C3000800003091311921D8
:102CE00096312100EE006E0A031D6E08031D892E29
:102CF00010302000A90000309231BB229631AA305A
:102D00002000A90001309231BB2296311030210001
:102D1000EE0030309131192196312000AB002B0AA2
:102D2000031D992EA90130309231BB222000D5011C
:102D3000080077302B06031DA02ED501D50A080008
:102D400088302B06031D922EA90130309231BB2210
:102D500002302000D50008002C082B042A04290486
:102D60000319E52EB201B20AAC1BC22E0130A935FF
:102D7000AA0DAB0DAC0D890BB72E0130B100310897
:102D8000B207B42E2C083002031DD02E2B082F02C0
:102D9000031DD02E2A082E02031DD02E29082D0235
:102DA000031CDA2E2908AD022A08AE3B2B08AF3BE4
:102DB0002C08B03B0130AC36AB0CAA0CA90C890B2B
:102DC000DB2E0130B202031DC22E3008AC002F08EA
:102DD000AB002E08AA002D08A90008009D31AC25E3
:102DE0009631FD0020308600013087005D31403F84
:102DF0008400413F85007D08800001302200BD072E
:102E00000030BE3D0130BF020030C03B3F084004EF
:102E100003190E2F9D31E72505300800C315162F25
:102E20009E31032608009D31FF2508002D08200053
:102E3000A10022002C082000A000220021088A0006
:102E400020080A009731013A0319132F033A031996
:102E5000102F013A0319102F073A0319132F132FBC
:102E60000800B90021003F08893104219731BA00D8
:102E70003A08031D442F4C2F03302100BE000800E8
:102E800004302100BE0008003A08013A03193C2F23
:102E9000033A0319402F402F3808E000E1010130C8
:102EA000DE000030DF006230860000308700023034
:102EB00081002100BD01BD0ABE01BE0A2000CF0174
:102EC0003930A9000030AA000130AB000030AC005E
:102ED00091319D2197315E302000B6000030B7005F
:102EE0009331F82397319E310F260800AB002B0851
:102EF0000319A02F92319F229731003A0319822F94
:102F0000003008009D31D62597311A303D009100E0
:102F10000E303C00A0001B303D0090000C303C0007
:102F2000A10018303D009E0001303C009D0019308A
:102F30003D009C003C009E019231D7229731B92F71
:102F40009D31D62518303D00910001303C00A00095
:102F500019303D0090003C00A1011A303D009E0058
:102F60000E303C009D001B303D009C000C303C00AE
:102F70009E000130080021009112F6302000A900C7
:102F80001530AA009E31A4269731210011122D3050
:102F90002000A9001330AA009E31AC2697310830DA
:102FA00023009F0090309D0004309E0040309B0025
:102FB00003309C0093302000A9001D30AA009E31F0
:102FC00094269731DF302000A9001D30AA009E31E1
:102FD0009C269731A0302000A9001D30AA009E3108
:102FE0008C262100D301D7012000DD01083021000B
:102FF000D6002000DC012100D501D4019116080083
:1030000020341E3474341E3458341E349D340A3433
:10301000EE3416343A341E3444341434EB341D3454
:10302000EF341D34F3341D34F7341D34FB341D34B8
:10303000FF341D3403341E3425341E346C341434F0
:0430400002342434FE
:103B2600080008000800080008000800080008004F
:103B360008000130080005300800923136220800DE
:103B46002400961408002400161508002400961573
:103B56000800240011080800200091150800200024
:103B660091110800943194240800240019080800D3
:103B760020009211080024001D1608002000911153
:103B86000800240095120800210091110800240065
:103B9600161408002100911508002100B60108003E
:103BA60020004E08080091310C21080021009215D2
:103BB600080020009717080023001D121D16080094
:103BC60024009616161608002400961216160800EB
:103BD6009D31A325013008009D31A3250230080040
:103BE6009D31A325013008009D31A625003008002F
:103BF6009D31E725053008009D31E3250A30080090
:103C06009D31E325093008001C0C890C0139080098
:103C160024001C08013908000030933110230800E5
:103C2600A2302200970008001330210097000800F8
:103C3600F00070082400910008002200C310C201A1
:103C46000E3008002200C310C2010E300800F0003A
:103C560070082400990008002200430C890C0139E1
:103C660008002400160E890C890C01390800220070
:103C760043109D31A9250430080003101E1F0314AC
:103C86000030093D08000130F00070082000D6071A
:103C960008002000A900293524009B000800031015
:103CA6009D1C03140030093D0800220043143C35D6
:103CB6009E311B2603300800031024009C1E0314AB
:103CC6000030093D0800031024001C1C03140030BA
:103CD600093D08002000A9002908FE3924009A00A1
:103CE60008002200431403143C0D9E311B260530A8
:103CF60008002A082100B500200029082100B40088
:103D060008002A082100B100200029082100B0007F
:103D160008002A082200D300200029082200D20029
:103D260008002A082200D700200029082200D60011
:103D360008002A082200D500200029082200D40005
:103D460008002A082200D900200029082200D800ED
:103D560008002A082200DB00200029082200DA00D9
:103D660008002A082200E900200029082200E800AD
:103D760008002A082200E700200029082200E600A1
:103D860008002A082200E500200029082200E40095
:103D960008002A082200E300200029082200E20089
:103DA60008002A082200E100200029082200E0007D
:103DB60008002A082200DF00200029082200DE0071
:103DC60008002A082200DD00200029082200DC0065
:103DD6000800320091019201930194019501960128
:103DE60008002A082200D100200029082200D0005D
:103DF60008001C082000AA0021001B082000A900BA
:103E06000800003020008E180130D4000130210057
:103E1600CC000800031020000E1E03140030031807
:103E26000130D9000800A90029082100BF00BE0101
:103E3600BD012000CF010800E33021009E009F0154
:103E46009B019C0101309D00080060303200990002
:103E56009B019D0107309F009E01080024009D1ACA
:103E660008009C0106309D0001309E009D1608004A
:103E76002400951A080094010830950096014F30E9
:103E86009200951608003308AA003208A9003408E3
:103E9600AB00AC0102308931A62108003308AA0024
:103EA6003208A9003408AB00AC0101308931A621E3
:103EB60008007A08F1007908F0007C08F3007B0816
:103EC600F2000030893154210800F0009D31B825F8
:103ED6009F312100D1007008031908000130D0007D
:103EE60008009012220050085104031908005108D6
:103EF6008A0050080A009F3108003308AA003208D9
:103F0600A9003508AC003408AB0000308931A62181
:103F160008003308AA003208A9003408AB000130B3
:103F2600AC0004308931A62108002200C31D080018
:103F36007108BE007008BD007308C0007208BF009B
:103F4600C31108002200680869040319AF2F690825
:103F56008A0068080A009F31270013110800220012
:103F6600660867040319BC2F67088A0066080A00FA
:103F76009F31270096120800220064086504031981
:103F8600C92F65088A0064080A009F312700961326
:103F960008002200620863040319D62F63088A000A
:103FA60062080A009F3127001910080022006008E5
:103FB60061040319E32F61088A0060080A009F3133
:103FC60027009910080022005E085F040319F02FED
:103FD6005F088A005E080A009F31270099110800D1
:103FE60022005C085D040319FD2F5D088A005C0849
:0A3FF6000A009F312700191208008D
:020000040001F9
:08000000FF3FFF3FFF3FFF3F00
:08000E008C3FD53FFF3FFF3F8F
:00000001FF
