:10000000803164281F1508007E1480312100901E65
:1000100010282000901E10289B315B23803162281D
:100020002100101E1A282000101E1A289F3129278F
:10003000803162280B1F62282100111D2928200011
:10004000111D292821002B088A002A080A00803166
:100050006228210091192000911922282100121DE7
:100060003B282000121D3B28210027088A00260873
:100070000A00803162282100921920009219342848
:100080002100111E4D282000111E4D2822005F085E
:100090008A005E080A00803162282100911E5A28D9
:1000A0002000911E5A2822005D088A005C080A0080
:1000B000803162282100911C62282000911C622856
:1000C0009931BD217E10090080316628703084008E
:1000D000233085008030FE000030FF009B317F23FD
:1000E00080314E308400003085001330FE00003037
:1000F000FF009B317F238031A030840000308500D9
:100100004E30FE000030FF009B317F2380312030D5
:100110008400013085003630FE000030FF009B3146
:100120007F238031A0308400013085001830FE002C
:100130000030FF009B317F237E1020008C31162C75
:100140002000C201402D1330B00004302E02031CE9
:10015000AD280230B1001730FA2CB101B10AE52DFB
:1001600010302000BC00D630BD003930923135222D
:100170008031003A0319C1282100AF01AF0A0230D3
:10018000FA2C0130AD2B9D31AC258031013A031999
:10019000E52D2100AF019D315C258031003A031D22
:1001A000D92801302000C10041082100AE07B0016C
:1001B000E52D2100AE010F30B000D61FE7287F30BB
:1001C0002000C10041082100D6050330B0005A0AC2
:1001D0000319EE28FF30DA000330B0005B0A031980
:1001E000F528FF30DB000330B0005C0A0319FC285F
:1001F000FF30DC000330B0005D0A03190329FF3033
:10020000DD000330B0005E0803190929DE01033068
:10021000B0005F0803190F29DF010330B000621D31
:10022000E52DFB302000C10041082100E20503302C
:10023000FA2C10302000BC00D630BD00393092318D
:1002400071228031003A0319E52D2100AF01AF0A78
:100250000430FA2C9D31AC258031013A0319E52D8B
:100260002100AF019D315C258031003A0319D1286E
:100270002100AE010930AD2BD6302000BC00063085
:10028000913186218031003A03194B292100AF01B9
:10029000AF0A0630FA2C0530AD2B9D31AC258031EC
:1002A000013A0319E52D2100AF019D315C25803114
:1002B000003A0319D1282100AE010130B000D61850
:1002C0004B29E52D10302000BC00D630BD00383061
:1002D000923135228031003A031973292100AF0190
:1002E000AF0A0C30FA2C0B30AD2B9D31AC25803190
:1002F000013A0319E52D2100AF019D315C258031C4
:10030000003A0319D1282100AE010130B000650A7E
:1003100003198E29FF30E5000D30FA2C0230200041
:10032000D900E52D10302000BC00D630BD0038309B
:10033000923171228031003A0319E52D2100AF017D
:10034000AF0A0E30FA2C9D31AC258031013A0319E9
:10035000E52D2100AF019D315C258031003A031964
:10036000D1282100AE010530B0008E29D630200002
:10037000BC000630913186218031003A03193A29B8
:100380002100AF01AF0A0A30FA2C9D31AC25803133
:10039000013A0319E52D2100AF019D315C25803123
:1003A000003A0319D1282100AE010F30B000D61851
:1003B0003A29E52D10302000BC00D630BD003A307F
:1003C000923135228031003A0319EB292100AF0127
:1003D000AF0A1030FA2C0F30AD2B9D31AC25803197
:1003E000013A0319E52D2100AF019D315C258031D3
:1003F000003A0319D1282100AE011930B00056038C
:100400000319E52D0130D6001130FA2C10302000F0
:10041000BC00D630BD003A30923171228031003AB2
:100420000319E52D2100AF01AF0A1230FA2C9D31DE
:10043000AC258031013A0319E52D2100AF019D3132
:100440005C258031003A0319D1282100AE01073024
:10045000AD2B3C302000BC002830BD000030913175
:1004600054218031003A0319E52D2100AF01AF0A74
:100470001430FA2C9D31AC258031013A0319E52D59
:100480002100AF019D315C258031003A0319D1284C
:100490002100AE011730B000A001A101E52D3C30D4
:1004A0002000BC002830BD00003091315421803143
:1004B000003A0319E52D2100AF01AF0A1630FA2CDE
:1004C0003A2A20005A080319972A21002D08031DF3
:1004D0007D2A9931FE218031003A0319952AAD0118
:1004E000AD0A04309C31102480310D30890B762AFE
:1004F0000000993185218031952A9931FE21803182
:10050000003A0319952A9A314E22803102302C028A
:10051000EE3003192B02031C932A0F302100B00088
:100520002000C201C20A2100AD0103309A2A210035
:10053000AD010230B10020005903031DE52D033049
:100540002100310603197329E52DD6302000BC00A7
:100550000630913186218031003A0319272A210083
:10056000AF01AF0A0830FA2C9D31AC258031013A39
:100570000319E52D2100AF019D315C258031003A42
:100580000319D1282100AE011930B000D618272A4E
:10059000E52D2000BC01BC0ABD01BD0A003091312F
:1005A00054218031003A0319E52D2100AF01AF0A33
:1005B0001A30FA2C9D31AC258031013A0319E52D12
:1005C0002100AF019D315C258031003A0319D1280B
:1005D0002100AE011B30FA2C40302000BC0040301E
:1005E000BD000030913154218031003A0319E52DCE
:1005F0002100AF01AF0A1C30FA2C9D31AC258031AF
:10060000013A0319E52D2100AF019D315C258031B0
:10061000003A0319D1282100AE011D30FA2C3C30DC
:100620002000BC003C30BD000030913154218031AD
:10063000003A0319E52D2100AF01AF0A1E30FA2C54
:100640009D31AC258031013A0319E52D2100AF0120
:100650009D315C258031003A0319D1282100AE017B
:100660001F304B2A20005A03031D382B21309D2CAC
:1006700001302100A0070030A13D0030210264308C
:1006800003192002031CE52DA001A101D630200092
:10069000BC000630913186218031003A0319E52DE6
:1006A0002100AF01AF0A2030FA2C9D31AC258031FA
:1006B000013A0319E52D2100AF019D315C25803100
:1006C000003A0319D1282100AE01561E6B2B2130B0
:1006D000B0000430B100561C6F2B1F30FA2C1330C1
:1006E000FA2C10302000BC00D630BD00F83092311A
:1006F00035228031003A0319822B2100AF01AF0A65
:100700002230FA2C2130AD2B9D31AC258031013ABD
:100710000319E52D2100AF019D315C258031003AA0
:100720000319D1282100AE012330B000D630913119
:10073000F9218031E52D10302000BC00D630BD00FD
:10074000FB30923135228031003A0319AC2B210065
:10075000AF01AF0A2430FA2C23302100FA2C9D314E
:10076000AC258031013A0319E52D2100AF019D31FF
:100770005C258031003A0319D1282100AE012630D2
:10078000FA2C40302000BC00BD01003091315421D2
:100790008031003A0319E52D2100AF01AF0A27305F
:1007A000FA2C9D31AC258031013A0319E52D210049
:1007B000AF019D315C258031003A0319D128210019
:1007C000AE012A30FA2C2000BC01BC0ABD01003069
:1007D000913154218031003A0319E52D2100AF01F8
:1007E000AF0A2B30FA2C9D31AC258031013A031928
:1007F000E52D2100AF019D315C258031003A0319C0
:10080000D1282100AE012830FA2C40302000BC0055
:100810004030BD000030913154218031003A03193D
:10082000E52D2100AF01AF0A2930FA2C9D31AC250E
:100830008031013A0319E52D2100AF019D315C257E
:100840008031003A0319D1282100AE012530FA2C5D
:100850002C30B000D63097319F278031E52D1030F5
:100860002000BC00D630BD00F830923171228031BA
:10087000003A0319E52D2100AF01AF0A2D30FA2C03
:100880009D31AC258031013A0319E52D2100AF01DE
:100890009D315C258031003A0319D1282100AE0139
:1008A0002E30FA2C10302000BC00D630BD00FB30BA
:1008B000923171228031003A0319E52D2100AF01F8
:1008C000AF0A2F30FA2C9D31AC258031013A031943
:1008D000E52D2100AF019D315C258031003A0319DF
:1008E000D1282100AE013030FA2C3C302000BC0071
:1008F0003C30BD000030913154218031003A031961
:10090000E52D2100AF01AF0A3130FA2C9D31AC2525
:100910008031013A0319E52D2100AF019D315C259D
:100920008031003A0319D1282100AE0132304B2A20
:1009300020005A03031DA22C34302100B0000430E3
:10094000B100E52D01302100A0070030A13D0030AD
:100950002102643003192002031CE52DA001A1012E
:10096000D6302000BC000630913186218031003A1B
:100970000319E52D2100AF01AF0A3330FA2C9D3168
:10098000AC258031013A0319E52D2100AF019D31DD
:100990005C258031003A0319D1282100AE01561E92
:1009A000D52C3430B0000430B100561C6F2B3230DF
:1009B000FA2C40302000BC00BD01003091315421A0
:1009C0008031003A0319E52D2100AF01AF0A35301F
:1009D000FA2C9D31AC258031013A0319E52D210017
:1009E000AF019D315C258031003A0319D1282100E7
:1009F000AE011930B000E52D20005A080319322D40
:100A000021002D08031D182D9931FE218031003A57
:100A10000319302DAD01AD0A04309C311024803112
:100A20000D30890B112D0000993185218031302D39
:100A30009931FE218031003A0319302D9A314E222E
:100A4000803102302C02EE3003192B02031C2E2DB4
:100A500019302100B0002000C201C20A2100AD01FE
:100A60000330352D2100AD010230B10020005903C3
:100A7000031DE52D023021003106031DC128E52D9F
:100A800021003008003A0319A328013A0319B028BD
:100A9000033A0319C328013A03191929073A03191C
:100AA0002A29013A03193C29033A03194D29013A2D
:100AB0000319A52A0F3A0319B42A013A0319B629D2
:100AC000033A0319C529013A03196229073A0319A0
:100AD0007529013A03199229033A0319A329013A06
:100AE0000319DA291F3A0319ED29013A0319062AD5
:100AF000033A0319172A013A0319292A073A031955
:100B00003A2A013A03194F2A033A0319602A013A93
:100B10000319612A0E3A0319C92A033A0319DA2A7A
:100B2000013A0319EC2A073A0319FD2A013A03197D
:100B30000F2B033A0319202B013A0319322B3F3AAA
:100B40000319552B013A0319712B033A0319842B0E
:100B5000013A03199B2B073A0319AF2B013A0319EA
:100B6000282C033A0319C12B013A0319D12B0F3A50
:100B70000319052C013A0319162C033A0319E32B28
:100B8000013A0319F32B073A03192F2C013A0319E1
:100B9000402C033A0319522C013A0319632C1F3AD3
:100BA0000319752C013A0319862C033A0319982C62
:100BB000013A0319BF2C073A0319D92C013A03193A
:100BC000E92C033A0319FC2CE52D2000420808000B
:100BD0002000C600F72DC701052EC701C70A052E44
:100BE0000230F52D21003D082000C700052E4608E3
:100BF000003A0319F22D013A0319EB2D033A0319B8
:100C0000ED2D013A0319F02DF22D21003C080319B6
:100C1000F22E9931FE218531003A0319D62E9A31F0
:100C20004E2285312C08CD002B08CC00BF2E4D085C
:100C30002100A50020004C082100A40020004C0841
:100C4000AB004D08AC00AD01AE010030B200003089
:100C5000B1001130B0003F30AF009F31A127853186
:100C60002E08CB002D08CA002C08C9002B08C8008C
:100C70000A30CB36CA0CC90CC80C890B392E4B086C
:100C8000BC004A08BB004908BA004808B9007830DF
:100C9000BD002330BE009431A3248531CA2E4D08F7
:100CA0002100A30020004C082100A20020004C08D5
:100CB000AB004D08AC00AD01AE010030B200003019
:100CC000B1000730B0008C30AF009F31A1278531D3
:100CD0002E08CB002D08CA002C08C9002B08C8001C
:100CE0000A30CB36CA0CC90CC80C890B712E4B08C4
:100CF000BC004A08BB004908BA004808B900743073
:100D0000BD002330BE009431A3248531CA2E4D0886
:100D10002200C50020004C082200C40020004C081E
:100D2000AB004D08AC00AD01AE010030B2000030A8
:100D3000B1000130B0000A30AF009F31A1278531EA
:100D40002E08CB002D08CA002C08C9002B08C800AB
:100D50000A30CB36CA0CC90CC80C890BA92E4B081B
:100D6000BC004A08BB004908BA004808B9007C30FA
:100D7000BD002330BE009431A3248531CA2E47081C
:100D8000003A0319172E013A03194F2E033A03199B
:100D9000872ECA2E4608031DD22E0130C5004508F5
:100DA0002100BD072100BC0101300800003008000F
:100DB00017309C3110248531FE2E16309C311024C2
:100DC0008531FE2E04309C3110248531FE2E1730E3
:100DD0009C311024853120004608031DFE2E210081
:100DE000BD01FE2E20004708003A0319D82E013A13
:100DF0000319DD2E033A0319E22EE72E2100BC0170
:100E0000BC0A993185218531D62E93308600233056
:100E1000870077300106031D2A2F20005908031D83
:100E2000192F0130D9007730AB0080309D319025EB
:100E30008731023020005906031D362F933086007B
:100E4000233087008101D901AB0180309D3190258D
:100E50008731362F9330860023308700010803192D
:100E6000362F933086002330870081019030860032
:100E7000233087000108031D422F20008C1A422FC7
:100E800022008C16903086002330870077300106D0
:100E9000031D4F2F20008C1E4F2F22008C1221008B
:100EA0003F0803195D2F9A31D0228731003A031988
:100EB0005D2FBF010A302000D80021004608031929
:100EC0007B2F20005708AD00AE012E08B000210096
:100ED000440820002D02AF00031CB0033008803A04
:100EE000B10080303102031D772F05302F02031C23
:100EF0007B2F2100C60121004808031908002000AB
:100F000057082100C400C601C60A20005508220067
:100F10006E060319972F053021003E020318A02FFB
:100F200001302000AD002D082100BE07080021007F
:100F3000BE01200055082200EE002100C801080073
:100F4000200055080319BC2F0A305806031DB02F86
:100F50002100C801BE01200055082200EE00080053
:100F600021003F08031DCA2F9B3100238731BF0199
:100F7000BF0A0C302000C92F083058060319C82FAB
:100F80000A3058060319C82F0C305806031DCA2F03
:100F90000B30D8002100C801BE01200055082200F6
:100FA000EE000800BD30B6001E30B7003B08B900A7
:100FB0003A08B8009B31672387313F30B6001E30B6
:100FC000B700ED30B8009B31162387313F30B600B3
:100FD0001E30B700EF30B8009B31212387313F30FE
:100FE000B6001E30B7006F30B8009B317323080085
:100FF0002C082200D90020002B082200D80008006D
:1010000021009112BF302000AB001130AC009A31AA
:101010006E2288312100111201302000AB001E30F9
:10102000AC009A3176228831083023009F0090303E
:101030009D0004309E0040309B0003309C003B30FC
:101040002000AB001930AC009A315E2288314C3060
:101050002000AB001930AC009A316622883149304B
:101060002000AB001930AC009A3156222100CE018D
:10107000D2012000DE0108302100D1002000DD0176
:101080002100D001CF0191160800803020005B02C2
:1010900003185828310015177030920020005B08A3
:1010A00031009100151413089931D6218831982800
:1010B00090305B06031D9E282100550803199E28C9
:1010C0000130D502031D9E28703086002330870032
:1010D000503101089931D621883180309328210080
:1010E00054080319A3280130D402031DA32870302B
:1010F000860023308700513101089931D62188318B
:1011000081309328210053080319A8280130D30205
:10111000031DA82870308600233087005231010853
:101120009931D6218230860023308700FF3081003C
:101130000130F10071082000DB0708009130200029
:101140005B0603196F28923020005B060319822882
:1011500020005B08F100F201F030F3002230F400CF
:101160007108730786007208743D87000108993181
:10117000D6218831982800309B31F3238831210013
:10118000EE006E0A031D6E08031D1A2910302000A0
:10119000AB0000309D3190258831AA302000AB0093
:1011A00001309D31902588312000AB01AB0A4030E1
:1011B0009D319025883109302000AB0041309D31B0
:1011C0009025883105302000AB0042309D319025BC
:1011D000883103302000AB0043309D3190258831A9
:1011E0002000AB0144309D31902588312000AB01B7
:1011F00045309D319025883103302000AB004330CD
:101200009D31902588312000AB01AB0A44309D31DF
:10121000902588312000AB0145309D3190258831E3
:1012200004302000AB0049309D31902588311030CA
:101230002100EE0030309B31F32388312000AD00D7
:101240002D0A031D2A29AB0130309D319025210044
:10125000C901080077302D06031D32292100C9017C
:10126000C90A080088302D06031D2329AB01303040
:101270009D31902502302100C900080022008C0118
:101280008D018E01173021008C00F0308D00FB3075
:101290008E00C03023008E008D0110308C00503045
:1012A00024008D0004308C001B308E0025008C0142
:1012B0008D018E01373026008C00A0308D00FF306C
:1012C0008E003F3027008C00F0308D00FF308E0004
:1012D000131112151115961296139516951794164B
:1012E0009417191099109911191218149814981527
:1012F000181617149714971517163C302000AB00DA
:101300001930AC009A317E2289313D302000AB008B
:101310001930AC009A31862289313E302000AB0072
:101320001930AC009A318E2289313F302000AB0059
:101330001930AC009A319622893140302000AB0040
:101340001930AC009A319E22893141302000AB0027
:101350001930AC009A31A622893142302000AB000E
:101360001930AC009A31AE222100101615303C0025
:10137000A40014303D00A3001A3091000E303C0050
:10138000A0001B303D0090000C303C00A100183044
:101390003D009E0001303C009D0019303D009C0046
:1013A0003C009E010800E62BB801B501B50A132CDC
:1013B000003093312E238931003A0319132C023067
:1013C0002100B500B701132C2000BC01BC0A73300A
:1013D000BD002330BE0000309331BB238931C900EA
:1013E0004908031D132C0330E12B9131242189314D
:1013F0002000C90002304906031D002A0430E12BF9
:1014000049030319132C0130C20042082100B70719
:101410000A303702031C162AB7010430B5007330B6
:10142000860023308700FF308100132C0230E22B2E
:1014300040309B31F32389312000C200C3014208B0
:10144000DF004308E0005F0A60040319782A413096
:101450009B31F32389312000C200C3016008AC0036
:101460005F08AB000A30AD000030AE009D3175253D
:10147000893142082B07DF0043082C3DE000423051
:101480009B31F32389312000C200C3016008AC0006
:101490005F08AB000A30AD000030AE009D3175250D
:1014A000893142082B07DF0043082C3DE0006430FF
:1014B000AB000030AC006008AE005F08AD009D31AD
:1014C000752589312C08E0002B08DF00BC01BC0A1F
:1014D0005F30BD001830943155248931003A031D26
:1014E000132C0B302100B5000530B4000430A82BBC
:1014F0000530E12B43309B31F32389312000C200BA
:10150000C3014208DF004308E0005F0A60040319DA
:101510002D2B44309B31F32389312000C200C301BD
:101520006008AC005F08AB000A30AD000030AE00D0
:101530009D317525893142082B07DF0043082C3D7A
:10154000E00045309B31F32389312000C200C30104
:101550006008AC005F08AB000A30AD000030AE00A0
:101560009D317525893142082B07DF0043082C3D4A
:10157000E0006008C3005F08C2000730C235C30D39
:10158000890BBE2A4208DF004308E000470A4804EE
:101590000319052B46309B31F32389312000C2000B
:1015A000C3014208C7004308C80047309B31F323FA
:1015B00089312000C200C3014808AC004708AB00D5
:1015C0000A30AD000030AE009D31752589314208EA
:1015D0002B07C70043082C3DC80048309B31F3233C
:1015E00089312000C200C3014808AC004708AB00A5
:1015F0000A30AD000030AE009D31752589314208BA
:101600002B07C70043082C3D082B8430C70001304E
:10161000C8004808C3004708C200C336C20CC3361E
:10162000C20C7F304205C40000304305C5004408A9
:10163000DF044508E004BC01BC0A5F30BD003A305D
:10164000943155248931003A031D132C0B302100AD
:10165000B5000630B4000530A82B0630E12B493028
:101660009B31F32389312000C200C3014208DF000F
:101670004308E0005F0A600403195F2B5F08C300A2
:10168000C20100304205C4000F304305C500583088
:101690004404DF0030304504E000BC01BC0A5F3088
:1016A000BD00BB30943155248931003A031D132C01
:1016B0000B302100B5000730B4000630A82B0730EE
:1016C000E12B00302000DF008030E000BC01BC0ACC
:1016D0005F30BD00DB30943155248931003A031D61
:1016E000132C2100B801B80A200057082100B600C9
:1016F0000B30B5000830B4000730A82B2000570885
:10170000C200C3014308C500210036082000420280
:10171000C400031CC5034508803AC6008030460259
:10172000031D942B06304402031C132C0930E12BBB
:101730005F302000BC000630933174238931003AB9
:10174000031D132C0B302100B5000A30B400093002
:10175000B300132C200060088038AB0002309D31AC
:10176000902589310C30E12B9131242189312000E1
:10177000C90002304906031DC02B21003408E22BAA
:1017800049030319132C0130C20042082100B70796
:101790000A303702031CD72BB7010C30B500B80153
:1017A0002000AB0102309D3190258931132C330884
:1017B000E22B013093312E238931003A0319132C87
:1017C0000D302100B500132CB501132C2100350874
:1017D000003A0319D429013A0319D829033A031905
:1017E000E429013A0319F529073A0319182A013A9D
:1017F00003197A2A033A03192F2B013A0319612B93
:101800000F3A03197E2B013A0319982B033A031957
:10181000AA2B013A0319B42B073A0319D92B013A21
:101820000319132CE42B9A31D02208002300C301A2
:10183000C601C201C401C001C5012000D4019E310E
:101840009C268C31F2302000AB001930AC0087317F
:10185000F8278C3199318E218C3100300C190130F0
:101860002100C700003020000E1801302100C30005
:10187000003020008E180130D50055082200EE00FF
:101880002100BE01200055080319492C2100C80180
:101890004C2C01302100C800E4302000AB001D308A
:1018A000AC009A317E228C312D302000AB001D30EF
:1018B000AC009A3196228C31BE302000AB001A3039
:1018C000AC009A319E228C3140302000AB001C309D
:1018D000AC009A3186228C3151302000AB001C3094
:1018E000AC009A318E228C31C7302000AB001A3008
:1018F000AC009A31AE228C3162302000AB001C303B
:10190000AC009A31A6228C3121000E1424000E1452
:1019100022000C1521000C1522000E158C168B17B9
:101920000B178831BB208C31953197258C31553080
:101930009C3184248C3136309C3100248C319D3193
:10194000C8258C31873105278C31210049030319C3
:10195000C82F230045080319DF2D20005708230056
:10196000B8004108B80245083802031C092EC50119
:10197000092E02302100490603192F2D0A302300B9
:10198000C500200057082300C1002000D801D80A54
:10199000092E0230462D9E317D268C310330462D96
:1019A00001308531E8258C31003A0319092E0430C5
:1019B000452D2100C501C50A0C1122000C11230080
:1019C000C301C30AC6012000D601D60A22000E11A7
:1019D00002302300C500200057082300C100053055
:1019E000452D02308531E8258C31003A0319092E46
:1019F00022000E150C1521000C15C5012300C30192
:101A000006302000D8002300BD01092E9A31D022D3
:101A10008C31003A0319092E0730452D99318B215D
:101A20008C312300B80002303802031C092E083024
:101A3000452D733086002330870001308100482D0A
:101A40000330210025024430031924020318312DEC
:101A500002302300C500200057082300C1000A30CF
:101A6000452D14303C2D0030210023026A3003192B
:101A700022020318282DFF302300C500200057083C
:101A80002300C1000230452D0B302000D800092E64
:101A9000703086002330870043310108013A031972
:101AA000202D033A0319332D442D23004208031936
:101AB000632D2100C501C50A0C1122000C11230061
:101AC000C301C30AC60199318B218C31023A031D2F
:101AD0007A2D200057082300B8003E08B8022830AD
:101AE0003802031C092E42080319442D21000C154D
:101AF000C5012F2D200057082300BE00092E23000A
:101B0000C201C20A43080319902D4608031D902DF7
:101B1000C301C60122000C1521000C15C501A92D19
:101B2000200057082300B800B9013908BB00460857
:101B30003802BA00031CBB033B08803ABC0080306B
:101B40003C02031DA52D06303A02031CA92D2300DB
:101B5000C60120000E1D092ED601D60A22000E1144
:101B6000092E2300C20120000E19BA2DD601220031
:101B70000E158C16230044080319092E200057085F
:101B80002300B800B9013908BB0040083802BA0088
:101B9000031CBB033B08803ABC0080303C02031DA1
:101BA000D32D04303A02031C092E2300C401C001C6
:101BB0002F2DD801D60122000E158C16092E2000DB
:101BC0005808003A0319B92C013A0319C92C033AF1
:101BD0000319CB2C013A0319D02C073A0319D92C3D
:101BE000013A0319F12C033A0319062D013A03199E
:101BF0000E2D0F3A0319192D013A0319552D033AE9
:101C000003197F2D013A0319B12D073A0319092E43
:101C1000D92D023020005802031C122E0730580222
:101C2000031C1A2E0C30580603191A2E0B305806B6
:101C3000031D1D2E8931D3218C310730200058021D
:101C4000031CCF2F21003F030319CF2F91308600B3
:101C500023308700773001060319902F8031A020B0
:101C60008C315108031D6D2E902F04309B31F323CE
:101C70008C312000D30003309B31F3238C312000C2
:101C8000D2000230D400D101812E06309B31F323E3
:101C90008C312000D30005303C2E08309B31F323DB
:101CA0008C312000D30007303C2E0A309B31F323C7
:101CB0008C312000D30009303C2E0C309B31F323B3
:101CC0008C312000D3000B303C2E0E309B31F3239F
:101CD0008C312000D3000D303C2E5408B93A031942
:101CE000352E063A0319452E7F3A03194D2E013A37
:101CF0000319552E033A03195D2E013A0319652E77
:101D0000812E99318B218C31023A031D902F2000B6
:101D1000510303195E2F902F5308AB0004309D31FF
:101D200090258C3120005208AB0003309D31902566
:101D30008C318D2F5308AB0006309D3190258C31AE
:101D400020005208AB0005309D3190258C318D2F3D
:101D50005308AB0008309D3190258C31200052088B
:101D6000AB0007309D3190258C318D2F5308AB008F
:101D70000A309D3190258C3120005208AB0009308B
:101D80009D3190258C318D2F5308AB000C309D3147
:101D900090258C3120005208AB000B309D319025EE
:101DA0008C318D2F5308AB000E309D3190258C3136
:101DB00020005208AB000D309D3190258C318D2FC5
:101DC0005608031D8D2F803086002330870054086D
:101DD00081008130860023308700530881008230E3
:101DE000860023308700520881002100D501D50AE2
:101DF000D401D40AD301D30AC501C50A0C112200AB
:101E00000C112300C301C30A200057082300C60099
:101E10004608031D0F2F0130B8003808C607200000
:101E2000560803191D2F2300C401C40A20005708B7
:101E30002300C0000B3020001E2F0A30D8008D2F49
:101E4000803086002330870054088100813086006E
:101E500023308700530881008230860023308700BA
:101E60005208810002302100D5000230D400023037
:101E7000D300532F80308600233087005408810020
:101E8000813086002330870053088100823086002D
:101E900023308700520881002100D501D50AD401E2
:101EA000D40AD301D30A0E1022000E1001302100F3
:101EB000C200200057082100C100FC2E5408003A3F
:101EC00003198D2F013A03198D2FB03A0319E02E13
:101ED000033A0319E32E013A0319202F073A031995
:101EE000E32E013A03193A2F033A0319E32E013A7C
:101EF00003193A2F0F3A03198C2E023A03199A2E1E
:101F0000013A0319A82E073A0319B62E013A03190C
:101F1000C42E033A0319D22E8D2F2000D401D101F3
:101F2000210042080319B02F200057082300B800F1
:101F3000B9013908BB002100410823003802BA006A
:101F4000031CBB033B08803ABC0080303C02031DED
:101F5000AB2F14303A02031CB02F2100C2010E1423
:101F60000A3020005806031DC22F99318B218C3175
:101F7000023A031DC22F00308531E8258C31230041
:101F8000BF00CF2F2100BC012300BF01BF0ACF2F0C
:101F900020000E1DCF2FD601D60A22000E1164009C
:101FA000210049030319A22C9931DB218C31003A1D
:101FB000031DA22C99318B218C31023A031DA22CD6
:101FC00023003F080319A22C0B3020005806031DE4
:101FD000FA2F23004408031DFA2F21004608031D91
:101FE000A22C1710F83032009805981363002100D6
:101FF0001714A22CF8303200980598176300A22C11
:10200000003407340E3409341C341B3412341534B4
:1020100038343F3436343134243423342A342D34A4
:10202000703477347E3479346C346B346234653494
:1020300048344F3446344134543453345A345D3484
:10204000E034E734EE34E934FC34FB34F234F53474
:10205000D834DF34D634D134C434C334CA34CD3464
:10206000903497349E3499348C348B348234853454
:10207000A834AF34A634A134B434B334BA34BD3444
:10208000C734C034C934CE34DB34DC34D534D23434
:10209000FF34F834F134F634E334E434ED34EA3424
:1020A000B734B034B934BE34AB34AC34A534A23414
:1020B0008F34883481348634933494349D349A3404
:1020C0002734203429342E343B343C3435343234F4
:1020D0001F34183411341634033404340D340A34E4
:1020E0005734503459345E344B344C3445344234D4
:1020F0006F34683461346634733474347D347A34C4
:1021000089348E3487348034953492349B349C34B3
:10211000B134B634BF34B834AD34AA34A334A434A3
:10212000F934FE34F734F034E534E234EB34EC3493
:10213000C134C634CF34C834DD34DA34D334D43483
:1021400069346E3467346034753472347B347C3473
:10215000513456345F3458344D344A344334443463
:1021600019341E3417341034053402340B340C3453
:10217000213426342F3428343D343A343334343443
:102180004E34493440344734523455345C345B3433
:102190007634713478347F346A346D346434633423
:1021A0003E34393430343734223425342C342B3413
:1021B0000634013408340F341A341D341434133403
:1021C000AE34A934A034A734B234B534BC34BB34F3
:1021D0009634913498349F348A348D3484348334E3
:1021E000DE34D934D034D734C234C534CC34CB34D3
:1021F000E634E134E834EF34FA34FD34F434F334C3
:10220000AC00AD01AD0A2200C3182129C31420007F
:10221000AD0100309931C1219131803102209131DD
:102220002C0803191929413086000130870001303C
:102230001E2941308600013087000230810099312B
:10224000792120002D08080021003908031951299F
:102250009D31AC259131013A031951292100B90171
:102260002000500803194B2903305006031D3A295A
:1022700004304929D01C3F2905302100BA00200034
:10228000501D452906302100BA002000501C51295C
:1022900007302100502921003A03031D5129023043
:1022A000BA0021003A080800BE004F089631EE2619
:1022B0009131003A03195E2900300800CE01FE304A
:1022C0002100D60020003E082100D70020003C0855
:1022D0002100D80020003D082100D900D630200080
:1022E000AB000030AC000430AD000030AE009C31DB
:1022F000AB249131D6302000BA000030BB009F31B2
:10230000722791319931C52101300800BD004F0875
:102310009631EE269131003A0319902900300800D9
:102320003C082100E800E9010130E6000030E70048
:10233000EA30860000308700023081002000CE01A4
:10234000FE302100D60020003D082100D700D63005
:102350002000AB000030AC000230AD000030AE0019
:102360009C31AB249131E6302000BA000030BB0034
:102370009F31722791319931C52101300800200029
:102380005D08A03E860001308700810123001D1DED
:10239000D62920005D08A03E860001308700811408
:1023A00022005B088A005A080A00913123009D1C14
:1023B000E62920005D08A03E860001308700011557
:1023C00023004A088A0049080A00913120005D086C
:1023D000A03E86000130870001080319F62923007A
:1023E00048088A0047080A00913108009D314425B9
:1023F00008002000AC0099318821913120002C0880
:10240000033E8600870101089C3120249131200081
:102410002C08023E8600870101089C31202491315E
:1024200020002C08860087012C0A84008501000802
:102430009C31202491310106031D312A20002C08F3
:1024400086008701433FD4002C0886008701423F65
:10245000D3002C0886008701413FD2000130D10013
:10246000080001302000D4000800C0004F08963159
:10247000EE269231003A03193F2A003008003D0849
:102480002100E800E90120003C08BE00BF013E0831
:102490002100E60020003F082100E700EA30860026
:1024A00000308700023081002000CE01400821006A
:1024B000EB00EB302000AB000030AC000130AD0091
:1024C0000030AE009C31AB249231E6302000BA00DF
:1024D0000030BB009F31722792319931C521013004
:1024E0000800C0004F089631EE269231003A0319D9
:1024F0007B2A003008003D082100E800E9012000A7
:102500003C08BE00BF013E082100E60020003F0855
:102510002100E700EA3086000030870004308100A7
:102520002000CE0140082100EB00EB302000AB0082
:102530000030AC000130AD000030AE009C31AB2467
:102540009231E6302000BA000030BB009F31722784
:1025500092319931C5210130080099315B219231C6
:10256000FD0020308600013087005D31403F84004F
:10257000413F85007D08800001302200BD0700300A
:10258000BE3D0130BF020030C03B3F08400403198C
:10259000CD2A9931952105300800C315D52A9931E6
:1025A000B12108009931AD2108002D08FC002C084C
:1025B000FB0021088A0020080A009231013A031921
:1025C000D22A033A0319CF2A013A0319CF2A073A2C
:1025D0000319D22AD22A08002E082D042C042B0419
:1025E0000319252BB401B40AAE1B022B0130AB3505
:1025F000AC0DAD0DAE0D890BF72A0130B3003308D9
:10260000B407F42A2E083202031D102B2D083102C4
:10261000031D102B2C083002031D102B2B082F023A
:10262000031C1A2B2B08AF022C08B03B2D08B13B22
:102630002E08B23B0130AE36AD0CAC0CAB0C890BA6
:102640001B2B0130B402031D022B3208AE003108EF
:10265000AD003008AC002F08AB0008002000AD0032
:102660002D080319592B9D31AC259331003A0319DC
:102670003B2B0030080099317F2193311A303D0007
:1026800091000E303C00A0001B303D0090000C304B
:102690003C00A10018303D009E0001303C009D0030
:1026A00019303D009C003C009E019D31C8259331AE
:1026B000722B99317F2118303D00910001303C0090
:1026C000A00019303D0090003C00A1011A303D00EF
:1026D0009E000E303C009D001B303D009C000C30E5
:1026E0003C009E0001300800BD0021003B089631EF
:1026F000EE269331BE003E08031D852B902B033040
:10270000822B04302100BA008D2B3E08013A0319B8
:102710007F2B033A0319812B812B20003E080800F0
:102720003C082100E800E9010230E6000030E70043
:10273000EA3086000030870002308100B901B90A12
:10274000BA01BA0A2000D0013D30AB000030AC0025
:102750000130AD000030AE009C31AB249331E63047
:102760002000BA000030BB008731D2279331993165
:10277000C52193318D2BBF0054309631EE26933115
:10278000C0004008031DCB2BD62B0330C82B0430D0
:102790002100BA00D32B4008013A0319C52B033A94
:1027A0000319C72BC72B2000400808003E08210052
:1027B000E90020003D082100E8000130E60000307B
:1027C000E700EA3086000030870002308100B9015E
:1027D000B90ABA01BA0A2000D0013F082100EC0072
:1027E000EC302000AB000030AC000130AD00003018
:1027F000AE009C31AB249331E6302000BA000030AB
:10280000BB008731D22793319931C5210800993116
:10281000672194312000DC0021004B080319162C9D
:1028200020005C08DB002100CB0108008030200084
:102830005B020318382C20305B02031C4F2C310044
:1028400095181F2C151715157030920020005B0885
:1028500031009100940120005C08310093008B133B
:1028600055309600AA309600951415118B174F2CF1
:10287000A0305B02031C4F2C5B08F000F101F0302C
:10288000F2002230F30070087207F4007108733D03
:10289000F50074088600750887005C088100013027
:1028A000F00070082000DB070800C00021003B0892
:1028B0009631EE269431C1004108031D662C712C1F
:1028C0000330632C04302100BA006E2C4108013A19
:1028D0000319602C033A0319622C622C2000410872
:1028E00008003D082100E800E90120003C08BE0086
:1028F000BF013E352100E60020003F0D2100E7002A
:10290000EA3086000030870004308100B901B90A3E
:10291000BA01BA0A2000D0014030AB000030AC0050
:102920000130AD000030AE009C31AB249431E63074
:102930002000BA000030BB008731D2279431993192
:10294000C52194316E2C0330C4000030AE0000303D
:10295000AD000030AC000A30AB003C08B2003B08D0
:10296000B1003A08B0003908AF009231EC2294313E
:102970002B08303EBF004408C000C101C01BC1038A
:1029800040083D07C20041083E3DC30042088600A2
:10299000430887003F08810044080319EA2C0030EF
:1029A000AE000030AD000030AC000A30AB003C0897
:1029B000B2003B08B1003A08B0003908AF009431CA
:1029C000F12494312E08BC002D08BB002C08BA005D
:1029D0002B08B900FF30BF003F08C407C41B080024
:1029E000A52C0030B7000030B6000030B500003034
:1029F000B4002E082D042C042B0403193A2DB80121
:102A0000B80AAE1B0F2D0130AB35AC0DAD0DAE0DC0
:102A1000890B042D0130B3003308B807012D0130B4
:102A2000B435B50DB60DB70D890B102D2E08320239
:102A3000031D242D2D083102031D242D2C083002E6
:102A4000031D242D2B082F02031C2F2D2B08AF0252
:102A50002C08B03B2D08B13B2E08B23B341401309A
:102A6000AE36AD0CAC0CAB0C890B302D0130B8027E
:102A7000031D0F2D3708AE003608AD003508AC0039
:102A80003408AB0008009931E0219531003A031D6C
:102A9000532D6F2D99319921080099319D210800FE
:102AA0009931A521080022003308FC003208FB0000
:102AB00020308600013087004631413F8A00403F88
:102AC0000A009531013A0319502D033A03194A2D92
:102AD000013A03194D2D073A0319502D502D2200AC
:102AE00043103E082000A50022003D082000A4005D
:102AF0002200BD0A0319BE0A20002408860025080A
:102B0000870001089931D121953101302200BF029F
:102B10000030C03B3F084004031D902D0630912D2E
:102B200003302000A6000030A7002608080020007F
:102B3000AF012F08703EAD00AE012330AE3D2D0831
:102B400086002E088700FF3081000130AD002D087F
:102B5000AF0780302F02031C992D70308600233080
:102B600087005530C03F90308600233087008101B8
:102B7000883086002330870030308100893086001D
:102B800023308700323081008A308600233087006E
:102B9000383081002100D501D401D30180309B3130
:102BA000F32395312000AD00933086002330870059
:102BB0002D0881009330860023308700010A031D11
:102BC000080093308600233087008101AB018030FC
:102BD0009D3190250800FA00700871040319172E22
:102BE0007A08F400F501F435F50D2030F6000130D7
:102BF000F7007408760786007508773D870070082F
:102C0000C03F7108C13F7A08F400F501F435F50DB5
:102C10002C30F6000130F70074087607860075083E
:102C2000773D87007208C03F7308C13F08004530F8
:102C3000F4001930F5007A08F600F701F635F70DC3
:102C40002030F8000130F900760878078600770810
:102C5000793D87007408C03F7508C13F7A08F400C9
:102C6000F501F435F50D2C30F6000130F70074084D
:102C7000760786007508773D87000030C03FC13F6A
:102C80000800B5002B082C0403196D2E3508AF0081
:102C9000B001AF35B00D2030B1000130B2002F08C7
:102CA000310786003008323D87002B08C03F2C08D2
:102CB000C13F3508AF00B001AF35B00D2C30B100C9
:102CC0000130B2002F08310786003008323D8700FE
:102CD0002D08C03F2E08C13F08004530AF00193015
:102CE000B0003508B100B201B135B20D2030B300EB
:102CF0000130B4003108330786003208343D8700C4
:102D00002F08C03F3008C13F3508AF00B001AF35D4
:102D1000B00D2C30B1000130B2002F083107860011
:102D20003008323D87000030C03FC13F0800993174
:102D30006A2196319A3119229631003A0319AA2E46
:102D40009931B5219631003A0319A82E0130B32EDE
:102D50000230B32E9931B5219631003A0319B22EC3
:102D60000330B32E04302100CA00DD2E00309B3129
:102D70004F2396319A3120229631003A0319EB2ED7
:102D8000883145209631EB2E01309B314F2396310F
:102D9000EB2E9A3120229631003A0319EB2E99310D
:102DA000EC219631BD2E9931B9219631003A0319A3
:102DB000EB2E943107249631EB2E4A08013A031981
:102DC000B62E033A0319C42E013A0319C92E073A45
:102DD0000319D32EEB2E99316D2108002000AD0090
:102DE000AE01AE0A22004319422F3C30860001306A
:102DF000870020002D0881002200C31043154310D6
:102E000041308600013087000E3081000130BB0068
:102E1000F430BA00C3154530A0001930A100AC0150
:102E2000AD011930A3004530A200AE01AF01193049
:102E3000A5004530A400B001B1011930A70045300C
:102E4000A600B201B3011930A9004730A800B401AF
:102E5000B50164302000AB001930AC009A31362245
:102E600096319931702196319B310B2396319931EE
:102E70007C2196312000AE01D030AB001F30AC0079
:102E80009A313E2220002E080800993161219731A5
:102E90002200431C572F9931E0219731003A031942
:102EA000572F41308600013087000F30810022000B
:102EB0004318832F9931E0219731003A0319832F6A
:102EC000220041082000A800A901A835A90D003062
:102ED000280784001830293D80388500013F8A008A
:102EE000003F0A0097312000AA00413086000130DF
:102EF00087002A0881000A3022004106031D0800CD
:102F00009A3104220800220041082000A800A901EB
:102F1000A835A90D0030280784001830293D8038D5
:102F20008500013F8A00003F0A0097312000AA0077
:102F300041308600013087002A0881000800200007
:102F4000AC005403031DAA2F2C08073E86008701FE
:102F50004430C12FB1305402031CB22FC43054028C
:102F6000031CBC2F023054060319BC2F2C08073E4B
:102F7000860087014330C12F2C08073E8600870159
:102F800041308100023054060319D12F2C08053E30
:102F90008600870181012C08063E86008701810199
:102FA000DD2F2C08053E86008701520881002C0881
:102FB000063E8600870153088100993188219731A8
:102FC00020002C08073E8600870101089C31202440
:102FD000973120002C08063E8600870101089C31AD
:102FE0002024973120002C08043E860087012C08FD
:102FF000053E8400850100089C31202481000800E2
:1030000004341A342E341A340B341A34433415343D
:10301000AD341234E634193405341F34993419347C
:103020009D341934A1341934A5341934A934193410
:10303000AD341934B134193412341A344D341F34C8
:103276000800080008000800080008000800080008
:103286000800080001300800053008009D3144257B
:1032960008001D121D1608002400961408002400BC
:1032A6001615080020001F110800240096150800B6
:1032B6002400110808002000911508002000911133
:1032C6000800973145270800240019080800200047
:1032D6009211080024001D16080020009111080014
:1032E60024009512080021009111080024001614EC
:1032F60008002100911508009B31E62308002100F3
:103306009215080021009D1408002100AC01080058
:10331600210031080800200097170800240096169F
:1033260016160800240096121616080099314F2129
:103336000130080099314F210230080099314F21A0
:103346000130080099315221003008009931952149
:1033560005300800993191210A30080099319121F0
:10336600093008001C0C890C0139080024001C08CF
:103376000139080091109A31F5220800AB002B089C
:103386009D0008000030913100210800A230220083
:10339600970008001330210097000800F00070081D
:1033A600240091000800F00070082400990008002D
:1033B6002200430C890C013908002400160E890CE2
:1033C600890C013908002200431099315821043034
:1033D600080003101E1F03140030093D08000130C9
:1033E600F00070082000D70708002000AB002B353E
:1033F60024009B00080003109D1C03140030093DA7
:1034060008002200C310C201993155210E30080070
:10341600220043143C359931D121033008002200A3
:10342600C310C201993155210E3008000310240043
:103436009C1E03140030093D0800031024001C1CC8
:1034460003140030093D08002000AB002B08FE39AC
:1034560024009A0008002200431403143C0D9931FD
:10346600D121053008002C082100AB0020002B08D4
:103476002100AA0008002C082200D70020002B08F3
:103486002200D60008002C082100A70020002B08E7
:103496002100A60008001C082000AC0021001B0823
:1034A6002000AB0008002C082300C80020002B08D1
:1034B6002300C70008002C082200DB0020002B0890
:1034C6002200DA0008002C082300CA0020002B087E
:1034D6002300C90008002C082200DD0020002B086C
:1034E6002200DC0008002C082200DF0020002B0848
:1034F6002200DE0008002C082200ED0020002B0828
:103506002200EC0008002C082200EB0020002B080B
:103516002200EA0008002C082200E90020002B08FF
:103526002200E80008002C082200E70020002B08F3
:103536002200E60008002C082200E50020002B08E7
:103546002200E40008002C082200E30020002B08DB
:103556002200E20008002C082200E10020002B08CF
:103566002200E000080032009101920193019401CB
:10357600950196010800003020008E180130D50014
:1035860001302100C8000800031020000E1E03149D
:10359600003003180130DA0008000D30210035062E
:1035A600031DD72A0130080000300800E33021004F
:1035B6009E009F019B019C0101309D000800603028
:1035C600320099009B019D0107309F009E01080073
:1035D60024009D1A08009C0106309D0001309E00C3
:1035E6009D160800220056085704031908005708BC
:1035F6008A0056080A009A310800BA01B501B401DA
:10360600B301B9012000D0012100B801B7010800BB
:103616002400951A080094010830950096014F3051
:103626009200951608003708AC003608AB0038083B
:10363600AD00AE0102309631412608003708AC00D5
:103646003608AB003808AD00AE0101309631412690
:1036560008003708AC003608AB003808AD00AE01EC
:103666000330963141260800C31D08007108BE00CC
:103676007008BD007308C0007208BF00C3110800BF
:103686002108F1002008F0002308F3002208F200C8
:1036960000309531EB250800F000993167219B3108
:1036A6002100CC007008031908000130CB00080087
:1036B60090122200580859040319080059088A0074
:1036C60058080A009B3108003708AC003608AB00E2
:1036D6003908AE003808AD000030963141260800A2
:1036E6003708AC003608AB003808AD000130AE0034
:1036F6000430963141260800640080010131013012
:10370600FE020030FF3B7F087E0403190034802B45
:1037160022006C086D040319952B6D088A006C084D
:103726000A009B3127001311080022006A086B0467
:103736000319A22B6B088A006A080A009B3127002E
:10374600961208002200680869040319AF2B69085D
:103756008A0068080A009B31270096130800220099
:10376600660867040319BC2B67088A0066080A0006
:103776009B3127001910080022006408650403190C
:10378600C92B65088A0064080A009B312700991036
:1037960008002200620863040319D62B63088A0016
:1037A60062080A009B312700991108002200600870
:1037B60061040319E32B61088A0060080A009B3143
:1037C60027001912080021009211200092111211EF
:1037D60024009D129C0106309D0001309E000800C9
:1037E6002000AB00310015177030920020002B0826
:1037F600310091001514130808002000AB002B08B7
:103806002100BB00BA01B501B401B301B901200022
:10381600D0012100B801B70108002000AC002C0837
:10382600AB00AB0DAB0D21001D0820002B060339A4
:103836002B0621009D001D140800AB0021002C085A
:1038460020002B06003E840090300318013E8500C0
:1038560000082100AC002C0808002100ED01EF0152
:10386600EF0A02302200EF00240094010830950090
:1038760096014F3092009512080020008D1A462CB2
:10388600F001F1014A2C7730F0000030F10072307F
:1038960086002330870070088100080020008D1BF9
:1038A600572CF001F1015B2C7730F0000030F1006D
:1038B60071308600233087007008810008002000E0
:1038C6008E1D6C2C9230860023308700FF308100DD
:1038D6000800923086002330870077308100080088
:1038E600FF309E009D01911021009114443020006C
:1038F600AB001930AC009A313E22233020009F00E5
:1039060008002000AB002B08CF00CE012100AF013C
:103916002000DA012100B001B101B201AE012000A0
:10392600D9012100AD0108004D302000980030304B
:103936009600950190122100901643302000AB00AE
:103946001930AC008731F827803020009700080036
:103956002200C31D080020002C082200BE00200003
:103966002B082200BD0020002E082200C0002000E7
:103976002D082200BF00C31108002100921120006B
:103986009211121124009D129C0106309D000130F7
:103996009E0001302100CB002000DB011030210009
:1039A600EE0008007C08F1007B08F0000230F2000F
:1039B6000030F3009B3137239C3100302000A000FB
:1039C600A1000030A200A3009B314323043008006D
:1039D6007C08F1007B08F0000130F2000030F300B3
:1039E6009B3137239C3100302000A000A10000301D
:1039F600A200A3009B314323023008007C08F1009B
:103A06007B08F0000230F2000030F3009B313723D0
:103A16009D3100302000A000A1000030A200A300CC
:103A26009B314323023008007C08F1007B08F0003C
:103A36000130F2000030F3009B3137239D31003016
:103A46002000A000A1000030A200A3009B31432368
:103A560004300800003020000E1801302100C30099
:103A660002302000580603193C2D0B305806031D62
:103A7600080021004308031D08000A302000D80072
:103A8600080020005D08A83E86000130870023005C
:103A9600190881000130F00070082000DD070830A9
:103AA6005D020318DD010130F00070082100CF0728
:103AB600080020004E08031D622D01300800CE1CB0
:103AC600672D02302100B20020004E1D6D2D210011
:103AD600B201B20A20004E1C732D03302100B20041
:103AE60000300800AF01B0012B1C7D2D2D08AF075B
:103AF6002E08B03D0130AD35AE0D890B7E2D01305F
:103B0600AC36AB0C890B832D2B082C04031D772DAB
:103B16003008AC002F08AB000800AC003100951847
:103B2600912D151715157030920020002C083100C4
:103B36009100940120002B08310093008B1355301F
:103B46009600AA30960095149518A72D15118B1777
:103B560008002000AB01AB0A2200C318C52D431193
:103B66003C30860001308700FF308100993170219A
:103B76009D31993176219D31993173212200420878
:103B86002000AB0020002B08080001302100CB00EC
:103B96002000DB0121006E089A3127229D317F30FB
:103BA6009931F8219D3197302000AB001630AC00DA
:103BB6009A3146229D319A31EB229D3199318221EB
:103BC6000800003020000C1901302100C70045080C
:103BD600031D08000230200058060319F62D0B308D
:103BE6005806031D080021004708031D0800460863
:103BF600031D08000A302000D80008000830210004
:103C0600510203181E2E20005E08B03E86000130C9
:103C16008700010823009A000130F0007008200098
:103C2600DE0708305E020318DE010130F00070087E
:103C36002100D1070800111208007B0886007C08C5
:103C460087004231403FF000413FF1007B0886008B
:103C56007C088700403FF200413FF3009B31372349
:103C66009E3100302000A000A1000030A200A30079
:103C76009B314323023008004D2E2000D0145C2EC9
:103C8600200050155C2E200050145C2E03302000BE
:103C9600D0005C2E7B0886007C0887000108003A6D
:103CA6000319402E013A0319432E033A0319462EEF
:103CB600492E013008006C2E2000CE147B2E2000E9
:103CC6004E157B2E20004E147B2E07302000CE0092
:103CD6007B2E7B0886007C0887000108003A0319C2
:103CE6005F2E013A0319622E033A0319652E682ED8
:103CF600013008008D1B822EAB01AC01862E773079
:103D0600AB000030AC0071308600233087002B08F2
:103D160081008D1A912EAD01AE01952E7730AD0042
:103D26000030AE0072308600233087002D088100F7
:103D360008009A31B6229E3189313E219E319C314E
:103D460030249E319C31C0249E319A31E2229E312C
:103D56009931CD219E319931C9219E319A31D9228D
:103D66009E319C3197249E319C3173249E3188313B
:103D7600002008007B0886007C0887004231403F0F
:103D8600F000413FF1007B0886007C088700403F39
:103D9600F200413FF3009B3137239E310030200073
:103DA600A000A1000030A200A3009B3143237B08A2
:103DB60086007C0887004431010808007B088600DD
:103DC6007C0887004231403FF000413FF1007B080C
:103DD60086007C088700403FF200413FF3009B319C
:103DE60037239E3100302000A000A1000030A20041
:103DF600A3009B3143237B0886007C08870044315F
:103E0600010808002200C315122F9931A1210800CC
:103E160099315E21033008009931A52108002D084B
:103E2600FC002C08FB0021088A0020080A009F31AC
:103E3600013A03190F2F033A0319082F013A031900
:103E4600082F073A03190B2F0F2F08002700131D01
:103E56002F2F9B318B239F31961E342F9B31982316
:103E66009F31961F392F9B31A5239F31191C3E2F59
:103E76009B31B2239F31991C432F9B31BF239F3126
:103E8600991D482F9B31CC239F31191E08009B3169
:103E9600D9230800220043104230860001308700F3
:103EA600023081005C2F9931A12108009931A521AA
:103EB60008003108FC003008FB0020308600013085
:103EC60087004431413F8A00403F0A009F31023A51
:103ED6000319562F013A0319562F592F0800E130BE
:103EE600B6001E30B7003B08B9003A08B8009B314F
:103EF60067239F315E30B6001E30B700EF30B80042
:103F06009B3116239F315E30B6001E30B700EF306E
:103F1600B8009B312C239F315E30B6001E30B700AF
:103F2600ED30B8009B3121239F315E30B6001E3044
:103F3600B7006F30B8009B31732308000030B6001D
:103F46000030B5000030B4000030B3002B1CB32F96
:103F56002F08B3073008B43D3108B53D3208B63DE9
:103F66000130AF35B00DB10DB20D890BB42F013054
:103F7600AE36AD0CAC0CAB0C890BBB2F2E082D044A
:103F86002C042B04031DA92F3608AE003508AD00FE
:103F96003408AC003308AB0008000030FB00FC001E
:103FA60020308600013087004831413F8A00403F7B
:103FB6000A009F310230840098308500013F8A0054
:103FC600003F0A009F312000A800413086000130E2
:103FD6008700280881000030840098308500013F62
:103FE6008A00003F0A009F312000A8004130860069
:0A3FF6000130870028088100080050
:020000040001F9
:08000000FF3FFF3FFF3FFF3F00
:08000E008C3FF53FFF3FFF3F6F
:00000001FF
