:10000000803164289D1408007E1480312100901EE8
:1000100010282000901E10289B316D23803162280B
:100020002100101E1A282000101E1A289F31352783
:10003000803162280B1F62282100111D2928200011
:10004000111D2928210027088A0026080A0080316E
:100050006228210091192000911922282100121DE7
:100060003B282000121D3B28210025088A00240877
:100070000A00803162282100921920009219342848
:100080002100111E4D282000111E4D2822005F085E
:100090008A005E080A00803162282100911E5A28D9
:1000A0002000911E5A2822005D088A005C080A0080
:1000B000803162282100911C62282000911C622856
:1000C0009931D2217E100900803166287030840079
:1000D000233085008030FE000030FF009B319123EB
:1000E00080314E308400003085001430FE00003036
:1000F000FF009B3191238031A030840000308500C7
:100100004F30FE000030FF009B31912380312030C2
:100110008400013085003830FE000030FF009B3144
:1001200091238031A0308400013085003030FE0002
:100130000030FF009B3191237E1020008C31202C59
:10014000C201EB2C1330AD0004302902031CAC2893
:100150000230AE001730D02CAE01AE0A902D103018
:100160002000BC00D530BD0039309131FB218031F9
:10017000003A0319C0282100AC01AC0A0230D02C8F
:100180002100AD01AD0A902D9D319C258031013AB1
:100190000319902D2100AC019D3168258031003A72
:1001A000031DDA2801302000C10041082100A90701
:1001B000AD01902D2100A9010F30AD00D51FE82819
:1001C0007F302000C10041082100D5050330AD007B
:1001D000590A0319EF28FF30D9000330AD005A0A3D
:1001E0000319F628FF30DA000330AD005B0A03196B
:1001F000FD28FF30DB000330AD005C0A0319042941
:10020000FF30DC000330AD005D0803190A29DD0171
:100210000330AD005E0803191029DE010330AD0084
:10022000611D902DFB302000C10041082100E10537
:100230000330D02C10302000BC00D530BD00393048
:10024000923137228031003A0319902D2100AC0100
:10025000AC0A0430D02C9D319C258031013A031921
:10026000902D2100AC019D3168258031003A0319A1
:10027000D2282100A9010930832BD5302000BC00F1
:100280000630913188218031003A03194C29210030
:10029000AC01AC0A0630D02C0530832B9D319C2557
:1002A0008031013A0319902D2100AC019D31682560
:1002B0008031003A0319D2282100A901AD01AD0A0D
:1002C000D5184C29902D10302000BC00D530BD0031
:1002D00038309131FB218031003A03197429210013
:1002E000AC01AC0A0C30D02C0B30832B9D319C25FB
:1002F0008031013A0319902D2100AC019D31682510
:100300008031003A0319D2282100A901AD01AD0ABC
:10031000640A03198F29FF30E4000D30D02C02301D
:100320002000DA00902D10302000BC00D530BD0038
:100330003830923137228031003A0319902D210054
:10034000AC01AC0A0E30D02C9D319C258031013A95
:100350000319902D2100AC019D3168258031003AB0
:100360000319D2282100A9010530AD008F29D5300D
:100370002000BC000630913188218031003A0319F9
:100380003B292100AC01AC0A0A30D02C9D319C25C0
:100390008031013A0319902D2100AC019D3168256F
:1003A0008031003A0319D2282100A9010F30AD0095
:1003B000D5183B29902D10302000BC00D530BD0051
:1003C0003A309131FB218031003A0319EC292100A8
:1003D000AC01AC0A1030D02C0F30832B9D319C2502
:1003E0008031013A0319902D2100AC019D3168251F
:1003F0008031003A0319D2282100A9011930AD003B
:1004000055030319902D0130D5001130D02C103038
:100410002000BC00D530BD003A3092313722803107
:10042000003A0319902D2100AC01AC0A1230D02CF7
:100430009D319C258031013A0319902D2100AC019A
:100440009D3168258031003A0319D2282100A90185
:100450000730832B3C302000BC002830BD0000302A
:10046000913156218031003A0319902D2100AC01C1
:10047000AC0A1430D02C9D319C258031013A0319EF
:10048000902D2100AC019D3168258031003A03197F
:10049000D2282100A9011730AD00A001A101902DA3
:1004A0003C302000BC002830BD0000309131562186
:1004B0008031003A0319902D2100AC01AC0A1630AE
:1004C000D02C3B2A20005B0803196E2A0F30210034
:1004D000AD002000C201C20A03306F2A02302100A1
:1004E000AE0020005A03031D902D033021002E067C
:1004F00003197429902DD5302000BC0006309131AD
:1005000088218031003A0319282A2100AC01AC0A65
:100510000830D02C9D319C258031013A0319902D53
:100520002100AC019D3168258031003A0319D228A1
:100530002100A9011930AD00D518282A902D2000DE
:10054000BC01BC0ABD01BD0A003091315621803189
:10055000003A0319902D2100AC01AC0A1A30D02CBE
:100560009D319C258031013A0319902D2100AC0169
:100570009D3168258031003A0319D2282100A90154
:100580001B30D02C40302000BC004030BD0000307B
:10059000913156218031003A0319902D2100AC0190
:1005A000AC0A1C30D02C9D319C258031013A0319B6
:1005B000902D2100AC019D3168258031003A03194E
:1005C000D2282100A9011D30D02C3C302000BC00D5
:1005D0003C30BD000030913156218031003A031982
:1005E000902D2100AC01AC0A1E30D02C9D319C25F1
:1005F0008031013A0319902D2100AC019D3168250D
:100600008031003A0319D2282100A9011F304C2A59
:1006100020005B03031D0E2B2130732C01302100C1
:10062000A0070030A13D01302102903003192002C3
:10063000031C902DA001A101D5302000BC00063084
:10064000913188218031003A0319902D2100AC01AD
:10065000AC0A2030D02C9D319C258031013A031901
:10066000902D2100AC019D3168258031003A03199D
:10067000D2282100A901551E412B2130AD000430A4
:10068000AE00551C452B1F30D02C1330D02C103011
:100690002000BC00D530BD00F8309131FB21803105
:1006A000003A0319582B2100AC01AC0A2230D02C9F
:1006B0002130832B9D319C258031013A0319902DE7
:1006C0002100AC019D3168258031003A0319D22800
:1006D0002100A9012330AD00D53092317322803141
:1006E000902D10302000BC00D530BD00FB30913182
:1006F000FB218031003A0319822B2100AC01AC0AA6
:100700002430D02C23302100D02C9D319C258031E9
:10071000013A0319902D2100AC019D3168258031EB
:10072000003A0319D2282100A9012630D02C4030EC
:100730002000BC00BD010030913156218031003ACB
:100740000319902D2100AC01AC0A2730D02C9D312B
:100750009C258031013A0319902D2100AC019D3177
:1007600068258031003A0319D2282100A9012A30D6
:10077000D02C2000BC01BC0ABD01003091315621B3
:100780008031003A0319902D2100AC01AC0A2B30C6
:10079000D02C9D319C258031013A0319902D2100E8
:1007A000AC019D3168258031003A0319D22821001F
:1007B000A9012830D02C40302000BC004030BD00C2
:1007C0000030913156218031003A0319902D2100DB
:1007D000AC01AC0A2930D02C9D319C258031013AE6
:1007E0000319902D2100AC019D3168258031003A1C
:1007F0000319D2282100A9012530D02C2C30AD00BE
:10080000D53097319F278031902D10302000BC00CB
:10081000D530BD00F830923137228031003A0319CB
:10082000902D2100AC01AC0A2D30D02C9D319C259F
:100830008031013A0319902D2100AC019D316825CA
:100840008031003A0319D2282100A9012E30D02C82
:1008500010302000BC00D530BD00FB309231372273
:100860008031003A0319902D2100AC01AC0A2F30E1
:10087000D02C9D319C258031013A0319902D210007
:10088000AC019D3168258031003A0319D22821003E
:10089000A9013030D02C3C302000BC003C30BD00E1
:1008A0000030913156218031003A0319902D2100FA
:1008B000AC01AC0A3130D02C9D319C258031013AFD
:1008C0000319902D2100AC019D3168258031003A3B
:1008D0000319D2282100A90132304C2A20005B03E1
:1008E000031D782C34302100AD000430AE00902D73
:1008F00001302100A0070030A13D013021029030DD
:1009000003192002031C902DA001A101D530200065
:10091000BC000630913188218031003A0319902DB6
:100920002100AC01AC0A3330D02C9D319C258031A4
:10093000013A0319902D2100AC019D3168258031C9
:10094000003A0319D2282100A901551EAB2C3430DE
:10095000AD000430AE00551C452B3230D02C403059
:100960002000BC00BD010030913156218031003A99
:100970000319902D2100AC01AC0A3530D02C9D31EB
:100980009C258031013A0319902D2100AC019D3145
:1009900068258031003A0319D2282100A9011930B5
:1009A000AD00902D20005B080319DE2C19302100CA
:1009B000AD002000C201C20A0330DF2C023021004A
:1009C000AE0020005A03031D902D023021002E0698
:1009D000031DC028902D21002D08003A0319A228DC
:1009E000013A0319AF28033A0319C428013A03193D
:1009F0001A29073A03192B29013A03193D29033A09
:100A000003194E29013A03197B2A0F3A03198A2A3E
:100A1000013A0319B729033A0319C629013A031900
:100A20006329073A03197629013A03199329033AEE
:100A30000319A429013A0319DB291F3A0319EE29E6
:100A4000013A0319072A033A0319182A013A03192C
:100A50002A2A073A03193B2A013A0319502A033A72
:100A60000319612A013A0319622A0E3A03199F2ACF
:100A7000033A0319B02A013A0319C22A073A0319A3
:100A8000D32A013A0319E52A033A0319F62A013A4F
:100A90000319082B3F3A03192B2B013A0319472B53
:100AA000033A03195A2B013A0319712B073A031918
:100AB000852B013A0319FE2B033A0319972B013AB0
:100AC0000319A72B0F3A0319DB2B013A0319EC2B5F
:100AD000033A0319B92B013A0319C92B073A031931
:100AE000052C013A0319162C033A0319282C013A54
:100AF0000319392C1F3A03194B2C013A03195C2CAA
:100B0000033A03196E2C013A0319952C073A03197D
:100B1000AF2C013A0319BF2C033A0319D22C902DA4
:100B2000200042080800A02FB501B201B20ACD2F63
:100B30000030933176238531003A0319CD2F0230EE
:100B40002100B200B401CD2F2000BC01BC0A7330DB
:100B5000BD002330BE0000309331BC238531C90075
:100B60004908031DCD2F03309B2F8731D0278531B6
:100B70002000C90002304906031DC02D04309B2F00
:100B800049030319CD2F0130C20042082100B407E8
:100B90000A303402031CD62DB4010430B200733085
:100BA000860023308700FF308100CD2F02309C2F3C
:100BB00040309C31052485312000C200C301420829
:100BC000E0004308E100600A61040319382E413057
:100BD0009C31052485312000C200C3016108AC00AE
:100BE0006008AB000A30AD000030AE009D318125B9
:100BF000853142082B07E00043082C3DE1004230DC
:100C00009C31052485312000C200C3016108AC007D
:100C10006008AB000A30AD000030AE009D31812588
:100C2000853142082B07E00043082C3DE100643089
:100C3000AB000030AC006108AE006008AD009D3133
:100C4000812585312C08E1002B08E000BC01BC0A9D
:100C50006030BD001830943156248531003A031DB0
:100C6000CD2F0B302100B2000530B1000430682FC9
:100C700005309B2F43309C31052485312000C20074
:100C8000C3014208E0004308E100600A610403195F
:100C9000ED2E44309C31052485312000C200C30173
:100CA0006108AC006008AB000A30AD000030AE0057
:100CB0009D318125853142082B07E00043082C3DFA
:100CC000E10045309C31052485312000C200C3017C
:100CD0006108AC006008AB000A30AD000030AE0027
:100CE0009D318125853142082B07E00043082C3DCA
:100CF000E1006108C3006008C2000730C235C30DBF
:100D0000890B7E2E4208E0004308E100470A4804B0
:100D10000319C52E46309C31052485312000C200C0
:100D2000C3014208C7004308C80047309C3105246E
:100D300085312000C200C3014808AC004708AB0061
:100D40000A30AD000030AE009D318125853142086A
:100D50002B07C70043082C3DC80048309C310524B0
:100D600085312000C200C3014808AC004708AB0031
:100D70000A30AD000030AE009D318125853142083A
:100D80002B07C70043082C3DC82E8430C700013014
:100D9000C8004808C3004708C200C336C20CC336A7
:100DA000C20C7F304205C40000304305C500440832
:100DB000E0044508E104BC01BC0A6030BD003A30E3
:100DC000943156248531003A031DCD2F0B3021007C
:100DD000B2000630B1000530682F06309B2F493035
:100DE0009C31052485312000C200C3014208E00087
:100DF0004308E100600A610403191F2F6008C30063
:100E0000C20100304205C4000F304305C500583010
:100E10004404E00030304504E100BC01BC0A60300D
:100E2000BD00BB30943156248531003A031DCD2FCF
:100E30000B302100B2000730B1000630682F0730B8
:100E40009B2F00302000E0008030E100BC01BC0A94
:100E50006030BD00DB30943156248531003A031DEB
:100E6000CD2F2100B501B50A200058082100B3009C
:100E70000B30B2000930B1000730682F200058084D
:100E8000C200C3014308C50021003308200042020C
:100E9000C400031CC5034508803AC60080304602E2
:100EA000031D542F06304402031CCD2F09309B2F05
:100EB00060302000BC000630883102208531003AC5
:100EC000031DCD2F0B302100B2000A30B1000930D4
:100ED000B000CD2F200061088038AB0002309D317A
:100EE000D42585310C309B2F8731D02785312000C8
:100EF000C90002304906031D802F210031089C2FB4
:100F000049030319CD2F0130C20042082100B40764
:100F10000A303402031C912FB4010C30B200B50129
:100F2000CD2F30089C2F0130933176238531003A44
:100F30000319CD2F0D302100B200CD2FB201CD2FDE
:100F400021003208003A0319942D013A0319982D13
:100F5000033A0319A42D013A0319B52D073A0319D1
:100F6000D82D013A03193A2E033A0319EF2E013A0C
:100F70000319212F0F3A03193E2F013A0319582F55
:100F8000033A03196A2F013A0319742F073A031918
:100F9000932F013A0319CD2F9E2F9A31ED2208008D
:100FA000210036080319FD2F9D319C258731013A18
:100FB0000319FD2F2100B601200050080319F72F57
:100FC00003305006031DE62F0430F52FD01CEB2F05
:100FD00005302100B7002000501DF12F0630210000
:100FE000B7002000501CFD2F07302100FC2F2100EE
:100FF0003703031DFD2F0230B7002100370808001A
:101000001F150800BD00210038089631EE268831F2
:10101000BE003E08031D13281E280330102804308C
:101020002100B7001B283E08013A03190D28033A96
:1010300003190F280F2820003E0808003C08210053
:10104000E700E8010230E5000030E600E930860004
:101050000030870002308100B601B60AB701B70A36
:101060002000D0013D30AB000030AC000130AD00BD
:101070000030AE009C31B7248831E5302000BA0042
:101080000030BB009131002188319931DA2188315B
:101090001B28803020005C0203185C2831001517E3
:1010A0007030920020005C08310091001514130884
:1010B0009931EB2188319C2890305C06031DA228D1
:1010C000210054080319A2280130D402031DA228CC
:1010D0007030860023308700503101089931EB21B0
:1010E000883180309728210053080319A728013040
:1010F000D302031DA72870308600233087005131AA
:1011000001089931EB21883181309728210052085C
:101110000319AC280130D202031DAC2870308600C0
:1011200023308700523101089931EB21823086004B
:1011300023308700FF3081000130F100710820006A
:10114000DC070800913020005C06031973289230F8
:1011500020005C060319862820005C08F100F201DB
:10116000F030F3002230F400710873078600720833
:10117000743D870001089931EB2188319C280030AB
:101180009C31052488312200EE006E0A031D6E0892
:10119000031D1E2910302000AB0000309D31D425E6
:1011A0008831AA302000AB0001309D31D425883130
:1011B0002000AB01AB0A40309D31D4258831093085
:1011C0002000AB0041309D31D4258831053020000E
:1011D000AB0042309D31D425883103302000AB0074
:1011E00043309D31D42588312000AB0144309D31FE
:1011F000D42588312000AB0145309D31D42588317C
:1012000003302000AB0043309D31D42588312000CD
:10121000AB01AB0A44309D31D42588312000AB01AD
:1012200045309D31D425883104302000AB00493051
:101230009D31D425883110302200EE0030309C31B1
:10124000052488312000AD002D0A031D2E29AB0195
:1012500030309D31D4252000D601080077302D068E
:10126000031D3529D601D60A080088302D06031D36
:101270002729AB0130309D31D42502302000D60023
:10128000080022008C018D018E01173021008C0096
:10129000F0308D00FB308E00C03023008E008D01B9
:1012A00010308C00503024008D0004308C001B3036
:1012B0008E0025008C018D018E01373026008C00B8
:1012C000A0308D00FF308E003F3027008C00F030C2
:1012D0008D00FF308E001311121511159612961302
:1012E00095169517941694171910991099111912AB
:1012F000181498149815181617149714971517168C
:1013000054302000AB001930AC009A318B22893167
:1013100055302000AB001930AC009A31932289314E
:1013200056302000AB001930AC009A319B22893135
:1013300057302000AB001930AC009A31A32289311C
:1013400058302000AB001930AC009A31AB22893103
:1013500059302000AB001930AC009A31B3228931EA
:101360005A302000AB001930AC009A31BB2221006A
:10137000101615303C00A40014303D00A3001A30B4
:1013800091000E303C00A0001B303D0090000C305E
:101390003C00A10018303D009E0001303C009D0043
:1013A00019303D009C003C009E010800C600E42965
:1013B000C701F229C701C70AF2290230E229210038
:1013C0003A082000C700F2294608003A0319DF292D
:1013D000013A0319D829033A0319DA29013A031902
:1013E000DD29DF29210039080319DF2A9A31132268
:1013F0008931003A0319C32A9A31D32289312C0842
:10140000CD002B08CC00AC2A4D082100A300200001
:101410004C082100A20020004C08AB004D08AC0095
:10142000AD01AE010030B2000030B1001130B000AB
:101430003F30AF009F31D12789312E08CB002D08D6
:10144000CA002C08C9002B08C8000A30CB36CA0CC9
:10145000C90CC80C890B262A4B08BC004A08BB00E3
:101460004908BA004808B9007830BD002330BE00F2
:101470009431A4248931B72A4D082200C7002000E6
:101480004C082200C60020004C08AB004D08AC0000
:10149000AD01AE010030B2000030B1000730B00045
:1014A0008C30AF009F31D12789312E08CB002D0819
:1014B000CA002C08C9002B08C8000A30CB36CA0C59
:1014C000C90CC80C890B5E2A4B08BC004A08BB003B
:1014D0004908BA004808B9007430BD002330BE0086
:1014E0009431A4248931B72A4D082200C500200078
:1014F0004C082200C40020004C08AB004D08AC0092
:10150000AD01AE010030B2000030B1000130B000DA
:101510000A30AF009F31D12789312E08CB002D082A
:10152000CA002C08C9002B08C8000A30CB36CA0CE8
:10153000C90CC80C890B962A4B08BC004A08BB0092
:101540004908BA004808B9007C30BD002330BE000D
:101550009431A4248931B72A4708003A0319042A90
:10156000013A03193C2A033A0319742AB72A460898
:10157000031DBF2A0130C50045082100BA0721001C
:10158000B901013008000030080017309C313024C8
:101590008931EB2A16309C3130248931EB2A043012
:1015A0009C3130248931EB2A17309C313024893129
:1015B00020004608031DEB2A2100BA01EB2A200077
:1015C0004708003A0319C52A013A0319CA2A033AFF
:1015D0000319CF2AD42A2100B901B90A8031022087
:1015E0008931C32A93308600233087007730010683
:1015F000031D172B20005A08031D062B0130DA00AB
:101600007730AB0080309D31D4258A310230200004
:101610005A06031D232B9330860023308700810157
:10162000DA01AB0180309D31D4258A31232B9330F0
:1016300086002330870001080319232B933086008E
:101640002330870081019030860023308700010815
:10165000031D2F2B20008C1A2F2B22008C1690306C
:1016600086002330870077300106031D3C2B2000C5
:101670008C1E3C2B22008C122000510803199B2B3E
:101680008731D0278A312000C400812B21006B08CC
:1016900080382000AB0002309D31D4258A312000F3
:1016A000D10121003C080319572BBC019B2B0130B1
:1016B000933176238A310B307E2B02309C31052406
:1016C0008A313F392000BF00C0013F082100EA00F5
:1016D000200040082100EB00FF302000AB0002306A
:1016E0009D31D4258A312000D10121003C08031D01
:1016F000552B0130933176238A3103302000D900F5
:101700009B2B4408003A03195D2B013A03199B2BCC
:10171000033A0319462B013A03195D2B073A0319C3
:101720005D2B013A03195D2B033A03195D2B013A36
:1017300003195D2B9B2B210044080319B92B2000B2
:101740005808BF00C0014008C20021004208200024
:101750003F02C100031CC2034208803AC30080302C
:101760004302031DB52B05304102031CB92B210098
:10177000C401210046080319080020005808210070
:10178000C200C401C40A20005508230064060319DE
:10179000D52B053021003B020318DE2B0130200041
:1017A000BF003F082100BB0708002100BB0120004B
:1017B00055082300E4002100C60108002000550858
:1017C0000319032C0B305906031DEE2B2100C60113
:1017D000BB01200055082300E40008005108031D48
:1017E000182C0030933176238A31EA302000BC0077
:1017F0000630883102208A31D101D10A2100BC0192
:101800000D302000172C51080319092C2100BC01B0
:10181000BC0A0930200059060319162C0B30590652
:101820000319162C0D305906031D182C0C30D90045
:101830002100C601BB01200055082300E400080078
:101840002300DA01DD01D901DB01D701DC01200031
:10185000D4019E31A8268C3107302000AB001A300D
:10186000AC009A31CB228C319931A3218C310030DC
:101870000C1901302100C500003020000E18013085
:101880002100C100003020008E180130D50055081D
:101890002300E4002100BB01200055080319532C4C
:1018A0002100C601562C01302100C600F030200076
:1018B000AB001D30AC009A318B228C3139302000C6
:1018C000AB001D30AC009A31A3228C31DB302000FC
:1018D000AB001A30AC009A31AB228C315F30200063
:1018E000AB001C30AC009A3193228C317030200058
:1018F000AB001C30AC009A319B228C31E4302000CC
:10190000AB001A30AC009A31BB228C318130200000
:10191000AB001C30AC009A31B3228C3121000E1484
:1019200024000E1422000C1521000C1522000E15A7
:101930008C168B170B178831BF208C3195314425BD
:101940008C3155309C3121248C3136309C3112241D
:101950008C319D31B8258C318A31F2228C312000B6
:1019600056030319D12F23005C080319E82D20002A
:1019700058082300D0005808D0025C085002031C0D
:10198000122EDC01122E023056060319382D0A30B1
:101990002300DC00200058082300D8002000D901D3
:1019A000D90A122E03304F2D9E3189268C310430F6
:1019B0004F2D01308931D6218C31003A0319122E76
:1019C00005304E2D2100C301C30A0C1122000C1159
:1019D0002300DA01DA0ADD012000D701D70A22004C
:1019E0000E1102302300DC00200058082300D8002C
:1019F00006304E2D02308931D6218C31003A031940
:101A0000122E22000E150C1521000C15C301230007
:101A1000DA0107302000D9002300D501122E9A31B7
:101A2000ED228C31003A0319122E08304E2D9931D7
:101A3000A0218C312300D00002305002031C122E52
:101A400009304E2D7330860023308700013081002D
:101A5000512D0330210023024430031922020318C0
:101A60003A2D02302300DC00200058082300D80063
:101A70000B304E2D1430452D0030220047026A30C5
:101A8000031946020318312DFF302300DC0020002B
:101A900058082300D80003304E2D0C302000D90008
:101AA000122E703086002330870043310108013A3E
:101AB0000319292D033A03193C2D4D2D23005908F4
:101AC00003196C2D2100C301C30A0C1122000C1153
:101AD0002300DA01DA0ADD019931A0218C31023AC2
:101AE000031D832D200058082300D0005608D00283
:101AF00028305002031C122E590803194D2D2100C5
:101B00000C15C301382D200058082300D600122ED2
:101B10002300D901D90A5A080319992D5D08031D1C
:101B2000992DDA01DD0122000C1521000C15C301ED
:101B3000B22D200058082300D000D1015108D30055
:101B40005D085002D200031CD3035308803AD4002E
:101B500080305402031DAE2D06305202031CB22DFC
:101B60002300DD0120000E1D122ED701D70A22000E
:101B70000E11122E2300D90120000E19C32DD701FA
:101B800022000E158C1623005B080319122E20006C
:101B900058082300D000D1015108D3005708500243
:101BA000D200031CD3035308803AD400803054027F
:101BB000031DDC2D04305202031C122E2300DB0116
:101BC000D701382DD901D70122000E158C16122EFF
:101BD00020005908003A0319C32C013A0319D22CEA
:101BE000023A0319D42C073A0319D92C013A0319E4
:101BF000E22C033A0319FA2C013A03190F2D0F3A7C
:101C00000319172D013A0319222D033A03195E2DEA
:101C1000013A0319882D073A0319BA2D013A03191D
:101C2000122EE22D023020005902031C1E2E083015
:101C3000590203181E2E853193258C31083020005F
:101C40005902031CD72F51030319D72F9130860057
:101C500023308700773001060319A72F8031A02099
:101C60008C3121003D08031D6F2EA72F04309C31BD
:101C700005248C312000D30003309C3105248C31A5
:101C80002000D2000230D4002100BD01842E063095
:101C90009C3105248C312000D30005303D2E0830C6
:101CA0009C3105248C312000D30007303D2E0A30B2
:101CB0009C3105248C312000D30009303D2E0C309E
:101CC0009C3105248C312000D3000B303D2E0E308A
:101CD0009C3105248C312000D3000D303D2E200096
:101CE0005408B93A0319362E063A0319472E7F3A9B
:101CF00003194F2E013A0319572E033A03195F2E89
:101D0000013A0319672E842E9931A0218C31023AB1
:101D100003195D2FA72F5308AB0004309D31D42544
:101D20008C3120005208AB0003309D31D4258C311A
:101D3000982F5308AB0006309D31D4258C312000FC
:101D40005208AB0005309D31D4258C31982F5308B3
:101D5000AB0008309D31D4258C3120005208AB00F7
:101D600007309D31D4258C31982F5308AB000A30B1
:101D70009D31D4258C3120005208AB0009309D31B3
:101D8000D4258C31982F5308AB000C309D31D425CD
:101D90008C3120005208AB000B309D31D4258C31A2
:101DA000982F5308AB000E309D31D4258C31200084
:101DB0005208AB000D309D31D4258C31982F570837
:101DC000031D982F8030860023308700540881003F
:101DD00081308600233087005308810082308600DE
:101DE00023308700520881002100D401D40AD30196
:101DF000D30AD201D20AC301C30A0C1122000C116A
:101E00002300DA01DA0A200058082300DD005D080B
:101E1000031D0E2F0130D0005008DD0720005708A9
:101E200003191C2F2300DB01DB0A200058082300C4
:101E3000D7000C3020001D2F0B30D900982F803098
:101E400086002330870054088100813086002330CB
:101E500087005308810082308600233087005208B3
:101E6000810002302100D4000230D3000230D200C1
:101E7000522F803086002330870054088100813043
:101E8000860023308700530881008230860023308B
:101E90008700520881002100D401D40AD301D30A5B
:101EA000D201D20A0E1022000E1001302100C00013
:101EB000200058082100BF00FB2E20005408003AE3
:101EC0000319982F013A0319982FB03A0319DF2EFE
:101ED000033A0319E22E013A03191F2F073A031997
:101EE000E22E013A0319392F033A0319E22E013A7F
:101EF0000319392F0F3A03198B2E023A0319992E21
:101F0000013A0319A72E073A0319B52E013A03190E
:101F1000C32E033A0319D12E982F2300DB01DB0ACD
:101F2000200058082300D7000C302000D900A42F2F
:101F300020005408B23A03198D2F063A03198D2F49
:101F4000023A03198D2FA42FD4012100BD012100D5
:101F500040080319C72F200058082300D000D101E2
:101F60005108D30021003F0823005002D200031C77
:101F7000D3035308803AD40080305402031DC22F8B
:101F800014305202031CC72F2100C0010E140B3065
:101F900020005906031DD72F00308931D6218C31FE
:101FA000D72F0E1DD72FD701D70A22000E1164009C
:101FB000200056030319AC2C9931F0218C31003AE2
:101FC000031DAC2C9931A0218C31023A031DAC2C9D
:101FD0000C3020005906031DFC2F23005B08031D55
:101FE000FC2F21004408031DAC2C1710320098135D
:101FF000630021001714AC2C320098176300AC2C3E
:10200000003407340E3409341C341B3412341534B4
:1020100038343F3436343134243423342A342D34A4
:10202000703477347E3479346C346B346234653494
:1020300048344F3446344134543453345A345D3484
:10204000E034E734EE34E934FC34FB34F234F53474
:10205000D834DF34D634D134C434C334CA34CD3464
:10206000903497349E3499348C348B348234853454
:10207000A834AF34A634A134B434B334BA34BD3444
:10208000C734C034C934CE34DB34DC34D534D23434
:10209000FF34F834F134F634E334E434ED34EA3424
:1020A000B734B034B934BE34AB34AC34A534A23414
:1020B0008F34883481348634933494349D349A3404
:1020C0002734203429342E343B343C3435343234F4
:1020D0001F34183411341634033404340D340A34E4
:1020E0005734503459345E344B344C3445344234D4
:1020F0006F34683461346634733474347D347A34C4
:1021000089348E3487348034953492349B349C34B3
:10211000B134B634BF34B834AD34AA34A334A434A3
:10212000F934FE34F734F034E534E234EB34EC3493
:10213000C134C634CF34C834DD34DA34D334D43483
:1021400069346E3467346034753472347B347C3473
:10215000513456345F3458344D344A344334443463
:1021600019341E3417341034053402340B340C3453
:10217000213426342F3428343D343A343334343443
:102180004E34493440344734523455345C345B3433
:102190007634713478347F346A346D346434633423
:1021A0003E34393430343734223425342C342B3413
:1021B0000634013408340F341A341D341434133403
:1021C000AE34A934A034A734B234B534BC34BB34F3
:1021D0009634913498349F348A348D3484348334E3
:1021E000DE34D934D034D734C234C534CC34CB34D3
:1021F000E634E134E834EF34FA34FD34F434F334C3
:10220000C930B6001E30B7003B08B9003A08B80024
:102210009B31792391314B30B6001E30B700EE3040
:10222000B8009B31282391314B30B6001E30B700E7
:10223000EF30B8009B31332391314B30B6001E3064
:10224000B7006F30B8009B31852308000030FB00D9
:10225000FC0020308600013087004831413F8A0071
:10226000403F0A0091310230840098308500013FE0
:102270008A00003F0A0091312000A800413086000A
:1022800001308700280881000030840098308500E4
:10229000013F8A00003F0A0091312000A800413030
:1022A000860001308700280881000800BE004F0822
:1022B0009631EE269131003A03196029003008006A
:1022C000CE01FE302100D50020003E082100D600BE
:1022D00020003C082100D70020003D082100D80044
:1022E000D5302000AB000030AC000430AD00003031
:1022F000AE009C31B7249131D5302000BA000030B7
:10230000BB009F31A22791319931DA2101300800B9
:10231000BD004F089631EE269131003A03199229FB
:10232000003008003C082100E700E8010130E5002A
:102330000030E600E930860000308700023081007E
:102340002000CE01FE302100D50020003D082100F4
:10235000D600D5302000AB000030AC000230AD001C
:102360000030AE009C31B7249131E5302000BA0036
:102370000030BB009F31A22791319931DA21013021
:10238000080020005E08A03E860001308700810121
:1023900023001D1DD82920005E08A03E86000130C4
:1023A00087008114230063088A0062080A009131C3
:1023B00023009D1CE82920005E08A03E8600013015
:1023C00087000115230061088A0060080A00913126
:1023D00020005E08A03E8600013087000108031936
:1023E000F82923005F088A005E080A00913108007E
:1023F0009D3150250800C0004F089631EE269131DE
:10240000003A0319052A003008003D082100E700C2
:10241000E80120003C08BE00BF013E082100E500A5
:1024200020003F082100E600E930860000308700E8
:10243000023081002000CE0140082100EC00EC3089
:102440002000AB000030AC000130AD000030AE0029
:102450009C31B7249131E5302000BA000030BB0038
:102460009F31A22791319931DA2101300800C00053
:102470004F089631EE269231003A0319412A003076
:1024800008003D082100E700E80120003C08BE00EC
:10249000BF013E082100E50020003F082100E600C2
:1024A000E930860000308700043081002000CE0132
:1024B00040082100EC00EC302000AB000030AC0004
:1024C0000130AD000030AE009C31B7249231E530D0
:1024D0002000BA000030BB009F31A2279231993111
:1024E000DA21013008002000AC0099319D219231A1
:1024F00020002C08033E8600870101089C313F2400
:10250000923120002C08023E8600870101089C3190
:102510003F24923120002C08860087012C0A840079
:10252000850100089C313F2492310106031DA92A30
:1025300020002C0886008701433FD4002C08860029
:102540008701423FD3002C0886008701413FD2001B
:10255000AC2A01302000D40001302100BD00080069
:10256000993173219231FD002030860001308700BF
:102570005D31403F8400413F85007D08800001308F
:102580002200BD070030BE3D0130BF020030C03B1D
:102590003F0840040319D02A9931AA2105300800C8
:1025A000C315D82A9931C62108009931C2210800E3
:1025B0002D08FC002C08FB0021088A0020080A00D6
:1025C0009231013A0319D52A033A0319D22A013A62
:1025D0000319D22A073A0319D52AD52A08002E084A
:1025E0002D042C042B040319282BB401B40AAE1BB0
:1025F000052B0130AB35AC0DAD0DAE0D890BFA2AB4
:102600000130B3003308B407F72A2E083202031D45
:10261000132B2D083102031D132B2C083002031D30
:10262000132B2B082F02031C1D2B2B08AF022C0889
:10263000B03B2D08B13B2E08B23B0130AE36AD0C9D
:10264000AC0CAB0C890B1E2B0130B402031D052B07
:102650003208AE003108AD003008AC002F08AB00E6
:10266000080021009112C1302000AB001130AC00F5
:102670009A317B229331210011120D302000AB00E2
:102680001E30AC009A3183229331083023009F0022
:1026900090309D0004309E0040309B0003309C0031
:1026A00053302000AB001930AC009A316B229331CB
:1026B00064302000AB001930AC009A3173229331A2
:1026C00061302000AB001930AC009A316322210048
:1026D000CD01D1012000DF0108302100D000200011
:1026E000DE012100CF01CE01911608002000AD00CF
:1026F0002D080319A12B9D319C259331003A031914
:10270000832B003008009931972193311A303D0016
:1027100091000E303C00A0001B303D0090000C30BA
:102720003C00A10018303D009E0001303C009D009F
:1027300019303D009C003C009E019D31B82593312D
:10274000BA2B9931972118303D00910001303C009F
:10275000A00019303D0090003C00A1011A303D005E
:102760009E000E303C009D001B303D009C000C3054
:102770003C009E0001300800BF0054309631EE2628
:102780009331C0004008031DCC2BD72B0330C92B3D
:1027900004302100B700D42B4008013A0319C62B9E
:1027A000033A0319C82BC82B2000400808003E0834
:1027B0002100E80020003D082100E7000130E5008D
:1027C0000030E600E93086000030870002308100EA
:1027D000B601B60AB701B70A2000D0013F082100B0
:1027E000ED00ED302000AB000030AC000130AD005A
:1027F0000030AE009C31B7249331E5302000BA00A0
:102800000030BB009131002193319931DA21080069
:1028100099317F2194312000DD0021004A080319FD
:10282000172C20005D08DC002100CA010800803060
:1028300020005C020318392C20305C02031C502C51
:1028400031009518202C15171515703092002000B6
:102850005C0831009100940120005D083100930074
:102860008B1355309600AA309600951415118B17CE
:10287000502CA0305C02031C502C5C08F000F101CD
:10288000F030F2002230F30070087207F400710893
:10289000733DF50074088600750887005D088100A7
:1028A0000130F00070082000DC070800C0002100A3
:1028B00038089631EE269431C1004108031D672C7B
:1028C000722C0330642C04302100B7006F2C4108B7
:1028D000013A0319612C033A0319632C632C20007D
:1028E000410808003D082100E700E80120003C08FD
:1028F000BE00BF013E352100E50020003F0D210054
:10290000E600E93086000030870004308100B6011F
:10291000B60AB701B70A2000D0014030AB00003042
:10292000AC000130AD000030AE009C31B7249431D2
:10293000E5302000BA000030BB0091310021943115
:102940009931DA2194316F2C0330C4000030AE008D
:102950000030AD000030AC000A30AB003C08B200E3
:102960003B08B1003A08B0003908AF009231EF22BD
:1029700094312B08303EBF004408C000C101C01B89
:10298000C10340083D07C20041083E3DC300420864
:102990008600430887003F08810044080319EB2C98
:1029A0000030AE000030AD000030AC000A30AB00AB
:1029B0003C08B2003B08B1003A08B0003908AF004B
:1029C0009431F22494312E08BC002D08BB002C0851
:1029D000BA002B08B900FF30BF003F08C407C41B72
:1029E0000800A62C0030B7000030B6000030B5005B
:1029F0000030B4002E082D042C042B0403193B2DA9
:102A0000B801B80AAE1B102D0130AB35AC0DAD0DC1
:102A1000AE0D890B052D0130B3003308B807022D28
:102A20000130B435B50DB60DB70D890B112D2E083B
:102A30003202031D252D2D083102031D252D2C08E2
:102A40003002031D252D2B082F02031C302D2B08CF
:102A5000AF022C08B03B2D08B13B2E08B23B34141A
:102A60000130AE36AD0CAC0CAB0C890B312D013006
:102A7000B802031D102D3708AE003608AD0035082A
:102A8000AC003408AB000800AF012F08703EAD0069
:102A9000AE012330AE3D2D0886002E088700FF30A2
:102AA00081000130AD002D08AF0780302F02031CDC
:102AB000452D70308600233087005530C03F903060
:102AC000860023308700810188308600233087000C
:102AD0003030810089308600233087003230810019
:102AE0008A30860023308700363081002100D401EF
:102AF000D301D20180309C31052495312000AD00F6
:102B000093308600233087002D08810093308600A3
:102B100023308700010A031D08009330860023300C
:102B200087008101AB0180309D31D42508009931A7
:102B3000F5219531003A031DA72DC32D9931AE2102
:102B400008009931B22108009931BA210800220009
:102B50003308FC003208FB0020308600013087007B
:102B60004631413F8A00403F0A009531013A03193E
:102B7000A42D033A03199E2D013A0319A12D073AFA
:102B80000319A42DA42D220043103E082000A50007
:102B900022003D082000A4002200BD0A0319BE0A3D
:102BA0002000240886002508870001089931E621C5
:102BB000953101302200BF020030C03B3F08400485
:102BC000031DE42D0630E52D03302000A600003063
:102BD000A70026080800FA00700871040319172ED0
:102BE0007A08F400F501F435F50D2030F6000130D7
:102BF000F7007408760786007508773D870070082F
:102C0000C03F7108C13F7A08F400F501F435F50DB5
:102C10002C30F6000130F70074087607860075083E
:102C2000773D87007208C03F7308C13F08005D30E0
:102C3000F4001930F5007A08F600F701F635F70DC3
:102C40002030F8000130F900760878078600770810
:102C5000793D87007408C03F7508C13F7A08F400C9
:102C6000F501F435F50D2C30F6000130F70074084D
:102C7000760786007508773D87000030C03FC13F6A
:102C80000800B5002B082C0403196D2E3508AF0081
:102C9000B001AF35B00D2030B1000130B2002F08C7
:102CA000310786003008323D87002B08C03F2C08D2
:102CB000C13F3508AF00B001AF35B00D2C30B100C9
:102CC0000130B2002F08310786003008323D8700FE
:102CD0002D08C03F2E08C13F08005D30AF001930FD
:102CE000B0003508B100B201B135B20D2030B300EB
:102CF0000130B4003108330786003208343D8700C4
:102D00002F08C03F3008C13F3508AF00B001AF35D4
:102D1000B00D2C30B1000130B2002F083107860011
:102D20003008323D87000030C03FC13F0800993174
:102D3000822196319A312E229631003A0319AA2E19
:102D40009931CA219631003A0319A82E0130B32EC9
:102D50000230B32E9931CA219631003A0319B22EAE
:102D60000330B32E04302100C900DD2E00309B312A
:102D7000612396319A3135229631003A0319EB2EB0
:102D8000883149209631EB2E01309B3161239631F9
:102D9000EB2E9A3135229631003A0319EB2E9A31F7
:102DA00001229631BD2E9931CE219631003A031978
:102DB000EB2E943108249631EB2E4908013A031981
:102DC000B62E033A0319C42E013A0319C92E073A45
:102DD0000319D32EEB2E9931852108002000AD0078
:102DE000AE01AE0A22004319422F3C30860001306A
:102DF000870020002D0881002200C31043154310D6
:102E000041308600013087000E3081000130BB0068
:102E1000F430BA00C3155D30A0001930A100AC0138
:102E2000AD011930A3005D30A200AE01AF01193031
:102E3000A5005D30A400B001B1011930A7005D30DC
:102E4000A600B201B3011930A9005F30A800B40197
:102E5000B5017C302000AB001930AC009A314B2218
:102E600096319931882196319B311D2396319931C4
:102E7000942196312000AE012630AB001130AC0019
:102E80009A31532220002E08080099317921973178
:102E90002200431C572F9931F5219731003A03192D
:102EA000572F41308600013087000F30810022000B
:102EB0004318832F9931F5219731003A0319832F55
:102EC000220041082000A800A901A835A90D003062
:102ED000280784001830293D80388500013F8A008A
:102EE000003F0A0097312000AA00413086000130DF
:102EF00087002A0881000A3022004106031D0800CD
:102F00009A3119220800220041082000A800A901D6
:102F1000A835A90D0030280784001830293D8038D5
:102F20008500013F8A00003F0A0097312000AA0077
:102F300041308600013087002A0881000800200007
:102F4000AC005403031DAA2F2C08073E86008701FE
:102F50004430C12FB1305402031CB22FC43054028C
:102F6000031CBC2F023054060319BC2F2C08073E4B
:102F7000860087014330C12F2C08073E8600870159
:102F800041308100023054060319D12F2C08053E30
:102F90008600870181012C08063E86008701810199
:102FA000DD2F2C08053E86008701520881002C0881
:102FB000063E860087015308810099319D21973193
:102FC00020002C08073E8600870101089C313F2421
:102FD000973120002C08063E8600870101089C31AD
:102FE0003F24973120002C08043E860087012C08DE
:102FF000053E8400850100089C313F2481000800C3
:1030000019341A3443341A3420341A3497341534AA
:10301000B0341234FB34193411341F34AE34193443
:10302000B2341934B6341934BA341934BE341934BC
:10303000C2341934C634193427341A347D341F3459
:0430400002342434FE
:1032A60008000800080008000800080008000800D8
:1032B6000800080001300800053008009D3150253F
:1032C60008001D121D16080024009614080024008C
:1032D6001615080020001F11080024009615080086
:1032E6002400110808002000911508002000911103
:1032F6000800973145270800240019080800200017
:103306009211080024001D160800200091110800E3
:1033160024009512080021009111080024001614BB
:1033260008002100911508009B31F82308002100B0
:10333600921508002100A801080021002E080800A7
:103346002000971708002400961616160800240079
:103356009612161608009931672101300800993136
:103366006721023008009931672101300800993140
:103376006A21003008009931AA21053008009931E8
:10338600A6210A3008009931A621093008001C0C34
:10339600890C0139080024001C0801390800911025
:1033A6009B3112230800AB002B089D00080000305B
:1033B6009F3159270800A2302200970008001330D9
:1033C600210097000800F000700824009100080012
:1033D600F00070082400990008002200430C890CB4
:1033E600013908002400160E890C890C01390800E1
:1033F60022004310993170210430080003101E1F6B
:1034060003140030093D08000130F0007008200068
:10341600D80708002000AB002B3524009B000800CD
:1034260003109D1C03140030093D08002200C31040
:10343600C20199316D210E300800220043143C353B
:103446009931E621033008002200C310C2019931E8
:103456006D210E300800031024009C1E031400305A
:10346600093D0800031024001C1C03140030093D0C
:1034760008002000AB002B08FE3924009A00080043
:103486002200431403143C0D9931E621053008004F
:103496002C082100A70020002B082100A600080008
:1034A6002C082200D90020002B082200D800080092
:1034B6002C082100A50020002B082100A4000800EC
:1034C6002C082300DF0020002B082300DE00080064
:1034D6002C082300E30020002B082300E20008004C
:1034E6002C082300E10020002B082300E000080040
:1034F6002C082200DD0020002B082200DC0008003A
:103506002C082200DF0020002B082200DE00080025
:103516002C082200ED0020002B082200EC000800F9
:103526002C082200EB0020002B082200EA000800ED
:103536002C082200E90020002B082200E8000800E1
:103546002C082200E70020002B082200E6000800D5
:103556002C082200E50020002B082200E4000800C9
:103566002C082200E30020002B082200E2000800BD
:103576002C082200E10020002B082200E0000800B1
:103586003200910192019301940195019601080080
:103596002C082200DB0020002B082200DA0008009D
:1035A6001C082000AC0021001B082000AB0008000E
:1035B600003020008E180130D50001302100C600F1
:1035C6000800031020000E1E0314003003180130FB
:1035D600DB0008000D3021003206031DF42A0130FD
:1035E600080000300800E33021009E009F019B0187
:1035F6009C0101309D0008006030320099009B015B
:103606009D0107309F009E01080024009D1A0800B6
:103616009C0106309D0001309E009D160800220088
:10362600580859040319080059088A0058080A005E
:103636009B3108002400951A080094010830950073
:1036460096014F309200951608003708AC003608F0
:10365600AB003808AD00AE010230963141260800B5
:103666003708AC003608AB003808AD00AE010130B3
:103676009631412608003708AC003608AB003808FA
:10368600AD00AE010330963141260800C31D080087
:103696007108BE007008BD007308C0007208BF0044
:1036A600C31108002108F1002008F0002308F300E8
:1036B6002208F20000309531EB250800F000993120
:1036C6007F219B312100CB007008031908000130CF
:1036D600CA000800901222005A085B040319080069
:1036E6005B088A005A080A009B3108003708AC00BC
:1036F6003608AB003908AE003808AD000030963108
:10370600412608003708AC003608AB003808AD0083
:103716000130AE0004309631412608006400800175
:1037260001310130FE020030FF3B7F087E040319A1
:103736000034922B22006C086D040319A72B6D0828
:103746008A006C080A009B3127001311080022002A
:103756006A086B040319B42B6B088A006A080A000E
:103766009B31270096120800220068086904031995
:10377600C12B69088A0068080A009B312700961346
:1037860008002200660867040319CE2B67088A0022
:1037960066080A009B3127001910080022006408F9
:1037A60065040319DB2B65088A0064080A009B314F
:1037B6002700991008002200620863040319E82B09
:1037C60063088A0062080A009B31270099110800E5
:1037D6002200600861040319F52B61088A0060085D
:1037E6000A009B31270019120800210092112000BF
:1037F6009211121124009D129C0106309D00013089
:103806009E0008002000AB003100151770309200B2
:1038160020002B0831009100151413080800AB0096
:103826002B082100B800B701B201B101B001B60101
:103836002000D0012100B501B40108002000AB0032
:103846002B08CF00CE012100AC01AB01AD01AE01CA
:10385600AF01A9012000DA010800AC002C08AB007A
:10386600AB0DAB0D21001D0820002B0603392B06DE
:1038760021009D001D140800AB002100280820002F
:103886002B06003E840090300318013E8500000898
:103896002100A800280808002100EE01EF01EF0A28
:1038A60002302200EF0024009401083095009601B2
:1038B6004F3092009512080020008D1A652CF001F9
:1038C600F101692C7730F0000030F100723086008B
:1038D6002330870070088100080020008D1B762C9D
:1038E600F001F1017A2C7730F0000030F1007130F0
:1038F60086002330870070088100080020008E1D96
:103906008B2C9230860023308700FF308100080020
:103916009230860023308700773081000800FF3020
:103926009E009D019110210091145C302000AB0097
:103936001930AC009A315322233020009F00080032
:103946004D302000980030309600950190122100ED
:1039560090165B302000AB001930AC009A31CB22B8
:1039660080302000970008002200C31D08002000B8
:103976002C082200BE0020002B082200BD002000DB
:103986002E082200C00020002D082200BF00C3110F
:1039960008002100921120009211121124009D129C
:1039A6009C0106309D0001309E0001302100CA00B6
:1039B6002000DC0110302200EE0008007C08F10037
:1039C6007B08F0000230F2000030F3009B314923FF
:1039D6009C3100302000A000A1000030A200A3000E
:1039E6009B315523043008007C08F1007B08F00069
:1039F6000130F2000030F3009B3149239C31003046
:103A06002000A000A1000030A200A3009B31552396
:103A1600023008007C08F1007B08F0000230F2005A
:103A26000030F3009B3149239D3100302000A00077
:103A3600A1000030A200A3009B31552302300800EC
:103A46007C08F1007B08F0000130F2000030F30042
:103A56009B3149239D3100302000A000A100003099
:103A6600A200A3009B31552304300800003020003B
:103A76000E1801302100C100033020005906031939
:103A8600482D0C305906031D080021004108031D6E
:103A960008000B302000D900080020005E08A83E70
:103AA6008600013087002300190881000130F000EC
:103AB60070082000DE0708305E020318DE010130C0
:103AC600F00070082100CE07080020004E08031DF4
:103AD6006E2D01300800CE1C732D02302100AF0080
:103AE60020004E1D792D2100AF01AF0A20004E1C8B
:103AF6007F2D03302100AF0000300800AF01B00178
:103B06002B1C892D2D08AF072E08B03D0130AD3591
:103B1600AE0D890B8A2D0130AC36AB0C890B8F2D7F
:103B26002B082C04031D832D3008AC002F08AB0096
:103B360008002000AB01AB0A2200C318B52D4311C3
:103B46003C30860001308700FF30810099318821A2
:103B56009D3199318E219D3199318B212200420868
:103B66002000AB0020002B08080001302100CA000D
:103B76002000DC0122006E089A313C229D317F3004
:103B86009A310D229D3197302000AB001630AC00E3
:103B96009A315B229D319B3108239D3199319A21BF
:103BA6000800AC0031009518D52D15171515703085
:103BB600920020002C0831009100940120002B086F
:103BC600310093008B1355309600AA309600951459
:103BD6009518EB2D15118B170800003020000C19D5
:103BE60001302100C5004308031D080003302000F2
:103BF60059060319022E0C305906031D0800210030
:103C06004508031D08004408031D08000B3020006A
:103C1600D900080008302100500203182A2E20007F
:103C26005F08B03E860001308700010823009A0035
:103C36000130F00070082000DF0708305F0203182B
:103C4600DF010130F00070082100D00708001112D2
:103C560008007B0886007C0887004231403FF00060
:103C6600413FF1007B0886007C088700403FF20058
:103C7600413FF3009B3149239E3100302000A000D4
:103C8600A1000030A200A3009B315523023008009A
:103C9600592E2000D014682E20005015682E2000C2
:103CA6005014682E03302000D000682E7B08860052
:103CB6007C0887000108003A03194C2E013A0319C3
:103CC6004F2E033A0319522E552E01300800782E36
:103CD6002000CE14872E20004E15872E20004E146D
:103CE600872E07302000CE00872E7B0886007C08B2
:103CF60087000108003A03196B2E013A03196E2E4C
:103D0600033A0319712E742E013008008D1B8E2E76
:103D1600AB01AC01922E7730AB000030AC007130B5
:103D26008600233087002B0881008D1A9D2EAD0159
:103D3600AE01A12E7730AD000030AE0072308600A5
:103D4600233087002D08810008009A31C3229E3156
:103D5600893141219E319C314F249E319C31CC24A6
:103D66009E319A31FF229E319931E2219E3199315D
:103D7600DE219E319A31F6229E319C31A3249E315A
:103D86009C3192249E319331312308007B088600B2
:103D96007C0887004231403FF000413FF1007B083C
:103DA60086007C088700403FF200413FF3009B31CC
:103DB60049239E3100302000A000A1000030A2005F
:103DC600A3009B3155237B0886007C08870044317D
:103DD600010808007B0886007C0887004231403FC6
:103DE600F000413FF1007B0886007C088700403FD9
:103DF600F200413FF3009B3149239E310030200001
:103E0600A000A1000030A200A3009B3155237B082F
:103E160086007C0887004431010808002200C3158B
:103E26001E2F9931B62108009931762103300800FA
:103E36009931BA2108002D08FC002C08FB00210846
:103E46008A0020080A009F31013A03191B2F033A02
:103E56000319142F013A0319142F073A0319172FC0
:103E66001B2F08002700131D3B2F9B319D239F31DD
:103E7600961E402F9B31AA239F31961F452F9B31BB
:103E8600B7239F31191C4A2F9B31C4239F31991C9C
:103E96004F2F9B31D1239F31991D542F9B31DE2308
:103EA6009F31191E08009B31EB230800AC00AD01C1
:103EB600AD0A2200C3187A2FC3142000AD010030CA
:103EC6009931D6219F31883100209F312C08031962
:103ED600722F41308600013087000130772F413044
:103EE600860001308700023081009931912120003F
:103EF6002D0808002200431042308600013087005A
:103F0600023081008C2F9931B62108009931BA21EF
:103F160008003108FC003008FB0020308600013024
:103F260087004431413F8A00403F0A009F31023AF0
:103F36000319862F013A0319862F892F0800ED30C1
:103F4600B6001E30B7003B08B9003A08B8009B31EE
:103F560079239F316A30B6001E30B700EF30B800C3
:103F66009B3128239F316A30B6001E30B700EF30F0
:103F7600B8009B313E239F316A30B6001E30B70031
:103F8600EE30B8009B3133239F316A30B6001E30C5
:103F9600B7006F30B8009B31852308000030B600AB
:103FA6000030B5000030B4000030B3002B1CE32F06
:103FB6002F08B3073008B43D3108B53D3208B63D89
:103FC6000130AF35B00DB10DB20D890BE42F0130C4
:103FD600AE36AD0CAC0CAB0C890BEB2F2E082D04BA
:103FE6002C042B04031DD92F3608AE003508AD006E
:0A3FF6003408AC003308AB000800EB
:020000040001F9
:08000000FF3FFF3FFF3FFF3F00
:08000E008C3FF53FFF3FFF3F6F
:00000001FF
