:1000000080315E28053008007E1480312100901E6A
:100010000A280B2814282000901E0F2810281428C6
:100020008C310C2480315C282100101E18281928DE
:1000300022282000101E1D281E2822288C319D24D5
:1000400080315C280B1F252826285C282100111DE3
:100050002A282B2836282000111D2F283028362842
:100060002B088A002A080A0080315C282100911D93
:100070003A283B2841282000911D3F28402841284C
:1000800030282100121D4528462851282000121D25
:100090004A284B28512825088A0024080A00803164
:1000A0005C282100921D552856285C282000921DAE
:1000B0005A285B285C284B287E1009008031602874
:1000C00070308400233085008030FE000030FF0057
:1000D0008B3181238031FB01FC01FD012030840044
:1000E000003085003530FE000030FF008B31812369
:1000F0008031A0308400003085003230FE000030B6
:10010000FF008B31812380317E1020008731332F17
:100110002000ED002F0803198E288F289A283F0809
:10012000EB002E08EB022F086B0203189828992881
:100130009A28B32BAF016A2B6D088600870101084E
:10014000031DA328A428B32B6D0886008701810115
:10015000810AB201B20AB32B3230DF009030E000E6
:100160000330E1000030E2000030E300E400003042
:10017000E500E600E701E801E80A0230E900EA01EB
:10018000EA0A853182258031B32B0030DF00E000A0
:100190000030E100E2007D30E3000030E400013097
:1001A000E5000030E600E701E70A0230E80003302E
:1001B000E900EA01EA0A853182258031B32BC0309B
:1001C0007D05EB0080306B06031DE728E828F12849
:1001D0000430B20020088600210887007D088100D5
:1001E000B32B0F30B2007D08C039EB002008860029
:1001F000210887006B088100B32B2C30DF00903082
:10020000E0000330E1000030E2000030E300E400F1
:100210000230E5000030E6000230E7000430E8007C
:100220000530E900EA01EA0A853182258031B32BE5
:1002300020088600210887007D08810027308F3143
:1002400021278031003A031926292729B32B393079
:100250002000DF009030E0000130E1000030E200DB
:100260000030E300E4000230E5000030E600043036
:10027000E7000530E8000630E900EA018531822513
:100280008031B32B2930DF009030E0000330E100F3
:100290000030E2000030E300E4000230E50000300E
:1002A000E6000230E7000630E8000730E900EA0126
:1002B000EA0A853182258031B32B20088600210887
:1002C00087007D08810027308F3121278031003A57
:1002D00003196B296C29B32B38302000DF009030D4
:1002E000E0000130E1000030E2000030E300E40013
:1002F0000230E5000030E6000430E7000730E80097
:100300000830E900EA01853182258031B32B26309F
:10031000DF009030E0000330E1000030E200003008
:10032000E300E4000230E5000030E6000230E700C0
:100330000830E8000930E900EA01EA0A853182253F
:100340008031B32B20088600210887007D088100BA
:1003500027308F3121278031003A0319B029B12984
:10036000B32B37302000DF009030E0000130E10097
:100370000030E2000030E300E4000230E50000302D
:10038000E6000430E7000930E8000A30E900EA013D
:10039000853182258031B32B2330DF009030E0009F
:1003A0000330E1000030E2000030E300E4000230FE
:1003B000E5000030E6000230E7000A30E8000B30CC
:1003C000E900EA01EA0A853182258031B32B200851
:1003D0008600210887007D08810027308F31212782
:1003E0008031003A0319F529F629B32B3630200065
:1003F000DF009030E0000130E1000030E20000302A
:10040000E300E4000230E5000030E6000430E700DD
:100410000B30E8000C30E900EA018531822580319B
:10042000B32B2030DF009030E0000330E1000030DB
:10043000E2000030E300E4000230E5000030E600B6
:100440000230E7000C30E8000D30E900EA01EA0A6A
:10045000853182258031B32B200886002108870052
:100460007D08810027308F3121278031003A031920
:100470003A2A3B2AB32B35302000DF009030E000D1
:100480000130E1000030E2000030E300E40002301F
:10049000E5000030E6000430E7000D30E8000E30E3
:1004A000E900EA01853182258031B32B2F30DF004E
:1004B0009030E0000330E1000030E2000030E30063
:1004C000E4000030E500E600E7010E30E8000F3000
:1004D000E900EA01EA0A853182258031B32B143024
:1004E000AF003F08AE001030B2006D0886008701F3
:1004F0008101B32B6D08860087010108031D812A45
:10050000822AB32B6D08860087018101810AAF0121
:100510000030DF00E0000030E100E2000030E300E6
:10052000E4000030E500E600E7011030E80011309B
:10053000E900EA01EA0A8531822580310330200092
:10054000AF003F08AE00B32B0030DF00E00000300A
:10055000E100E2004830E3000030E4000430E50050
:100560000030E600E701E70A1130E8001230E90048
:10057000EA01EA0A853182258031B32B6D088600B5
:1005800087018101C0304805EB007D083F396B04CD
:10059000FD000F30B2003F30EB002008860021083C
:1005A00087006B0881054808C039EB0020088600E9
:1005B000210887006B0881043F30EB006B08C805F9
:1005C000200886002108870041314A08C03F4B08B7
:1005D000C13F200886002108870043314808C03FFA
:1005E0004908C13FB32B2D08031DF72AF82A002B19
:1005F000AC013108B200AF01AF0A3F08AE00752A66
:100600003008B2000130EB006B08AC0715302C024B
:10061000031C0B2B0C2B752A1430B200200886000B
:1006200021088700FF30810020088600210887000C
:100630004331FF30C03FFF30C13F20088600210812
:1006400087004131FF30C03FFF30C13F752A30087D
:10065000B200AF01AF0A3F08AE000130EB006B08FB
:10066000AC0715302C02031C362B372B752A14309F
:10067000B2002008860021088700FF308100200892
:100680008600210887004331FF30C03FFF30C13F63
:1006900020088600210887004131FF30C03FFF302D
:1006A000C13F752A8C31D02480312000EB00EC0151
:1006B0006C08003A03195D2B272B6B08003A0319CD
:1006C000F32A013A0319752A033A0319272B272B1A
:1006D000B201B32B3208EB00EC016C08003A0319AD
:1006E000722B682B6B08003A03199C28013A0319F6
:1006F000AC28033A0319C528013A0319DF28073A41
:100700000319FD28013A03191829033A031942294C
:10071000013A03195D290F3A03198729013A031990
:10072000A229033A0319CC29013A0319E729073A08
:100730000319112A013A03192C2A033A0319562ADC
:10074000013A03196F2A1F3A03197A2A013A031949
:10075000A42A033A0319BE2A013A0319522B073A75
:100760000319752A682B080020003A080319B92BD1
:10077000BA2BC52B3F08E6003908E6023A086602A4
:100780000318C32BC42BC52B812DBA01532DBD01DA
:10079000BD0A812D6508860087010108031DD12B44
:1007A000D22B812D6508860087018101810A2200F4
:1007B0000C1502302000BA003F08B9000230BD001D
:1007C000B601812D0230D0005030DF000130E00052
:1007D0000030E10000308E3160268331003A031989
:1007E000F22BF32B812D0A302000BD000530BC0018
:1007F0003F08B4000230BB00812D22000C115030A4
:100800002000BA003F08B9000430BD00650886002A
:1008100087018101812D6508860087010108031D7C
:10082000122C132C812D6508860087018101810A15
:1008300022000C1502302000BA003F08B9003F0822
:10084000B4000530BD00812D0E1D272C282C3C2C1A
:100850000230BA003F08B9006308860064088700C8
:1008600077300106031D352C362C392C0830BD009D
:10087000812D0630BD00812D3F08E600E7016708A5
:10088000E90034086602E800031CE9036908803ABD
:10089000EA0080306A02031D4F2C28306802031CD6
:1008A000522C532C812D22000C1114302000BA0040
:1008B0003F08B900C72B5030DF000330E0000030A4
:1008C000E10002308E3123268331003A0319692C6E
:1008D0006A2C812D0A302000BD000730BC00063094
:1008E000BB00812D22088600230887005008810064
:1008F0005108E6002208013EE7000030233DE800F1
:100900006708860068088700660881005208E600CC
:100910002208023EE7000030233DE8006708860019
:1009200068088700660881000830BD00062C63084F
:1009300086006408870077300106031DA02CA12CD7
:10094000C12CD001D00A5030DF000130E00000306F
:10095000E10005308E3160268331003A0319B12C55
:10096000B22C812D0A302000BD000930BC003F08A8
:10097000B4000230BB006308860064088700810170
:10098000812D0930BD00812D38080319C82CC92CD0
:10099000D02C0230BA003F08B9000330BD00812DD1
:1009A0000530BD003F08B400812D3708031DD92C48
:1009B000DA2CDE2CB6013C08BD00062CBA01BA0ABE
:1009C0003F08B9003B08BD000130E6006608B607E5
:1009D0000B303602031CED2CEE2C062C22000C11E1
:1009E00001302000E6006608B5070530350203181F
:1009F000FA2CFB2CFE2CBD01BD0A062C0B30BD00D1
:100A00002208860023088700FF3081002208013E6B
:100A1000E6000030233DE70066088600670887008F
:100A2000FF3081002208023EE6000030233DE7004F
:100A30006608860067088700FF308100062CBA012F
:100A4000BA0A3F08B9003B08BD000130E60066085D
:100A5000B6070B303602031C2E2D2F2D062C22003C
:100A60000C1101302000E6006608B507053035029C
:100A700003183B2D3C2DFE2CFB2C8C31D0248331D4
:100A80002000E600E7016708003A0319482D1F2DF2
:100A90006608003A0319D52C013A0319062C033ACB
:100AA00003191F2D1F2D3D08E600E7016708003AD6
:100AB00003195B2D812D6608003A0319C72B013AF3
:100AC0000319CA2B033A0319E22B013A0319FD2B30
:100AD000073A03190B2C013A0319242C033A031982
:100AE0005B2C013A0319722C0F3A0319972C013A27
:100AF0000319C42C033A03193D2D013A0319062C9E
:100B0000812D080020006A080319872D882D912D5A
:100B100033088F3121278531003A031D902D912D07
:100B2000FD2D2000AD015F0860040319982D992D5B
:100B3000AA2D6108620403199E2D9F2DAA2D60081D
:100B4000D6005F08D5006208D8006108D7008C3154
:100B5000862485312000630864040319B02DB12D6B
:100B6000C82D650866040319B62DB72DC82D670872
:100B7000C4006330C5006608C7006508C6006B3056
:100B8000DB000630DC004430DD008B31752385311D
:100B9000200067030319CD2DCE2DDC2D9430DB0012
:100BA0000A30DC000030DD00DE008B316923853146
:100BB0008A31CB228531F62D630864040319E12DB7
:100BC000E22DF32D650866040319E72DE82DF32DBA
:100BD0006408D6006308D5006608D8006508D70009
:100BE0008C31862485318A31D022853120006908F4
:100BF000B1006808B0001330B20008008A31442206
:100C000085318A31F3228531003A0319082E092EE5
:100C1000192E8A3185228531003A0319102E112EA2
:100C2000152E01302000C000512E02302000C000DF
:100C3000512E8A3185228531003A0319202E212E2A
:100C4000252E03302000C000512E04302000C000AB
:100C5000512E8B310F2385318A31FA228531003AAA
:100C60000319332E342E672E8D3109258531672ED9
:100C70008B310F238531672E8A31FA228531003A74
:100C80000319432E442E672E342E8A31712285316A
:100C9000003A03194C2E4D2E672E8E319E2685313B
:100CA000672E4008F900FA017A08003A0319592E14
:100CB000672E7908013A0319292E033A0319382EB1
:100CC000013A03193C2E073A0319452E672E8A3143
:100CD000472285310800790803196F2E702EB62E31
:100CE000B82E790886008701033081007D30F0003E
:100CF0000030F1000130F2000030F3008B31C123ED
:100D0000863103302000C400790886008701413F06
:100D1000C5007908023E86008701403FC600413F7A
:100D2000C7006B30F6000630F7004430F8008B3116
:100D30005E2386310230CF2E790A860087010108B2
:100D4000F000F1017908023E86008701403FF20081
:100D5000413FF3008B31C12386310030F600F700AC
:100D6000F8018B315E2386310430CF2E0130CF2E37
:100D700079088600870101082000D500D6015608B1
:100D8000003A0319C42EB62E5508023A0319712EE3
:100D9000013A03199C2E073A03199C2EB62E08001F
:100DA00000308C313B2486312000EF006F0A031D98
:100DB000DA2EDB2EE32E1030EF001030D50000309D
:100DC0008D312D25863101308C313B248631AA3A74
:100DD0000319EB2EEC2EF32EAA302000D5000130A3
:100DE0008D312D25863102308C313B248631003AFD
:100DF0000319FB2EFC2E022F2000D50102308D316D
:100E00002D25863103308C313B248631303A03194D
:100E10000A2F0B2F122F30302000D50003308D31D8
:100E20002D25863104308C313B248631313A03192B
:100E30001A2F1B2F222F31302000D50004308D3186
:100E40002D25863105308C313B248631353A031906
:100E50002A2F2B2F322F35302000D50005308D3131
:100E60002D25863108002000BF013C30D5000A3016
:100E7000D6008B31282387313D302000D5000A3041
:100E8000D6008B31312387313E302000D5000A3027
:100E9000D6008B313A238731DB302000D5000A3071
:100EA000D6008B31552387318C31702487318631C0
:100EB000D02687318C315C2487318B170B178A3110
:100EC0006E22873120006F088C31B6248731703054
:100ED0002000D5002330D6008B31A7238731803006
:100EE0002000D5002330D6008C314B2487312000E0
:100EF000EE016E3080318820873190302000E30091
:100F00002330E4006E30E5008331B4238731640080
:100F1000792F80315E288A31D5228731003A031932
:100F2000922F932FC12FA02F8A31A3228731E02F38
:100F30008A31A8228731E02F8A31B2228731E02F0F
:100F400021002F08F9000630A03E86008701413FAE
:100F50008A00403F0A008731F100F2017208003A2E
:100F60000319B32F9C2F7108013A03199C2F033AE0
:100F70000319942F013A0319982F073A03199C2F4C
:100F80009C2F21003D103808F2003708F100B70A05
:100F90000319B80A710884007208850000088A31B4
:100FA0009922873101302100B9020030BA3B39085B
:100FB0003A04031DDC2FDD2FDF2F0630E02F033036
:100FC0000800F10000308B1B0130F200703031005E
:100FD00092007108910070089300151715158B1376
:100FE00055309600AA30960095149518F82FF92FD1
:100FF000F52F1511720C031C8B1303188B170800A7
:1014780008000800080001300800240011080800CE
:1014880020009111080024001516080024009E145D
:10149800080024001E15080024009E1508002400DA
:1014A8001908080020009215080020009211080071
:1014B80024001E1408002000921108002100921533
:1014C800080024009D120800210092110800210044
:1014D8009115080020009717080024001408013906
:1014E800080024009E161E16080024009E121E16D0
:1014F80008008F31AD278A3108000E30210097008F
:1015080008002400140C890C01390800F000700848
:101518002400910008002000B701B70A0130080034
:101528002000AD01AD0A01300800F0007008240069
:10153800990008002100BD10BC010E3008008A3156
:101548004A228A31013008008A314A228A3102301F
:1015580008008A314A228A31013008008A314D2236
:101568008A31003008008A3179228A310530080032
:101578008A3175228A310A3008008A3175228A3107
:10158800093008002100BD10BC010E3008000030F1
:101598008C31EB248A31080001308C31EB248A31FC
:1015A800080024001E0E890C890C0139080001303E
:1015B800F00070082000BF07080020005608A500AA
:1015C8005508A400080020005608AB005508AA00DA
:1015D80008002000D50055352400930008000310AA
:1015E8002400941E03140030093D08000310240051
:1015F800141C03140030093D080021003D108A31F5
:1016080050228B31043008002000D5005508FE39DF
:101618002400920008008A3141228B312000C20048
:101628000130C10008003200910192019301940138
:1016380095019601080021003D140314360D8A31E6
:1016480099228B3105300800200056082100D90066
:10165800200055082100D800080020005608210065
:10166800D700200055082100D600080020005608A1
:101678002100D500200055082100D40008002400CE
:101688009C0108309D009E0109309A009D120800B7
:101698006030320099009B019D0103309F009E013C
:1016A8000800200056082100D3002000550821001A
:1016B800D20008007708F1007608F0007808F200F8
:1016C80000308D3152258B31080020005C08D6008F
:1016D8005B08D5005D08D70002308D31A2258B311B
:1016E800080020005C08D6005B08D5005D08D7001C
:1016F80000308D31A2258B31080064008001013152
:101708000130FE020030FF3B7F087E04031D822B60
:101718000034F00070303100920070089100151705
:1017280015140000000031001308080024009D1A59
:101738009E2B9F2BA62B9C0108309D009E010930F3
:101748009A009D16080027302000B3005608A10013
:101758005508A000B201B101AF01AD01AC0108000C
:1017680049302000980061309600950190122100C0
:10177800901680302000970008002100BD1DC52B61
:10178800C62BCF2B7108B8007008B7007308BA00D1
:101798007208B900BD11080021003D1436358A31A0
:1017A80099228B312100BD19DA2BDB2BDD2B03307D
:1017B800DE2B0A3008002100580859040319E52BCC
:1017C800E62BEB2B59088A0058080A008B312700B2
:1017D800991008002100560857040319F42BF52B1B
:1017E800FA2B57088A0056080A008B3127009911EE
:1017F80008002100540855040319032C042C092C53
:1018080055088A0054080A008C312700191308006B
:10181800200090122100520853040319142C152C8F
:101828001A2C53088A0052080A008C310800240038
:10183800951A1F2C202C2A2C940106302000D50044
:101848005508240095048130960095160800240058
:10185800940106302000D5005508240095048130F5
:101868009600951201302000C100FB0108002000FD
:10187800D5007030310092002000550831009100E9
:101888001517151400000000310013080800200087
:101898005608A3005508A200BD01BC01BB01BA014E
:1018A800B801B80A4130BE00B701B601B501080059
:1018B8002000D6015608703E860087012330873DF8
:1018C80081010130D5005508D60780305602031C27
:1018D8006E2C6F2C5E2C08008B3117238C318C31C9
:1018E8002B248C318B3143238C318F3167278C31FA
:1018F8008B314C238C318A3181228C318B31B4234A
:101908008C3108002100BD1D8A2C8B2C9C2C2000BA
:1019180056082100B800200055082100B700200013
:1019280058082100BA00200057082100B900BD114D
:1019380008002700991CA12CA22CA52C8B31DF2391
:101948008C312700991DA92CAA2CAD2C8B31EE23A4
:101958008C312700191FB12CB22CB52C8B31FD23EB
:101968008C3108002000D7008C311B248C312000DA
:1019780057088B3108238C317F308A31ED228C3126
:10198800FE302000D5000530D6008A31E7228C31A0
:101998008A316B228C3108002000D501D50A21003C
:1019A800BD18D72CD82CE82C3D11FF30B6008A3151
:1019B8005F228C318A3168228C318A3165228C31E0
:1019C80021003C082000D500200055080800200010
:1019D800D500D601D60A2100BD18F32CF42C062D0B
:1019E800BD142000D60155080319FB2CFC2C002D32
:1019F80001302100BB00032D02302100BB008A31D9
:101A08005C228C3120005608080080307B020318C5
:101A18000E2D0F2D172D7B088B318D238D318A319B
:101A28008A228D31282D7B08F100F201F030F30075
:101A38002230F4007108730786007208743D87002D
:101A480001088A318A228D310130F1007108FB07C3
:101A580008002000D60000308B1B0130D700703002
:101A680031009200200056083100910020005508EE
:101A780031009300151715158B1355309600AA30B1
:101A8800960095149518492D4A2D462D15112000BC
:101A9800570C031C8B1303188B170800F5007008EC
:101AA80071040319582D592D682D7535A03E8600EF
:101AB80087017008C03F7108C13F7508AC3E8600B9
:101AC800870172088100792D3F30F3000A30F40055
:101AD8007535A03E860087017308C03F7408C13F72
:101AE8007508AC3E860087018101080021003D1081
:101AF8000230BC00872D8A31AD228D31A12D8A316B
:101B0800B2228D31A12D2E08F9000430A03E8600A6
:101B18008701413F8A00403F0A008D31F000F10102
:101B28007108003A0319992D832D7008023A031998
:101B38007F2D013A03197F2D832D08002000DA003C
:101B4800550856040319A92DAA2DB92D5A35A03EBA
:101B5800860087015508C03F5608C13F5A08AC3E69
:101B68008600870157088100CA2D3F30D8000A3007
:101B7800D9005A35A03E860087015808C03F590849
:101B8800C13F5A08AC3E86008701810108007908E8
:101B98000319CF2DD02DF42D790A8600870101086D
:101BA800F000F1017908023E86008701403FF2000B
:101BB800413FF3008B31C1238D310030F600F7002F
:101BC800F8018B315E238D31790886008701010881
:101BD8000319EF2DF02DF22D0430F52D0230F52DDF
:101BE800013008002100BD15062E8A31AD228D3145
:101BF800222E8A3156228D310330222E8A31B2228A
:101C08008D31222E2C08F90021088A0020080A00AC
:101C18008E31F000F1017108003A0319142E022EDA
:101C28007008013A0319022E033A0319F92D013AF3
:101C38000319F92D073A0319FD2D022E080020007B
:101C4800E2003E088F3121278E31003A031D2D2EE8
:101C58002E2E5E2E20005F08CD006108CF006008A0
:101C6800CE00CC01CB30DB000D30DC004C30DD0089
:101C78008B3175238E3120006208D4005430D50092
:101C88000030D6000130D7000030D8008C318624CF
:101C98008E312000B7018F30DB000A30DC000030C5
:101CA800DD00DE008B3169238E318A31CB228E3103
:101CB80001305F2E003008002000E2003E088F311E
:101CC80021278E31003A031D6A2E6B2E9C2E200090
:101CD8005F08CD006108CF006008CE000130CC005D
:101CE800CB30DB000D30DC004C30DD008B31752350
:101CF8008E3120006208D4005430D5000030D60060
:101D08000130D7000030D8008C3186248E31200075
:101D1800B7018F30DB000A30DC000030DD00DE0068
:101D28008B3169238E318A31CB228E3101309D2E41
:101D3800003008008A3141228E31FC002000410821
:101D48000319A72EA82EAC2E7C08FB00C101DC2E9F
:101D580080307B020318B12EB22EBF2E20307B02BA
:101D6800031CB72EB82ED82E7C08F0007B088731CC
:101D7800E1278E31D82EA0307B02031CC42EC52E3D
:101D8800D82E7B08F300F401F030F5002230F6007D
:101D980073087507F7007408763DF8007708860021
:101DA800780887007C0881000130F3007308FB077E
:101DB8000800210037088600380887008A31532236
:101DC8008E31810001302100B7070030B83D013065
:101DD800B9020030BA3B39083A040319F42EF52E3B
:101DE800FA2E8A3179228E310530202FBD15042F25
:101DF8008A31C1228E31202F8A31BC228E31202F88
:101E08002C08F90021088A0020080A008F31F00008
:101E1800F1017108003A0319122F002F7008013AD6
:101E28000319002F033A0319FC2E013A0319FC2E5B
:101E3800073A0319002F002F08002000D700D80107
:101E4800D80A21003D19292F2A2F642F200057086E
:101E58002100B600BD103D153D100E30BB0001300D
:101E6800B500F430B400BD153F30A0000A30A10021
:101E7800AC010A30A3003F30A200AD010A30A50032
:101E88003F30A400AE010A30A7003F30A600AF01E2
:101E98000030A9000230A800B0017D302000D50034
:101EA8000A30D6008A31E1228F318A315F228F31A0
:101EB8008B319A238F318A3162228F312000D801E9
:101EC80020005808080022008C018D018E01333053
:101ED80021008C00F0308D00FF308E0091302300FF
:101EE8008E008D0137308C0024008D018C018E010D
:101EF80025008C018D018E01373026008C00F030D2
:101F08008D00FF308E003F3027008C00F0308D00B0
:101F1800FF308E0099109911191398109811181301
:101F2800971497151717210010160F303C009E00C4
:101F38000C30A00019303D009E001B309F001A3065
:101F48009D0018309C000E303C00A1000D309D0013
:101F580008008A3159228F3121003D1CB42FB52F3A
:101F6800C02F8A31D5228F31003A0319BC2FBD2FDB
:101F7800C02F0F302100BB0021003D18C42FC52FF2
:101F8800EB2F8A31D5228F31003A0319CC2FCD2F70
:101F9800EB2F21003B08F300F401F335F40D00307A
:101FA800730784001030743D80388500013F8A0033
:101FB800003F0A008F312100BB000A303B06031D99
:101FC800E62FE72FFF2F8A319E228F31FF2F210026
:101FD8003B08F300F401F335F40D00307307840077
:101FE8001030743D80388500013F8A00003F0A00A8
:101FF8008F312100BB0008009E340A341F340B3493
:10200800D0340B348B340734DD340E3401340B34C4
:10201800F6340D34A3340A34A8340A34AD340A34FF
:10202800B2340A34B7340A34BC340A34C1340A34FA
:10203800C6340A347A340D341B34003400341A346C
:1020480000340034193400340034183400340034B7
:102058001C3400340034803400340034A03400349C
:0C20680000345B345A34593458345C3472
:020000040001F9
:08000E00EC3FFF3FFF3FFF3F05
:00000001FF
