:10000000803164281F1508007E1480312100901E65
:1000100010282000901E10289B3127238031622851
:100020002100101E1A282000101E1A289E31DF26DB
:10003000803162280B1F62282100111D2928200011
:10004000111D292821002B088A002A080A00803166
:100050006228210091192000911922282100121DE7
:100060003B282000121D3B28210027088A00260873
:100070000A00803162282100921920009219342848
:100080002100111E4D282000111E4D28220061085C
:100090008A0060080A00803162282100911E5A28D7
:1000A0002000911E5A2822005F088A005E080A007C
:1000B000803162282100911C62282000911C622856
:1000C000993182217E1009008031662870308400C9
:1000D000233085008030FE000030FF009B314B2331
:1000E00080314E308400003085001330FE00003037
:1000F000FF009B314B238031A0308400003085000D
:100100004D30FE000030FF009B314B23803120300A
:100110008400013085003830FE000030FF009B3144
:100120004B238031A0308400013085001030FE0068
:100130000030FF009B314B237E1020008C31012CBE
:10014000C201272D1330B10004302F02031CAC284C
:100150000230B3001730E12CB301B30ACC2D1030BC
:100160002000BC00D530BD003930923120228031D2
:10017000003A0319C0282100B001B00A0230E12C76
:1001800001309D2B9D3162258031013A0319CC2D20
:100190002100B0019C3140248031003A031DD82851
:1001A00001302000C10041082100AF07B101CC2D72
:1001B000AF010F30B100D51FE5287F302000C1000E
:1001C00041082100D5050330B100590A0319EC2874
:1001D000FF30D9000330B1005A0A0319F328FF3069
:1001E000DA000330B1005B0A0319FA28FF30DB00A4
:1001F0000330B1005C0A03190129FF30DC00033031
:10020000B1005D0803190729DD010330B1005E0864
:1002100003190D29DE010330B100611DCC2DFB3027
:100220002000C10041082100E1050330E12C10301D
:100230002000BC00D530BD00393092315D228031C4
:10024000003A0319CC2D2100B001B00A0430E12C92
:100250009D3162258031013A0319CC2D2100B00176
:100260009C3140248031003A0319D028AF01093075
:100270009D2BD5302000BC00063091317221803199
:10028000003A031948292100B001B00A0630E12CD8
:1002900005309D2B9D3162258031013A0319CC2D0B
:1002A0002100B0019C3140248031003A0319D0284C
:1002B000AF010130B100D5184829CC2D10302000F5
:1002C000BC00D530BD003830923120228031003A58
:1002D00003196F292100B001B00A0C30E12C0B305A
:1002E0009D2B9D3162258031013A0319CC2D2100CF
:1002F000B0019C3140248031003A0319D028AF016D
:100300000130B100640A03198929FF30E4000D307F
:10031000E12C02302000D900CC2D10302000BC0090
:10032000D530BD00383092315D228031003A03195A
:10033000CC2D2100B001B00A0E30E12C9D31622598
:100340008031013A0319CC2D2100B0019C314024A9
:100350008031003A0319D028AF010530B100892956
:10036000D5302000BC000630913172218031003A36
:10037000031937292100B001B00A0A30E12C9D3160
:1003800062258031013A0319CC2D2100B0019C3146
:1003900040248031003A0319D028AF010F30B1005A
:1003A000D5183729CC2D10302000BC00D530BD0029
:1003B0003A30923120228031003A0319E429210099
:1003C000B001B00A1030E12C0F309D2B9D31622519
:1003D0008031013A0319CC2D2100B0019C31402419
:1003E0008031003A0319D028AF011930B10055030C
:1003F0000319CC2D0130D5001130E12C1030200034
:10040000BC00D530BD003A3092315D228031003AD7
:100410000319CC2D2100B001B00A1230E12C9D311E
:1004200062258031013A0319CC2D2100B0019C31A5
:1004300040248031003A0319D028AF0107309D2BAA
:100440003C302000BC002830BD00003091313F21FD
:100450008031003A0319CC2D2100B001B00A1430CC
:10046000E12C9D3162258031013A0319CC2D210008
:10047000B0019C3140248031003A0319D028AF01EB
:100480001730B100A001A101CC2D3C302000BC00F0
:100490002830BD00003091313F218031003A0319EE
:1004A000CC2D2100B001B00A1630E12C312A2000F9
:1004B0005A0803198D2A21002E08031D732A993129
:1004C000C3218031003A03198B2AAE01AE0A0430F1
:1004D0009B31DC2380310D30890B6C2A000099316F
:1004E0004D2180318B2A9931C3218031003A031983
:1004F0008B2A9A311B22803102302C02EE300319F4
:100500002B02031C892A0F302100B1002000C201F8
:10051000C20A2100AE010330902A2100AE01023050
:10052000B30020005903031DCC2D033021003306F6
:1005300003196F29CC2DD5302000BC000630913135
:1005400072218031003A03191E2A2100B001B00A3D
:100550000830E12C9D3162258031013A0319CC2D00
:100560002100B0019C3140248031003A0319D02889
:10057000AF011930B100D5181E2ACC2D2000BC01C6
:10058000BC0ABD01BD0A003091313F218031003AE3
:100590000319CC2D2100B001B00A1A30E12C9D3195
:1005A00062258031013A0319CC2D2100B0019C3124
:1005B00040248031003A0319D028AF011B30E12CD0
:1005C00040302000BC004030BD00003091313F2160
:1005D0008031003A0319CC2D2100B001B00A1C3043
:1005E000E12C9D3162258031013A0319CC2D210087
:1005F000B0019C3140248031003A0319D028AF016A
:100600001D30E12C3C302000BC003C30BD000030EF
:1006100091313F218031003A0319CC2D2100B001E6
:10062000B00A1E30E12C9D3162258031013A031958
:10063000CC2D2100B0019C3140248031003A0319B7
:10064000D028AF011F30412A20005A03031D2A2B56
:100650002130862C01302100A0070030A13D003060
:100660002102643003192002031CCC2DA001A1013A
:10067000D5302000BC000630913172218031003A23
:100680000319CC2D2100B001B00A2030E12C9D319E
:1006900062258031013A0319CC2D2100B0019C3133
:1006A00040248031003A0319D028AF01551E5C2B3D
:1006B0002130B1000430B300551C602B1F30E12CF9
:1006C0001330E12C10302000BC00D530BD00F830D4
:1006D000923120228031003A0319732B2100B0019E
:1006E000B00A2230E12C21309D2B9D3162258031D2
:1006F000013A0319CC2D2100B0019C3140248031F6
:10070000003A0319D028AF012330B100D530913120
:10071000E4218031CC2D10302000BC00D530BD004C
:10072000FB30923120228031003A03199C2B2100AA
:10073000B001B00A2430E12C23302100E12C9D319E
:1007400062258031013A0319CC2D2100B0019C3182
:1007500040248031003A0319D028AF012630E12C23
:1007600040302000BC00BD01003091313F2180317C
:10077000003A0319CC2D2100B001B00A2730E12C3A
:100780009D3162258031013A0319CC2D2100B00141
:100790009C3140248031003A0319D028AF012A301F
:1007A000E12C2000BC01BC0ABD01003091313F2189
:1007B0008031003A0319CC2D2100B001B00A2B3052
:1007C000E12C9D3162258031013A0319CC2D2100A5
:1007D000B0019C3140248031003A0319D028AF0188
:1007E0002830E12C40302000BC004030BD000030FB
:1007F00091313F218031003A0319CC2D2100B00105
:10080000B00A2930E12C9D3162258031013A03196B
:10081000CC2D2100B0019C3140248031003A0319D5
:10082000D028AF012530E12C2C30B100D5309731E4
:1008300029278031CC2D10302000BC00D530BD00E0
:10084000F83092315D228031003A0319CC2D21001D
:10085000B001B00A2D30E12C9D3162258031013A82
:100860000319CC2D2100B0019C3140248031003A85
:100870000319D028AF012E30E12C10302000BC002D
:10088000D530BD00FB3092315D228031003A031932
:10089000CC2D2100B001B00A2F30E12C9D31622512
:1008A0008031013A0319CC2D2100B0019C31402444
:1008B0008031003A0319D028AF013030E12C3C30B0
:1008C0002000BC003C30BD00003091313F21803120
:1008D000003A0319CC2D2100B001B00A3130E12CCF
:1008E0009D3162258031013A0319CC2D2100B001E0
:1008F0009C3140248031003A0319D028AF013230B6
:10090000412A20005A03031D8B2C34302100B100F2
:100910000430B300CC2D01302100A0070030A13DF0
:1009200000302102643003192002031CCC2DA001E9
:10093000A101D5302000BC000630913172218031F8
:10094000003A0319CC2D2100B001B00A3330E12C5C
:100950009D3162258031013A0319CC2D2100B0016F
:100960009C3140248031003A0319D028AF01551E34
:10097000BD2C3430B1000430B300551C602B323034
:10098000E12C40302000BC00BD01003091313F21FE
:100990008031003A0319CC2D2100B001B00A353066
:1009A000E12C9D3162258031013A0319CC2D2100C3
:1009B000B0019C3140248031003A0319D028AF01A6
:1009C0001930B100CC2D20005A080319192D21002F
:1009D0002E08031DFF2C9931C3218031003A0319E1
:1009E000172DAE01AE0A04309B31DC2380310D306F
:1009F000890BF82C000099314D218031172D993148
:100A0000C3218031003A0319172D9A311B228031FE
:100A100002302C02EE3003192B02031C152D193065
:100A20002100B1002000C201C20A2100AE01033042
:100A30001C2D2100AE010230B30020005903031D1C
:100A4000CC2D023021003306031DC028CC2D2100FF
:100A50003108003A0319A228013A0319AF28033AD2
:100A60000319C228013A03191729073A031928293B
:100A7000013A03193929033A03194A29013A03199A
:100A80009B2A0F3A0319AA2A013A0319B029033AFB
:100A90000319BF29013A03195E29073A031971297D
:100AA000013A03198D29033A03199E29013A0319C2
:100AB000D3291F3A0319E629013A0319FE29033AFB
:100AC00003190F2A013A0319202A073A0319312A78
:100AD000013A0319452A033A0319562A013A031920
:100AE000572A0E3A0319BE2A033A0319CF2A013AAC
:100AF0000319E02A073A0319F12A013A0319022BD4
:100B0000033A0319132B013A0319242B3F3A031913
:100B1000472B013A0319622B033A0319752B013A4B
:100B200003198B2B073A03199F2B013A0319142C35
:100B3000033A0319B02B013A0319C02B0F3A0319DA
:100B4000F22B013A0319032C033A0319D12B013A72
:100B50000319E12B073A03191B2C013A03192C2C1A
:100B6000033A03193D2C013A03194E2C1F3A03197D
:100B70005F2C013A0319702C033A0319812C013AB6
:100B80000319A82C073A0319C12C013A0319D12CD7
:100B9000033A0319E32CCC2D200042080800200062
:100BA000C600DE2DC701EC2DC701C70AEC2D0230AF
:100BB000DC2D21003F082000C700EC2D4608003A3C
:100BC0000319D92D013A0319D22D033A0319D42D53
:100BD000013A0319D72DD92D21003E080319D92E2A
:100BE0009931C3218531003A0319BD2E9A311B2258
:100BF00085312C08CD002B08CC00A62E4D082100F5
:100C0000A50020004C082100A40020004C08AB00E7
:100C10004D08AC00AD01AE010030B2000030B100B3
:100C20001130B0003F30AF009F31A12785312E0831
:100C3000CB002D08CA002C08C9002B08C8000A30B8
:100C4000CB36CA0CC90CC80C890B202E4B08BC0033
:100C50004A08BB004908BA004808B9007830BD000E
:100C60002330BE00883100208531B12E4D0821008F
:100C7000A30020004C082100A20020004C08AB007B
:100C80004D08AC00AD01AE010030B2000030B10043
:100C90000730B0008C30AF009F31A12785312E087E
:100CA000CB002D08CA002C08C9002B08C8000A3048
:100CB000CB36CA0CC90CC80C890B582E4B08BC008B
:100CC0004A08BB004908BA004808B9007430BD00A2
:100CD0002330BE00883100208531B12E4D0822001E
:100CE000CD0020004C082200CC0020004C08AB00B6
:100CF0004D08AC00AD01AE010030B2000030B100D3
:100D00000130B0000A30AF009F31A12785312E0895
:100D1000CB002D08CA002C08C9002B08C8000A30D7
:100D2000CB36CA0CC90CC80C890B902E4B08BC00E2
:100D30004A08BB004908BA004808B9007C30BD0029
:100D40002330BE00883100208531B12E4708003A9B
:100D50000319FE2D013A0319362E033A03196E2E9C
:100D6000B12E4608031DB92E0130C50045082100EB
:100D7000BF072100BE010130080000300800173015
:100D80009B31DC238531E52E16309B31DC23853108
:100D9000E52E04309B31DC238531E52E17309B3165
:100DA000DC23853120004608031DE52E2100BF010C
:100DB000E52E20004708003A0319BF2E013A031917
:100DC000C42E033A0319C92ECE2E2100BE01BE0A3D
:100DD00099314D218531BD2E933086002330870017
:100DE00077300106031D112F20005908031D002F25
:100DF0000130D9007730AB0080309D3146258631F7
:100E0000023020005906031D1D2F93308600233029
:100E100087008101D901AB0180309D3146258631A3
:100E20001D2F9330860023308700010803191D2FE2
:100E30009330860023308700810190308600233074
:100E400087000108031D292F20008C1A292F22005A
:100E50008C16903086002330870077300106031D02
:100E6000362F20008C1E362F22008C1220005308B3
:100E70000319532F5608AD00AE012E08B000210013
:100E8000450820002D02AF00031CB0033008803A53
:100E9000B10080303102031D4F2F05302F02031C9B
:100EA000532F2000D30120005408031908005608CE
:100EB0002100C50001302000D3005508230043065F
:100EC00003196E2F0530210040020318772F0130DF
:100ED0002000AD002D082100C00708002100C0013E
:100EE000200055082300C3002000D4010800200082
:100EF000550803198D2F0B305806031D872FD40179
:100F00002100C001200055082300C30008009B31C8
:100F1000332386310D3020009A2F083058060319EC
:100F2000992F0B3058060319992F0D305806031DC1
:100F30009B2F0C30D800D4012100C001200055089F
:100F40002300C30008009931292187312200431C66
:100F5000B52F9931A5218731003A0319B52F4130BA
:100F60008600013087000F30810022004318E12FF6
:100F70009931A5218731003A0319E12F2200410858
:100F80002000A800A901A835A90D00302807840079
:100F90001830293D80388500013F8A00003F0A0053
:100FA00087312000AA0041308600013087002A08DE
:100FB00081000A3022004106031D08009931C92131
:100FC0000800220041082000A800A901A835A90DA9
:100FD0000030280784001830293D80388500013F03
:100FE0008A00003F0A0087312000AA0041308600B5
:100FF000013087002A0881000800200097170800A8
:101000000330C4000030AE000030AD000030AC0052
:101010000A30AB003C08B2003B08B1003A08B0000F
:101020003908AF009231D92288312B08303EBF00F9
:101030004408C000C101C01BC10340083D07C200F5
:1010400041083E3DC30042088600430887003F0830
:1010500081004408031947280030AE000030AD007D
:101060000030AC000A30AB003C08B2003B08B100D5
:101070003A08B0003908AF009431D52488312E08E1
:10108000BC002D08BB002C08BA002B08B900FF30AB
:10109000BF003F08C407C41B0800022800309B3172
:1010A000BF2388312100ED006D0A031D6D08031D6B
:1010B000AD2810302000AB0000309D31462588312E
:1010C000AA302000AB0001309D3146258831200038
:1010D000AB01AB0A40309D314625883109302000F4
:1010E000AB0041309D314625883105302000AB00F2
:1010F00042309D314625883103302000AB0043301B
:101100009D31462588312000AB0144309D31462574
:1011100088312000AB0145309D31462588310330B0
:101120002000AB0043309D31462588312000AB01C3
:10113000AB0A44309D31462588312000AB01453053
:101140009D314625883104302000AB0049309D3167
:101150004625883110302100ED0030309B31BF230F
:1011600088312000AD002D0A031DBD28AB013030B1
:101170009D3146252100C801080077302D06031D4A
:10118000C5282100C801C80A080088302D06031DA3
:10119000B628AB0130309D31462502302100C80011
:1011A000080022008C018D018E01173021008C0077
:1011B000F0308D00FB308E00C03023008E008D019A
:1011C00010308C00503024008D0004308C001B3017
:1011D0008E0025008C018D018E01373026008C0099
:1011E000A0308D00FF308E003F3027008C00F030A3
:1011F0008D00FF308E0013111215111596129613E3
:10120000951695179416941719109910991119128B
:10121000181498149815181617149714971517166C
:1012200004302000AB001930AC009A314B228831D9
:1012300005302000AB001930AC009A3153228831C0
:1012400006302000AB001930AC009A315B228831A7
:1012500007302000AB001930AC009A31632288318E
:1012600008302000AB001930AC009A316B22883175
:1012700009302000AB001930AC009A31732288315C
:101280000A302000AB001930AC009A317B222100DB
:10129000101615303C00A40014303D00A3001A3095
:1012A00091000E303C00A0001B303D0090000C303F
:1012B0003C00A10018303D009E0001303C009D0024
:1012C00019303D009C003C009E010800CB2BBA0168
:1012D000B701B70AFE2B0030933160238931003A01
:1012E0000319FE2B02302100B700B901FE2B2000AC
:1012F000BC01BC0A7330BD002330BE000030933106
:10130000ED238931C8004808031DFE2B0330C62B8E
:1013100091310F2189312000C80002304806031D99
:1013200093290430C62B48030319FE2B0130C20059
:1013300042082100B9070A303902031CA929B90162
:101340000430B7007330860023308700FF308100FF
:10135000FE2B0230C72B5F302000BC0018309331C9
:10136000A6238931003A031DFE2B0D302100B70062
:101370000530B6000430882B40309B31BF238931C3
:101380002000C200C3014208C9004308CA00490A3C
:101390004A040319142A41309B31BF2389312000AC
:1013A000C200C3014A08AC004908AB000A30AD00D6
:1013B0000030AE009D312B25893142082B07C90032
:1013C00043082C3DCA0042309B31BF2389312000A5
:1013D000C200C3014A08AC004908AB000A30AD00A6
:1013E0000030AE009D312B25893142082B07C90002
:1013F00043082C3DCA006430AB000030AC004A0802
:10140000AE004908AD009D312B2589312C08CA005A
:101410002B08C90060084A06031D102A5F08490608
:101420000319142A0630C62B0B30C62B40309B31D3
:10143000BF2389312000C200C3014208DF004308F6
:10144000E0005F0A60040319762A41309B31BF2314
:1014500089312000C200C3016008AC005F08AB0006
:101460000A30AD000030AE009D312B258931420895
:101470002B07DF0043082C3DE00042309B31BF23A7
:1014800089312000C200C3016008AC005F08AB00D6
:101490000A30AD000030AE009D312B258931420865
:1014A0002B07DF0043082C3DE0006430AB00003028
:1014B000AC006008AE005F08AD009D312B2589317E
:1014C0002C08E0002B08DF00BC01BC0A5F30BD0027
:1014D0001830943187248931003A031DFE2B0D30DA
:1014E0002100B7000730B6000630882B0730C62B26
:1014F00043309B31BF2389312000C200C301420821
:10150000DF004308E0005F0A600403192B2B44301E
:101510009B31BF2389312000C200C3016008AC00A9
:101520005F08AB000A30AD000030AE009D312B25C6
:10153000893142082B07DF0043082C3DE00045308D
:101540009B31BF2389312000C200C3016008AC0079
:101550005F08AB000A30AD000030AE009D312B2596
:10156000893142082B07DF0043082C3DE00060086A
:10157000C3005F08C2000730C235C30D890BBC2A07
:101580004208DF004308E000460A47040319032B22
:1015900046309B31BF2389312000C200C30142087D
:1015A000C6004308C70047309B31BF238931200064
:1015B000C200C3014708AC004608AB000A30AD00CA
:1015C0000030AE009D312B25893142082B07C60023
:1015D00043082C3DC70048309B31BF238931200090
:1015E000C200C3014708AC004608AB000A30AD009A
:1015F0000030AE009D312B25893142082B07C600F3
:1016000043082C3D062B8430C6000130C700470834
:10161000C3004608C200C336C20CC336C20C7F30BA
:101620004205C40000304305C5004408DF044508F6
:10163000E004BC01BC0A5F30BD003A30943187241D
:101640008931003A031DFE2B0D302100B700083010
:10165000B6000730882B0830C62B49309B31BF239A
:1016600089312000C200C3014208DF004308E000C6
:101670005F0A600403195D2B5F08C300C2010030DC
:101680004205C4000F304305C50058304404DF0054
:1016900030304504E000BC01BC0A5F30BD00BB3007
:1016A000943187248931003A031DFE2B0D3021002F
:1016B000B7000930B6000830882B0930C62B00303F
:1016C0002000DF008030E000BC01BC0A5F30BD00BC
:1016D000DB30943187248931003A031DFE2B210031
:1016E000BA01BA0A0D30B7000A30B6000930882BAB
:1016F0005F302000BC0006309331A6238931003AC8
:10170000031DFE2B0D302100B7000C30B6000B304E
:10171000B500FE2B200060088038AB0002309D3100
:10172000462589310E30C62B91310F218931200099
:10173000C80002304806031DA52B21003608B7005B
:10174000200056082100B800FE2B48030319FE2B89
:101750000130C20042082100B9070A303902031CD7
:10176000BC2BB9010E30B700BA012000AB0102302A
:101770009D3146258931FE2B3508C72B0130933129
:1017800060238931003A0319FE2B0F302100B70086
:10179000FE2BB701FE2B21003708003A03196729F9
:1017A000013A03196B29033A03197729013A0319FE
:1017B0008829073A0319AB29013A0319BC29033ACE
:1017C0000319162A013A0319782A0F3A03192D2B07
:1017D000013A03195F2B033A0319142A013A03193A
:1017E000782B073A03198A2B013A0319942B033AF1
:1017F0000319BE2B013A0319FE2BC92B9A319C22E7
:1018000008002300BB01BE01BA01BC01B801BD0143
:101810002000D2019E3152268C31B7302000AB001F
:101820001930AC009A318B228C318731FD278C31F5
:1018300000300C1901302100C700003020000E18C4
:1018400001302100C400003020008E180130D50086
:1018500055082300C3002100C0019A302000AB00CE
:101860001D30AC009A314B228C31FC302000AB0093
:101870001C30AC009A3163228C31FB302000AB006D
:101880001930AC009A316B228C31FC302000AB0057
:101890001B30AC009A3153228C310D302000AB004C
:1018A0001C30AC009A315B228C3193302000AB00AD
:1018B0001A30AC009A317B228C311E302000AB00F4
:1018C0001C30AC009A3173228C3121000E1424009C
:1018D0000E1422000C1521000C1522000E158C167A
:1018E0008B170B1788314E208C3195317B258C312D
:1018F00055309C3153248C3136309B31CC238C3184
:101900009D317E258C318631EC268C3121004803B7
:101910000319B32F23003D080319C72D20005608D3
:101920002300B0003908B0023D083002031CF42D3A
:10193000BD01F42D0230210048060319122D0A3092
:101940002300BD00200056082300B9000130262DD9
:101950000230272D9E3133268C310330272D013064
:101960008531CF258C31003A0319F42D0430262D12
:101970002100C601C60A0C1122000C112300BB0174
:10198000BB0ABE012000D701D70A22000E11023087
:101990002300BD00200056082300B9000530262D85
:1019A00002308531CF258C31003A0319F42D220005
:1019B0000E150C1521000C15C6012300BB010630C5
:1019C0002000D8002300B501F42D9A319C228C31DF
:1019D000003A0319F42D0730262D993153218C310B
:1019E0002300B00002303002031CF42D0830262DF5
:1019F0007330860023308700013081005508031DB5
:101A0000292D0C30262D03302100250244300319E6
:101A100024020318142D02302300BD0020005608B4
:101A20002300B9000B30262D14301F2D003021006B
:101A300023026A300319220203180B2DFF30230002
:101A4000BD00200056082300B90009302000D8004E
:101A5000F42D703086002330870043310108013AAD
:101A60000319032D033A0319162D012D23003A08FB
:101A70000319442D2100C601C60A0C1122000C11C5
:101A80002300BB01BB0ABE01993153218C31023ABC
:101A9000031D5B2D200056082300B0003608B0025D
:101AA00028303002031CF42D3A080319012D2100BF
:101AB0000C15C601122D200056082300B600F42D87
:101AC0002300BA01BA0A3B080319712D3E08031D11
:101AD000712DBB01BE0122000C1521000C15C601A1
:101AE0008A2D200056082300B000B1013108B30050
:101AF0003E083002B200031CB3033308803AB4003E
:101B000080303402031D862D06303202031C8A2DDC
:101B10002300BE0120000E1DF42DD701D70A22009C
:101B20000E11F42D2300BA0120000E199B2DD701B0
:101B300022000E158C1623003C080319F42D2000FA
:101B400056082300B000B1013108B3003808300254
:101B5000B200031CB3033308803AB400803034026F
:101B6000031DB42D04303202031CF42D2300BC01EC
:101B7000B801122D9A319C228C31003A031D122D8E
:101B8000F42DD801D70122000E158C16F42D20005B
:101B90005808003A03199A2C013A0319A82C033A61
:101BA0000319AA2C013A0319AF2C073A0319B82CD0
:101BB000013A0319D02C033A0319E52C013A031911
:101BC000ED2C0F3A0319F82C013A0319A82C033A0B
:101BD0000319362D013A0319602D073A0319922D86
:101BE000013A0319BA2DC12D023020005802031CFE
:101BF000FD2D07305802031C052E0D305806031921
:101C0000052E0C305806031D082E893166218C31B3
:101C1000073020005802031CBA2F0D305806031954
:101C2000BA2F9130860023308700773001060319E0
:101C30007B2F8031A0208C314F08031D582E7B2F25
:101C400004309B31BF238C312000D10003309B3105
:101C5000BF238C312000D0000230D200CF016C2E87
:101C600006309B31BF238C312000D1000530272E58
:101C700008309B31BF238C312000D1000730272E44
:101C80000A309B31BF238C312000D1000930272E30
:101C90000C309B31BF238C312000D1000B30272E1C
:101CA0000E309B31BF238C312000D1000D30272E08
:101CB0005208B93A0319202E063A0319302E7F3AFA
:101CC0000319382E013A0319402E033A0319482EFE
:101CD000013A0319502E6C2E993153218C31023A5E
:101CE000031D7B2F20004F030319492F7B2F510821
:101CF000AB0004309D3146258C3120005008AB00EC
:101D000003309D3146258C31782F5108AB000630C9
:101D10009D3146258C3120005008AB0005309D31A7
:101D200046258C31782F5108AB0008309D3146256F
:101D30008C3120005008AB0007309D3146258C3196
:101D4000782F5108AB000A309D3146258C31200098
:101D50005008AB0009309D3146258C31782F510851
:101D6000AB000C309D3146258C3120005008AB0073
:101D70000B309D3146258C31782F5108AB000E3049
:101D80009D3146258C3120005008AB000D309D312F
:101D900046258C31782F5708031D782F8030860018
:101DA000233087005208810081308600233087006D
:101DB000510881008230860023308700500881005E
:101DC0002100D401D40AD301D30AD201D20AC60118
:101DD000C60A0C1122000C112300BB01BB0A200013
:101DE00056082300BE003E08031DFA2E0130B00045
:101DF0003008BE07200057080319082F2300BC0134
:101E0000BC0A200056082300B8000C302000092F1F
:101E10000B30D800782F803086002330870052089E
:101E20008100813086002330870051088100823094
:101E30008600233087005008810002302100D40042
:101E40000230D3000230D2003E2F80308600233093
:101E500087005208810081308600233087005108B6
:101E600081008230860023308700500881002100E5
:101E7000D401D40AD301D30AD201D20A0E1022000F
:101E80000E1001302100C300200056082100C200BE
:101E9000E72E5208003A0319782F013A0319782FD8
:101EA000B03A0319CB2E033A0319CE2E013A031987
:101EB0000B2F073A0319CE2E013A0319252F033AA7
:101EC0000319CE2E013A0319252F0F3A0319772E45
:101ED000023A0319852E013A0319932E073A031982
:101EE000A12E013A0319AF2E033A0319BD2E782F04
:101EF0002000D201CF012100430803199B2F2000AD
:101F000056082300B000B1013108B3002100420897
:101F100023003002B200031CB3033308803AB4003C
:101F200080303402031D962F14303202031C9B2F85
:101F30002100C3010E140B3020005806031DAD2FE5
:101F4000993153218C31023A031DAD2F0030853178
:101F5000CF258C312300B700BA2F2100BE0123000A
:101F6000B701B70ABA2F20000E1DBA2FD701D70A22
:101F700022000E116400210048030319832C9931BB
:101F8000A0218C31003A031D832C993153218C31CF
:101F9000023A031D832C230037080319832C9A313E
:101FA0009C228C31003A0319832C0B3020005806F8
:101FB0000319E22F0C3058060319E22F0930580696
:101FC000031D832C5308031D832C5408031D832CED
:101FD0000C305806031DFA2F23003C08031DFA2F6E
:101FE00021001710F8303200980598136300210083
:101FF0001714832CF8303200980598176300832C4F
:10200000003407340E3409341C341B3412341534B4
:1020100038343F3436343134243423342A342D34A4
:10202000703477347E3479346C346B346234653494
:1020300048344F3446344134543453345A345D3484
:10204000E034E734EE34E934FC34FB34F234F53474
:10205000D834DF34D634D134C434C334CA34CD3464
:10206000903497349E3499348C348B348234853454
:10207000A834AF34A634A134B434B334BA34BD3444
:10208000C734C034C934CE34DB34DC34D534D23434
:10209000FF34F834F134F634E334E434ED34EA3424
:1020A000B734B034B934BE34AB34AC34A534A23414
:1020B0008F34883481348634933494349D349A3404
:1020C0002734203429342E343B343C3435343234F4
:1020D0001F34183411341634033404340D340A34E4
:1020E0005734503459345E344B344C3445344234D4
:1020F0006F34683461346634733474347D347A34C4
:1021000089348E3487348034953492349B349C34B3
:10211000B134B634BF34B834AD34AA34A334A434A3
:10212000F934FE34F734F034E534E234EB34EC3493
:10213000C134C634CF34C834DD34DA34D334D43483
:1021400069346E3467346034753472347B347C3473
:10215000513456345F3458344D344A344334443463
:1021600019341E3417341034053402340B340C3453
:10217000213426342F3428343D343A343334343443
:102180004E34493440344734523455345C345B3433
:102190007634713478347F346A346D346434633423
:1021A0003E34393430343734223425342C342B3413
:1021B0000634013408340F341A341D341434133403
:1021C000AE34A934A034A734B234B534BC34BB34F3
:1021D0009634913498349F348A348D3484348334E3
:1021E000DE34D934D034D734C234C534CC34CB34D3
:1021F000E634E134E834EF34FA34FD34F434F334C3
:102200002100EC01EF01EF0A0230EE0024009401FE
:102210000830950096014F30920095120800210079
:102220003B0803193C299D3162259131013A03197C
:102230003C292100BB0120004E0803193629033038
:102240004E06031D252904303429CE1C2A290530C9
:102250002100BC0020004E1D302906302100BC00AA
:1022600020004E1C3C29073021003B2921003C0363
:10227000031D3C290230BC0021003C080800BE00C0
:10228000210032089631D2269131003A03194A29A9
:10229000003008002100AD01FE30D50020003E08CE
:1022A0002100D60020003C082100D70020003D0876
:1022B0002100D800D5302000AB000030AC00043045
:1022C000AD000030AE009C317A249131D530200031
:1022D000BA000030BB009F317227913199318A21B9
:1022E00001300800BD00210032089631D22691311C
:1022F000003A03197D29003008003C082100E7005E
:10230000E8010130E5000030E600E93086000030E9
:10231000870002308100AD01FE30D50020003D086D
:102320002100D600D5302000AB000030AC000230D8
:10233000AD000030AE009C317A249131E5302000B0
:10234000BA000030BB009F317227913199318A2148
:102350000130080020005D08443E860001308700FF
:10236000810123001D1DC12920005D08443E860017
:1023700001308700811422005D088A005C080A0091
:10238000913123009D1CD12920005D08443E860028
:10239000013087000115230042088A0041080A0025
:1023A000913120005D08443E86000130870001081D
:1023B0000319E129230040088A003F080A009131EF
:1023C00008009D31132508002000AC0099315021F0
:1023D000913120002C08033E8600870101089B31C3
:1023E000EC23913120002C08023E86008701010871
:1023F0009B31EC23913120002C08860087012C0AA8
:102400008400850100089B31EC2391310106031DF6
:102410001C2A20002C0886008701433FD2002C088C
:1024200086008701423FD1002C0886008701413F8A
:10243000D0000130CF00080001302000D200080099
:10244000C000210032089631D2269231003A031999
:102450002B2A003008003D082100E700E801200099
:102460003C08BE00BF013E082100E50020003F08F7
:102470002100E600E930860000308700023081004C
:10248000AD01200040082100EA00EA302000AB0046
:102490000030AC000130AD000030AE009C317A2439
:1024A0009231E5302000BA000030BB009F31722726
:1024B000923199318A2101300800C0002100320890
:1024C0009631D2269231003A0319682A003008006A
:1024D0003D082100E700E80120003C08BE00BF01E4
:1024E0003E082100E50020003F082100E600E93019
:1024F00086000030870004308100AD0120004008D4
:102500002100EA00EA302000AB000030AC000130CE
:10251000AD000030AE009C317A249231E5302000CD
:10252000BA000030BB009F317227923199318A2165
:1025300001300800993123219231FD0020308600BE
:10254000013087005D31403F8400413F85007D08B8
:10255000800001302200BD070030BE3D0130BF02C7
:102560000030C03B3F0840040319BA2A99315A2170
:1025700005300800C315C22A993176210800993127
:10258000722108002D08FC002C08FB0021088A009D
:1025900020080A009231013A0319BF2A033A0319AD
:1025A000BC2A013A0319BC2A073A0319BF2ABF2AD9
:1025B00008002E082D042C042B040319122BB4013F
:1025C000B40AAE1BEF2A0130AB35AC0DAD0DAE0D2C
:1025D000890BE42A0130B3003308B407E12A2E083E
:1025E0003202031DFD2A2D083102031DFD2A2C088D
:1025F0003002031DFD2A2B082F02031C072B2B087A
:10260000AF022C08B03B2D08B13B2E08B23B013085
:10261000AE36AD0CAC0CAB0C890B082B0130B40200
:10262000031DEF2A3208AE003108AD003008AC00BF
:102630002F08AB00080021009112AA302000AB0047
:102640001130AC009A313B22933121001112B73086
:102650002000AB001D30AC009A314322933108308A
:1026600023009F0090309D0004309E0040309B006E
:1026700003309C0003302000AB001930AC009A31CD
:102680002B22933114302000AB001930AC009A316A
:102690003322933111302000AB001930AC009A3155
:1026A00023222100CD01D1012000DE0108302100CC
:1026B000D0002000DD012100CF01CE0191160800DD
:1026C0002000AD002D0803198B2B9D31622593311D
:1026D000003A03196D2B00300800993147219331DE
:1026E0001A303D0091000E303C00A0001B303D0030
:1026F00090000C303C00A10018303D009E000130DD
:102700003C009D0019303D009C003C009E019D3125
:102710007E259331A42B9931472118303D0091003B
:1027200001303C00A00019303D0090003C00A101A8
:102730001A303D009E000E303C009D001B303D00D5
:102740009C000C303C009E0001300800BD002100C0
:102750003D089631D2269331BE003E08031DB72BAB
:10276000C22B0330B42B04302100BC00BF2B3E0829
:10277000013A0319B12B033A0319B32BB32B2000F1
:102780003E0808003C082100E700E8010230E500AF
:102790000030E600E930860000308700023081001A
:1027A000BB01BB0ABC01BC0A2000CE013D30AB001E
:1027B0000030AC000130AD000030AE009C317A2416
:1027C0009331E5302000BA000030BB009F314C2728
:1027D000933199318A219331BF2BBF005430963108
:1027E000D2269331C0004008031DFD2B082C033076
:1027F000FA2B04302100BC00052C4008013A0319D3
:10280000F72B033A0319F92BF92B20004008080095
:102810003E082100E80020003D082100E7000130CB
:10282000E5000030E600E930860000308700023025
:102830008100BB01BB0ABC01BC0A2000CE013F08DD
:102840002100EB00EB302000AB000030AC00013089
:10285000AD000030AE009C317A249331E530200089
:10286000BA000030BB009F314C27933199318A2147
:10287000080099312F2194312000DC0021004A0802
:102880000319482C20005C08DB002100CA01080065
:10289000803020005B0203186A2C20305B02031C8E
:1028A000812C31009518512C151715157030920098
:1028B00020005B0831009100940120005C08310089
:1028C00093008B1355309600AA309600951415117D
:1028D0008B17812CA0305B02031C812C5B08F0005D
:1028E000F101F030F2002230F30070087207F400BA
:1028F0007108733DF50074088600750887005C0850
:1029000081000130F00070082000DB070800C000E3
:1029100021003D089631D2269431C1004108031DA3
:10292000982CA32C0330952C04302100BC00A02C43
:102930004108013A0319922C033A0319942C942C60
:102940002000410808003D082100E700E8012000C0
:102950003C08BE00BF013E352100E50020003F0DD0
:102960002100E600E9308600003087000430810055
:10297000BB01BB0ABC01BC0A2000CE014030AB0049
:102980000030AC000130AD000030AE009C317A2444
:102990009431E5302000BA000030BB009F314C2755
:1029A000943199318A219431A02C0030B700003045
:1029B000B6000030B5000030B4002E082D042C0401
:1029C0002B0403191E2DB801B80AAE1BF32C0130DD
:1029D000AB35AC0DAD0DAE0D890BE82C0130B3005D
:1029E0003308B807E52C0130B435B50DB60DB70D79
:1029F000890BF42C2E083202031D082D2D083102FC
:102A0000031D082D2C083002031D082D2B082F0252
:102A1000031C132D2B08AF022C08B03B2D08B13B33
:102A20002E08B23B34140130AE36AD0CAC0CAB0CFE
:102A3000890B142D0130B802031DF32C3708AE00AA
:102A40003608AD003508AC003408AB0008009931F9
:102A5000A5219531003A031D372D532D99315E2163
:102A6000080099316221080099316A21080022008A
:102A70003308FC003208FB0020308600013087005C
:102A80004631413F8A00403F0A009531013A03191F
:102A9000342D033A03192E2D013A0319312D073A2B
:102AA0000319342D342D220043103E082000A500C8
:102AB00022003D082000A4002200BD0A0319BE0A1E
:102AC00020002408860025088700010899319621F6
:102AD000953101302200BF020030C03B3F08400466
:102AE000031D742D0630752D03302000A600003024
:102AF000A700260808002000AF012F08703EAD0097
:102B0000AE012330AE3D2D0886002E088700FF3031
:102B100081000130AD002D08AF0780302F02031C6B
:102B20007D2D70308600233087005530C03F9030B7
:102B3000860023308700810188308600233087009B
:102B400030308100893086002330870032308100A8
:102B50008A30860023308700393081002100D4017B
:102B6000D301D20180309B31BF2395312000AD00CD
:102B700093308600233087002D0881009330860033
:102B800023308700010A031D08009330860023309C
:102B900087008101AB0180309D3146250800FA0095
:102BA000700871040319FB2D7A08F400F501F4355F
:102BB000F50D2030F6000130F70074087607860026
:102BC0007508773D87007008C03F7108C13F7A08DB
:102BD000F400F501F435F50D2C30F6000130F70066
:102BE0007408760786007508773D87007208C03F35
:102BF0007308C13F08000D30F4001930F5007A0861
:102C0000F600F701F635F70D2030F8000130F90035
:102C10007608780786007708793D87007408C03FFA
:102C20007508C13F7A08F400F501F435F50D2C3034
:102C3000F6000130F7007408760786007508773DC6
:102C400087000030C03FC13F0800B5002B082C04AE
:102C50000319512E3508AF00B001AF35B00D20304B
:102C6000B1000130B2002F08310786003008323D34
:102C700087002B08C03F2C08C13F3508AF00B001CA
:102C8000AF35B00D2C30B1000130B2002F08310744
:102C900086003008323D87002D08C03F2E08C13F16
:102CA00008000D30AF001930B0003508B100B20196
:102CB000B135B20D2030B3000130B4003108330714
:102CC00086003208343D87002F08C03F3008C13FDE
:102CD0003508AF00B001AF35B00D2C30B100013078
:102CE000B2002F08310786003008323D87000030DF
:102CF000C03FC13F08009931322196319931DE2120
:102D00009631003A03198E2E99317A219631003A84
:102D100003198C2E0130972E0230972E99317A218B
:102D20009631003A0319962E0330972E0430210075
:102D3000C900C12E00309B311B2396319931E5210A
:102D40009631003A0319CF2E97318A279631CF2E2C
:102D500001309B311B239631CF2E9931E5219631DD
:102D6000003A0319CF2E9931B1219631A12E993114
:102D70007E219631003A0319CF2E943139249631B1
:102D8000CF2E4908013A03199A2E033A0319A82EA7
:102D9000013A0319AD2E073A0319B72ECF2E9931F8
:102DA000352108002000AD00AE01AE0A2200431913
:102DB000262F3C3086000130870020002D0881003E
:102DC0002200C310431543104130860001308700B4
:102DD0000E3081000130BB00F430BA00C3150D3055
:102DE000A0001930A100AC01AD011930A3000D30D5
:102DF000A200AE01AF011930A5000D30A400B00152
:102E0000B1011930A7000D30A600B201B30119308D
:102E1000A9000F30A800B401B5012C302000AB0090
:102E20001930AC009A31032296319931382196310C
:102E30009A31CC2296319931442196312000AE014D
:102E4000D030AB001F30AC009A310B2220002E088E
:102E500008002000AC005203031D342F2C08073E4D
:102E60008600870144304B2FB1305202031C3C2FA7
:102E7000C4305202031C462F023052060319462F5B
:102E80002C08073E8600870143304B2F2C08073E55
:102E900086008701413081000230520603195B2F02
:102EA0002C08053E8600870181012C08063E86001D
:102EB00087018101672F2C08053E86008701500895
:102EC00081002C08063E8600870151088100993157
:102ED0005021973120002C08073E86008701010809
:102EE0009B31EC23973120002C08063E8600870199
:102EF00001089B31EC23973120002C08043E86000A
:102F000087012C08053E8400850100089B31EC23D5
:102F100081000800803020005B0203189D2F3100E3
:102F200015177030920020005B08310091001514D5
:102F3000130899319B219731DD2F90305B06031DDB
:102F4000E32F210054080319E32F0130D402031D9D
:102F5000E32F70308600233087005031010899310B
:102F60009B2197318030D82F210053080319E82F77
:102F70000130D302031DE82F703086002330870014
:102F80005131010899319B2197318130D82F21008F
:102F900052080319ED2F0130D202031DED2F7030BE
:102FA0008600233087005231010899319B218230FD
:102FB000860023308700FF3081000130F100710866
:102FC0002000DB070800913020005B060319B42FB6
:102FD000923020005B060319C72F20005B08F10028
:102FE000F201F030F3002230F4007108730786001C
:102FF0007208743D8700010899319B219731DD2FBC
:10300000C9341934F3341934D0341934273415340D
:103010009A341234AB341934BB341E345E34193450
:1030200062341934663419346A3419346E341934FC
:103030007234193476341934D734193427341F34A0
:103206000800080008000800080008000800080078
:103216000800080001300800053008009D3113251C
:1032260008001D121D16080024009614080024002C
:103236001615080020001F11080024009615080026
:1032460024001108080020009115080020009111A3
:1032560008008731A3270800240019080800200069
:103266009211080024001D16080020009111080084
:10327600240095120800210091110800240016145C
:1032860008002100911508009B31B2230800210097
:103296009215080021009D1408002100AC010800C9
:1032A600210033080800240096161616080024008C
:1032B6009612161608009931172101300800993127
:1032C6001721023008009931172101300800993181
:1032D6001A210030080099315A2105300800993129
:1032E60056210A30080099315621093008001C0C75
:1032F600890C0139080024001C08013908009110C6
:103306009A31C1220800AB002B089D00080000304E
:103316009F3103270800A2302200970008001330CF
:10332600210097000800F0007008240091000800B2
:10333600F00070082400990008002200430C890C54
:10334600013908002400160E890C890C0139080081
:1033560022004310993120210430080003101E1F5B
:1033660003140030093D08000130F0007008200009
:10337600D60708002000AB002B3524009B00080070
:1033860003109D1C03140030093D08002200C310E1
:10339600C20199311D210E300800220043143C352C
:1033A60099319621033008002200C310C2019931D9
:1033B6001D210E300800031024009C1E031400304B
:1033C600093D0800031024001C1C03140030093DAD
:1033D60008002000AB002B08FE3924009A000800E4
:1033E6002200431403143C0D993196210530080040
:1033F600003020008E180130D5000130D4000800BE
:103406002C082100AB0020002B082100AA00080090
:103416002C082200D90020002B082200D800080022
:103426002C082100A70020002B082100A600080078
:103436001C082000AC0021001B082000AB0008007F
:103446002C082300C00020002B082300BF00080022
:103456002C082200DD0020002B082200DC000800DA
:103466002C082300C20020002B082300C1000800FE
:103476002C082200DF0020002B082200DE000800B6
:103486002C082200E10020002B082200E0000800A2
:103496002C082200EF0020002B082200EE00080076
:1034A6002C082200ED0020002B082200EC0008006A
:1034B6002C082200EB0020002B082200EA0008005E
:1034C6002C082200E90020002B082200E800080052
:1034D6002C082200E70020002B082200E600080046
:1034E6002C082200E50020002B082200E40008003A
:1034F6002C082200E30020002B082200E20008002E
:103506003200910192019301940195019601080000
:103516002C082200DB0020002B082200DA0008001D
:10352600031020000E1E0314003003180130DA00C9
:1035360008000F3021003706031DA32A01300800BA
:1035460000300800E33021009E009F019B019C0192
:1035560001309D0008006030320099009B019D01FA
:1035660007309F009E01080024009D1A08009C0158
:1035760006309D0001309E009D1608002200580866
:1035860059040319080059088A0058080A009A3194
:1035960008002400951A0800940108309500960149
:1035A6004F309200951608003708AC003608AB007D
:1035B6003808AD00AE0102309631252608003708DE
:1035C600AC003608AB003808AD00AE0104309631C9
:1035D600252608003708AC003608AB003808AD00D1
:1035E600AE0101309631252608003708AC003608B2
:1035F600AB003808AD00AE01033096312526080031
:10360600C31D08007108BE007008BD007308C00025
:103616007208BF00C31108002108F1002008F0005D
:103626002308F3002208F20000309531CF25080068
:10363600F00099312F219B312100CB00700803192E
:1036460008000130CA000800901222005A085B04E4
:10365600031908005B088A005A080A009B31080013
:103666002100BC01B701B601B501BB012000CE01A6
:103676002100BA01B90108003708AC003608AB00D2
:103686003908AE003808AD0000309631252608000E
:103696006400800101310130FE020030FF3B7F08EB
:1036A6007E04031900344C2B22006E086F040319A4
:1036B600612B6F088A006E080A009B3127001311E0
:1036C600080022006C086D0403196E2B6D088A0031
:1036D6006C080A009B3127009612080022006A082F
:1036E6006B0403197B2B6B088A006A080A009B315E
:1036F6002700961308002200680869040319882B1E
:1037060069088A0068080A009B312700191008001A
:103716002200660867040319952B67088A00660865
:103726000A009B31270099100800220064086504EE
:103736000319A22B65088A0064080A009B3127003A
:10374600991108002200620863040319AF2B63086D
:103756008A0062080A009B3127001912080021001E
:10376600921120009211121124009D129C01063024
:103776009D0001309E0008002000AB0031001517A7
:103786007030920020002B083100910015141308A8
:1037960008002000AB002B082100BD00BC01B701CA
:1037A600B601B501BB012000CE012100BA01B90165
:1037B60008002000AC002C08AB00AB0DAB0D2100BF
:1037C6001D0820002B0603392B0621009D001D1421
:1037D6000800AB0021002C0820002B06003E8400C8
:1037E60090300318013E850000082100AC002C082B
:1037F600080020008D1A022CF001F101062C77300A
:10380600F0000030F1007230860023308700700827
:103816008100080020008D1B132CF001F101172CEC
:103826007730F0000030F1007130860023308700D9
:1038360070088100080020008E1D282C923086001A
:1038460023308700FF308100080092308600233045
:103856008700773081000800FF309E009D0191109F
:10386600210091140C302000AB001930AC009A31C5
:103876000B22233020009F0008002D08031D452C35
:1038860001300800AD1C492C0230B4002D1D4D2C12
:10389600B401B40A2D1C512C0330B40000300800CA
:1038A6002000AB002B082100B200AD01B0012000C2
:1038B600DA012100B101B301B401AF012000D90141
:1038C6002100AE0108004D302000980030309600EF
:1038D60095019012210090160B302000AB00193094
:1038E600AC009A318B22803020009700080022001D
:1038F600C31D080020002C082200BE0020002B0853
:103906002200BD0020002E082200C00020002D0845
:103916002200BF00C311080021009211200092115D
:10392600121124009D129C0106309D0001309E005C
:1039360001302100CA002000DB0110302100ED001B
:1039460008007C08F1007B08F0000230F20000302D
:10395600F3009B3103239C3100302000A000A1001E
:103966000030A200A3009B310F23043008007C081E
:10397600F1007B08F0000130F2000030F3009B31CB
:1039860003239C3100302000A000A1000030A200DB
:10399600A3009B310F23023008007C08F1007B084E
:1039A600F0000230F2000030F3009B3103239C311B
:1039B60000302000A000A1000030A200A3009B312F
:1039C6000F23023008007C08F1007B08F00001306C
:1039D600F2000030F3009B3103239C3100302000BD
:1039E600A000A1000030A200A3009B310F230430E9
:1039F6000800003020000E1801302100C4000230FB
:103A06002000580603190B2D0C305806031D08001C
:103A160021004408031D08000B302000D8000800D0
:103A260020005D08A03E86000130870023001908AB
:103A360081000130F00070082000DD0708305D02CB
:103A46000318DD010130F00070082100CE070800E0
:103A5600AF01B0012B1C332D2D08AF072E08B03D4A
:103A66000130AD35AE0D890B342D0130AC36AB0CC3
:103A7600890B392D2B082C04031D2D2D3008AC0085
:103A86002F08AB000800AC0031009518472D15171C
:103A960015157030920020002C0831009100940119
:103AA60020002B08310093008B1355309600AA3066
:103AB6009600951495185D2D15118B17080020009A
:103AC600AB01AB0A2200C3187B2D43113C308600A4
:103AD60001308700FF308100993138219D319931BD
:103AE6003E219D3199313B21220042082000AB0046
:103AF60020002B08080001302100CA002000DB014D
:103B060021006D089931EC219D317F309931BD211D
:103B16009D317B302000AB001630AC009A31132269
:103B26009D319A31B7229D3199314A2108000030E2
:103B360020000C1901302100C7004608031D0800AB
:103B46000230200058060319AC2D0C305806031D10
:103B5600080021004708031D080020005308031D24
:103B660008000B30D8000800083021005002031866
:103B7600D42D20005E08A83E86000130870001088B
:103B860023009A000130F00070082000DE0708309C
:103B96005E020318DE010130F00070082100D00734
:103BA6000800111208007B0886007C088700423155
:103BB600403FF000413FF1007B0886007C0887000B
:103BC600403FF200413FF3009B3103239D3100301B
:103BD6002000A000A1000030A200A3009B310F230B
:103BE60002300800032E2000CE14122E20004E159F
:103BF600122E20004E14122E03302000CE00122E5C
:103C06007B0886007C0887000108003A0319F62D18
:103C1600013A0319F92D033A0319FC2DFF2D013042
:103C26000800222E2100AD14312E21002D15312E33
:103C360021002D14312E07302100AD00312E7B08D6
:103C460086007C0887000108003A0319152E013A00
:103C56000319182E033A03191B2E1E2E01300800D5
:103C66008D1B382EAB01AC013C2E7730AB000030FB
:103C7600AC0071308600233087002B0881008D1A36
:103C8600472EAD01AE014B2E7730AD000030AE00B1
:103C960072308600233087002D08810008009A3193
:103CA60083229E318831D1209E31913100219E316F
:103CB6009C318F249E319A31AE229E3199319221C8
:103CC6009E3199318E219E319A31A5229E319C31A9
:103CD60066249E319C312F249E3193311B2308008C
:103CE6007B0886007C0887004231403FF000413F58
:103CF600F1007B0886007C088700403FF200413FC8
:103D0600F3009B3103239E3100302000A000A10068
:103D16000030A200A3009B310F237B0886007C089D
:103D260087004431010808007B0886007C0887006C
:103D36004231403FF000413FF1007B0886007C089D
:103D46008700403FF200413FF3009B3103239E3141
:103D560000302000A000A1000030A200A3009B318B
:103D66000F237B0886007C08870044310108080081
:103D76002200C315C82E99316621080099312621E3
:103D86000330080099316A2108002D08FC002C0830
:103D9600FB0021088A0020080A009E31013A031917
:103DA600C52E033A0319BE2E013A0319BE2E073A51
:103DB6000319C12EC52E08002700131DE52E9B31C1
:103DC60057239E31961EEA2E9B3164239E31961F01
:103DD600EF2E9B3171239E31191CF42E9B317E23CD
:103DE6009E31991CF92E9B318B239E31991DFE2EF7
:103DF6009B3198239E31191E08009B31A52308008C
:103E0600AC00AD01AD0A2200C318242FC314200054
:103E1600AD010030993186219F31803102209F31DA
:103E26002C0803191C2F4130860001308700013011
:103E3600212F413086000130870002308100993100
:103E4600412120002D080800220043104230860040
:103E56000130870002308100362F99316621080033
:103E660099316A2108003108FC003008FB00203037
:103E76008600013087004431413F8A00403F0A00F6
:103E86009F31023A0319302F013A0319302F332F8D
:103E960008007330B6001E30B7003B08B9003A0878
:103EA600B8009B313F239F31F530B6001D30B70077
:103EB600EC30B8009A31D7229F31F530B6001D306C
:103EC600B700EF30B8009A31ED229F31F530B600D9
:103ED6001D30B700EE30B8009A31E2220800973064
:103EE600B6001E30B7003B08B9003A08B8009B314F
:103EF6003F239F311430B6001E30B700EF30B800B4
:103F06009A31D7229F311430B6001E30B700EF30F9
:103F1600B8009A31F8229F311430B6001E30B7002F
:103F2600EC30B8009A31ED229F311430B6001E30C5
:103F3600B700EE30B8009A31E22208000030B60031
:103F46000030B5000030B4000030B3002B1CB32F96
:103F56002F08B3073008B43D3108B53D3208B63DE9
:103F66000130AF35B00DB10DB20D890BB42F013054
:103F7600AE36AD0CAC0CAB0C890BBB2F2E082D044A
:103F86002C042B04031DA92F3608AE003508AD00FE
:103F96003408AC003308AB0008000030FB00FC001E
:103FA60020308600013087004831413F8A00403F7B
:103FB6000A009F310230840098308500013F8A0054
:103FC600003F0A009F312000A800413086000130E2
:103FD6008700280881000030840098308500013F62
:103FE6008A00003F0A009F312000A8004130860069
:0A3FF6000130870028088100080050
:020000040001F9
:08000000FF3FFF3FFF3FFF3F00
:08000E008C3FF53FFF3FFF3F6F
:00000001FF
