:10000000803164289D1408007E1480312100901EE8
:1000100010282000901E10289E31BA2680316228B8
:100020002100101E1A282000101E1A289331522376
:10003000803162280B1F62282100111D2928200011
:10004000111D2928210031088A0030080A0080315A
:100050006228210091192000911922282100121DE7
:100060003B282000121D3B2821002D088A002C0867
:100070000A00803162282100921920009219342848
:100080002100111E4D282000111E4D28220061085C
:100090008A0060080A00803162282100911E5A28D7
:1000A0002000911E5A2822005F088A005E080A007C
:1000B000803162282100911C62282000911C622856
:1000C0009D311D257E100900803166287030840026
:1000D000233085008030FE000030FF009E31D226A4
:1000E00080314E308400003085001530FE00003035
:1000F000FF009E31D2268031A03084000030850080
:100100004D30FE000030FF009E31D226803120307D
:100110008400013085003430FE000030FF009E3145
:10012000D2268031A0308400013085002830FE00C6
:100130000030FF009E31D2267E1020008C31362CFC
:10014000C201EC2C1330B70004303302031CAD287D
:1001500002302000D0001730842B2000D001D00ABC
:10016000912D10302000BC00D630BD0039309531C3
:1001700022258031003A0319C2282100B601B60AAF
:100180000230D42C2100B701B70A912D9131B92149
:100190008031013A0319912D2100B6019131A0213E
:1001A0008031003A031DDC2801302000C1004108E5
:1001B0002100B307B701912D2100B3010F30B70023
:1001C000D61FEA287F302000C10041082100D60553
:1001D0000330B7005A0A0319F128FF30DA00033060
:1001E000B7005B0A0319F828FF30DB000330B700C3
:1001F0005C0A0319FF28FF30DC000330B7005D0AFA
:1002000003190629FF30DD000330B7005E0803192B
:100210000C29DE010330B7005F0803191229DF0142
:100220000330B700621D912DFB302000C100410852
:100230002100E2050330D42C10302000BC00D63061
:10024000BD00393095315E258031003A0319912D7A
:100250002100B601B60A0430D42C9131B921803185
:10026000013A0319912D2100B6019131A02180316D
:10027000003A0319D4282100B3010930842BD63069
:100280002000BC0006309431AF248031003A0319BD
:100290004E292100B601B60A0630D42C0530842B35
:1002A0009131B9218031013A0319912D2100B60114
:1002B0009131A0218031003A0319D4282100B301E3
:1002C000B701B70AD6184E29912D10302000BC0076
:1002D000D630BD003830953122258031003A0319DF
:1002E00076292100B601B60A0C30D42C0B30842BB1
:1002F0009131B9218031013A0319912D2100B601C4
:100300009131A0218031003A0319D4282100B30192
:10031000B701B70A650A03199129FF30E5000D30CE
:10032000D42C02302000DA00912D10302000BC00C7
:10033000D630BD00383095315E258031003A031942
:10034000912D2100B601B60A0E30D42C9131B9217D
:100350008031013A0319912D2100B6019131A0217C
:100360008031003A0319D4282100B3010530B700C9
:100370009129D6302000BC0006309431AF24803162
:10038000003A03193D292100B601B60A0A30D42CDF
:100390009131B9218031013A0319912D2100B60123
:1003A0009131A0218031003A0319D4282100B301F2
:1003B0000F30B700D6183D29912D10302000BC0019
:1003C000D630BD003A30953122258031003A0319EC
:1003D000EE292100B601B60A1030D42C0F30842B40
:1003E0009131B9218031013A0319912D2100B601D3
:1003F0009131A0218031003A0319D4282100B301A2
:100400001930B70056030319912D0130D600113071
:10041000D42C10302000BC00D630BD003A309531CD
:100420005E258031003A0319912D2100B601B60AEC
:100430001230D42C9131B9218031013A0319912D18
:100440002100B6019131A0218031003A0319D4284E
:100450002100B3010730842B3C302000BC00283041
:10046000BD00003094317D248031003A0319912D74
:100470002100B601B60A1430D42C9131B921803153
:10048000013A0319912D2100B6019131A02180314B
:10049000003A0319D4282100B3011730B700A00196
:1004A000A101912D3C302000BC002830BD0000305F
:1004B00094317D248031003A0319912D2100B60139
:1004C000B60A1630D42C3D2A20005B080319702A86
:1004D0000F302100B7002000C201C20A0330712A88
:1004E0000230D0005A03031D912D0330500603192A
:1004F0007629912DD6302000BC0006309431AF24EF
:100500008031003A03192A2A2100B601B60A0830C0
:10051000D42C9131B9218031013A0319912D210058
:10052000B6019131A0218031003A0319D42821006D
:10053000B3011930B700D6182A2A912D2000BC012A
:10054000BC0ABD01BD0A003094317D248031003ADF
:100550000319912D2100B601B60A1A30D42C91311D
:10056000B9218031013A0319912D2100B601913151
:10057000A0218031003A0319D4282100B3011B3097
:10058000D42C40302000BC004030BD0000309431FD
:100590007D248031003A0319912D2100B601B60A5D
:1005A0001C30D42C9131B9218031013A0319912D9D
:1005B0002100B6019131A0218031003A0319D428DD
:1005C0002100B3011D30D42C3C302000BC003C3055
:1005D000BD00003094317D248031003A0319912D03
:1005E0002100B601B60A1E30D42C9131B9218031D8
:1005F000013A0319912D2100B6019131A0218031DA
:10060000003A0319D4282100B3011F304E2A2000DC
:100610005B03031D0D2B2130742C01302100A0073A
:100620000030A13D01302102903003192002031C4B
:10063000912DA001A101D6302000BC0006309431DC
:10064000AF248031003A0319912D2100B601B60A7A
:100650002030D42C9131B9218031013A0319912DE8
:100660002100B6019131A0218031003A0319D4282C
:100670002100B301561E412B2130B7000430200069
:10068000D0002100561C462B1F30D42C1330D42C04
:1006900010302000BC00D630BD00F8309531222546
:1006A0008031003A0319592B2100B601B60A2230D5
:1006B000D42C2130842B9131B9218031013A031996
:1006C000912D2100B6019131A0218031003A03190A
:1006D000D4282100B3012330B700D63095319A25B4
:1006E0008031912D10302000BC00D630BD00FB3091
:1006F000953122258031003A0319832B2100B60160
:10070000B60A2430D42C23302100D42C9131B921C5
:100710008031013A0319912D2100B6019131A021B8
:100720008031003A0319D4282100B3012630D42C9B
:1007300040302000BC00BD01003094317D24803168
:10074000003A0319912D2100B601B60A2730D42CA6
:100750009131B9218031013A0319912D2100B6015F
:100760009131A0218031003A0319D4282100B3012E
:100770002A30D42C2000BC01BC0ABD0100309431C9
:100780007D248031003A0319912D2100B601B60A6B
:100790002B30D42C9131B9218031013A0319912D9C
:1007A0002100B6019131A0218031003A0319D428EB
:1007B0002100B3012830D42C40302000BC00403050
:1007C000BD00003094317D248031003A0319912D11
:1007D0002100B601B60A2930D42C9131B9218031DB
:1007E000013A0319912D2100B6019131A0218031E8
:1007F000003A0319D4282100B3012530D42C2C3021
:10080000B700D6308A31CC228031912D10302000B3
:10081000BC00D630BD00F83095315E258031003AFD
:100820000319912D2100B601B60A2D30D42C913137
:10083000B9218031013A0319912D2100B60191317E
:10084000A0218031003A0319D4282100B3012E30B1
:10085000D42C10302000BC00D630BD00FB309531C8
:100860005E258031003A0319912D2100B601B60AA8
:100870002F30D42C9131B9218031013A0319912DB7
:100880002100B6019131A0218031003A0319D4280A
:100890002100B3013030D42C3C302000BC003C306F
:1008A000BD00003094317D248031003A0319912D30
:1008B0002100B601B60A3130D42C9131B9218031F2
:1008C000013A0319912D2100B6019131A021803107
:1008D000003A0319D4282100B30132304E2A2000F7
:1008E0005B03031D7A2C34302100B7000430200054
:1008F000D000912D01302100A0070030A13D013032
:100900002102903003192002031C912DA001A101A6
:10091000D6302000BC0006309431AF248031003A3C
:100920000319912D2100B601B60A3330D42C913130
:10093000B9218031013A0319912D2100B60191317D
:10094000A0218031003A0319D4282100B301561E9A
:10095000AE2C3430B70004302000D0002100561CEB
:10096000462B3230D42C40302000BC00BD0100307A
:1009700094317D248031003A0319912D2100B60174
:10098000B60A3530D42C9131B9218031013A03199E
:10099000912D2100B6019131A0218031003A031937
:1009A000D4282100B3011930B700912D20005B0835
:1009B0000319E22C19302100B7002000C201C20A3D
:1009C0000330E32C0230D0005A03031D912D023076
:1009D0005006031DC228912D21003708003A031943
:1009E000A228013A0319B128033A0319C628013A8B
:1009F00003191C29073A03192D29013A03193F2924
:100A0000033A03195029013A03197A2A0F3A0319B4
:100A1000892A013A0319B929033A0319C829013A65
:100A200003196529073A03197829013A0319952909
:100A3000033A0319A629013A0319DD291F3A0319BC
:100A4000F029013A0319092A033A03191A2A013A2B
:100A500003192C2A073A03193D2A013A0319522A8D
:100A6000033A0319632A013A0319642A0E3A031957
:100A70009E2A033A0319AF2A013A0319C12A073AF9
:100A80000319D22A013A0319E42A033A0319F52A71
:100A9000013A0319072B3F3A03192A2B013A03198C
:100AA000482B033A03195B2B013A0319722B073ABF
:100AB0000319862B013A0319FF2B033A0319982BCC
:100AC000013A0319A82B0F3A0319DC2B013A031939
:100AD000ED2B033A0319BA2B013A0319CA2B073A33
:100AE0000319062C013A0319172C033A0319292C70
:100AF000013A03193A2C1F3A03194C2C013A0319F5
:100B00005D2C033A03196F2C013A0319972C073A0D
:100B10000319B32C013A0319C32C033A0319D62C39
:100B2000912D200042080800C600A22DC701B02D5B
:100B3000C701C70AB02D0230A02D21003D082000BA
:100B4000C700B02D4608003A03199D2D013A03193C
:100B5000962D033A0319982D013A03199B2D9D2DCB
:100B600021003C0803199D2E9D3155258531003A01
:100B70000319812E9E31152685312C08CD002B08B6
:100B8000CC006A2E4D082100A50020004C08210051
:100B9000A40020004C08AB004D08AC00AD01AE0134
:100BA0000030B2000030B1001130B0003F30AF0073
:100BB0009331EE2385312E08CB002D08CA002C0876
:100BC000C9002B08C8000A30CB36CA0CC90CC80CA7
:100BD000890BE42D4B08BC004A08BB004908BA0049
:100BE0004808B9007830BD002330BE0088312B2082
:100BF0008531752E4D082100A30020004C082100EE
:100C0000A20020004C08AB004D08AC00AD01AE01C5
:100C10000030B2000030B1000730B0008C30AF00BF
:100C20009331EE2385312E08CB002D08CA002C0805
:100C3000C9002B08C8000A30CB36CA0CC90CC80C36
:100C4000890B1C2E4B08BC004A08BB004908BA009F
:100C50004808B9007430BD002330BE0088312B2015
:100C60008531752E4D082200CD0020004C08220051
:100C7000CC0020004C08AB004D08AC00AD01AE012B
:100C80000030B2000030B1000130B0000A30AF00D7
:100C90009331EE2385312E08CB002D08CA002C0895
:100CA000C9002B08C8000A30CB36CA0CC90CC80CC6
:100CB000890B542E4B08BC004A08BB004908BA00F7
:100CC0004808B9007C30BD002330BE0088312B209D
:100CD0008531752E4708003A0319C22D013A0319D0
:100CE000FA2D033A0319322E752E4608031D7D2E68
:100CF0000130C50045082100BD072100BC010130BD
:100D000008000030080017309F3153278531A92E85
:100D100016309F3153278531A92E04309F31532738
:100D20008531A92E17309F31532785312000460881
:100D3000031DA92E2100BD01A92E20004708003A5D
:100D40000319832E013A0319882E033A03198D2EB5
:100D5000922E2100BC01BC0A803102208531812EF7
:100D6000933086002330870077300106031DD52E8F
:100D700020005A08031DC42E0130DA007730AB0082
:100D800080309131D5218631023020005A06031D72
:100D9000E12E93308600233087008101DA01AB0118
:100DA00080309131D5218631E12E93308600233079
:100DB000870001080319E12E933086002330870055
:100DC000810190308600233087000108031DED2E3D
:100DD00020008C1AED2E22008C16903086002330D5
:100DE000870077300106031DFA2E20008C1EFA2E94
:100DF00022008C12200052080319402F94314D24F8
:100E000086312000C400262F6108AB0002309131EA
:100E1000D52186312000D20121003E080319122F6E
:100E2000BE01402F0E30232FFF30E1006108AB00E0
:100E300002309131D52186312000D20121003E08B7
:100E4000031D102F06302000D900402F4408003A1F
:100E50000319142F013A0319402F033A0319042FE1
:100E6000013A0319142F073A0319142F013A0319F1
:100E7000142F033A0319142F013A0319142F402F8A
:100E80002100460803195E2F20005808BF00C0014A
:100E90004008C2002100440820003F02C100031C9A
:100EA000C2034208803AC30080304302031D5A2F18
:100EB00005304102031C5E2F2100C60121004808B5
:100EC00003190800200058082100C400C601C60A02
:100ED0002000560823005506031908002000560874
:100EE00003198A2F56082300D50020005208031D3D
:100EF00008002100C80161302000BC00FF3096319D
:100F000097262000D201D20A2100BE011030200015
:100F1000D900080056082300D50020005208031904
:100F2000942F2100BE01BE0A0C302000590603197F
:100F3000A12F0E3059060319A12F10305906031D99
:100F400008000F30D9002100C80108009C31C024DE
:100F500087312200431CB82F9D3137258731003A55
:100F60000319B82F41308600013087000F3081000F
:100F700022004318E42F9D3137258731003A0319A9
:100F8000E42F220041082000A800A901A835A90DDE
:100F90000030280784001830293D80388500013F43
:100FA0008A00003F0A0087312000AA0041308600F5
:100FB000013087002A0881000A3022004106031D03
:100FC00008009D315B250800220041082000A80090
:100FD000A901A835A90D0030280784001830293D43
:100FE00080388500013F8A00003F0A0087312000D9
:100FF000AA0041308600013087002A0881000800DD
:101000002200430C890C01390800E630B60012308A
:10101000B7003B08B9003A08B8009E31C6268831AF
:101020006830B6001230B7006230B8009E316A26D0
:1010300088316830B6001230B700EF30B8009E310A
:10104000802688316830B6001230B700EE30B80024
:101050009E31752608000330C4000030AE00003019
:10106000AD000030AC000A30AB003C08B2003B08D9
:10107000B1003A08B0003908AF00963155268831E2
:101080002B08303EBF004408C000C101C01BC10393
:1010900040083D07C20041083E3DC30042088600AB
:1010A000430887003F088100440803197228003074
:1010B000AE000030AD000030AC000A30AB003C08A0
:1010C000B2003B08B1003A08B0003908AF008831DF
:1010D000792088312E08BC002D08BB002C08BA00EE
:1010E0002B08B900FF30BF003F08C407C41B08002D
:1010F0002D280030B7000030B6000030B5000030B9
:10110000B4002E082D042C042B040319C228B801A6
:10111000B80AAE1B97280130AB35AC0DAD0DAE0D46
:10112000890B8C280130B3003308B80789280130B7
:10113000B435B50DB60DB70D890B98282E083202BF
:10114000031DAC282D083102031DAC282C083002E9
:10115000031DAC282B082F02031CB7282B08AF0255
:101160002C08B03B2D08B13B2E08B23B34140130A3
:10117000AE36AD0CAC0CAB0C890BB8280130B80204
:10118000031D97283708AE003608AD003508AC00BF
:101190003408AB000800AF012F08703EAD00AE016F
:1011A0002330AE3D2D0886002E088700FF308100D9
:1011B0000130AD002D08AF0780302F02031CCC2872
:1011C00070308600233087005530C03F9030860055
:1011D000233087008101883086002330870030303B
:1011E00081008930860023308700323081008A30C8
:1011F00086002330870033308100E0012100D501D3
:10120000D40180309F31462788312000AD009330D3
:101210008600233087002D0881009330860023301C
:101220008700010A031D08009330860023308700E1
:101230008101AB0180309131D52108009D313725E6
:101240008931003A031D2E294A299C31F9240800CE
:101250009C31FD2408009D3105250800220033083B
:10126000FC003208FB002030860001308700463148
:10127000413F8A00403F0A008931013A03192B2976
:10128000033A03192529013A03192829073A0319B2
:101290002B292B29220043103E082000A500220004
:1012A0003D082000A4002200BD0A0319BE0A200048
:1012B000240886002508870001089D312D258931E5
:1012C00001302200BF020030C03B3F084004031D34
:1012D0006B2906306C2903302000A6000030A700DF
:1012E00026080800FA007008710403199E297A087C
:1012F000F400F501F435F50D2030F6000130F7006B
:101300007408760786007508773D87007008C03F2F
:101310007108C13F7A08F400F501F435F50D2C3061
:10132000F6000130F7007408760786007508773DEF
:1013300087007208C03F7308C13F0800A530F40061
:101340001C30F5007A08F600F701F635F70D20306D
:10135000F8000130F9007608780786007708793DB3
:1013600087007408C03F7508C13F7A08F400F50192
:10137000F435F50D2C30F6000130F70074087607CF
:1013800086007508773D87000030C03FC13F0800E8
:10139000B5002B082C040319F4293508AF00B0015F
:1013A000AF35B00D2030B1000130B2002F08310749
:1013B00086003008323D87002B08C03F2C08C13F13
:1013C0003508AF00B001AF35B00D2C30B1000130A1
:1013D000B2002F08310786003008323D87002D0803
:1013E000C03F2E08C13F0800A530AF001C30B00040
:1013F0003508B100B201B135B20D2030B300013073
:10140000B4003108330786003208343D87002F08C6
:10141000C03F3008C13F3508AF00B001AF35B00D57
:101420002C30B1000130B2002F083107860030089F
:10143000323D87000030C03FC13F08009C31C924C5
:101440008A319D3170258A31003A0319312A9D3144
:1014500015258A31003A03192F2A01303A2A023021
:101460003A2A9D3115258A31003A0319392A033069
:101470003A2A04302100CB00642A00309E31AE2687
:101480008A319D3177258A31003A0319722A8B31CE
:101490002D238A31722A01309E31AE268A31722A7A
:1014A0009D3177258A31003A0319722A9D314325EF
:1014B0008A31442A9D3119258A31003A0319722A4A
:1014C0009731B2278A31722A4B08013A03193D2A13
:1014D000033A03194B2A013A0319502A073A031910
:1014E0005A2A722A9C31CC2408002000AD00AE019B
:1014F000AE0A22004319C92A3C3086000130870019
:1015000020002D0881002200C310431543104130F4
:101510008600013087000E3081000130BB00F430BE
:10152000BA00C315A530A0001C30A100AC01AD016C
:101530001C30A300A530A200AE01AF011C30A500F5
:10154000A530A400B001B1011C30A700A530A60051
:10155000B201B3011C30A900A730A800B401B50145
:10156000C3302000AB001C30AC009D318D258A318A
:101570009C31CF248A319E315F268A319C31DB2415
:101580008A312000AE011D30AB001430AC009D311B
:10159000952520002E0808002000AC005503031DEF
:1015A000D72A2C08073E860087014430EE2AB13046
:1015B0005502031CDF2AC4305502031CE92A0230FD
:1015C00055060319E92A2C08073E86008701433097
:1015D000EE2A2C08073E8600870141308100023048
:1015E00055060319FE2A2C08053E86008701810155
:1015F0002C08063E8600870181010A2B2C08053E37
:1016000086008701530881002C08063E860087016A
:10161000540881009C31DE248A3120002C08073ECA
:101620008600870101089F3162278A3120002C083B
:10163000063E8600870101089F3162278A3120001B
:101640002C08043E860087012C08053E8400850195
:1016500000089F31622781000800803020005C0272
:101660000318402B310015177030920020005C08E1
:1016700031009100151413089D3132258B317F2BD9
:1016800090305C06031D852B60080319852B013003
:10169000E002031D852B7030860023308700503117
:1016A00001089D3132258B3180307A2B210055087D
:1016B0000319892B0130D502031D892B7030860058
:1016C00023308700513101089D3132258B31813023
:1016D0007A2B2100540803198E2B0130D402031DEC
:1016E0008E2B7030860023308700523101089D31E7
:1016F00032258230860023308700FF3081000130A0
:10170000F10071082000DC07080091305C06031925
:10171000562B923020005C060319692B20005C08D0
:10172000F100F201F030F3002230F4007108730789
:1017300086007208743D870001089D3132258B3187
:101740007F2B22008C018D018E01173021008C002F
:10175000F0308D00FB308E00C03023008E008D01F4
:1017600010308C00503024008D0004308C001B3071
:101770008E0025008C018D018E01373026008C00F3
:10178000A0308D00FF308E003F3027008C00F030FD
:101790008D00FF308E00131112151115961296133D
:1017A00095169517941694171910991099111912E6
:1017B00018149814981518161714971497151716C7
:1017C0009C302000AB001C30AC009D31CD258B310E
:1017D0009D302000AB001C30AC009D31D5258B31F5
:1017E0009E302000AB001C30AC009D31DD258B31DC
:1017F0009F302000AB001C30AC009D31E5258B31C3
:10180000A0302000AB001C30AC009D31ED258B31A9
:10181000A1302000AB001C30AC009D31F5258B3190
:10182000A2302000AB001C30AC009D31FD25210012
:10183000101615303C00A40014303D00A3001A30EF
:1018400091000E303C00A0001B303D0090000C3099
:101850003C00A10018303D009E0001303C009D007E
:1018600019303D009C003C009E0108002300D1017E
:10187000D401D001D2012000D5019231C5228C3192
:1018800049302000AB001D30AC009E310D268C315C
:101890009C31EA248C3100300C1901302100C70042
:1018A000003020000E1801302100C300003020005D
:1018B0008E180130D6005608031D602C0130612CB3
:1018C00000302300D5002000560803196A2C21009F
:1018D000C8016D2C01302100C8000D302000AB0084
:1018E0001230AC009D31CD258C3171302000AB0021
:1018F0001130AC009D31E5258C311D302000AB004E
:101900001E30AC009D31ED258C3182302000AB00C3
:101910001F30AC009D31D5258C3193302000AB00B9
:101920001F30AC009D31DD258C3126302000AB000E
:101930001E30AC009D31FD258C31A4302000AB0061
:101940001F30AC009D31F5258C3121000E14240090
:101950000E1422000C1521000C1522000E158C16F9
:101960008B170B17963116268C318831CB208C3192
:1019700055309F31B5278C3136309E312F268C3132
:101980009131F1218C318631B0268C312000570302
:101990000319DB2F230052080319192E20005808C1
:1019A0002300C8004F08C80252084802031C4F2EEB
:1019B000D2014F2E023057060319902D0A30230012
:1019C000D200200058082300CF002000D901D90AF6
:1019D0004F2E0330D9002300CE014F2E0030963118
:1019E000DC268C31003A03194F2E0230A62DBC01A3
:1019F000BC0A7330BD002330BE000030973166272B
:101A00008C312300D3005308031D082D0430A62D6C
:101A10005308013A03194F2E033A03194F2E4F2E44
:101A200094314D248C312300D30002305306031D22
:101A30001B2D0530A62D530303194F2E0130C8006E
:101A40004808CE070A304E02031CF52C0530200052
:101A5000D9007330860023308700FF3081004F2E7D
:101A600001309631DC268C31003A03194F2EA32D1C
:101A70009231A6228C310730A72D01308531942573
:101A80008C31003A03194F2E0830A62D2100C501D4
:101A9000C50A0C1122000C112300D101D10AD40176
:101AA00022000E1102302300D2002000580823002B
:101AB000CF000930A62D0230853194258C31003AB3
:101AC00003194F2E22000E150C1521000C15C5010F
:101AD0002300D1010A302000EA2C0B30A72D9C31C5
:101AE000E1248C312300C80002304802031C4F2E31
:101AF0000C30A62D73308600233087000130810022
:101B0000A92D0330210025024430031924020318B3
:101B1000922D02302300D200200058082300CF006D
:101B20000E30A62D14309D2D0030210023026A3086
:101B3000031922020318892DFF302300D200200050
:101B400058082300CF000630A62D0F302000D90002
:101B50004F2E703086002330870043310108013A50
:101B60000319812D033A0319942DA52D2300500844
:101B70000319C42D2100C501C50A0C1122000C1146
:101B80002300D101D10AD4019C31E1248C31023AE5
:101B9000031DDA2D58082300C8004D08C80228305C
:101BA0004802031C4F2E50080319A52D21000C15C7
:101BB000C501902D58082300CD004F2E2300D001E1
:101BC000D00A51080319EF2D5408031DEF2DD10140
:101BD000D40122000C1521000C15C501082E20008F
:101BE00058082300C800C9014908CB00540848021E
:101BF000CA00031CCB034B08803ACC0080304C0257
:101C0000031D042E06304A02031C082E2300D401B3
:101C100020000E1D4F2E22000E114F2E2300D0014A
:101C200020000E194F2E152ED90122000E158C16EC
:101C30004F2E20005908003A0319DA2C013A0319F3
:101C4000E92C033A0319F72C013A0319EE2C073A51
:101C50000319102D013A0319302D033A0319382DB9
:101C6000013A03193D2D0F3A0319462D013A031984
:101C70005B2D033A03196D2D013A03196F2D073AB5
:101C800003197A2D013A0319B62D033A0319DE2DF3
:101C9000013A03190E2E1F3A03194F2E142E0B3042
:101CA00020005902031CDF2F91308600233087006B
:101CB000773001060319B12F8031A0208C3121002B
:101CC0003F08031D9D2EB12F04309F3146278C31D4
:101CD0002000D40003309F3146278C312000D300F0
:101CE0000230D5002100BF01B22E06309F314627B9
:101CF0008C312000D40005306B2E08309F314627F0
:101D00008C312000D40007306B2E0A309F314627DB
:101D10008C312000D40009306B2E0C309F314627C7
:101D20008C312000D4000B306B2E0E309F314627B3
:101D30008C312000D4000D306B2E20005508B93AAC
:101D40000319642E063A0319752E7F3A03197D2E66
:101D5000013A0319852E033A03198D2E013A03190E
:101D6000952EB22E9C31E1248C31023A03197E2F3C
:101D7000B12F5408AB0004309131D5218C312000B3
:101D80005308AB0003309131D5218C31AD2F54086D
:101D9000AB0006309131D5218C3120005308AB00C7
:101DA00005309131D5218C31AD2F5408AB0008306E
:101DB0009131D5218C3120005308AB00073091318F
:101DC000D5218C31AD2F5408AB000A309131D5218B
:101DD0008C3120005308AB0009309131D5218C3172
:101DE000AD2F5408AB000C309131D5218C3120003F
:101DF0005308AB000B309131D5218C31AD2F5408F5
:101E0000AB000E309131D5218C3120005308AB004E
:101E10000D309131D5218C31AD2F803086002330AB
:101E200087005508810081308600233087005408E0
:101E30008100823086002330870053088100E00152
:101E4000E00A2100D501D50AD401D40AC501C50A8A
:101E50000C1122000C112300D101D10A20005808D6
:101E60002300D4005408031D392F0130C80048084E
:101E7000D4070E302000D9002300D501D50AAD2F9C
:101E8000803086002330870055088100813086002D
:101E90002330870054088100823086002330870079
:101EA000530881000230E00002302100D5000230EA
:101EB000D400732F803086002330870055088100BE
:101EC00081308600233087005408810082308600EC
:101ED0002330870053088100E001E00A2100D5018A
:101EE000D50AD401D40A0E1022000E1001302100B0
:101EF000C200200058082100C100262F5508003AD2
:101F00000319AD2F013A0319AD2FB03A03190D2F64
:101F1000033A03190D2F013A0319402F073A031909
:101F20000D2F013A03195A2F033A03190D2F013AC5
:101F300003195A2F0F3A0319B92E023A0319C72E63
:101F4000013A0319D52E073A0319E32E013A031972
:101F5000F12E033A0319FF2EAD2F2000D5012100E9
:101F6000BF01210042080319D12F20005808230087
:101F7000C800C9014908CB002100410823004802DC
:101F8000CA00031CCB034B08803ACC0080304C02C3
:101F9000031DCC2F14304A02031CD12F2100C20193
:101FA0000E140E3020005906031DDF2F003085313E
:101FB00094258C31DF2F0E1DDF2F22000E116400BF
:101FC000200057030319C32C883100208C31003ABC
:101FD000031DC32C9C31E1248C31023A031DC32C18
:101FE0000F305906031DFC2F2100171032009813E3
:101FF000630021001714C32C320098176300C32C10
:10200000003407340E3409341C341B3412341534B4
:1020100038343F3436343134243423342A342D34A4
:10202000703477347E3479346C346B346234653494
:1020300048344F3446344134543453345A345D3484
:10204000E034E734EE34E934FC34FB34F234F53474
:10205000D834DF34D634D134C434C334CA34CD3464
:10206000903497349E3499348C348B348234853454
:10207000A834AF34A634A134B434B334BA34BD3444
:10208000C734C034C934CE34DB34DC34D534D23434
:10209000FF34F834F134F634E334E434ED34EA3424
:1020A000B734B034B934BE34AB34AC34A534A23414
:1020B0008F34883481348634933494349D349A3404
:1020C0002734203429342E343B343C3435343234F4
:1020D0001F34183411341634033404340D340A34E4
:1020E0005734503459345E344B344C3445344234D4
:1020F0006F34683461346634733474347D347A34C4
:1021000089348E3487348034953492349B349C34B3
:10211000B134B634BF34B834AD34AA34A334A434A3
:10212000F934FE34F734F034E534E234EB34EC3493
:10213000C134C634CF34C834DD34DA34D334D43483
:1021400069346E3467346034753472347B347C3473
:10215000513456345F3458344D344A344334443463
:1021600019341E3417341034053402340B340C3453
:10217000213426342F3428343D343A343334343443
:102180004E34493440344734523455345C345B3433
:102190007634713478347F346A346D346434633423
:1021A0003E34393430343734223425342C342B3413
:1021B0000634013408340F341A341D341434133403
:1021C000AE34A934A034A734B234B534BC34BB34F3
:1021D0009634913498349F348A348D3484348334E3
:1021E000DE34D934D034D734C234C534CC34CB34D3
:1021F000E634E134E834EF34FA34FD34F434F334C3
:102200001330210097000800210092112000921144
:10221000121124009D129C0106309D0001309E0089
:1022200001302100CC002000DC0110302100ED0045
:1022300008007C08F1007B08F0000230F20000305A
:10224000F3009E319626913100302000A000A100BD
:102250000030A200A3009E31A226043008007C08B2
:10226000F1007B08F0000130F2000030F3009E31F5
:102270009626913100302000A000A1000030A2007D
:10228000A3009E31A226023008007C08F1007B08E2
:10229000F0000230F2000030F3009E3196269131BA
:1022A00000302000A000A1000030A200A3009E3159
:1022B000A226023008007C08F1007B08F000013003
:1022C000F2000030F3009E3196269131003020005C
:1022D000A000A1000030A200A3009E31A22604307D
:1022E0000800003020000E1801302100C300063025
:1022F00020005906031980290F305906031D0800D4
:1023000021004308031D08000E302000D9000800FA
:1023100020005E08A03E86000130870023001908D7
:1023200081000130F00070082000DE0708305E02F6
:102330000318DE010130F00070082100D00708000A
:1023400020004E08031DA62901300800CE1CAB2931
:1023500002302100B80020004E1DB1292100B80133
:10236000B80A20004E1CB72903302100B800003005
:1023700008002000AB01AB0A2200C318D229431188
:102380003C30860001308700FF3081009C31CF2433
:1023900091319C31D52491319C31D22422004208C4
:1023A0002000AB0020002B080800AC00310095187D
:1023B000D629151715157030920020002C08310011
:1023C0009100940120002B08310093008B135530AD
:1023D0009600AA30960095149518EC2915118B17C4
:1023E000080001302100CC002000DC0121006D0834
:1023F0009D317E2591317F309D314F2591311E30A9
:102400002000AB000A30AC009D319D2591319E31FA
:102410004A2691319C31E7240800003020000C1935
:1024200001302100C7004508031D080006302000C8
:10243000590603191F2A0F305906031D08002100F1
:102440004708031D08004608031D08000E30200041
:10245000D90008000830210052020318472A200042
:102460005F08A83E860001308700010823009A001B
:102470000130F00070082000DF0708305F02031809
:10248000DF010130F00070082100D20708001112AE
:1024900008007B0886007C0887004231403FF0003E
:1024A000413FF1007B0886007C088700403FF20036
:1024B000413FF3009E319626923100302000A0006B
:1024C000A1000030A200A3009E31A2260230080025
:1024D000762A2000D114852A20005115852A200053
:1024E0005114852A03302000D100852A7B088600FC
:1024F0007C0887000108003A0319692A013A031988
:102500006C2A033A03196F2A722A01300800952AAF
:102510002000CE14A42A20004E15A42A20004E1418
:10252000A42A07302000CE00A42A7B0886007C085D
:1025300087000108003A0319882A013A03198B2AF7
:10254000033A03198E2A912A013008008D1BAB2A09
:10255000AB01AC01AF2A7730AB000030AC0071307A
:102560008600233087002B0881008D1ABA2AAD011E
:10257000AE01BE2A7730AD000030AE00723086006A
:10258000233087002D08810008009E3105269231F6
:102590008B31A12392319F317227923191310421E5
:1025A00092319E31412692319131002192319D31FB
:1025B000292592319E31382692319F31D727923189
:1025C0009F31C62792319731212708007B0886006A
:1025D0007C0887004231403FF000413FF1007B081A
:1025E00086007C088700403FF200413FF3009E31A7
:1025F0009626923100302000A000A1000030A200F9
:10260000A3009E31A2267B0886007C088700443107
:10261000010808007B0886007C0887004231403FA3
:10262000F000413FF1007B0886007C088700403FB6
:10263000F200413FF3009E31962693310030200096
:10264000A000A1000030A200A3009E31A2267B08BA
:1026500086007C0887004431010808002200C31569
:102660003B2B9D31012508009C31BD24033008001F
:102670009D31052508002D08FC002C08FB002108D1
:102680008A0020080A009331013A0319382B033AD3
:102690000319312B013A0319312B073A0319342B53
:1026A000382B08002700131D582B9E31DE2693314E
:1026B000961E5D2B9E31EB269331961F622B9E3129
:1026C000F8269331191C672B9F3105279331991CEC
:1026D0006C2B9F3112279331991D712B9F311F272E
:1026E0009331191E08009F312C270800AC00AD0162
:1026F000AD0A2200C318972BC3142000AD0100308F
:102700009D31212593319C31A92493312C08031943
:102710008F2B41308600013087000130942B4130EF
:10272000860001308700023081009C31D8242000CF
:102730002D08080022004310423086000130870037
:1027400002308100A92B9D31012508009D3105250E
:1027500008003108FC003008FB0020308600013002
:1027600087004431413F8A00403F0A009331023ADA
:102770000319A32B013A0319A32BA62B08000A3037
:10278000B6001330B7003B08B9003A08B8009E31D4
:10279000C62693318730B6001230B700EF30B8004C
:1027A0009E316A2693318730B6001230B700EF3081
:1027B000B8009E318B2693318730B6001230B700B7
:1027C0006230B8009E31802693318730B6001230D7
:1027D000B700EE30B8009E31752608000030B60014
:1027E0000030B5000030B4000030B3002B1C002CCA
:1027F0002F08B3073008B43D3108B53D3208B63D67
:102800000130AF35B00DB10DB20D890B012C013087
:10281000AE36AD0CAC0CAB0C890B082C2E082D047D
:102820002C042B04031DF62B3608AE003508AD0032
:102830003408AC003308AB0008000030FB00FC009B
:1028400020308600013087004831413F8A00403FF8
:102850000A0094310230840098308500013F8A00DC
:10286000003F0A0094312000A8004130860001306A
:102870008700280881000030840098308500013FDF
:102880008A00003F0A0094312000A80041308600F1
:102890000130870028088100080021003908031949
:1028A0007A2C9131B9219431013A03197A2C210003
:1028B000B901200051080319742C03305106031D7F
:1028C000632C0430722CD11C682C05302100BA0016
:1028D0002000511D6E2C06302100BA002000511C32
:1028E0007A2C07302100792C21003A03031D7A2C21
:1028F0000230BA0021003A080800BE004F088A31B1
:1029000075229431003A0319872C00300800CE015B
:10291000FE302100D60020003E082100D700200014
:102920003C082100D80020003D082100D900D63005
:102930002000AB000030AC000430AD000030AE0031
:102940009F31EB279431D6302000BA000030BB0015
:102950009331BF2394319D31252501300800BD00FE
:102960004F088A3175229431003A0319B92C00308E
:1029700008003C082100E800E9010130E6000030D1
:10298000E700EA3086000030870002308100200036
:10299000CE01FE302100D60020003D082100D700E6
:1029A000D6302000AB000030AC000230AD0000306B
:1029B000AE009F31EB279431E6302000BA000030A2
:1029C000BB009331BF2394319D3125250130080090
:1029D00020005E08443E860001308700810123000C
:1029E0001D1DFF2C20005E08443E8600013087003C
:1029F000811422005D088A005C080A0094312300DB
:102A00009D1C0F2D20005E08443E8600013087008B
:102A1000011522005B088A005A080A00953120003F
:102A20005E08443E860001308700010803191F2D0F
:102A3000220059088A0058080A009531080091318F
:102A400088210800C0004F088A3175229531003A6C
:102A500003192C2D003008003D082100E800E90191
:102A600020003C08BE00BF013E082100E600200017
:102A70003F082100E700EA3086000030870002307E
:102A800081002000CE0140082100EB00EB30200047
:102A9000AB000030AC000130AD000030AE009F3123
:102AA000EB279531E6302000BA000030BB009331AF
:102AB000BF2395319D31252501300800C0004F0806
:102AC0008A3175229531003A0319682D00300800CB
:102AD0003D082100E800E90120003C08BE00BF01DC
:102AE0003E082100E60020003F082100E700EA3010
:102AF000860000308700043081002000CE014008AD
:102B00002100EB00EB302000AB000030AC000130C6
:102B1000AD000030AE009F31EB279531E63020004C
:102B2000BA000030BB009331BF2395319D3125257C
:102B3000013008002000AC009C31DE2495312000DB
:102B40002C08033E8600870101089F3162279531DA
:102B500020002C08023E8600870101089F31622771
:102B6000953120002C08860087012C0A84008501FD
:102B700000089F31622795310106031DD02D2000EA
:102B80002C0886008701433FD5002C08860087016A
:102B9000423FD4002C0886008701413FD300D32D4B
:102BA00001302000D50001302100BF0008009C3119
:102BB000BA249531FD0020308600013087005D3158
:102BC000403F8400413F85007D08800001302200A5
:102BD000BD070030BE3D0130BF020030C03B3F08A2
:102BE00040040319F72D9C31F52405300800C31566
:102BF000FF2D9D31112508009D310D2508002D0860
:102C0000FC002C08FB0021088A0020080A009631ED
:102C1000013A0319FC2D033A0319F92D013A03195E
:102C2000F92D073A0319FC2DFC2D080000309F31C7
:102C3000462796312100ED006D0A031D6D08031D26
:102C4000322E10302000AB0000309131D52196316A
:102C5000AA302000AB0001309131D52196311030DF
:102C60002100ED0030309F31462796312000AD0025
:102C70002D0A031D422EAB0130309131D5212000A9
:102C8000D701080077302D06031D492ED701D70A3A
:102C9000080088302D06031D3B2EAB0130309131EA
:102CA000D52102302000D70008002E082D042C0466
:102CB0002B0403198E2EB401B40AAE1B6B2E013007
:102CC000AB35AC0DAD0DAE0D890B602E0130B300F0
:102CD0003308B4075D2E2E083202031D792E2D080D
:102CE0003102031D792E2C083002031D792E2B088A
:102CF0002F02031C832E2B08AF022C08B03B2D089B
:102D0000B13B2E08B23B0130AE36AD0CAC0CAB0C77
:102D1000890B842E0130B402031D6B2E3208AE00E5
:102D20003108AD003008AC002F08AB000800BD0032
:102D300021003B088A3175229631BE003E08031DF2
:102D4000AA2EB22E03302100BA0008000430210060
:102D5000BA0008003E08013A0319A22E033A0319EB
:102D6000A62EA62E3C082100E800E9010130E6006D
:102D70000030E700EA308600003087000230810032
:102D8000B901B90ABA01BA0A2000D1013D30AB003D
:102D90000030AC000130AD000030AE009F31EB27B9
:102DA0009631E6302000BA000030BB0088310520A3
:102DB00096319D3125250800AD002D080319062FF9
:102DC0009131B9219631003A0319E82E00300800FC
:102DD0009C31E42496311A303D0091000E303C00C5
:102DE000A0001B303D0090000C303C00A1001830CA
:102DF0003D009E0001303C009D0019303D009C00CC
:102E00003C009E019131F12196311F2F9C31E42429
:102E100018303D00910001303C00A00019303D0009
:102E200090003C00A1011A303D009E000E303C0095
:102E30009D001B303D009C000C303C009E0001308A
:102E4000080021009112E8302000AB001430AC00E3
:102E50009D31BD259731210011122A302000AB0091
:102E60001230AC009D31C5259731083023009F00FA
:102E700090309D0004309E0040309B0003309C0049
:102E80009B302000AB001C30AC009D31AD2597314C
:102E9000ED302000AB001C30AC009D31B5259731E2
:102EA000AB302000AB001C30AC009D31A5252100CB
:102EB000CF01D3012000DF0108302100D200200023
:102EC000DE012100D101D00191160800BF0054306D
:102ED0008A3175229731C0004008031D762F812F5B
:102EE0000330732F04302100BA007E2F4008013ACE
:102EF0000319702F033A0319722F722F2000400814
:102F000008003E082100E90020003D082100E800FB
:102F10000130E6000030E700EA308600003087002C
:102F200002308100B901B90ABA01BA0A2000D10100
:102F30003F082100EC00EC302000AB000030AC007A
:102F40000130AD000030AE009F31EB279731E63005
:102F50002000BA000030BB008831052097319D3138
:102F6000252508009C31C62497312000DD00210072
:102F70004C080319C12F20005D08DC002100CC01A2
:102F80000800803020005C020318E32F20305C0230
:102F9000031CFA2F31009518CA2F1517151570301C
:102FA000920020005C0831009100940120005D082F
:102FB000310093008B1355309600AA30960095147B
:102FC00015118B17FA2FA0305C02031CFA2F5C0836
:102FD000F000F101F030F2002230F30070087207C7
:102FE000F4007108733DF5007408860075088700C9
:102FF0005D0881000130F00070082000DC07080047
:103000005B341D3485341D3462341D341E34093460
:10301000D73415343D341D342E341334F9341C3474
:10302000FD341C3401341D3405341D3409341D3481
:103030000D341D3411341D3469341D349A34133465
:0430400002342434FE
:103936000800080008000800080008000800080041
:103946000800080001300800053008001F150800AF
:1039560091318821080024009614080024001615C9
:10396600080020001F1108002400961508002400F6
:103976001108080020009115080020009111080088
:103986008731A62708002400190808002000921194
:10399600080024001D1608002000911108002400CC
:1039A6009512080021009111080024001614080041
:1039B6002100911508002100B201080020005008DE
:1039C60008009F31392708002100921508002000C1
:1039D6009717080023001D121D16080024009616CE
:1039E6001616080024009612161608009C31AE24FE
:1039F600013008009C31AE24023008009C31AE2410
:103A0600013008009C31B124003008009C31F524B7
:103A1600053008009C31F1240A3008009C31F1245D
:103A2600093008001C0C890C0139080024001C0808
:103A36000139080091109E3154260800AB002B086E
:103A46009D0008000030933176230800A230220042
:103A560097000800F0007008240091000800F000AC
:103A660070082400990008002400160E890C890CA1
:103A760001390800220043109C31B72404300800A5
:103A860003101E1F03140030093D08000130F0002A
:103A960070082000D80708002000AB002B35240052
:103AA6009B00080003109D1C03140030093D08000C
:103AB6002200C310C2019C31B4240E30080022003B
:103AC60043143C359D312D25033008002200C310D8
:103AD600C2019C31B4240E300800031024009C1E41
:103AE60003140030093D0800031024001C1C0314B5
:103AF6000030093D08002000AB002B08FE392400E9
:103B06009A0008002200431403143C0D9D312D2514
:103B1600053008002C082100B10020002B082100E8
:103B2600B00008002C082200D50020002B08220037
:103B3600D40008002C082100AD0020002B0821002D
:103B4600AC0008002C082200D90020002B08220017
:103B5600D80008002C082200DD0020002B082200D7
:103B6600DC0008002C082200DB0020002B082200C5
:103B7600DA0008002C082200DF0020002B082200B3
:103B8600DE0008002C082200E10020002B0822009D
:103B9600E00008002C082200EF0020002B0822007D
:103BA600EE0008002C082200ED0020002B08220061
:103BB600EC0008002C082200EB0020002B08220055
:103BC600EA0008002C082200E90020002B08220049
:103BD600E80008002C082200E70020002B0822003D
:103BE600E60008002C082200E50020002B08220031
:103BF600E40008002C082200E30020002B08220025
:103C0600E2000800320091019201930194019501AE
:103C1600960108002C082200D70020002B0822005D
:103C2600D60008001C082000AC0021001B0820005C
:103C3600AB000800003020008E180130D60001309D
:103C46002100C8000800031020000E1E03140030D7
:103C560003180130DB000800AB002B082100BB0075
:103C6600BA01B9012000D1010800E33021009E000D
:103C76009F019B019C0101309D00080060303200CD
:103C860099009B019D0107309F009E0108002400BA
:103C96009D1A08009C0106309D0001309E009D166D
:103CA60008002200540855040319080055088A0024
:103CB60054080A009E3108002400951A0800940151
:103CC6000830950096014F30920095160800370887
:103CD600AC003608AB003808AD00AE0102308931C1
:103CE600C82108003708AC003608AB003808AD001C
:103CF600AE0104308931C82108003708AC00360807
:103D0600AB003808AD00AE0101308931C82108008A
:103D16003708AC003608AB003808AD00AE010330FA
:103D26008931C8210800C31D08007108BE0070084B
:103D3600BD007308C0007208BF00C3110800210847
:103D4600F1002008F0002308F3002208F2000030FA
:103D5600893172210800F0009C31C6249E31210071
:103D6600CD007008031908000130CC00080090123D
:103D76002200560857040319080057088A005608F7
:103D86000A009E3108003708AC003608AB00390837
:103D9600AE003808AD0000308931C8210800640043
:103DA600800101310130FE020030FF3B7F087E04B6
:103DB60003190034D32E22006E086F040319E82E6F
:103DC6006F088A006E080A009E312700131108004A
:103DD60022006C086D040319F52E6D088A006C0824
:103DE6000A009E3127009612080022006A086B041A
:103DF6000319022F6B088A006A080A009F31270000
:103E06009613080022006808690403190F2F690831
:103E16008A0068080A009F3127001910080022004E
:103E26006608670403191C2F67088A0066080A00DB
:103E36009F312700991008002200640865040319C1
:103E4600292F65088A0064080A009F312700991106
:103E560008002200620863040319362F63088A00EB
:103E660062080A009F3127001912080021009211EA
:103E760020009211121124009D129C0106309D0013
:103E860001309E0008002000AB003100151770308D
:103E9600920020002B083100910015141308080029
:103EA600AC002C08AB00AB0DAB0D21001D082000AB
:103EB6002B0603392B0621009D001D140800AB00BC
:103EC6002100320820002B06003E840090300318A3
:103ED600013E850000082100B200320808002000DB
:103EE600E2012100EF01EF0A0230EE002400940106
:103EF6000830950096014F30920095120800200078
:103F06008D1A882FF001F1018C2F7730F0000030E8
:103F1600F1007230860023308700700881000800A7
:103F260020008D1B992FF001F1019D2F7730F000B5
:103F36000030F10071308600233087007008810060
:103F4600080020008E1DAE2F923086002330870099
:103F5600FF308100080092308600233087007730DA
:103F6600810008002000AB002B08CF00CE01210005
:103F7600B601B501B7012000D0012100B801B30197
:103F86002000DA010800FF309E009D0191102100FB
:103F96009114A4302000AB001C30AC009D31952557
:103FA600233020009F0008004D302000980030305C
:103FB60096009501901221009016A3302000AB00C8
:103FC6001C30AC009E310D26803020009700080082
:103FD6002200C31D080020002C082200BE0020007D
:103FE6002B082200BD0020002E082200C000200061
:0A3FF6002D082200BF00C3110800CF
:020000040001F9
:08000000FF3FFF3FFF3FFF3F00
:08000E008C3FD53FFF3FFF3F8F
:00000001FF
