:10000000803164281F1508007E1480312100901E65
:1000100010282000901E10289D31C02580316228B4
:100020002100101E1A282000101E1A289231372293
:10003000803162280B1F62282100111D2928200011
:10004000111D292821002D088A002C080A00803162
:100050006228210091192000911922282100121DE7
:100060003B282000121D3B28210029088A0028086F
:100070000A00803162282100921920009219342848
:100080002100111E4D282000111E4D28220061085C
:100090008A0060080A00803162282100911E5A28D7
:1000A0002000911E5A2822005F088A005E080A007C
:1000B000803162282100911C62282000911C622856
:1000C0009C3119247E10090080316628703084002C
:1000D000233085008030FE000030FF009D31D825A0
:1000E000803153308400003085001230FE00003033
:1000F000FF009D31D8258031A0308400003085007C
:100100004D30FE000030FF009D31D8258031203079
:100110008400013085003830FE000030FF009D3142
:10012000D8258031A0308400013085002830FE00C1
:100130000030FF009D31D8257E1020008B31BB2B75
:10014000C2013F2D1330B20004303002031CAC2832
:100150000230B3001730F92CB301B30AE42D10308C
:100160002000BC00D430BD00393094316924803186
:10017000003A0319C0282100B101B10A0230F92C5C
:100180000130AC2B9F31AC278031013A0319E42DAB
:100190002100B1019F3193278031003A031DD828F7
:1001A00001302000C10041082100B007B201E42D58
:1001B0002100B0010F30B200D41FE6287F302000AC
:1001C000C10041082100D4050330B200580A0319C8
:1001D000ED28FF30D8000330B200590A0319F42883
:1001E000FF30D9000330B2005A0A0319FB28FF3050
:1001F000DA000330B2005B0A03190229FF30DB008A
:100200000330B2005C0803190829DC010330B20096
:100210005D0803190E29DD010330B200601DE42DD5
:10022000FB302000C10041082100E0050330F92C1B
:1002300010302000BC00D430BD0039309431A524EA
:100240008031003A0319E42D2100B101B10A0430D4
:10025000F92C9F31AC278031013A0319E42D21009C
:10026000B1019F3193278031003A0319D028210032
:10027000B0010930AC2BD4302000BC0006309331E3
:10028000BA238031003A03194A292100B101B10A89
:100290000630F92C0530AC2B9F31AC278031013A68
:1002A0000319E42D2100B1019F3193278031003AD9
:1002B0000319D0282100B0010130B200D4184A2916
:1002C000E42D10302000BC00D430BD003830943113
:1002D00069248031003A031972292100B101B10A61
:1002E0000C30F92C0B30AC2B9F31AC278031013A0C
:1002F0000319E42D2100B1019F3193278031003A89
:100300000319D0282100B0010130B200630A03199B
:100310008D29FF30E3000D30F92C02302000DF0082
:10032000E42D10302000BC00D430BD0038309431B2
:10033000A5248031003A0319E42D2100B101B10A4E
:100340000E30F92C9F31AC278031013A0319E42D8E
:100350002100B1019F3193278031003A0319D02841
:100360002100B0010530B2008D29D4302000BC003E
:1003700006309331BA238031003A0319392921001C
:10038000B101B10A0A30F92C9F31AC278031013A12
:100390000319E42D2100B1019F3193278031003AE8
:1003A0000319D0282100B0010F30B200D418392928
:1003B000E42D10302000BC00D430BD003A30943120
:1003C00069248031003A0319EA292100B101B10AF8
:1003D0001030F92C0F30AC2B9F31AC278031013A13
:1003E0000319E42D2100B1019F3193278031003A98
:1003F0000319D0282100B0011930B20054030319A9
:10040000E42D0130D4001130F92C10302000BC0054
:10041000D430BD003A309431A5248031003A03191C
:10042000E42D2100B101B10A1230F92C9F31AC2723
:100430008031013A0319E42D2100B1019F31932746
:100440008031003A0319D0282100B0010730AC2BCD
:100450003C302000BC002830BD00003093318823A0
:100460008031003A0319E42D2100B101B10A1430A2
:10047000F92C9F31AC278031013A0319E42D21007A
:10048000B1019F3193278031003A0319D028210010
:10049000B0011730B200A001A101E42D3C302000D2
:1004A000BC002830BD000030933188238031003AF1
:1004B0000319E42D2100B101B10A1630F92C392AB3
:1004C000200060080319962A21002F08031D7C2AAA
:1004D0009C315A248031003A0319942AAF01AF0AA3
:1004E00004309E31682680310D30890B752A00005A
:1004F0009B31E1238031942A9C315A248031003A87
:100500000319942A9C31AA24803102302C02EE3047
:1005100003192B02031C922A0F302100B200200085
:10052000C201C20A2100AF010330992A2100AF01A4
:100530000230B30020005F03031DE42D03302100CF
:10054000330603197229E42DD4302000BC00063094
:100550009331BA238031003A0319262A2100B101D0
:10056000B10A0830F92C9F31AC278031013A0319C8
:10057000E42D2100B1019F3193278031003A031906
:10058000D0282100B0011930B200D418262AE42D59
:100590002000BC01BC0ABD01BD0A00309331882394
:1005A0008031003A0319E42D2100B101B10A1A305B
:1005B000F92C9F31AC278031013A0319E42D210039
:1005C000B1019F3193278031003A0319D0282100CF
:1005D000B0011B30F92C40302000BC004030BD0081
:1005E0000030933188238031003A0319E42D210033
:1005F000B101B10A1C30F92C9F31AC278031013A8E
:100600000319E42D2100B1019F3193278031003A75
:100610000319D0282100B0011D30F92C3C302000F6
:10062000BC003C30BD000030933188238031003A5B
:100630000319E42D2100B101B10A1E30F92C9F31BC
:10064000AC278031013A0319E42D2100B1019F311B
:1006500093278031003A0319D0282100B0011F30C0
:100660004A2A20006003031D372B21309C2C0130C7
:100670002100A0070030A13D013021029030031974
:100680002002031CE42DA001A101D4302000BC00F5
:1006900006309331BA238031003A0319E42D21004A
:1006A000B101B10A2030F92C9F31AC278031013AD9
:1006B0000319E42D2100B1019F3193278031003AC5
:1006C0000319D0282100B001541E6A2B2130B2003A
:1006D0000430B300541C6E2B1F30F92C1330F92C4E
:1006E00010302000BC00D430BD00F83094316924B3
:1006F0008031003A0319812B2100B101B10A223067
:10070000F92C2130AC2B9F31AC278031013A0319F1
:10071000E42D2100B1019F3193278031003A031964
:10072000D0282100B0012330B200D43094312D24E0
:100730008031E42D10302000BC00D430BD00FB30EF
:10074000943169248031003A0319AB2B2100B101A7
:10075000B10A2430F92C23302100F92C9F31AC2729
:100760008031013A0319E42D2100B1019F31932713
:100770008031003A0319D0282100B0012630F92C2D
:1007800040302000BC00BD0100309331882380310F
:10079000003A0319E42D2100B101B10A2730F92CE8
:1007A0009F31AC278031013A0319E42D2100B101BA
:1007B0009F3193278031003A0319D0282100B001DE
:1007C0002A30F92C2000BC01BC0ABD010030933155
:1007D00088238031003A0319E42D2100B101B10AC8
:1007E0002B30F92C9F31AC278031013A0319E42DCD
:1007F0002100B1019F3193278031003A0319D0289D
:100800002100B0012830F92C40302000BC004030DD
:10081000BD000030933188238031003A0319E42D64
:100820002100B101B10A2930F92C9F31AC27803168
:10083000013A0319E42D2100B1019F319327803142
:10084000003A0319D0282100B0012530F92C2C30B2
:10085000B200D43087319E278031E42D1030200043
:10086000BC00D430BD00F8309431A5248031003A6A
:100870000319E42D2100B101B10A2D30F92C9F316B
:10088000AC278031013A0319E42D2100B1019F31D9
:1008900093278031003A0319D0282100B0012E306F
:1008A000F92C10302000BC00D430BD00FB30943156
:1008B000A5248031003A0319E42D2100B101B10AC9
:1008C0002F30F92C9F31AC278031013A0319E42DE8
:1008D0002100B1019F3193278031003A0319D028BC
:1008E0002100B0013030F92C3C302000BC003C30FD
:1008F000BD000030933188238031003A0319E42D84
:100900002100B101B10A3130F92C9F31AC2780317F
:10091000013A0319E42D2100B1019F319327803161
:10092000003A0319D0282100B00132304A2A2000B1
:100930006003031DA12C34302100B2000430B30049
:10094000E42D01302100A0070030A13D013021023B
:10095000903003192002031CE42DA001A101D43022
:100960002000BC0006309331BA238031003A0319CD
:10097000E42D2100B101B10A3330F92C9F31AC27AD
:100980008031013A0319E42D2100B1019F319327F1
:100990008031003A0319D0282100B001541ED42C14
:1009A0003430B2000430B300541C6E2B3230F92CBA
:1009B00040302000BC00BD010030933188238031DD
:1009C000003A0319E42D2100B101B10A3530F92CA8
:1009D0009F31AC278031013A0319E42D2100B10188
:1009E0009F3193278031003A0319D0282100B001AC
:1009F0001930B200E42D200060080319312D2100C8
:100A00002F08031D172D9C315A248031003A0319F9
:100A10002F2DAF01AF0A04309E31682680310D3092
:100A2000890B102D00009B31E12380312F2D9C314B
:100A30005A248031003A03192F2D9C31AA24803189
:100A400002302C02EE3003192B02031C2D2D19301D
:100A50002100B2002000C201C20A2100AF01033010
:100A6000342D2100AF010230B30020005F03031DCD
:100A7000E42D023021003306031DC028E42D21009F
:100A80003208003A0319A228013A0319AF28033AA1
:100A90000319C228013A03191829073A0319292909
:100AA000013A03193B29033A03194C29013A031966
:100AB000A42A0F3A0319B32A013A0319B529033AB4
:100AC0000319C429013A03196129073A0319742942
:100AD000013A03199129033A0319A229013A03198A
:100AE000D9291F3A0319EC29013A0319052A033AB7
:100AF0000319162A013A0319282A073A0319392A31
:100B0000013A03194E2A033A03195F2A013A0319DD
:100B1000602A0E3A0319C82A033A0319D92A013A5E
:100B20000319EB2A073A0319FC2A013A03190E2B81
:100B3000033A03191F2B013A0319312B3F3A0319CA
:100B4000542B013A0319702B033A0319832B013AF2
:100B500003199A2B073A0319AE2B013A0319272CD4
:100B6000033A0319C02B013A0319D02B0F3A03198A
:100B7000042C013A0319152C033A0319E22B013A0C
:100B80000319F22B073A03192E2C013A03193F2CB3
:100B9000033A0319512C013A0319622C1F3A031925
:100BA000742C013A0319852C033A0319972C013A46
:100BB0000319BE2C073A0319D82C013A0319E82C63
:100BC000033A0319FB2CE42D20004208080093305F
:100BD00086002330870077300106031D0C2E20008D
:100BE0005F08031DFB2D0130DF007730AB00803044
:100BF0009F31E4278531023020005F06031D182E47
:100C000093308600233087008101DF01AB01803003
:100C10009F31E4278531182E9330860023308700DA
:100C200001080319182E93308600233087008101B4
:100C300090308600233087000108031D242E2000F9
:100C40008C1A242E22008C169030860023308700C8
:100C500077300106031D312E20008C1E312E22001C
:100C60008C12200056080319832E933158238531A6
:100C70002000C400692E21006B082000AB00023068
:100C80009F31E42785312000D60121003B0803195C
:100C90004B2EBB01832E013096312C2685310E3030
:100CA000662EFF302100EB006B082000AB00023005
:100CB0009F31E42785312000D60121003B08031D28
:100CC000492E013096312C26853106302000DE0079
:100CD000832E4408003A0319512E013A0319832E3A
:100CE000033A03193B2E013A0319512E073A03190F
:100CF000512E013A0319512E033A0319512E013A8C
:100D00000319512E832E210042080319A12E200021
:100D10005D08BF00C0014008C2002100400820005B
:100D20003F02C100031CC2034208803AC300803066
:100D30004302031D9D2E05304102031CA12E2100FC
:100D4000C201210044080319080020005D082100A9
:100D5000C000C201C20A20005B0823005706031925
:100D6000BD2E053021003A020318C62E01302000A6
:100D7000BF003F082100BA0708002100BA01200087
:100D80005B082300D7002100C401080020005B0895
:100D90000319EC2E0E305E06031DD62E2100C40171
:100DA000BA0120005B082300D70008005608031D85
:100DB000012F003096312C268531EB302000BC000D
:100DC000FF309531A22585312000D601D60A2100B9
:100DD000BB0110302000002F56080319F22E21000D
:100DE000BB01BB0A0C3020005E060319FF2E0E303B
:100DF0005E060319FF2E10305E06031D012F0F3013
:100E0000DE002100C401BA0120005B082300D700E6
:100E1000080022008C018D018E01173021008C000A
:100E2000F0308D00FB308E00C03023008E008D012D
:100E300010308C00503024008D0004308C001B30AA
:100E40008E0025008C018D018E01373026008C002C
:100E5000A0308D00FF308E003F3027008C00F03036
:100E60008D00FF308E001311121511159612961376
:100E7000951695179416941719109910991119121F
:100E80001814981498151816171497149715171600
:100E90009A302000AB001B30AC009C31DA24873143
:100EA0009B302000AB001B30AC009C31E22487312A
:100EB0009C302000AB001B30AC009C31EA24873111
:100EC0009D302000AB001B30AC009C31F2248731F8
:100ED0009E302000AB001B30AC009C31FA248731DF
:100EE0009F302000AB001B30AC009D3102258731C4
:100EF000A0302000AB001B30AC009D310A25210042
:100F0000101615303C00A40014303D00A3001A3028
:100F100091000E303C00A0001B303D0090000C30D2
:100F20003C00A10018303D009E0001303C009D00B7
:100F300019303D009C003C009E0108002000AC00E0
:100F40005A03031DA92F2C08073E86008701443051
:100F5000C02FB1305A02031CB12FC4305A02031CF7
:100F6000BB2F02305A060319BB2F2C08073E860000
:100F700087014330C02F2C08073E8600870141308F
:100F8000810002305A060319D02F2C08053E860036
:100F9000870181012C08063E860087018101DC2F34
:100FA0002C08053E86008701580881002C08063E63
:100FB00086008701590881009B31E4238731200096
:100FC0002C08073E8600870101089E31782687316C
:100FD00020002C08063E8600870101089E317826F5
:100FE000873120002C08043E860087012C08053E2E
:100FF0008400850100089E317826810008000800E1
:1010000008008D1B0628AB01AC010A287730AB0025
:101010000030AC0071308600233087002B0881003F
:101020008D1A1528AD01AE0119287730AD000030BA
:10103000AE0072308600233087002D088100080042
:101040002000AF012F08703EAD00AE012330AE3D51
:101050002D0886002E088700FF3081000130AD008A
:101060002D08AF0780302F02031C22287030860025
:10107000233087005530C03F9030860023308700F2
:10108000810188308600233087003030810089302C
:10109000860023308700323081008A30860023307A
:1010A0008700373081002100D301D201D101803087
:1010B0009E314C2688312000AD00933086002330CD
:1010C00087002D0881009330860023308700010AB5
:1010D000031D080093308600233087008101AB0197
:1010E00080309F31E4270800FA007008710403196A
:1010F000A0287A08F400F501F435F50D2030F6004B
:101100000130F7007408760786007508773D870080
:101110007008C03F7108C13F7A08F400F501F4354A
:10112000F50D2C30F6000130F700740876078600C4
:101130007508773D87007208C03F7308C13F0800FB
:10114000A130F4001B30F5007A08F600F701F635FF
:10115000F70D2030F8000130F90076087807860096
:101160007708793D87007408C03F7508C13F7A0849
:10117000F400F501F435F50D2C30F6000130F700E0
:101180007408760786007508773D87000030C03FF9
:10119000C13F0800B5002B082C040319F6283508B8
:1011A000AF00B001AF35B00D2030B1000130B2005A
:1011B0002F08310786003008323D87002B08C03FDA
:1011C0002C08C13F3508AF00B001AF35B00D2C3051
:1011D000B1000130B2002F08310786003008323DDF
:1011E00087002D08C03F2E08C13F0800A130AF0086
:1011F0001B30B0003508B100B201B135B20D20305E
:10120000B3000130B4003108330786003208343DA2
:1012100087002F08C03F3008C13F3508AF00B0013C
:10122000AF35B00D2C30B1000130B2002F083107BE
:1012300086003008323D87000030C03FC13F0800C3
:101240009B31C62389319C3175248931003A0319B9
:1012500033299C3111248931003A03193129013095
:101260003C2902303C299C3111248931003A031970
:101270003B2903303C2904302100C8006629003096
:101280009D31B42589319C317C248931003A031980
:1012900074298A3128228931742901309D31B4257D
:1012A000893174299C317C248931003A03197429CD
:1012B0009C314824893146299C3115248931003AD2
:1012C000031974299631BE26893174294808013AD8
:1012D00003193F29033A03194D29013A03195229E9
:1012E000073A03195C2974299B31C923080020009F
:1012F000AD00AE01AE0A22004319CB293C30860076
:101300000130870020002D0881002200C310431502
:10131000431041308600013087000E3081000130DB
:10132000BB00F430BA00C315A130A0001B30A100EF
:10133000AC01AD011B30A300A130A200AE01AF0192
:101340001B30A500A130A400B001B1011B30A700E3
:10135000A130A600B201B3011B30A900A330A80040
:10136000B401B501C0302000AB001B30AC009C3193
:10137000922489319B31CC2389319D316525893176
:101380009B31D82389312000AE012830AB001330C7
:10139000AC009C319A2420002E0808009B31BD230C
:1013A00089312200431CE0299C313C248931003AD8
:1013B0000319E02941308600013087000F30810099
:1013C000220043180C2A9C313C248931003A03192D
:1013D0000C2A220041082000A800A901A835A90D67
:1013E0000030280784001830293D80388500013FEF
:1013F0008A00003F0A0089312000AA00413086009F
:10140000013087002A0881000A3022004106031DAE
:1014100008009C3160240800220041082000A80038
:10142000A901A835A90D0030280784001830293DEE
:1014300080388500013F8A00003F0A008A31200081
:10144000AA0041308600013087002A088100080088
:1014500080302000610203183B2A310015177030DC
:1014600092002000610831009100151413089C318E
:1014700032248A317B2A90306106031D812A2100A3
:1014800053080319812A0130D302031D812A7030C9
:10149000860023308700503101089C3132248A3184
:1014A0008030762A210052080319862A0130D202A0
:1014B000031D862A703086002330870051310108D1
:1014C0009C3132248A318130762A21005108031957
:1014D0008B2A0130D102031D8B2A70308600233005
:1014E0008700523101089C3132248230860023303B
:1014F0008700FF3081000130F10071082000E10712
:1015000008009130200061060319522A9230200011
:1015100061060319652A20006108F100F201F0302C
:10152000F3002230F4007108730786007208743DDE
:10153000870001089C3132248A317B2A2000C600B2
:10154000AD2AC701BB2AC701C70ABB2A0230AB2A92
:10155000210039082000C700BB2A4608003A0319B9
:10156000A82A013A0319A12A033A0319A32A013A26
:101570000319A62AA82A210038080319A82B9C3190
:101580005A248A31003A03198C2B9C31AA248A31BF
:101590002C08CD002B08CC00752B4D082100A50090
:1015A00020004C082100A40020004C08AB004D088E
:1015B000AC00AD01AE010030B2000030B10011301E
:1015C000B0003F30AF009231F9228A312E08CB00B3
:1015D0002D08CA002C08C9002B08C8000A30CB36D9
:1015E000CA0CC90CC80C890BEF2A4B08BC004A086E
:1015F000BB004908BA004808B9007830BD00233064
:10160000BE0097310C278A31802B4D082100A300A2
:1016100020004C082100A20020004C08AB004D081F
:10162000AC00AD01AE010030B2000030B1000730B7
:10163000B0008C30AF009231F9228A312E08CB00F5
:101640002D08CA002C08C9002B08C8000A30CB3668
:10165000CA0CC90CC80C890B272B4B08BC004A08C4
:10166000BB004908BA004808B9007430BD002330F7
:10167000BE0097310C278A31802B4D082200CD0007
:1016800020004C082200CC0020004C08AB004D0884
:10169000AC00AD01AE010030B2000030B10001304D
:1016A000B0000A30AF009231F9228A312E08CB0007
:1016B0002D08CA002C08C9002B08C8000A30CB36F8
:1016C000CA0CC90CC80C890B5F2B4B08BC004A081C
:1016D000BB004908BA004808B9007C30BD0023307F
:1016E000BE0097310C278A31802B4708003A031936
:1016F000CD2A013A0319052B033A03193D2B802B00
:101700004608031D882B0130C50045082100B90794
:101710002100B801013008000030080017309E3168
:1017200068268A31B42B16309E3168268A31B42B54
:1017300004309E3168268A31B42B17309E316826DA
:101740008A3120004608031DB42B2100B901B42BB7
:1017500020004708003A03198E2B013A0319932BF6
:10176000033A0319982B9D2B2100B801B80A9B312D
:10177000E1238A318C2B2300CE01D201CD01CF0190
:10178000CB01D0012000DA019131AA218B314E30FA
:101790002000AB001C30AC009D311A258B319B31F1
:1017A000EA238B3100300C1901302100C3000030D6
:1017B00020000E1801302100BF00003020008E18DC
:1017C0000130DB005B082300D7002100BA012000B4
:1017D0005B080319EE2B2100C401F12B013021001D
:1017E000C40011302000AB001130AC009C31DA2471
:1017F0008B3164302000AB001F30AC009C31F224F0
:101800008B3122302000AB001D30AC009C31FA241B
:101810008B3188302000AB001E30AC009C31E224BC
:101820008B3199302000AB001E30AC009C31EA2493
:101830008B312B302000AB001D30AC009D310A25D0
:101840008B31AA302000AB001E30AC009D31022548
:101850008B3121000E1424000E1422000C152100DF
:101860000C1522000E158C168B170B1795312025A1
:101870008B31883120208B3155309E31BB268B3106
:1018800036309D3150258B319F31C8278B318531C2
:10189000E7258B31210045030319C82F2300500889
:1018A0000319D22D20005D08CE0023004C08200033
:1018B000CE022300500820004E02031C082E2300F5
:1018C000D001082E02302100450603191E2D0A30D2
:1018D0002300D00020005D082300CC002000DE01A2
:1018E000DE0A082E0330DE002300C901082E003076
:1018F00096312C268B31003A0319082E0230342DF4
:10190000BC01BC0A7330BD002330BE0000309631EC
:1019100072268B312300D1005108031D912C043015
:10192000342D5108013A0319082E033A0319082EE1
:10193000082E933158238B312300D10002305106F9
:10194000031DA42C0530342D51030319082E01303A
:101950002000CE004E082300C9070A304902031CAC
:101960007E2C05302000DE00733086002330870097
:10197000FF308100082E013096312C268B31003A41
:101980000319082E312D883101208B310730352D78
:1019900001308A319E228B31003A0319082E08301B
:1019A000342D2100C101C10A0C1122000C112300A9
:1019B000CE01CE0AD2012000DC01DC0A22000E1189
:1019C00002302300D00020005D082300CC00093045
:1019D000342D02308A319E228B31003A0319082EB1
:1019E00022000E150C1521000C15C1012300CE019B
:1019F0000A302000732C0B30352D9B31E7238B31BF
:101A00002000CE0002304E02031C082E0C30352D73
:101A1000733086002330870001308100372D03307A
:101A2000210025024430031924020318202D02301E
:101A30002300D00020005D082300CC000E30342DA0
:101A400014302B2D0030210023026A3003192202AA
:101A50000318172DFF302300D00020005D0823005D
:101A6000CC000630342D0F302000DE00082E703000
:101A700086002330870043310108013A03190F2DF6
:101A8000033A0319222D332D23004D080319522D3B
:101A90002100C101C10A0C1122000C112300CE014A
:101AA000CE0AD2019B31E7238B31023A031D6B2D05
:101AB00020005D08CE00230048082000CE02283018
:101AC0004E02031C082E23004D080319332D21005C
:101AD0000C15C1011E2D20005D082300C800082E32
:101AE0002300CD01CD0A4E080319812D5208031D94
:101AF000812DCE01D20122000C1521000C15C1014F
:101B00009B2D20005D08CE00CF014F08D10023009F
:101B1000520820004E02D000031CD1035108803A25
:101B2000D20080305202031D972D06305002031C54
:101B30009B2D2300D20120000E1D082EDC01DC0AA3
:101B400022000E11082E2300CD0120000E19AC2D0D
:101B5000DC0122000E158C1623004F080319082EF5
:101B600020005D08CE00CF014F08D10023004B08B4
:101B700020004E02D000031CD1035108803AD2004D
:101B800080305202031DC62D04305002031C082E63
:101B90002300CF01CB011E2DDE01DC0122000E153A
:101BA0008C16082E20005E08003A0319622C013AB8
:101BB0000319722C033A0319802C013A0319772C6C
:101BC000073A0319992C013A0319BB2C033A03195C
:101BD000C32C013A0319C82C0F3A0319D12C013A2E
:101BE0000319E92C033A0319FB2C013A0319FD2CC4
:101BF000073A0319082D013A0319442D033A031932
:101C0000702D013A0319A32D1F3A0319082ECC2D6C
:101C10000B3020005E02031CCF2F56030319CF2F79
:101C20009130860023308700773001060319912F09
:101C30008031A0208B315708031D572E912F04307F
:101C40009E314C268B312000D90003309E314C262A
:101C50008B312000D8000230DA00D7016B2E06301D
:101C60009E314C268B312000D9000530262E0830BD
:101C70009E314C268B312000D9000730262E0A30A9
:101C80009E314C268B312000D9000930262E0C3095
:101C90009E314C268B312000D9000B30262E0E3081
:101CA0009E314C268B312000D9000D30262E5A084B
:101CB000B93A03191F2E063A03192F2E7F3A03193A
:101CC000372E013A03193F2E033A0319472E013AE2
:101CD00003194F2E6B2E9B31E7238B31023A031DE4
:101CE000912F2000570303195F2F912F5908AB0044
:101CF00004309F31E4278B3120005808AB000330BB
:101D00009F31E4278B318E2F5908AB0006309F316D
:101D1000E4278B3120005808AB0005309F31E427C1
:101D20008B318E2F5908AB0008309F31E4278B315F
:101D300020005808AB0007309F31E4278B318E2FED
:101D40005908AB000A309F31E4278B312000580836
:101D5000AB0009309F31E4278B318E2F5908AB003F
:101D60000C309F31E4278B3120005808AB000B303A
:101D70009F31E4278B318E2F5908AB000E309F31F5
:101D8000E4278B3120005808AB000D309F31E42749
:101D90008B318E2F5C08031D8E2F80308600233000
:101DA00087005A0881008130860023308700590857
:101DB000810082308600233087005808810021008E
:101DC000D301D30AD201D20AD101D10AC101C10A79
:101DD0000C1122000C112300CE01CE0A20005D0858
:101DE0002300D2005208031D392F01302000CE00FD
:101DF0004E082300D207392F803086002330870019
:101E00005A088100813086002330870059088100FC
:101E1000823086002330870058088100023021007C
:101E2000D3000230D2000230D1000E1022000E107A
:101E300001302100BE0020005D082100BD00C1016D
:101E4000C10A0C1122000C112300CE01CE0A200081
:101E50005D082300D2005208031D342F01302000FA
:101E6000CE004E082300D20720005C080319422F41
:101E70002300CF01CF0A20005D082300CB000F30E4
:101E80002000432F0E30DE008E2F8030860023305E
:101E900087005A0881008130860023308700590866
:101EA000810082308600233087005808810021009D
:101EB000D301D30AD201D20AD101D10A152F5A086F
:101EC000003A03198E2F013A03198E2FB03A0319E5
:101ED000CA2E033A0319CD2E013A0319FC2E073AF4
:101EE0000319CD2E013A0319452F033A0319CD2EBC
:101EF000013A0319452F0F3A0319762E023A0319B6
:101F0000842E013A0319922E073A0319A02E013AA2
:101F10000319AE2E033A0319BC2E8E2F2000DA01CE
:101F2000D70121003E080319B02F20005D08CE0024
:101F3000CF014F08D10021003D0820004E02D00003
:101F4000031CD1035108803AD20080305202031D95
:101F5000AB2F14305002031CB02F2100BE010E1411
:101F60000E3020005E06031DC22F9B31E7238B310C
:101F7000023A031DC22F00308A319E228B3123008A
:101F8000CA00CF2F2100B8012300CA01CA0ACF2FEF
:101F900020000E1DCF2FDC01DC0A22000E11640090
:101FA000210045030319472C9C3137248B31003A1B
:101FB000031D472C9B31E7238B31023A031D472C2D
:101FC00023004A080319472C0F3020005E06031D2A
:101FD000FA2F23004F08031DFA2F21004208031D8A
:101FE000472C1710F8303200980598136300210031
:101FF0001714472CF8303200980598176300472CC7
:10200000003407340E3409341C341B3412341534B4
:1020100038343F3436343134243423342A342D34A4
:10202000703477347E3479346C346B346234653494
:1020300048344F3446344134543453345A345D3484
:10204000E034E734EE34E934FC34FB34F234F53474
:10205000D834DF34D634D134C434C334CA34CD3464
:10206000903497349E3499348C348B348234853454
:10207000A834AF34A634A134B434B334BA34BD3444
:10208000C734C034C934CE34DB34DC34D534D23434
:10209000FF34F834F134F634E334E434ED34EA3424
:1020A000B734B034B934BE34AB34AC34A534A23414
:1020B0008F34883481348634933494349D349A3404
:1020C0002734203429342E343B343C3435343234F4
:1020D0001F34183411341634033404340D340A34E4
:1020E0005734503459345E344B344C3445344234D4
:1020F0006F34683461346634733474347D347A34C4
:1021000089348E3487348034953492349B349C34B3
:10211000B134B634BF34B834AD34AA34A334A434A3
:10212000F934FE34F734F034E534E234EB34EC3493
:10213000C134C634CF34C834DD34DA34D334D43483
:1021400069346E3467346034753472347B347C3473
:10215000513456345F3458344D344A344334443463
:1021600019341E3417341034053402340B340C3453
:10217000213426342F3428343D343A343334343443
:102180004E34493440344734523455345C345B3433
:102190007634713478347F346A346D346434633423
:1021A0003E34393430343734223425342C342B3413
:1021B0000634013408340F341A341D341434133403
:1021C000AE34A934A034A734B234B534BC34BB34F3
:1021D0009634913498349F348A348D3484348334E3
:1021E000DE34D934D034D734C234C534CC34CB34D3
:1021F000E634E134E834EF34FA34FD34F434F334C3
:10220000FF309E009D01911021009114FF302000AD
:10221000AB000730AC009C319A24233020009F0093
:102220000800003020000C1901302100C3004108D3
:10223000031D0800063020005E06031923290F3015
:102240005E06031D080021004308031D0800420824
:10225000031D08000E302000DE00080008302100B9
:102260004F0203184B2920006408A83E8600013065
:102270008700010823009A000130F0007008200058
:10228000E407083064020318E4010130F00070082C
:102290002100CF070800111208007B0886007C0887
:1022A00087004231403FF000413FF1007B0886004B
:1022B0007C088700403FF200413FF3009D319C25A0
:1022C000913100302000A000A1000030A200A30046
:1022D0009D31A825023008007A292000D5148929CB
:1022E0002000551589292000551489290330200024
:1022F000D50089297B0886007C0887000108003A00
:1023000003196D29013A03197029033A0319732936
:1023100076290130080099292000D314A82920002B
:102320005315A82920005314A82907302000D300F2
:10233000A8297B0886007C0887000108003A031959
:102340008C29013A03198F29033A031992299529F7
:10235000013008009D3112259131873109279131D3
:102360009E31592691319E31F72691319D313D257F
:1023700091319C31292491319C31252491319D3119
:10238000342591319E31CE26913191310021913108
:102390009531E72508007B0886007C0887004231DC
:1023A000403FF000413FF1007B0886007C08870039
:1023B000403FF200413FF3009D319C2591310030B8
:1023C0002000A000A1000030A200A3009D31A8259C
:1023D0007B0886007C0887004431010808007B08E0
:1023E00086007C0887004231403FF000413FF10009
:1023F0007B0886007C088700403FF200413FF300E5
:102400009D319C25913100302000A000A1000030BA
:10241000A200A3009D31A8257B0886007C088700C8
:102420004431010808002200C315202A9B31FD23F6
:1024300008009B31BA23033008009C3101240800B6
:102440002D08FC002C08FB0021088A0020080A0047
:102450009231013A03191D2A033A0319162A013A47
:102460000319162A073A0319192A1D2A08002700FA
:10247000131D3D2A9D31E4259231961E422A9D313D
:10248000F1259231961F472A9D31FE259231191C64
:102490004C2A9E310B269231991C512A9E311826C6
:1024A0009231991D562A9E3125269231191E080017
:1024B0009E3132260800AC00AD01AD0A2200C318DF
:1024C0007C2AC3142000AD0100309C311D249231C0
:1024D0008031022092312C080319742A4130860081
:1024E000013087000130792A4130860001308700B1
:1024F000023081009B31D52320002D0808002200E6
:1025000043104230860001308700023081008E2A5D
:102510009B31FD2308009C31012408003108FC0098
:102520003008FB0020308600013087004431413FF5
:102530008A00403F0A009231023A0319882A013A80
:102540000319882A8B2A0800CB30B6001130B70057
:102550003B08B9003A08B8009D31CC2592316C3067
:10256000B6001130B700EC30B8009D3170259231C3
:102570006C30B6001130B700EF30B8009D318625C1
:1025800092316C30B6001130B700EE30B8009D319A
:102590007B250800EF30B6001130B7003B08B900CA
:1025A0003A08B8009D31CC2592318B30B6001130FD
:1025B000B700EF30B8009D31702592318B30B600F6
:1025C0001130B700EF30B8009D31912592318B303A
:1025D000B6001130B700EC30B8009D31862592313D
:1025E0008B30B6001130B700EE30B8009D317B253E
:1025F00008000030B6000030B5000030B4000030F4
:10260000B3002B1C0B2B2F08B3073008B43D310847
:10261000B53D3208B63D0130AF35B00DB10DB20D4C
:10262000890B0C2B0130AE36AD0CAC0CAB0C890B0E
:10263000132B2E082D042C042B04031D012B36080C
:10264000AE003508AD003408AC003308AB0008001C
:102650000030FB00FC00203086000130870048314C
:10266000413F8A00403F0A00933102308400983095
:102670008500013F8A00003F0A0093312000A80036
:102680004130860001308700280881000030840036
:1026900098308500013F8A00003F0A0093312000F6
:1026A000A80041308600013087002808810008001A
:1026B000210035080319852B9F31AC279331013A4E
:1026C0000319852B2100B5012000550803197F2B24
:1026D00003305506031D6E2B04307D2BD51C732B48
:1026E00005302100B6002000551D792B0630210051
:1026F000B6002000551C852B07302100842B2100BB
:102700003603031D852B0230B60021003608080071
:10271000BE005408893177219331003A0319922B76
:1027200000300800D301FE302100D40020003E0814
:102730002100D50020003C082100D60020003D08E3
:102740002100D700D4302000AB000030AC000430B2
:10275000AD000030AE009E31E2269331D43020002F
:10276000BA000030BB009231CA2293319C3121243F
:1027700001300800BD005408893177219331003AB7
:102780000319C42B003008003C082100E600E701D3
:102790000130E4000030E500E830860000308700BA
:1027A000023081002000D301FE302100D40020003F
:1027B0003D082100D500D4302000AB000030AC0033
:1027C0000230AD000030AE009E31E2269331E4309D
:1027D0002000BA000030BB009231CA2293319C31F4
:1027E00021240130080020006308443E86000130A7
:1027F0008700810123001D1D0A2C20006308443E30
:10280000860001308700811422005D088A005C0880
:102810000A00943123009D1C1A2C20006308443EBA
:102820008600013087000115230056088A005508EC
:102830000A00943120006308443E8600013087007E
:10284000010803192A2C230054088A0053080A009F
:10285000943108009F317B2708002000AC009B3199
:10286000E423943120002C08033E860087010108F0
:102870009E317826943120002C08023E8600870184
:1028800001089E317826943120002C0886008701AB
:102890002C0A8400850100089E31782694310106B7
:1028A000031D652C20002C0886008701433FDA00B9
:1028B0002C0886008701423FD9002C08860087013A
:1028C000413FD8000130D700080001302000DA0075
:1028D0000800C0005408893177219431003A031967
:1028E000732C003008003D082100E600E7012000BD
:1028F0003C08BE00BF013E082100E40020003F0864
:102900002100E500E83086000030870002308100B9
:102910002000D30140082100E900E9302000AB008D
:102920000030AC000130AD000030AE009E31E22638
:102930009431E4302000BA000030BB009231CA224A
:1029400094319C31212401300800C00054088931A1
:1029500077219431003A0319AF2C003008003D086C
:102960002100E600E70120003C08BE00BF013E0850
:102970002100E40020003F082100E500E830860047
:1029800000308700043081002000D301400821007E
:10299000E900E9302000AB000030AC000130AD00B0
:1029A0000030AE009E31E2269431E4302000BA00BF
:1029B0000030BB009231CA2294319C312124013075
:1029C00008009B31B7239431FD0020308600013090
:1029D00087005D31403F8400413F85007D088000D5
:1029E00001302200BD070030BE3D0130BF02003083
:1029F000C03B3F0840040319012D9B31F1230530F2
:102A00000800C315092D9C310D2408009C310924B0
:102A100008002D08FC002C08FB0021088A00200873
:102A20000A009531013A0319062D033A0319032DC3
:102A3000013A0319032D073A0319062D062D080044
:102A400000309E314C2695312100ED006D0A031DAA
:102A50006D08031D3C2D10302000AB0000309F316D
:102A6000E4279531AA302000AB0001309F31E427E4
:102A7000953110302100ED0030309E314C269531DB
:102A80002000AD002D0A031D4C2DAB0130309F31CD
:102A9000E4272100C501080077302D06031D542DC1
:102AA0002100C501C50A080088302D06031D452DEB
:102AB000AB0130309F31E42702302100C50008000F
:102AC0002E082D042C042B040319992DB401B40AEB
:102AD000AE1B762D0130AB35AC0DAD0DAE0D890BB7
:102AE0006B2D0130B3003308B407682D2E08320275
:102AF000031D842D2D083102031D842D2C08300266
:102B0000031D842D2B082F02031C8E2D2B08AF02D2
:102B10002C08B03B2D08B13B2E08B23B0130AE363D
:102B2000AD0CAC0CAB0C890B8F2D0130B402031D26
:102B3000762D3208AE003108AD003008AC002F0809
:102B4000AB000800BD00210037088931772195319D
:102B5000BE003E08031DB52DBD2D03302100B6007B
:102B6000080004302100B60008003E08013A0319AD
:102B7000AD2D033A0319B12DB12D3C082100E6001B
:102B8000E7010130E4000030E500E8308600003065
:102B9000870002308100B501B50AB601B60A2000EF
:102BA000D5013D30AB000030AC000130AD0000304D
:102BB000AE009E31E2269531E4302000BA000030AC
:102BC000BB009231A42295319C31212408002100C0
:102BD0009112F3302000AB001330AC009C31CA24BA
:102BE0009531210011122E302000AB001130AC00C5
:102BF0009C31D2249531083023009F0090309D00F5
:102C000004309E0040309B0003309C00993020002F
:102C1000AB001B30AC009C31BA249531A8302000A9
:102C2000AB001B30AC009C31C2249531A530200094
:102C3000AB001B30AC009C31B2242100CC01D00190
:102C40002000E40108302100CF002000E301210032
:102C5000CE01CD01911608002000AD002D0803190A
:102C6000572E9F31AC279631003A0319392E003088
:102C700008009B31DB2396311A303D0091000E3065
:102C80003C00A0001B303D0090000C303C00A10037
:102C900018303D009E0001303C009D0019303D0081
:102CA0009C003C009E019F31C8279631702E9B31BD
:102CB000DB2318303D00910001303C00A0001930AA
:102CC0003D0090003C00A1011A303D009E000E30F6
:102CD0003C009D001B303D009C000C303C009E00E1
:102CE00001300800BF005430893177219631C0008F
:102CF0004008031D822E8D2E03307F2E04302100CC
:102D0000B6008A2E4008013A03197C2E033A0319B3
:102D10007E2E7E2E2000400808003E082100E7009D
:102D200020003D082100E6000130E4000030E5000D
:102D3000E83086000030870002308100B501B50A16
:102D4000B601B60A2000D5013F082100EA00EA30AA
:102D50002000AB000030AC000130AD000030AE0010
:102D60009E31E2269631E4302000BA000030BB00EC
:102D70009231A42296319C31212408009B31C32337
:102D800096312000E200210049080319CD2E2000D1
:102D90006208E1002100C9010800803020006102C2
:102DA0000318EF2E20306102031C062F3100951806
:102DB000D62E1517151570309200200061083100CD
:102DC0009100940120006208310093008B1355306C
:102DD0009600AA309600951415118B17062FA03077
:102DE0006102031C062F6108F000F101F030F200CF
:102DF0002230F30070087207F4007108733DF5008B
:102E00007408860075088700620881000130F000B0
:102E100070082000E10708000330C4000030AE0055
:102E20000030AD000030AC000A30AB003C08B2000E
:102E30003B08B1003A08B0003908AF009531602571
:102E400097312B08303EBF004408C000C101C01BB1
:102E5000C10340083D07C20041083E3DC30042088F
:102E60008600430887003F08810044080319532F58
:102E70000030AE000030AD000030AC000A30AB00D6
:102E80003C08B2003B08B1003A08B0003908AF0076
:102E900097315A2797312E08BC002D08BB002C080B
:102EA000BA002B08B900FF30BF003F08C407C41B9D
:102EB00008000E2F0030B7000030B6000030B5001B
:102EC0000030B4002E082D042C042B040319A32F6A
:102ED000B801B80AAE1B782F0130AB35AC0DAD0D83
:102EE000AE0D890B6D2F0130B3003308B8076A2F80
:102EF0000130B435B50DB60DB70D890B792F2E08FD
:102F00003202031D8D2F2D083102031D8D2F2C0839
:102F10003002031D8D2F2B082F02031C982F2B0826
:102F2000AF022C08B03B2D08B13B2E08B23B341445
:102F30000130AE36AD0CAC0CAB0C890B992F0130C7
:102F4000B802031D782F3708AE003608AD003508EB
:102F5000AC003408AB0008009C313C249731003AA7
:102F6000031DBC2FD82F9B31F52308009B31F9237B
:102F700008009C310124080022003308FC003208BC
:102F8000FB0020308600013087004631413F8A0037
:102F9000403F0A009731013A0319B92F033A031948
:102FA000B32F013A0319B62F073A0319B92FB92FD6
:102FB000220043103E082000A50022003D0820000A
:102FC000A4002200BD0A0319BE0A200024088600BE
:102FD0002508870001089C312D24973101302200FB
:102FE000BF020030C03B3F084004031DF92F0630EC
:102FF000FA2F03302000A6000030A70026080800A2
:1030000060341C348A341C3467341C34AC341734B8
:10301000E134143442341C3413341234F5341B3488
:10302000F9341B34FD341B3401341C3405341C3496
:1030300009341C340D341C346E341C347F34123487
:0430400002342434FE
:103732000800080008000800080008000800080047
:1037420001300800053008009F317B2708001D1258
:103752001D160800240096140800240016150800FF
:1037620020001F11080024009615080024001108EB
:1037720008002000911508002000911108008931ED
:10378200CE21080024001908080020009211080028
:1037920024001D1608002000911108002400951233
:1037A20008002100911108002400161408002100CD
:1037B200911508009E313F2608002100921508004D
:1037C20021009D1408002100AE01080021003308E9
:1037D2000800200097170800240096161616080005
:1037E20024009612161608009B31AB230130080004
:1037F2009B31AB23023008009B31AB230130080020
:103802009B31AE23003008009B31F12305300800C4
:103812009B31ED230A3008009B31ED23093008006B
:103822001C0C890C0139080024001C08013908000D
:1038320091109D315A250800AB002B089D0008000D
:10384200003092315B220800A2302200970008006B
:103852001330210097000800F00070082400910046
:103862000800F00070082400990008002200430CB0
:10387200890C013908002400160E890C890C0139C3
:103882000800220043109B31B423043008000310C7
:103892001E1F03140030093D08000130F0007008BB
:1038A2002000DD0708002000AB002B3524009B0020
:1038B200080003109D1C03140030093D080022007B
:1038C200C310C2019B31B1230E3008002200431401
:1038D2003C359C312D24033008002200C310C20164
:1038E2009B31B1230E300800031024009C1E0314E8
:1038F2000030093D0800031024001C1C0314003092
:10390200093D08002000AB002B08FE3924009A0074
:1039120008002200431403143C0D9C312D24053071
:1039220008002C082100AD0020002B082100AC006B
:1039320008002C082200D90020002B082200D80001
:1039420008002C082100A90020002B082100A80053
:1039520008001C082000AC0021001B082000AB005E
:1039620008002C082300D40020002B082300D300D9
:1039720008002C082200DD0020002B082200DC00B9
:1039820008002C082300D60020002B082300D500B5
:1039920008002C082200DF0020002B082200DE0095
:1039A20008002C082200E10020002B082200E00081
:1039B20008002C082200EF0020002B082200EE0055
:1039C20008002C082200ED0020002B082200EC0049
:1039D20008002C082200EB0020002B082200EA003D
:1039E20008002C082200E90020002B082200E80031
:1039F20008002C082200E70020002B082200E60025
:103A020008002C082200E50020002B082200E40018
:103A120008002C082200E30020002B082200E2000C
:103A220008003200910192019301940195019601DF
:103A320008002C082200DB0020002B082200DA00FC
:103A42000800003020008E180130DB000130210018
:103A5200C4000800031020000E1E031400300318D7
:103A62000130E0000800E33021009E009F019B012D
:103A72009C0101309D0008006030320099009B01DA
:103A82009D0107309F009E01080024009D1A080036
:103A92009C0106309D0001309E009D16080020000A
:103AA200AB002B082100B700B601B5012000D501FB
:103AB20008002200580859040319080059088A000E
:103AC20058080A009D3108002400951A0800940144
:103AD2000830950096014F3092009516080037087D
:103AE200AC003608AB003808AD00AE0102308831B8
:103AF200CA2008003708AC003608AB003808AD0011
:103B0200AE0104308831CA2008003708AC003608FC
:103B1200AB003808AD00AE0101308831CA20080080
:103B22003708AC003608AB003808AD00AE010330F0
:103B32008831CA200800C31D08007108BE00700841
:103B4200BD007308C0007208BF00C311080021083D
:103B5200F1002008F0002308F3002208F2000030F0
:103B6200883174200800F0009B31C3239D3121006D
:103B7200CA007008031908000130C9000800901239
:103B820022005A085B04031908005B088A005A08DD
:103B92000A009D3108003708AC003608AB0039082E
:103BA200AE003808AD0000308831CA200800640039
:103BB200800101310130FE020030FF3B7F087E04AC
:103BC20003190034D92D22006E086F040319EE2D5B
:103BD2006F088A006E080A009D3127001311080041
:103BE20022006C086D040319FB2D6D088A006C0815
:103BF2000A009D3127009612080022006A086B0411
:103C02000319082E6B088A006A080A009E312700F1
:103C1200961308002200680869040319152E690822
:103C22008A0068080A009E31270019100800220045
:103C3200660867040319222E67088A0066080A00CC
:103C42009E312700991008002200640865040319B8
:103C52002F2E65088A0064080A009E3127009911F8
:103C6200080022006208630403193C2E63088A00DC
:103C720062080A009E3127001912080021009211E1
:103C820020009211121124009D129C0106309D0009
:103C920001309E0008002000AB0031001517703083
:103CA200920020002B08310091001514130808001F
:103CB2002100EC01EF01EF0A0230EE002400940132
:103CC2000830950096014F309200951208002000AE
:103CD200AC002C08AB00AB0DAB0D21001D08200081
:103CE2002B0603392B0621009D001D140800AB0092
:103CF20021002E0820002B06003E8400903003187D
:103D0200013E850000082100AE002E0808002000B8
:103D12008D1A8E2EF001F101922E7730F0000030D4
:103D2200F10072308600233087007008810008009D
:103D320020008D1B9F2EF001F101A32E7730F000A1
:103D42000030F10071308600233087007008810056
:103D5200080020008E1DB42E92308600233087008A
:103D6200FF308100080092308600233087007730D0
:103D7200810008002000AB002B08D400D3012100F1
:103D8200B1012000E0012100B201B301B401B00190
:103D92002000DF012100AF0108004D302000980013
:103DA20030309600950190122100901600302000CC
:103DB200AB000830AC009D311A25803020009700FE
:103DC20008002200C31D080020002C082200BE00AB
:103DD20020002B082200BD0020002E082200C00077
:103DE20020002D082200BF00C311080021009211FB
:103DF20020009211121124009D129C0106309D0098
:103E020001309E0001302100C9002000E101103084
:103E12002100ED0008007C08F1007B08F000023070
:103E2200F2000030F3009D319C259F3100302000CC
:103E3200A000A1000030A200A3009D31A8250430FB
:103E420008007C08F1007B08F0000130F20000302D
:103E5200F3009D319C259F3100302000A000A1007D
:103E62000030A200A3009D31A825023008007C0882
:103E7200F1007B08F0000230F2000030F3009D31C7
:103E82009C259F3100302000A000A1000030A2003C
:103E9200A3009D31A825023008007C08F1007B08B0
:103EA200F0000130F2000030F3009D319C259F317B
:103EB20000302000A000A1000030A200A3009D312C
:103EC200A82504300800003020000E18013021001F
:103ED200BF00063020005E060319732F0F305E0606
:103EE200031D080021003F08031D08000E302000BA
:103EF200DE00080020006308A03E86000130870033
:103F02002300190881000130F00070082000E30747
:103F1200083063020318E3010130F0007008210049
:103F2200CD07080020005308031D992F0130080017
:103F3200D31C9E2F02302100B4002000531DA42F59
:103F42002100B401B40A2000531CAA2F033021001F
:103F5200B400003008002000AB01AB0A2200C318F5
:103F6200C52F43113C30860001308700FF308100AD
:103F72009B31CC239F319B31D2239F319B31CF2365
:103F8200220042082000AB0020002B08080001306C
:103F92002100C9002000E10121006D089C31832429
:103FA2009F317F309C3154249F3120302000AB0060
:103FB2000930AC009C31A2249F319D3146259F31AE
:103FC2009B31DE230800AC0031009518E52F151750
:103FD20015157030920020002C08310091009401D8
:103FE20020002B08310093008B1355309600AA3025
:0E3FF200960095149518FB2F15118B170800DB
:020000040001F9
:08000000FF3FFF3FFF3FFF3F00
:08000E008C3FF53FFF3FFF3F6F
:00000001FF
