:10000000803180280800080080317A082000A00094
:100010007B08A1007C08A2007D08A3007E08A40044
:100020007F08A50021308600223087002100901E25
:1000300020282000901E20289A310F22803172281B
:100040002100101E2A282000101E2A288831AC20EA
:10005000803172280B1F72282100111D39282000C1
:10006000111D392822005B088A005A080A008031D5
:100070007228210091192000911932282100121DA7
:100080004B282000121D4B28220059088A005808CE
:100090000A00803172282100921920009219442808
:1000A0002100111E5D282000111E5D2823004F082D
:1000B0008A004E080A00803172282100911E6A28A9
:1000C0002000911E6A2823004D088A004C080A006F
:1000D000803172282100911C72282000911C722806
:1000E0009A31272220002508FF002408FE0023085B
:1000F000FD002208FC002108FB002008FA0009008E
:1001000080318228F0308400223085000130F401F3
:10011000F5009A311B2280315930F3018400003000
:1001200085000D30F400F5019A311B228031A0309A
:100130008400003085004830F400F5019A311B221C
:10014000803120308400013085004C30F400F5010E
:100150009A311B228031A03084000130850022308A
:10016000F400F5019A311B22200052308600213024
:10017000870081314329003047270130BC00080047
:1001800020008130B0018E317B268031013A031D81
:10019000D3280C26AE0082308E317B2680312000A1
:1001A0002E060319D6282000B001B00A00308E3187
:1001B0007B2680312300E100610A031D6108031DD5
:1001C000E4282000B001B00A2000300803190B29F0
:1001D00010301E000030E9258031AA301E000130A9
:1001E000E9258031FF301E002030E9258031FB30C9
:1001F0001E002130E9258031B3301E002230E92570
:10020000803133301E002330E9258F318227803141
:1002100010302300E10030308E317B268031200009
:10022000AF002F0A031D172900301E002D2977303B
:100230002F06031D1F292100BE01BE0A3529883063
:100240002F060030031D2C291E003030E925803197
:1002500002302100BE0032291E003030E9258031F5
:100260002100BE012000B001B00A200030080319AF
:1002700008000C2680311E008230E92580310130D3
:100280001E008130E92DD701D801D401D501D60156
:100290002100B7019031C0208031F8302000A60045
:1002A0001930A700C0268031C826803100300C19D3
:1002B00001302100BB0035278031003047278031D5
:1002C0003D082300DE0021007030B3012000A600AD
:1002D0000830A700882680318D302000A600083025
:1002E000A700A0268031BB302000A6000030A70068
:1002F000A826803134302000A6001A30A7009026AE
:10030000803108302000A6001030A70098268031E8
:1003100006302000A6001A30A700B82680319F3092
:100320002000A6001A30A700B026803121000E144C
:1003300024000E1422000C1521000C150727803113
:10034000EE010E158C168B170B17C02080316B2712
:100350008031553049268E31022680315726803132
:100360004227803180158400643080009330282734
:100370008031031DDA29BD29DA2920005D08031D1B
:10038000CA29C329CA290130DD0077301E00803018
:10039000E9258031023020005D06031DE329D129C3
:1003A000E3293C278031DD0100301E008030E92543
:1003B0008031E32993304D2780310319E329E12966
:1003C000E3293C27803190304D278031031DF129EE
:1003D000EA29F12920008C1AF129EF29F1292200BC
:1003E0008C16903028278031031DFF29F829FF291A
:1003F00020008C1EFF29FD29FF2922008C122100DC
:100400003A080319162A052A162A22005008210044
:100410002002FE0022005108142780310530031904
:100420007E02031C162A152A162ABA013C08031953
:100430007D2A1B2A7D2A21082200D10021002008C4
:100440002200D00001302100BA003D0823005E06E2
:100450000319352A2C2A352A0530210033020318C6
:100460003D2A332A3D2AB30A7D2A2100B3013D08E3
:100470002300DE002100BC017D2A3D0803195D2A0E
:10048000422A5D2A0C303F06031D4E2A482A4E2A76
:10049000BC01B3013D082300DE007D2A1C2680310B
:1004A0000E30BF002300E001E00A21000C11220001
:1004B0000C11EE01EE0A0E11792A09303F060319DC
:1004C0006F2A632A6F2A0C303F0603196F2A692AA4
:1004D0006F2A0E303F06031D792A6F2A792A0D30C4
:1004E000BF00C401C5011A2780312100C0011C26AC
:1004F00080312100BC01B3014A2A21003E030319C7
:100500008F2D2200520853040319192C540821007E
:100510002002FE00220055082100213BFF0022009E
:1005200053087F02031D962A52087E02031C242CC6
:10053000D201D301242C02303E0603192C2B0A30A1
:100540002200CB26803101303C2B06268031003A38
:100550000319242C02303C2B20008D1BB42AB12A15
:10056000B42AA601A701B72A7730A600A7017130E7
:10057000840023308500260880008D1AC42AC12AF1
:10058000C42AA801A901C72A7730A800A90172309E
:100590008400233085002808800003303C2B013084
:1005A0009D3180258031003A0319242C2227803187
:1005B000000BDC2A0430BF009F31DD278031031D92
:1005C000242C06303D2B2000A601A70121000C1190
:1005D00022000C110E278031EE268031EE01EE0A4A
:1005E0000E110230CB26803105303C2B02309D317C
:1005F00080258031003A0319242C2200EE010E15CB
:1006000022000C1521000C150727803107303C2BE8
:1006100004309D3180258031003A031D062B242CA7
:1006200008303D2B032680312000D00002305002DC
:10063000031C242C09303C2B3D08031D3F2B0D309F
:100640003C2B033022004D02443003194C020318A6
:100650002E2B0230CB2680310C303C2B1430392B22
:10066000023022004B02B13003194A02031C292B2D
:10067000FF30CB2680310A302100BF00242C2227F6
:1006800080310008013A0319212B033A0319302B5A
:100690001F2B20005708031D6B2B03268031023AC5
:1006A000031D762B2000510821002002FE002000AF
:1006B000520814278031283003197E02031C242C91
:1006C0002000570803191F2B22000C1521000C15C0
:1006D000072780312C2BA601A70121000C11220035
:1006E0000C110E278031EE2680314D2B2108200081
:1006F000D200210020082000D100242C2000D701A6
:10070000D70A23005F080319912B22006C086D049F
:10071000031D912B22000C1521000C150727803199
:10072000A22B22006C0821002002FE0022006D088E
:1007300014278031063003197E02031CA22B2200ED
:10074000EC01ED0152278031242C20005608031DB6
:10075000242CD7012200EE010E158C16200058081B
:100760000319C62B540821002002FE002000550862
:1007700014278031043003197E02031CC62B20008D
:100780000C30D801D401D5012100BF002200560849
:1007900021002002FE00220057082100213BFF001B
:1007A0002E307F02E03003197E02031CDE2B1C2654
:1007B00080311A2780312100C001C00A4008031986
:1007C000242C06268031003A0319242C2100803085
:1007D000C00145020318242C2E278031FF00440855
:1007E000F03EFC002230FD01FD3D7C0884007D08C8
:1007F00085007F088000C40AC413C50A242C06267D
:100800008031003A0319242C0C302100BF00220053
:100810000C1521000C1507278031242C0626803169
:10082000003A031D1F2B242CBF012200EE010E15E0
:10083000242C21003F088400103004020318142CDB
:1008400099310435563E82002C268031003A031936
:100850002C2C893123218031083021003F02031CD8
:10086000912D0E303F060319912D913028278031AC
:100870000319662D92312A22803121003408031D8C
:10088000752C662D04308E317B2680312100B60018
:1008900003308E317B2680312100B5000230B70055
:1008A000B4018C2C06308E317B2680312100B600BD
:1008B0000530492C08308E317B2680312100B6006E
:1008C0000730492C0A308E317B2680312100B6005A
:1008D0000930492C0C308E317B2680312100B60046
:1008E0000B30492C572780318C2C3708B93A031923
:1008F000422C063A0319522C7F3A03195A2C013A1A
:100900000319622C033A03196A2C013A0319722C59
:10091000073A0319722C8C2C03268031023A031DEE
:10092000662D340B662D200056080319302D662DD8
:1009300036081E000430E9258031210035081E00EC
:100940000330E9258031FF302100C600632D3608D1
:100950001E000630E9258031210035081E000530D3
:10096000A12C36081E000830E92580312100350809
:100970001E000730A12C36081E000A30E925803100
:10098000210035081E000930A12C36081E000C304D
:10099000E9258031210035081E000B30A12C3608D6
:1009A0000319D62C65303602031C632D22006E0815
:1009B000031D632D80308400233085002100F7263D
:1009C0008031CD01CD0ACC00CB0021082000A7004A
:1009D000210020082000A60021000C1122000C118B
:1009E0000E278031EE2680316C086D040319EC0A65
:1009F0000319ED0A6E0803190A2D2000D801D80A40
:100A0000210021082000D500210020082000D4006A
:100A10000D300B2D0C302100BF00632D02278031DB
:100A2000F7268031CD000330D626803121000C110D
:100A300022000C110E278031EE268031F42C022783
:100A40008031F7268031CD01CD0AD62680312100B4
:100A50000C1122000C110E278031EE268031F42C6F
:100A600021003708003A0319632D013A0319632D59
:100A7000B03A0319D62C033A0319DA2C013A0319B8
:100A80000E2D073A0319DA2C013A03191F2D033AE8
:100A90000319DA2C013A03191F2D0F3A0319982C68
:100AA000023A0319A72C013A0319B12C073A03198A
:100AB000BB2C013A0319C52C033A0319CF2C7B3AFE
:100AC0000319CF2C632D2100B701B4012100380890
:100AD00003197A2D22004E0821002002FE00220078
:100AE0004F0814278031143003197E02031C7A2D1D
:100AF000B8010E140C303F06031D8A2D03268031E9
:100B0000023A031D8A2D00309D318025803120005E
:100B1000D300912DB1012000D301D30A912D52278A
:100B200080316400210046080319A12D460BA02D39
:100B3000C6010C2680311E008230E9258031A12DAE
:100B4000C60321003E030319B62941268031003A2D
:100B5000031DE32D46268031003A031DE32D0326B5
:100B60008031023A031DE32D200053080319E32DC1
:100B700006268031003A0319E32D0C3021003F0690
:100B80000319CA2D0D303F060319CA2D0A303F063E
:100B9000031DE32D3A08031DE32D3C08031DE32D3F
:100BA0000D303F06031DE32D20005808031DE32DE3
:100BB000210046080319E32DC6010C2680311E00D2
:100BC0008230E9258031F8303200980598176300AB
:100BD000B6294131FF3F31009518EB2D151715153A
:100BE000703092007F3F910094017E3F93008B1301
:100BF00055309600AA30960095149518FD2D1511C4
:100C00008B177E3108002100300808001A302000C0
:100C100059060319013400342000A601A701270852
:100C20008E317B2680312000A6078030A70A27025C
:100C3000031C0F2E260808002100AB012000D9015B
:100C40002100A901A801AA012000DA012100A701C1
:100C5000A601A301A30A080021003F080319342EAE
:100C600008303F02031C01340E303F0603190134E3
:100C70000D303F06031901340F303F0603190134CC
:100C800000342200430C890C01390800210042087D
:100C900008002000A600DC00DB01DE012100AF011E
:100CA000B001AE012000DD012100AD0108000130DE
:100CB0002100C300F301C201230061082000A60047
:100CC0002608FE3924009A007F302000A600263531
:100CD00024009B00AC302000A6001A30A70080261C
:100CE000803124009D1A7D2E762E7D2E9C010E30A3
:100CF0009D0001309E001F179D16210092150800CF
:100D000027082200D900200026082200D800080069
:100D100027082300DD00200026082300DC0008004F
:100D200027082300DB00200026082300DA00080043
:100D300027082300D900200026082300D800080037
:100D400027082300D700200026082300D60008002B
:100D500027082300D500200026082300D40008001F
:100D600027082300D300200026082300D200080013
:100D700027082300D100200026082300D000080007
:100D800027082300C500200026082300C40008000F
:100D9000200097170800D200D3012100210822006B
:100DA000D500210020082200D4000800CC00CB0090
:100DB0000E1022000E1001302100B8002108220080
:100DC000CF00210020082200CE00210021082000B1
:100DD000A700210020082000A60008002000270806
:100DE0002200ED00200026082200EC000800370851
:100DF000800081308400360880008230840035080D
:100E000080000234803084002330850008002300F5
:100E1000E001DF012200EC01ED0108002300E00108
:100E2000E00ADF01DF0A08002100213BFF0000305B
:100E30007F02080021082200D7002100200822009C
:100E4000D60008007030840023308500033108008C
:100E5000840023308500773000060800703084005D
:100E6000233085001B3100080800003020000E18D8
:100E700001302100B9000800933084002330850040
:100E800080010800A0308400233085008B342000CE
:100E90008E1801302100BD00080084002330850039
:100EA000000808002200EE01EE0A0E110800682773
:100EB0008031003A0319622F2E278031B6000130AD
:100EC000B500642FB601B5010230B700B4010800C7
:100ED0002100270808002000A6012608703EFE0019
:100EE0002330FF01FF3D7E0884007F088500FF302E
:100EF00080008030A60A2602031C6D2F703084000B
:100F0000233085005530803F903084008830800148
:100F100084003030800089308400333080008A3093
:100F200084003930800021008030CD01CC01CB011C
:100F30008E317B268031FF0093308F3171278031D5
:100F4000000FAA2F93308400003080011E008030F3
:100F5000E925803142278001840064308000080048
:100F6000F9278731003A0319BC2F013A0319BC2F26
:100F7000033A0319BC2FBC2F01307E310800CD2F5E
:100F80002000DA14D92F20005A15D92F20005A1426
:100F9000D92F03302000DA00D92FF9278731003A02
:100FA0000319C02F013A0319C32F033A0319C62F9F
:100FB000C92F01307E310800EA2F2000DB14F62F04
:100FC00020005B15F62F20005B14F62F0730200061
:100FD000DB00F62FF9278731003A0319DD2F013A9C
:100FE0000319E02F033A0319E32FE62F01307E3176
:100FF00008007E3F84007F3F85000008080008004D
:1010000092312D2A92313A2A9231462A92318A2AF5
:101010009231942A9231A22A9231AD2A9331AF2B88
:101020009331B82B9231FC2A9331052B9231BE2A91
:101030009231CA2A9231E32A9231ED2A9331162B4A
:101040009331222B9331372B9331412B93314F2BFB
:101050009331582B93316A2B9331732B9331742B2B
:1010600095318C2D9331C92B9331D32B9331E02BB8
:101070009331EA2B9331F72B9431012C94310E2CC0
:101080009431222C94313A2C9431462C9431582CA2
:101090009431642C9431B42C9431712C94317A2C89
:1010A00094319D2C9431A72C9431872C9431902C21
:1010B0009431BA2C9431C42C9431D12C9431DB2C42
:1010C0009431E82C9431F22C9431FF2C9531172D6A
:1010D00095312D2D9531372D9531462D080008007D
:1010E000003020000C1901302100BB0023006008F3
:1010F000031D0800023021003F06031983280D302C
:101100003F06031D08003B08031D08003A08031DA5
:10111000080086311C2688319F2887313527883181
:1011200002303F06031998280D303F06031D0800C2
:101130003908031D080086311C2688319F280E308F
:10114000BF002300E001E00A21000C1122000C1175
:10115000EE01EE0A0E1108002700131DB128C82069
:101160008831961EB528D5208831961FB928E220EF
:101170008831191CBD28EF208831991CC128FC201A
:101180008831991DC52809218831191E08001629A2
:1011900023005C085D040319D2285D088A005C08FE
:1011A0000A00883127001311080023005A085B0445
:1011B0000319DF285B088A005A080A0088312700D3
:1011C000961208002300580859040319EC285908FE
:1011D0008A0058080A008831270096130800230067
:1011E000560857040319F92857088A0056080A00B8
:1011F00088312700191008002300540855040319EA
:10120000062955088A0054080A00893127009910D8
:1012100008002300520853040319132953088A00B5
:1012200052080A008931270099110800230050084C
:1012300051040319202951088A0050080A008931F5
:10124000270019120800AC2C903168202000D90129
:10125000D90A08000030AE258931003A0319080088
:1012600021002308031936291330372902302000C2
:10127000D9002100A60108007330AC01AD01AD0A10
:10128000AE002330AF005430B82489312400A400CC
:101290002408031D080003302000D900080017258A
:1012A00089312400AD00023A031D612987312227CC
:1012B0008931000F5D297330602704302000D90088
:1012C00008002D03031908007D278931031C4B29D1
:1012D0000430A6012000D900733060270800643074
:1012E000E401E501AC01AD01AD0AAE002430E92412
:1012F0008931003A031D08000530092F9F31DD2791
:101300008931031D8F29FF30E400063054278931CD
:10131000E9248931003A031D08000630092F0730FF
:10132000D90008003830E400093054278931E92415
:101330008931003A031D08000730092F6430AC01E1
:10134000AD01AD0A6D278931B8248931003A031DFA
:10135000080008302100A9002000F72608006430AA
:101360002400AC0084001030850100060319D12947
:101370002C08840010308000200064305B27893105
:10138000E9248931003A031DCB290A302100A90044
:101390002000F726080024002C0884008501800125
:1013A00008000A302000D900080043278931B824FA
:1013B0008931003A031D08001730D9000B30210095
:1013C000A9000A30A800080021000230A701A70ADE
:1013D0007B2689312400A700803A0319F829803040
:1013E0001E0002308531E92589312100A201A20ABF
:1013F000A03084002330850000112000641E052ADF
:101400000C30E401E501D90008000E302000D900BD
:1014100008006430AC01AC0AAD01AD0AAE0070301A
:10142000E9248931003A031D08001730D9000D3036
:101430002100A9000C30A8000800A030840023304F
:101440008500001522006308E7076408E83D650889
:10145000E93D6608EA3DE301E401E501E601C60174
:10146000C701C401C5016A082000A900220069085B
:101470002000A800220068082000A70022006708BA
:101480002000A600D127893199278931052A21001A
:10149000250F5B2A18302000E4006430E5015B274B
:1014A0008931E9248931003A031D0800F7260F30FD
:1014B0002100A900080020006208630403196C2AB7
:1014C000132789310318682AFE26893103186C2AEC
:1014D00013302000D900080015302000D900080082
:1014E00043278931B8248931003A031D0800F726C3
:1014F00010302100A900080021002408031D862ABD
:101500000F302000D9002100A40A08006430240014
:10151000AC0084008501001D962A023021002402BF
:10152000031C802A11302000D90008000F30200051
:10153000D90008000630AC000230AD006230AE00C9
:101540000030AF007030B8248931003A031D080024
:10155000F72612302100A9000800E31EB32A00304C
:10156000E204C030E30401301E008B308531E925F0
:101570008931200062081E008C308531E9258931CF
:10158000200063081E008D308531E9258931210056
:10159000A501A50A20006430E401E50164165B277B
:1015A0008931E9248931003A031D0800F726893181
:1015B000620863040319E82A132789310318E42A0F
:1015C000FE2689310318E82A13302100A9000800FB
:1015D00015302100A90008000430AC000230AD0035
:1015E000E330AE000030AF007030B8248931003AEB
:1015F000031D0800F72614302100A900080023006D
:101600003F0821006402031D092B23003E0821002E
:10161000630203180F2B2300BC0A0319BD0A210023
:1016200064082300BF00210063082300BE006C2A69
:101630000230AC00AD0064306D278931B8248931A7
:10164000003A031D080059082100A8001630A9001F
:1016500017302000D9000800132789310318342BD4
:10166000FE2689310318AA2B23003C08F4003D080C
:10167000F500F601F701F7007408F600F501F40132
:1016800077082400A3007608A2007508A10074085A
:10169000A000210063082400A007210064082400A2
:1016A000A13D0030A23DA33D20006208A6006308D2
:1016B000A700890D893B8909A800A90024002308F7
:1016C0002000AD00240022082000AC0024002108E6
:1016D0002000AB00240020082000AA009E31B7267D
:1016E000893129082400AB00200028082400AA0022
:1016F000200027082400A900200026082400A800B4
:10170000AB1F942BAB1F8E2B01302802F030293BEE
:10171000FF302A3BFF302B3B031C942B2400A801F5
:10172000A901AA01AB019F2B0C302000CF0024009F
:10173000AB37AA0CA90CA80C2000CF0B972B643058
:101740002400A500840085012808800201312908B1
:10175000803B3F312200C71BB52B2000E51FB52B76
:10176000FF302200C407031CC503200065082200C7
:10177000C700200064082200C6002400AE0022003A
:1017800047082400AF00890D893B8909B000B100EA
:101790002E30A600023E840002308500220044085C
:1017A000803F4508813F24002E081E008730853188
:1017B000E925893124002F081E0088308531E9256C
:1017C0008931240030081E0089308531E9258931AE
:1017D000240031081E008A308531E9258931240032
:1017E00031082200E600240030082200E500240031
:1017F0002F082200E40024002E082200E3006708DE
:101800002400AE07220068082400AF3D22006908CA
:101810002400B03D22006A082400B13D31082000B8
:10182000CD00240030082000CC0024002F08200028
:10183000CB0024002E082000CA009D3139258931B3
:10184000FF008B307127893123003B08803AF40078
:1018500024003108803A74022300031D3F2C240029
:10186000300823003A02031D3F2C24002F082300D8
:101870003902031D3F2C24002E0823003802A0301B
:10188000840023308500031C472C8014482C8010D2
:1018900019302000D9000800172589312400AD0037
:1018A000023A031D582C210029082000D900080005
:1018B0002D03031908007D278931031C742C19306E
:1018C000A6012000D90021000230A7017B26893122
:1018D0002400A70027080319080000301E0002306A
:1018E0008531E9258931D62F28082000D900080044
:1018F000172589312400AD00023A031D8A2C2100EE
:1019000029082000D900733084002330850002307C
:10191000800008002D03031908007D278931031C6E
:10192000742C7330A60160278931532C0130AE2509
:101930008931003A031908001A302000D90021002B
:10194000A30108002100220803190800C601C60AE5
:10195000A2010800D90108002000590884001B30AA
:1019600004020318AA2C99310435003E82000800B5
:10197000B00046258931B1003108031DC62CD12C99
:101980000330C32C04302100AB00CE2C3108013AC7
:101990000319C02C033A0319C22CC22C20003108B1
:1019A00008002F082100E10020002E082100E0009F
:1019B00020002D082727893102304C2789312C0837
:1019C00038278931A025893177278931DA2589316E
:1019D000912EAF0046258931B0003008031DF72C49
:1019E000022D0330F42C04302100AB00FF2C300812
:1019F000013A0319F12C033A0319F32CF32C2000BC
:101A0000300808002E082100E000E10120002D0828
:101A10002727893104304C2789312C083827893110
:101A2000A025893177278931DA258931912E210046
:101A30002A080319432D95318F258931013A03195D
:101A4000432D2100AA0120005A0803193E2D03301E
:101A50005A06031D2D2D04303C2DDA1C322D053085
:101A60002100AB0020005A1D382D06302100AB00AC
:101A700020005A1C432D07302100422D21002B0B42
:101A8000432D0230AB0021002B080800A800A9015B
:101A9000A90A220043199D2D3C30840001308500A5
:101AA0002000280880002200C31043154310413055
:101AB0008400013085000E3080000130BB00F4301E
:101AC000BA00C315E930A0001930A100AC01AD0186
:101AD000A300E930A200AE01AF011930A500E93042
:101AE000A400B001B1011930A700E930A600B2018D
:101AF000B3011930A900EC30A800B401B501A3303E
:101B00002000A6001C30A7009326893120009111E7
:101B10002400951A942D8D2D942D94010830950054
:101B20004F30960192009516210091152000E83063
:101B3000A901A6001B30A700BE2620002908080026
:101B40002200C31DAC2D7E3FBD007F3FBE007C3F09
:101B5000BF007D3FC000C3117C3108002000A800F9
:101B600028080319C12D95318F258931003A031DAD
:101B70000034872689311A303D00E1268631572608
:101B80000134872618303D00910001303C00A00050
:101B900019303D0090003C00A1011A303D009E002C
:101BA0000E303C009D001B303D009C000C303C0082
:101BB0009E0001342A081E002B081E0023301E0040
:101BC00010301E00A6268931BF302000A600073045
:101BD000A700E730A8000030A9009B268931BF305C
:101BE0002000A6000730A7006F30A8000130A90030
:101BF000B3268931BF302000A6000730A700E230AD
:101C0000A800C62EAB01AA012000DA01D9012100EB
:101C1000A701A601A201A401A30190316820893186
:101C200067302000A8000130A90083307B2689316D
:101C30002F27893184307B268931DC268931D126D2
:101C4000893185307B26893122278931D126893116
:101C500086307B2689311D278931D1268931633031
:101C6000A8000130A90087307B2689312F278931D0
:101C700088307B268931DC268931D126893189302B
:101C80007B26893122278931D12689318A307B26EA
:101C900089311D278931D126893122006408C70086
:101CA0006308C6006608C5006508C40020008B30C4
:101CB000E201E3017B2689312100A500250A0319F1
:101CC000712E62302000A8000030A9008C307B26E5
:101CD00089312F2789318D307B268931DC26893166
:101CE000D1262300BE01BF012100E301E40123004E
:101CF000BC01BD0108004131FF3F310015177030B4
:101D000092007F3F9100151413087F3108002100D5
:101D1000C20166279C010E309D0001309E001F17F6
:101D200008000030DA2F27082200DB0020002608F8
:101D30002200DA00080028081E0029081E002608D4
:101D40001E0027081E00023097313B2F7C3F1E00EB
:101D50007C3F1E007C3F1E007C3F1E000030973100
:101D60003B277C31080028081E0029081E00260891
:101D70001E0027081E00013097313B2F2708230043
:101D8000C300200026082300C200080028081E0007
:101D900001301E0026081E0027081E00043097315F
:101DA0003B2FFC000030293DFD007C0884007D08AD
:101DB00085007F0880000800FF0020002808013E01
:101DC000080091000E303C00A0001B303D00900048
:101DD0000C303C00A10018303D009E0001303C005A
:101DE0009D0019303D009C003C009E0108005908F0
:101DF0002100A80017302000D90008002000630847
:101E0000803AF4007F307402031D0800FE30620245
:101E100008002100A900200059082100A80018305E
:101E20002000D90008006308803AF4008030740272
:101E3000031D0800033062020800FF00200028088C
:101E4000033E0800FF0020002808023E0800210091
:101E5000DE00E230DF018400003085000800FF0072
:101E6000200028088400290885007F0880000800D9
:101E70002100E50001301E0000301E00E5301E008C
:101E800000301E0008006430AC01AC0AAD01AD0AA0
:101E9000AE000030AF0070348000AA01AA0AAB0186
:101EA000AB0A2000DA010800E501AC006430AD01A6
:101EB000AD0AAE002434AC01AD01AD0AAE00703401
:101EC000840023308500013080000800921120003A
:101ED0009211121124009D120800AE000030AF00D4
:101EE00070348400233085007F0880000800DE30D5
:101EF0002000AA000030AB0008000A302100A60A2A
:101F0000260208002200E701E801E901EA01E301F5
:101F1000E401E501E6012000A601A701A801A9014D
:101F2000D12789319927A0308400233085000014FF
:101F3000080026081E0083308531E92589312000FC
:101F400027081E0084308531E925893120002808C2
:101F50001E0085308531E9258931200029081E00C1
:101F600086308531E925893120002A081E00873016
:101F70008531E925893120002B081E008830853104
:101F8000E925893120002C081E0089308531E9259A
:101F9000893120002D081E008A308531E9258931DC
:101FA000D62FAA01AB01AC01AD0108002100A201AE
:101FB000A20A08002000A700A801A80A2200C31C4A
:101FC000E42F200028080800C31420000030A801D6
:101FD000FD278931FB2789312708413084000130F2
:101FE00085000319F62F01308000F82F02308000A1
:101FF00024001614E12F1F150800A6009D000800FC
:10200000220043143C35F000700824009100033492
:1020100020008D1B0D28F0010F287730F000713063
:10202000F1018400233085007008800008003B2007
:102030008D31A025903162208E31A62690317E3FD1
:10204000FE007F3F59283B208D31A0259031622032
:102050008E31A62690317E3FFE007F3F59283B20DF
:102060008D31A025903162208E31A62690317E3FA1
:10207000FE007F3F59287E3F84007F3F8500003F60
:10208000FE00013FFF007E081E007F081E007C3F0F
:10209000FE007D3FFF007E0884007F08850002313E
:1020A000003FFE00013FFF007E081E007F081E006B
:1020B0000800FF007E0884007F08850004310008C6
:1020C0007E31080000301E001E001E001E000800A9
:1020D0005F302000A70084000130850023308E315E
:1020E0007B26903180002000270A84000130850083
:1020F00022308E317B269031800020002708023E5E
:1021000084000130850021308E317B2690318000A3
:1021100020002708033E84000130850020308E31E6
:102120007B269031800022005F08FC006008FD00E3
:102130006108FE006208FF0003302000A600FF37A0
:10214000FE0CFD0CFC0CA60B9F2822005F08F8007B
:102150006008F9006108FA006208FB007C08F802D8
:102160007D08F93B7E08FA3B7F08FB3B7B08230098
:10217000BB007A08BA007908B9007808B8000800EE
:10218000912190310E219031E2209031F320903155
:1021900005219031AD219031DE209031D520903154
:1021A0009921903111229031B129E33021009E0014
:1021B0009F019B019C0101309D000800A23022007C
:1021C000970008002100E70122000230EF01EF0A2A
:1021D0002300E200240094010830950096014F305E
:1021E00092009512080021008F3166279C010E3065
:1021F0009D0001309E001F172100C300F301103025
:102200002300E1002100C201080060303200990083
:102210009B019D0107309F009E01080022008C0158
:102220008D018E01173021008C00F0308D00FB30C5
:102230008E00C03023008E008D0110308C00503095
:1022400024008D0004308C001B308E0025008C0192
:102250008D018E01373026008C00A0308D00FF30BC
:102260008E003F3027008C00F0308D00FF308E0054
:10227000131112151115961296139516951794169B
:102280009417191099109911191218149814981577
:1022900018161714971497151716E2302000A60089
:1022A0001930A700863188269031E3302000A6003F
:1022B0001930A700863190269031E4302000A60026
:1022C0001930A700863198269031E5302000A6000D
:1022D0001930A7008631A02690316E302000A6006C
:1022E0000830A7008631A82690316F302000A60064
:1022F0000830A7008631B026903102302000A600B9
:102300000030A7008631B826903121001016153014
:102310003C00A40014303D00A3001A308E31E126A9
:1023200008003200910192019301940195019601F8
:1023300008004D3020009800303096009501901232
:102340002100901603302000A6000030A70086313F
:10235000C02680302000970008001330210097002D
:102360000800210091125D302000A6001A30A7005D
:10237000012290312100111243302000A6001A30B2
:10238000A7000922903108309F0090309D00043052
:102390009E0040309B0003309C00E1302000A600EE
:1023A0001930A700F1219031E6302000A600193045
:1023B000A700F92190315C302000A6001A30A70058
:1023C00022222200DE012100CA012000E1010830A2
:1023D0002100C9002000E0012100C801C7019116B9
:1023E000080027082300CB00200026082300CA008D
:1023F000080027082300C900200026082300C80081
:10240000080027082300CD00200026082300CC0068
:10241000080027082300CF00200026082300CE0054
:102420000800FF309E009D01911021009114FF30A3
:102430002000A6000730A7008E31BE2623302000E2
:102440009F00080027082300C7002000260823005B
:10245000C60008002000AF01812D1330AF0004300A
:102460002E02031C372A0230B0001730442DB00171
:10247000B00A8C2DB32792313930D0259231003AF1
:102480000319442A0230352D0130352D8F25923124
:10249000013A03198C2DA9259231003A031D542AC3
:1024A0002100AE0AAF018C2D21000F30AE01AF002C
:1024B000CE1F5D2ACE130330AF00520A0319642ADF
:1024C000FF30D2000330AF00530A03196B2AFF30EC
:1024D000D3000330AF00540A0319722AFF30D4002E
:1024E0000330AF00550A0319792AFF30D5000330B5
:1024F000AF00560803197F2AD6010330AF005708F2
:102500000319852AD7010330AF005A1D8C2D5A11AB
:102510000330442DAD279231393016269231003ADE
:1025200003198C2D0430352D8F259231013A031972
:102530008C2DA9259231003A0319502A2100AE01B1
:102540000930352DFC279231F0259231003A0319DC
:10255000AB2A0630352D0530352D8F259231013AC5
:1025600003198C2DA9259231003A0319502A210014
:102570000130AE01AF00CE18AB2A8C2DB3279231BB
:102580003830D0259231003A0319C82A0C30352D45
:102590000B30352D8F259231013A03198C2DA92549
:1025A0009231003A0319502A21000130AE01AF00E8
:1025B0005D0A0319DF2AFF30DD000D30442D0230A3
:1025C0002000DD008C2DAD27923138301626923157
:1025D000003A03198C2D0E30352D8F259231013A9A
:1025E00003198C2DA9259231003A0319502A210094
:1025F0000530AE01AF00DF2AFC279231F025923181
:10260000003A0319A02A0A30352D8F259231013A5C
:1026100003198C2DA9259231003A0319502A210063
:102620000F30AE01AF00CE18A02A8C2DB327923107
:102630003A30D0259231003A0319202B1030352D35
:102640000F30352D8F259231013A03198C2DA92594
:102650009231003A0319502A21001930AE01AF001F
:102660004E0303198C2D0130CE001130442DAD27BF
:1026700092313A3016269231003A03198C2D1230DD
:10268000352D8F259231013A03198C2DA9259231D0
:10269000003A0319502A2100AE010730352DCE270C
:1026A0009231AD259231003A03198C2D1430352D1D
:1026B0008F259231013A03198C2DA9259231003AC8
:1026C0000319502A21001730AE01AF002200C801C3
:1026D000C9018C2DCE279231AD259231003A0319D4
:1026E0008C2D1630352D582B20005E080319A22B97
:1026F00021002D08031D8D2B36269231003A031937
:10270000A02B0430AD01AD0A7A2692310D30890B31
:10271000872B000089269231A02B36269231003A71
:102720000319A02B6F26923102302702EE300319D5
:102730002602031C9E2B0F30F02792312100AD01A1
:102740000330A52B21000230AD01B00020005D0B4D
:102750008C2D0330210030060319C82A8C2DFC274C
:102760009231F0259231003A03194D2B0830352D66
:102770008F259231013A03198C2DA9259231003A07
:102780000319502A21001930AE01AF00CE184D2B8D
:102790008C2DEA279231AD0AAD259231003A03190A
:1027A0008C2D1A30352D8F259231013A03198C2D3D
:1027B000A9259231003A0319502A21001B30432DDC
:1027C0004030DA279231AD259231003A03198C2D31
:1027D0001C30352D8F259231013A03198C2DA925F6
:1027E0009231003A0319502A21001D30432D3C300C
:1027F000DA279231AD259231003A03198C2D1E3023
:10280000352D8F259231013A03198C2DA92592314E
:10281000003A0319502A21001F30642B20005E0B60
:10282000132C2130032DB927923103194802031CC0
:102830008C2DD4279231F0259231003A03198C2D3A
:102840002030352D8F259231013A03198C2DA92581
:102850009231003A0319502A2100AE014E1E342C49
:102860002130AF000430B0004E1C382C1F30442DF6
:102870001330442DB3279231F830D0259231003AED
:102880000319442C2230352D2130352D8F259231DE
:10289000013A03198C2DA9259231003A0319502AC7
:1028A00021002330AE01AF00CE308C2692318C2D2A
:1028B000B3279231FB30D0259231003A0319622CB4
:1028C0002430352D2330352D8F259231013A0319CF
:1028D0008C2DA9259231003A0319502A2100263067
:1028E000432DE4279231AD259231003A03198C2D06
:1028F0002730352D8F259231013A03198C2DA925CA
:102900009231003A0319502A21002A30432DEA2738
:102910009231AD259231003A03198C2D2B30352D93
:102920008F259231013A03198C2DA9259231003A55
:102930000319502A21002830432D4030DA279231E4
:10294000AD259231003A03198C2D2930352D8F2574
:102950009231013A03198C2DA9259231003A0319BD
:10296000502A21002530432D2C30AF00CE30CC260C
:1029700092318C2DAD279231F83016269231003AE3
:1029800003198C2D2D30352D8F259231013A0319E5
:102990008C2DA9259231003A0319502A21002E309E
:1029A000432DAD279231FB3016269231003A0319A0
:1029B0008C2D2F30352D8F259231013A03198C2D16
:1029C000A9259231003A0319502A21003030432DB5
:1029D0003C30DA279231AD259231003A03198C2D23
:1029E0003130352D8F259231013A03198C2DA925CF
:1029F0009231003A0319502A21003230642B200012
:102A00005E0B082D34302100AF000430B0008C2D57
:102A1000B927923103194802031C8C2DD427923117
:102A2000F0259231003A03198C2D3330352D8F2546
:102A30009231013A03198C2DA9259231003A0319DC
:102A4000502A2100AE014E1E292D3430AF00043033
:102A5000B0004E1C382C3230442DE4279231AD2585
:102A60009231003A03198C2D35302100442D8F25E9
:102A70009231013A03198C2DA9259231003A03199C
:102A8000502A21001930AE01AF008C2D20005E08C5
:102A90000319742D21002D08031D5F2D3626923158
:102AA000003A0319722D0430AD01AD0A7A26923135
:102AB0000D30890B592D000089269231722D362652
:102AC0009231003A0319722D6F269231023027029B
:102AD000EE3003192602031C702D1930F0279231B5
:102AE0002100AD010330772D21000230AD01B0008F
:102AF00020005D0B8C2D023021003006031D442A7E
:102B00008C2D21002F0884003730040203188C2DEF
:102B100088310435003E820020002F080800200084
:102B2000A601A60A2200C318A62D43113C3084003A
:102B300001308500FF3080002000911121009111AB
:102B400024009512220042082000A600200026083A
:102B500008005B08031901340034AE005C088D31B5
:102B600046259231003A031D0034DE2792312E08AB
:102B70002100CF0020002C082100D00020002D08CB
:102B80002100D1000430C0278D31A0259231CE30F4
:102B90002000AA000030AB003C268E319126013483
:102BA000AE005C088D3146259231003A031D003499
:102BB0002D082100E000E10120002C088F3127279B
:102BC0009231023080002000DB012E08A2278D31D7
:102BD000A0259231C82792313C268E3191260134AE
:102BE000AD005C088D3146259231003A031D00345A
:102BF0002C082100E000E230E101DE01DE0ADF0105
:102C0000840000308500023080002000DE279231F1
:102C10002D082100CF000230C0278D31A025923130
:102C2000C82792313C268E3191260134AE005C08D3
:102C30008D3146259231003A031D00342D082100C4
:102C4000E000E10120002C088F3127279231043069
:102C500080002000DB012E08A2278D31A0259231B3
:102C6000C82792313C268E319126013403109D1CD9
:102C700003140030093D08002A081E002B081E001E
:102C80002F301E0010301E008E31A6269231DC300F
:102C90002000A6000730A7006F30A8000130A9006F
:102CA0008E319B269231DC302000A6000730A70031
:102CB0006F30A8003127DC302000A6000730A700C5
:102CC000E730A8000030A9008E31B326DC302000A8
:102CD000A6000730A700E230A8008E31C62E1C08DF
:102CE0002000A700A60121001B082000A60703184A
:102CF000A70A08002000A700A600A60DA60D210027
:102D00001D08200026060339260621009D001D14FB
:102D1000080021009D1408002000A8002100AC013B
:102D200020002808033E840085010008A60094279F
:102D3000923120002808023E840085010008A60088
:102D40009427923120002808840085010008A700FC
:102D5000280A84000008A600942792312C0820003D
:102D60002706031DC82E280884008501033F210083
:102D7000B700200028088400023F2100B600200090
:102D800028088400013F2100B5000130B40008008C
:102D900001302100B70008002000A7002100370FF4
:102DA000D22E0800370BDA2E20002708073E8400B9
:102DB0004430F12EB1303702031CE22EC43037020A
:102DC000031CEC2E023037060319EC2E20002708D6
:102DD000073E84004330F12E20002708073E840080
:102DE0004130850180000230210037060319022F8F
:102DF00020002708053E840080012708063E840045
:102E000080010E2FF6279231210035088000200026
:102E10002708063E84002100360880002100AC010E
:102E200020002708073E840085010008A60094279B
:102E3000923120002708063E840085010008A60084
:102E400094279231F62792310008A60094272C0887
:102E5000FF0020002708043E840085017F088000D1
:102E6000080028081E0001301E0026081E00270842
:102E70001E0003303B2F4131FF3F7D3F03197E3F52
:102E80000319692F7F3FFE002030FF01FE35FF0D43
:102E9000FC000130FD007E087C0784007F087D3D3A
:102EA00085007D3F803F7E3F813F7F3FFE002C308D
:102EB000FF01FE35FF0DFC000130FD007E087C07A0
:102EC00084007F087D3D85007B3F803F7C3F813FC4
:102ED000922FE930FE001930FF007F3FFC002030C8
:102EE000FD01FC35FD0DFA000130FB007C087A077E
:102EF00084007D087B3D85007E08803F7F08813F00
:102F00007F3FFE002C30FF01FE35FF0DFC0001303D
:102F1000FD007E087C0784007F087D3D8500003031
:102F2000803F813F7B31080021002C0820002606CD
:102F3000003E840098300318013E850000082100FF
:102F4000AC0008002100E60001301E0000301E0029
:102F5000E6301E0000301E00080010302000AC00DB
:102F6000CE30AD00080010302000AC00CE30AD00F7
:102F700008002200C80A0319C90A00304902643453
:102F80001E0000301E00CE301E0000301E00080063
:102F9000DE302000AA000030AB0008003C302000EA
:102FA000AC002830AD000034CE30C801C90120008B
:102FB000AC0006342000AC00AD000034FE30DB0174
:102FC0002100CE002000080040302000AC0000307E
:102FD000AD01080020000030AC01AC0AAD010800D2
:102FE0002100AF002000AF01AF0A08002000270831
:102FF000053E840085010800CE302000AC00063478
:10300000003407340E3409341C341B3412341534A4
:1030100038343F3436343134243423342A342D3494
:10302000703477347E3479346C346B346234653484
:1030300048344F3446344134543453345A345D3474
:10304000E034E734EE34E934FC34FB34F234F53464
:10305000D834DF34D634D134C434C334CA34CD3454
:10306000903497349E3499348C348B348234853444
:10307000A834AF34A634A134B434B334BA34BD3434
:10308000C734C034C934CE34DB34DC34D534D23424
:10309000FF34F834F134F634E334E434ED34EA3414
:1030A000B734B034B934BE34AB34AC34A534A23404
:1030B0008F34883481348634933494349D349A34F4
:1030C0002734203429342E343B343C3435343234E4
:1030D0001F34183411341634033404340D340A34D4
:1030E0005734503459345E344B344C3445344234C4
:1030F0006F34683461346634733474347D347A34B4
:1031000089348E3487348034953492349B349C34A3
:10311000B134B634BF34B834AD34AA34A334A43493
:10312000F934FE34F734F034E534E234EB34EC3483
:10313000C134C634CF34C834DD34DA34D334D43473
:1031400069346E3467346034753472347B347C3463
:10315000513456345F3458344D344A344334443453
:1031600019341E3417341034053402340B340C3443
:10317000213426342F3428343D343A343334343433
:103180004E34493440344734523455345C345B3423
:103190007634713478347F346A346D346434633413
:1031A0003E34393430343734223425342C342B3403
:1031B0000634013408340F341A341D3414341334F3
:1031C000AE34A934A034A734B234B534BC34BB34E3
:1031D0009634913498349F348A348D3484348334D3
:1031E000DE34D934D034D734C234C534CC34CB34C3
:1031F000E634E134E834EF34FA34FD34F434F334B3
:103200008931242989312A2989313C2989314F2959
:1032100089316F2989317E298931922989319E2905
:103220008931AF298C31AA2C8931D5298931E429FA
:103230008A31092A8A311D2A8A31472A8A31702A1D
:103240008A317C2A8A319A2A8A31AD2A8A31EC2A3B
:103250008A31FF2A8B31182B8B312C2B8C314C2C43
:103260008C31782C8C31962C8C31A22CDB341C3494
:10327000FD341934003410343D341C3400341D3412
:10328000F334193407341C347C341C347F341C343C
:1032900085341C3482341C34EF3419342B341D34FF
:1032A0002F341D349E341C3420341C3482319B2A2C
:1032B0008231A52A8231AC2A8231CF2A8231E32A97
:1032C0008231F62A8331082B8331102B8331122B64
:1032D00083311C2B8231AA2A8331492B83317E2BE7
:1032E0008331A52B8331FF2B84310E2C9D318C2D06
:1032F0009D31832D9D31852D9D31882D9D318A2DC8
:1033C200080008000800080008001D121D16080069
:1033D20001307E31080005307E310800240096124B
:1033E20016160534220043102400961504342100D9
:1033F200A00A0319A10A08002200431403143C0D79
:10340200F0007008240091000534031020000E1E05
:103412000314003003180130DE000800901223006C
:10342200440845040319080045088A0044080A00B4
:103432009A3108006400013080010131F402003049
:10344200F53B75087404031900341C2A9110292ACB
:103452002300420843040319080043088A00420873
:103462000A009A31080020008D1A392AF0013B2AFD
:103472007730F0007230F10184002330850070084B
:103482008000080008302100490203185A2A20004F
:103492006108B03E840001308500000823009A00D4
:1034A2002000E10A083061020318E1012100C90A83
:1034B200080011120800862A98229A3180012300FE
:1034C2001D1D6E2A20006008A03E84008014230087
:1034D2004B088A004A080A009A3123009D1C792A67
:1034E20098220015230049088A0048080A009A31E8
:1034F20098229A3100080319852A230047088A0076
:1035020046080A009A310800862A20006008A83E70
:103512008400013085002300190880002000E00AA1
:10352200083060020318E0012100C70A08002000E9
:103532006008A03E840001308500080020008E1D36
:10354200A52A9230DB2308009230840023308500C4
:103552007730800008002000921124001C0E0139EF
:10356200003A0319B92A2100C20124001D160800DD
:1035720003109C1E03140030093D003A0319CF2AA0
:1035820001302100C20024001C0C890C0139003AD0
:103592000319CD2A0130D92A0230D92A24001C0C61
:1035A200890C0139003A0319D82A0330D92A043088
:1035B2002100C100C22B0030F000240019082200B3
:1035C200DC0070080319EA2AE72AEA2A01302100FE
:1035D200C300E1239A31003A0319B62A80307302FC
:1035E2000318302BF52A302B73088E317B269A3143
:1035F200F0007008240099006D2B21004508F000AE
:103602007008240099002100C50A622B2100450898
:1036120003191E2B0D2B1E2B45084402F100C50376
:1036220071087F39F03E840022308501853D000813
:10363200F000700824009900622BFF30F00070083F
:1036420024009900622BD1239A3184007F087D3DAA
:1036520085000008F000700824009900622B7308AE
:10366200933A0319FE2A073A0319072B242B210048
:103672004D0803196D2B3E2B6D2BCD0B6D2B422B61
:103682006D2B8030DB239A316D2B21004C080319FE
:103692006D2B4C2B6D2BCC0B6D2B502B6D2B81304E
:1036A200DB239A316D2B21004B0803196D2B5A2B0A
:1036B2006D2BCB0B6D2B5E2B6D2B8230DB239A3166
:1036C2006D2B7308903A0319382B013A0319462BD4
:1036D200033A0319542B6D2BF30AB62A0130F0007A
:1036E200240019082200DC00700803197D2B7A2BB4
:1036F2007D2B01302100C300B62AE1239A31003A22
:103702000319B62A03101E1F03140030093DEC2AC8
:1037120024001C080139003A0319B62A24001908AA
:103722002000DF002100430803199F2B992B9F2BB8
:1037320020005F08F3002100C301C12B8030730217
:103742000318B02BA52BB02B20005F081E007308B6
:103752008531E9259A31FF302100C600C02BA03007
:103762007302031CC02BB62BC02BD123FA007F0897
:103772007D3D9F31F5279A3120005F088000F30AD2
:10378200B62A4108013A0319DC2A033A03196F2BBE
:10379200013A03197E2B073A0319892BB62A08002E
:1037A2007308FE00F030FF01FC002230FD007E08AD
:1037B2007C070800840023308500FF308000080069
:1037C200031024001C1C03140030093D08000030C3
:1037D2001E0093249B31083199248A007E080A0036
:1037E20038309B31840099308500013F8A00003FC8
:1037F2000A009B31E3243630840099308500013F72
:103802008A00003F0A009C31E32408002200882439
:103812008A007E080A009C31013A03191F2C033AE0
:1038220003191B2C013A03191B2C073A03191C2CF0
:103832001F2C0800852C200091150334822C2200B5
:10384200431042308400013085000230800030088D
:103852001E00310893249B31043199248A007E088A
:103862000A009C31023A03193B2C013A03193B2C02
:103872003C2C0800852C822CFA249B31003A031D33
:10388200462C5F2C7C2C7F2C822C220032081E00BE
:10389200330893249B31063199248A007E080A005A
:1038A2009C31013A0319452C033A0319432C013A7E
:1038B2000319442C073A0319452C452C22004310C6
:1038C2003E08FF003D08FE00BD0A0319BE0A84003F
:1038D2007F0885000008F000700824009100013084
:1038E200220033259B31031D782C0630792C0330BE
:1038F200F100F20108002400961401342400961409
:103902000234240016150034240096140134C31521
:103912002C081E002D081E002108FF002008FE00B2
:103922007F0808001E002030840001308500080056
:10393200003FFE00013FFF0008002200C310C20149
:10394200E0240E34200091112200431CB72CAA2C33
:10395200B72CFA249B31003A0319B72CB12CB72C9F
:1039620041308400013085000F308000220043186E
:10397200D42CBC2CD42CFA249B31003A0319D42C1D
:10398200C32CD42CEB248A00003F0A009C31E32490
:103992009B310A3022004106031DDA2CD12CDA2C8D
:1039A200DB249B31DA2CEB248A00003F0A009C3195
:1039B200E32408002200C310C201E0240E342000D8
:1039C2001F110800FF0041308400013085007F088C
:1039D2008000080022004108FE003630FF01FE355B
:1039E200FF0D7E07840019307F3D80388500013F3E
:1039F20008002400160E890C890C013908002400E5
:103A02001108FF0022003D0884003E0885007F085F
:103A12008000BD0A0319BE0A013033259B31031908
:103A2200162D240096121616053488248A007E0864
:103A32000A009D31013A03192A2D033A0319292D4F
:103A4200013A0319292D073A03192A2D2A2D0800B4
:103A52002F2D2B2D2400961616160A3424009616A6
:103A620016160934BF020030C03B3F08400408006C
:103A72004D08C3004C08C2004B08C1004A08C000F0
:103A82006430C400220062082000C80022006108DD
:103A92002000C700220060082000C60022005F0844
:103AA2002000C5005A25643CCE00CE1BCE014E0834
:103AB20008004808B5004708B4004608B3004508A6
:103AC200B2004408A6008039031DFF30A700A800F9
:103AD200A9004308AD004208AC004108AB00400811
:103AE200AA00B7269D312908B9002808B80027087E
:103AF200B7002608B60059273208C900080020007E
:103B0200BA00912DBB019B2DBB01BB0A9B2D02303C
:103B12008F2D03308F2D210032082000BB009B2DFA
:103B22003A0884000530040203188C2D99310435BB
:103B3200763E8200210031080319632E9631362623
:103B42009D31003A0319003496316F269D312708C2
:103B5200C1002608C0001E2E41082200CD00200010
:103B620040082200CC0020004008A6004108A7001F
:103B72001130EF279D313F30AA00B7269D31C5276E
:103B82009D317830B7002330B80078269D312C2E35
:103B9200DD279D3103192C2EE5279D31A600410812
:103BA200A7000730EF279D318C30AA00B7269D3140
:103BB200C5279D31FB279D3178269D312C2E40084B
:103BC200A6004108A7000130EF279D310A30AA0064
:103BD200B7269D31C5279D317C30B7002330B80010
:103BE20078269D312C2EDD279D31031D1B2EE527C6
:103BF2009D31A6004108A7000330A801A901AD012B
:103C0200AC003330AB00AA00DC269D312908BF008E
:103C12002808BE002708BD002608BC003F08B600E1
:103C22003E08B5003D08B4003C08B300FB279D31B7
:103C320078269D311B279D312C2E3B08003A031913
:103C4200AD2D013A0319C92D033A0319E02D013AAA
:103C52000319F42D2C2E20003A08031D3F2E2100BB
:103C6200B20A320B382EDD279D310319B20A033016
:103C72003206031D3F2EDD27031DB20A210001304B
:103C8200B1010800173096317A269D31722E163016
:103C920096317A269D31722E043096317A269D31E4
:103CA200722E1F273F3096317A269D31722E1730A1
:103CB20096317A269D3120003A08031D722E21008A
:103CC200B201722E20003B08003A0319432E013A3A
:103CD2000319482E033A03194D2E013A0319522EA5
:103CE200582E2100B101B10A9631892600340330E1
:103CF200B9000A30A600A701A801A9013608AD0043
:103D02003508AC003408AB003308AA0023279D31E4
:103D12002608303EFF003908FC00FD01FC1BFD03B4
:103D22003707FA007D08383DF5279D317F0880006E
:103D320039080319B32E0A30A600A701A801A90168
:103D42003608AD003508AC003408AB003308AA00D1
:103D5200DC269D312908B6002808B5002708B400E2
:103D62002608B300B903B91B08007A2EAE01AF01D1
:103D7200B001B101261CC52E2A08AE072B08AF3DA3
:103D82002C08B03D2D08B13DAA35AB0DAC0DAD0DE3
:103D9200A936A80CA70CA60C290828042704260477
:103DA200031DBB2E3108A9003008A8002F08A70068
:103DB2002E08A6000800AE01AF01B001B10129082A
:103DC2002804270426040319122FB201B20AA91BE0
:103DD200EF2EA635A70DA80DA90DE72EAE35AF0D16
:103DE200B00DB10D29082D02031D012F28082C0248
:103DF200031D012F27082B02031D012F26082A026B
:103E0200031C0C2F2608AA022708AB3B2808AC3B50
:103E12002908AD3B2E14A936A80CA70CA60CB20B90
:103E2200EF2E3108A9003008A8002F08A7002E089D
:103E3200A6000800E33021009E000800E0302100C7
:103E42009E00080029082804270426040319502F7D
:103E5200AE01AE0AA91B322FA635A70DA80DA90DDA
:103E62002A2F29082D02031D402F28082C02031D8A
:103E7200402F27082B02031D402F26082A02031C6D
:103E82004A2F2608AA022708AB3B2808AC3B290880
:103E9200AD3BA936A80CA70CA60CAE0B322F2D08F1
:103EA200A9002C08A8002B08A7002A08A6000800D1
:103EB200BB01B51F692FB209B309B409B509B20A2A
:103EC2000319B30A0319B40A0319B50ABB01BB0AE1
:103ED200B91F782FB609B709B809B909B60A031983
:103EE200B70A0319B80A0319B90A0130BB06BC01A3
:103EF200BD01BE01BF013508340433043204031985
:103F0200AE2FBA01BA0AB51B8B2FB235B30DB40D61
:103F1200B50D832FBC35BD0DBE0DBF0D3508390261
:103F2200031D9D2F34083802031D9D2F33083702CD
:103F3200031D9D2F32083602031CA82F3208B60239
:103F42003308B73B3408B83B3508B93B3C14B536A7
:103F5200B40CB30CB20CBA0B8B2F3B080319BC2F59
:103F6200BC09BD09BE09BF09BC0A0319BD0A031970
:103F7200BE0A0319BF0A3F08B5003E08B4003D0857
:103F8200B3003C08B20008002908BF002808BE00A0
:103F92002708BD002608BC000A30BF36BE0CBD0C87
:103FA200BC0C890BCE2F3F08B6003E08B5003D0879
:103FB200B4003C08B3000800703084002330850050
:103FC200023003310006080041082200CB00200025
:103FD20040082200CA00200040080800A801A901E8
:103FE200AD01AC01AB000800FB007A0884007B083D
:0E3FF200850008007430B7002330B8000800C6
:020000040001F9
:08000000FF3FFF3FFF3FFF3F00
:08000E008C3FF53FFF3FFF3F6F
:00000001FF
