:1000000080315E28053008007E1480312100901E6A
:100010000A280B2814282000901E0F2810281428C6
:100020008C31AE2480315C282100101E182819283C
:1000300022282000101E1D281E2822288D313D2533
:1000400080315C280B1F252826285C282100111DE3
:100050002A282B2836282000111D2F283028362842
:1000600031088A0030080A0080315C282100911D87
:100070003A283B2841282000911D3F28402841284C
:1000800030282100121D4528462851282000121D25
:100090004A284B28512825088A0024080A00803164
:1000A0005C282100921D552856285C282000921DAE
:1000B0005A285B285C284B287E1009008031602874
:1000C00070308400233085008030FE000030FF0057
:1000D0008C3123248031FB01FC01FD0120308400A0
:1000E000003085003A30FE000030FF008C312324C0
:1000F0008031A0308400003085002C30FE000030BC
:10010000FF008C31232480317E1020008631F62EB2
:100110002000350803198D288E2899284408EE0000
:100120003408EE0235086E0203189728982899289B
:10013000832BB5013A2BB801B80A832B3230E20089
:100140009030E3000330E4000030E5000030E600CA
:10015000E7000030E800E900EA01EB01EB0A0230B9
:10016000EC00ED01ED0A8431EF248031832B003067
:10017000E200E3000030E400E5007D30E6000030FE
:10018000E7000130E8000030E900EA01EA0A023045
:10019000EB000330EC00ED01ED0A8431EF248031F7
:1001A000832BC0307D05EE0080306E06031DD928FC
:1001B000DA28E3280430B8002008860021088700E8
:1001C0007D088100832B0F30B8007D08C039EE0018
:1001D00020088600210887006E088100832B2C30C0
:1001E000E2009030E3000330E4000030E50000302E
:1001F000E600E7000230E8000030E9000230EA00E3
:100200000430EB000530EC00ED01ED0A8431EF2401
:100210008031832B20088600210887007D0881001B
:1002200027308F31BA278031003A0319182919294C
:10023000832B39302000E2009030E3000130E400ED
:100240000030E5000030E600E7000230E800003052
:10025000E9000430EA000530EB000630EC00ED0167
:100260008431EF248031832B2930E2009030E30089
:100270000330E4000030E5000030E600E700023023
:10028000E8000030E9000230EA000630EB000730F9
:10029000EC00ED01ED0A8431EF248031832B20083E
:1002A0008600210887007D08810027308F31BA271A
:1002B0008031003A03195D295E29832B38302000F4
:1002C000E2009030E3000130E4000030E50000304F
:1002D000E600E7000230E8000030E9000430EA0000
:1002E0000730EB000830EC00ED018431EF24803161
:1002F000832B2630E2009030E3000330E40000302E
:10030000E5000030E600E7000230E8000030E900D8
:100310000230EA000830EB000930EC00ED01ED0A94
:100320008431EF248031832B200886002108870048
:100330007D08810027308F31BA278031003A0319B8
:10034000A229A329832B37302000E2009030E3005C
:100350000130E4000030E5000030E600E700023044
:10036000E8000030E9000430EA000930EB000A3010
:10037000EC00ED018431EF248031832B2330E20047
:100380009030E3000330E4000030E5000030E60088
:10039000E7000230E8000030E9000230EA000A30ED
:1003A000EB000B30EC00ED01ED0A8431EF248031DD
:1003B000832B20088600210887007D0881002730D4
:1003C0008F31BA278031003A0319E729E829832BB6
:1003D00036302000E2009030E3000130E4000030CD
:1003E000E5000030E600E7000230E8000030E900F8
:1003F0000430EA000B30EB000C30EC00ED018431EE
:10040000EF248031832B2030E2009030E300033072
:10041000E4000030E5000030E600E7000230E800CC
:100420000030E9000230EA000C30EB000D30EC0047
:10043000ED01ED0A8431EF248031832B2008860002
:10044000210887007D08810027308F31BA2780314D
:10045000003A03192C2A2D2A832B35302000E20084
:100460009030E3000130E4000030E5000030E600A9
:10047000E7000230E8000030E9000430EA000D3007
:10048000EB000E30EC00ED018431EF248031832B42
:100490002F30E2009030E3000330E4000030E5004C
:1004A0000030E600E7000030E800E900EA010E3025
:1004B000EB000F30EC00ED01ED0A8431EF248031C8
:1004C000832B1430B5004408B4001030B800832BDF
:1004D0000030E200E3000030E400E5000030E60018
:1004E000E7000030E800E900EA011030EB001130CD
:1004F000EC00ED01ED0A8431EF248031033020005F
:10050000B5004408B400832B0030E200E300003063
:10051000E400E5004D30E6000030E7000430E8007C
:100520000030E900EA01EA0A1130EB001230EC0079
:10053000ED01ED0A8431EF248031832BC0304D056D
:10054000EE007D083F396E04FD000F30B8003F30EB
:10055000EE0020088600210887006E0881054D08FE
:10056000C039EE0020088600210887006E0881044B
:100570003F30EE006E08CD05200886002108870078
:1005800041314F08C03F5008C13F20088600210874
:10059000870043314D08C03F4E08C13F832B3308CD
:1005A000031DD32AD42AD82AB2013708B800832BD6
:1005B0003608B80015303202031CDF2AE02A832BEC
:1005C0001430B8002008860021088700FF30810021
:1005D00020088600210887004331FF30C03FFF30EC
:1005E000C13F20088600210887004131FF30C03F0D
:1005F000FF30C13F832B0130EE006E08B207360892
:10060000B80015303202031C062B072B832B143045
:10061000B8002008860021088700FF3081002008EC
:100620008600210887004331FF30C03FFF30C13FC3
:1006300020088600210887004131FF30C03FFF308D
:10064000C13F832B8D31702580312000EE00EF01FA
:100650006F08003A03192D2BFB2A6E08003A031984
:10066000CF2A013A0319832B033A0319FB2AFB2AE9
:10067000B801832B3808EE00EF016F08003A031928
:10068000422B382B6E08003A03199B28013A0319B4
:100690009E28033A0319B728013A0319D128073ACB
:1006A0000319EF28013A03190A29033A03193429D7
:1006B000013A03194F290F3A03197929013A03190D
:1006C0009429033A0319BE29013A0319D929073A93
:1006D0000319032A013A03191E2A033A0319482A67
:1006E000013A0319612A1F3A0319682A013A0319CA
:1006F000842A033A03199E2A013A0319222B073A46
:100700000319832B382B080020003F080319892B7D
:100710008A2BC02C4408E8003E08E8023F08680223
:100720000318932B942BC02CEE2CC201C20AEE2C82
:1007300022000C1502302000BF004408BE00023029
:10074000C200EE2C0230D5005530E2000130E3004B
:100750000030E40000308E31F9268331003A03196D
:10076000B22BB32BEE2C0A302000C2000530C100A2
:100770004408BA000230C000EE2C22000C11643094
:100780002000BF004408BE000430C200EE2C22004E
:100790000C1502302000BF004408BE004408BA0017
:1007A0000530C200EE2C0E1DD62BD72BEB2B0230C2
:1007B000BF004408BE0066088600670887007730DF
:1007C0000106031DE42BE52BE82B0830C200EE2CBC
:1007D0000630C200EE2C4408E800E9016908EB008D
:1007E0003A086802EA00031CEB036B08803AEC004D
:1007F00080306C02031DFE2B28306A02031C012C82
:10080000022CEE2C22000C1114302000BF004408F2
:10081000BE00952B5530E2000330E3000030E400C9
:1008200002308E31BC268331003A0319182C192C62
:10083000EE2C0A302000C2000730C1000630C00094
:10084000EE2C2208860023088700550881005608F0
:10085000E8002208013EE9000030233DEA00690873
:1008600086006A088700680881005708E8002208A7
:10087000023EE9000030233DEA00690886006A086C
:10088000870068088100E52B6608860067088700F6
:1008900077300106031D4D2C4E2C6E2CD501D50A48
:1008A0005530E2000130E3000030E40005308E31C5
:1008B000F9268331003A03195E2C5F2CEE2C0A30A6
:1008C0002000C2000930C1004408BA000230C00054
:1008D00066088600670887008101EE2C0930C20097
:1008E000EE2C3D080319752C762C7D2C0230BF00B0
:1008F0004408BE000330C200EE2C0530C20044089C
:10090000BA00EE2C8D3170258331003A031D892CFD
:100910008A2CEE2C20003C08031D8F2C902C942C4C
:10092000BB014108C200EE2C4008C20015303B025A
:10093000031C9B2C9C2CEE2C22000C110B30200055
:10094000C2002208860023088700FF3081002208A9
:10095000013EE8000030233DE90068088600690890
:100960008700FF3081002208023EE8000030233D6E
:10097000E9006808860069088700FF308100EE2CD6
:100980004208E800E9016908003A0319C82CEE2C76
:100990006808003A0319952B013A0319982B033A7A
:1009A0000319A22B013A0319BD2B073A0319C72BD0
:1009B000013A0319D32B033A03190A2C013A0319FC
:1009C000212C0F3A0319442C013A0319712C033AD4
:1009D0000319822C013A0319EE2CEE2C080020009A
:1009E0006D080319F42CF52CFE2C39088F31BA2729
:1009F0008431003A031DFD2CFE2C6A2D2000B3012A
:100A0000620863040319052D062D172D640865047B
:100A100003190B2D0C2D172D6308DB006208DA007B
:100A20006508DD006408DC008D3126258431200056
:100A30006608670403191D2D1E2D352D68086904ED
:100A40000319232D242D352D6A08C9006630CA00EC
:100A50006908CC006808CB003C30DE000630DF00BF
:100A60004930E0008C311724843120006A030319D7
:100A70003A2D3B2D492DB830DE000B30DF00003021
:100A8000E000E1008C310B2484318B315B23843115
:100A9000632D6608670403194E2D4F2D602D6808DD
:100AA00069040319542D552D602D6708DB00660875
:100AB000DA006908DD006808DC008D312625843104
:100AC0008B316023843120006C08B7006B08B600BE
:100AD0001330B80008008A31DE2285318B31832340
:100AE0008531003A0319752D762D862D8B311F2304
:100AF0008531003A03197D2D7E2D822D0130200095
:100B0000C500BE2D02302000C500BE2D8B311F2335
:100B10008531003A03198D2D8E2D922D0330200042
:100B2000C500BE2D04302000C500BE2D8B319F2393
:100B300085318B318A238531003A0319A02DA12DEF
:100B4000D42D8D31AA258531D42D8B319F2385312C
:100B5000D42D8B318A238531003A0319B02DB12D64
:100B6000D42DA12D8B310B238531003A0319B92DDA
:100B7000BA2DD42D8F3137278531D42D4508F90072
:100B8000FA017A08003A0319C62DD42D7908013AE2
:100B90000319962D033A0319A52D013A0319A92D1E
:100BA000073A0319B22DD42D8A31E122853108008C
:100BB00000308C31EC2485312100D400540A031D0F
:100BC000E22DE32DEC2D1030D40010302000DA009F
:100BD00000308E311726853101308C31EC2485317F
:100BE000AA3A0319F42DF52DFC2DAA302000DA00C5
:100BF00001308E311726853102308C31EC2485315D
:100C0000003A0319042E052E0B2E2000DA010230C3
:100C10008E311726853103308C31EC248531303A02
:100C20000319132E142E1B2E30302000DA0003304F
:100C30008E311726853104308C31EC248531313AE0
:100C40000319232E242E2B2E31302000DA000430FD
:100C50008E311726853105308C31EC248531323ABE
:100C60000319332E342E3B2E32302000DA000530AB
:100C70008E3117268531080077080319402E412E42
:100C8000872E892E770886008701033081007D300A
:100C9000F0000030F1000130F2000030F3008C3140
:100CA0006324863103302000C9007708860087015D
:100CB000413FCA007708023E86008701403FCB00D3
:100CC000413FCC003C30F4000630F5004930F600DE
:100CD0008C310024863102309F2E770A86008701EE
:100CE0000108F000F1017708023E86008701403FCD
:100CF000F200413FF3008C31632486310030F40070
:100D0000F500F6018C310024863104309F2E01302D
:100D10009F2E7708860087010108F800F9017908FD
:100D2000003A0319942E872E7808023A0319422EAE
:100D3000013A03196D2E073A03196D2E872E08000C
:100D40008B3165238631003A0319A72EA82ED62EA3
:100D5000B52E8B3133238631F52E8B3138238631F6
:100D6000F52E8B3142238631F52E21002F08F70016
:100D70000630A03E86008701413F8A00403F0A00BE
:100D80008631F100F2017208003A0319C82EB12E23
:100D90007108013A0319B12E033A0319A92E013A39
:100DA0000319AD2E073A0319B12EB12E21003D10C3
:100DB0003808F2003708F100B70A0319B80A7108B9
:100DC00084007208850000088B31292386310130A8
:100DD0002100B9020030BA3B39083A04031DF12E54
:100DE000F22EF42E0630F52E033008002000C40148
:100DF000D630DA000A30DB008B31CA238631D73097
:100E00002000DA000A30DB008B31D3238631D83062
:100E10002000DA000A30DB008B31DC2386316B30B6
:100E20002000DA000B30DB008B31F72386318D3167
:100E3000102586318531D82586318C31FC248631C8
:100E40008B170B178B3108238631210054088D3105
:100E50005625863170302000DA002330DB008C31DB
:100E60004924863180302000DA002330DB008C31C9
:100E7000BD24863180318820863190302000E60004
:100E80002330E70083318423863164003A2F803198
:100E90005E288A31F322873121003D1C502F512FCB
:100EA0005C2F8B3165238731003A0319582F592F56
:100EB0005C2F0F302100BB0021003D18602F612FF7
:100EC000872F8B3165238731003A0319682F692FEB
:100ED000872F21003B08F300F401F335F40D0030B7
:100EE000730784001030743D80388500013F8A000C
:100EF000003F0A0087312100BB000A303B06031D7A
:100F0000822F832F9B2F8B312E2387319B2F210004
:100F10003B08F300F401F335F40D0030730784004F
:100F20001030743D80388500013F8A00003F0A0080
:100F300087312100BB00080022008C018D018E0149
:100F4000333021008C00F0308D00FF308E00913066
:100F500023008E008D0137308C0024008D018C0120
:100F60008E0125008C018D018E01373026008C000A
:100F7000F0308D00FF308E003F3027008C00F030C5
:100F80008D00FF308E009910991119139810981147
:100F90001813971497151717210010160F303C00DF
:100FA0009E000C30A00019303D009E001B309F00B9
:100FB0001A309D0018309C000E303C00A1000D300E
:100FC0009D0008002000DA00DB01DB0A2100BD18CB
:100FD000EA2FEB2FFD2FBD142000DB015A08031967
:100FE000F22FF32FF72F2100BB01BB0AFA2F02309B
:100FF0002100BB008A31F622873120005B080800FF
:1015AC000800080008000130080024001108080099
:1015BC0020009111080024001516080024009E1428
:1015CC00080024001E15080024009E1508002400A5
:1015DC00190808002000921508002000921108003C
:1015EC0024001E14080020009211080021009215FE
:1015FC00080024009D12080021009211080021000F
:10160C0091150800200097170800240014080139D0
:10161C00080024009E161E16080024009E121E169A
:10162C000800873149278B3108000E3021009700C4
:10163C0008002400140C890C01390800F000700813
:10164C00240091000800F0007008240099000800A4
:10165C002100BD10BC010E3008008A31E4228B3110
:10166C00013008008A31E4228B31023008008A31C3
:10167C00E4228B31013008008A31E7228B310030B3
:10168C0008008B3113238B31053008008B310F236D
:10169C008B310A3008008B310F238B310930080055
:1016AC002100BD10BC010E30080000308731E2274C
:1016BC008B31080001308731E2278B310800240080
:1016CC001E0E890C890C013908000130F0007008DD
:1016DC002000C407080020005B08A5005A08A400DD
:1016EC00080020005B08B1005A08B0000800200078
:1016FC00DA005A3524009300080003102400941ECD
:10170C0003140030093D080003102400141C0314BA
:10171C000030093D080021003D108A31EA228B314E
:10172C00043008002000DA005A08FE392400920028
:10173C0008008A31DB228B312000C7000130C60043
:10174C0008003200910192019301940195019601D8
:10175C0008002000BC01BC0A0130F8007808BB0767
:10176C00013008002000B301B30A0130F8007808FA
:10177C00B2070130080021003D140314360D8B31E3
:10178C0029238B310530080020005B082100D30091
:10179C0020005A082100D200080020005B0821001C
:1017AC00D10020005A082100D000080020005B085E
:1017BC002100CF0020005A082100CE000800240090
:1017CC009C0108309D009E0109309A009D12080072
:1017DC006030320099009B019D0103309F009E01F7
:1017EC00080020005B082100CD0020005A082100D1
:1017FC00CC0008007508F1007408F0007608F200BF
:10180C0000308D31CE258C31080020005F08DB00C4
:10181C005E08DA006008DC0002308D31F2258C3174
:10182C00080020005F08DB005E08DA006008DC00BE
:10183C0000308D31F2258C310800640080010131BB
:10184C000130FE020030FF3B7F087E04031D242C78
:10185C000034F000703031009200700891001517C0
:10186C0015140000000031001308080024009D1A14
:10187C00402C412C482C9C0108309D009E010930C5
:10188C009A009D16080027302000B9005B08A100C3
:10189C005A08A000B801B701B501B301B2010800A4
:1018AC00493020009800613096009501901221007B
:1018BC00901680302000970008002100BD1D672C79
:1018CC00682C712C7108B8007008B7007308BA0046
:1018DC007208B900BD11080021003D1436358B315A
:1018EC0029238C312100BD197C2C7D2C7F2C0330BD
:1018FC00802C0A3008002100520853040319872C4D
:10190C00882C8D2C53088A0052080A008C31270031
:10191C00991008002100500851040319962C972C9B
:10192C009C2C51088A0050080A008C312700991110
:10193C00080021004E084F040319A52CA62CAB2C33
:10194C004F088A004E080A008C3127001913080032
:10195C002000901221004C084D040319B62CB72C12
:10196C00BC2C4D088A004C080A008C310800200061
:10197C005B08A3005A08A200C201C101C001BF014B
:10198C00BD01BD0A4130C300BC0108002400951AFA
:10199C00D02CD12CDB2C940106302000DA005A0814
:1019AC0024009504813096009516080024009401BB
:1019BC0006302000DA005A08240095048130960085
:1019CC00951201302000C600FB0108002000DA004F
:1019DC0070303100920020005A0831009100151728
:1019EC001514000000003100130808002000DB0172
:1019FC005B08703E860087012330873D81010130F2
:101A0C00DA005A08DB0780305B02031C0E2D0F2D09
:101A1C00FE2C08008B31A7238D318C31DC248D31C9
:101A2C008B31E5238D3187319C278D318B31EE2322
:101A3C008D318B311B238D318C3156248D31080027
:101A4C002100BD1D2A2D2B2D3C2D20005B082100D3
:101A5C00B80020005A082100B70020005D082100C2
:101A6C00BA0020005C082100B900BD110800270055
:101A7C00991C412D422D452D8C3181248D3127000F
:101A8C00991D492D4A2D4D2D8C3190248D312700D7
:101A9C00191F512D522D552D8C319F248D3108003D
:101AAC002000DC008C31CC248D3120005C088B3183
:101ABC0098238D317F308B317D238D316B3020001D
:101ACC00DA000530DB008B3177238D318B31052328
:101ADC008D3108002000DA01DA0A2100BD18772DBB
:101AEC00782D882D3D11FF30B6008A31F9228D31C9
:101AFC008B3102238D318A31FF228D3121003C083C
:101B0C002000DA0020005A080800F10000308B1B7E
:101B1C000130F200703031009200710891007008B1
:101B2C009300151715158B1355309600AA30960097
:101B3C0095149518A22DA32D9F2D1511720C031C15
:101B4C008B1303188B17080080307B020318AF2D02
:101B5C00B02DB82D7B088C312F248D318B31242363
:101B6C008D31C92D7B08F100F201F030F3002230E9
:101B7C00F4007108730786007208743D8700010831
:101B8C008B3124238D310130F1007108FB070800E3
:101B9C00F300700871040319D42DD52DE42D733581
:101BAC00A03E860087017008C03F7108C13F7308D2
:101BBC00AC3E8600870172088100F12D7335A03E82
:101BCC0086008701D930C03F0A30C13F7308AC3E54
:101BDC0086008701810108002000DD005A085B04A3
:101BEC000319F92DFA2D092E5D35A03E86008701CB
:101BFC005A08C03F5B08C13F5D08AC3E86008701B8
:101C0C005C088100162E5D35A03E86008701D93018
:101C1C00C03F0A30C13F5D08AC3E860087018101A0
:101C2C0008002000DB0000308B1B0130DC00703022
:101C3C003100920020005B083100910020005A080E
:101C4C0031009300151715158B1355309600AA30DB
:101C5C00960095149518332E342E302E1511200025
:101C6C005C0C031C8B1303188B17080021003D1010
:101C7C000230BC00492E8B313D238E31632E8B31CB
:101C8C0042238E31632E2E08F7000430A03E8600CE
:101C9C008701413F8A00403F0A008E31F000F1017C
:101CAC007108003A03195B2E452E7008023A03198D
:101CBC00412E013A0319412E452E080077080319CD
:101CCC00682E692E8D2E770A860087010108F00098
:101CDC00F1017708023E86008701403FF200413F48
:101CEC00F3008C3163248E310030F400F500F601E2
:101CFC008C3100248E317708860087010108031986
:101D0C00882E892E8B2E04308E2E02308E2E013092
:101D1C0008002100BD159F2E8B313D238E31BB2E2B
:101D2C008A31F0228E310330BB2E8B3142238E311F
:101D3C00BB2E2C08F70021088A0020080A008E31DF
:101D4C00F000F1017108003A0319AD2E9B2E7008BA
:101D5C00013A03199B2E033A0319922E013A0319E7
:101D6C00922E073A0319962E9B2E08002000E500B0
:101D7C0043088F31BA278E31003A031DC62EC72E69
:101D8C00F72E20006208D2006408D4006308D30048
:101D9C00D1016430DE000E30DF005130E0008C31B8
:101DAC0017248E3120006508D9005930DA00003034
:101DBC00DB000130DC000030DD008D3126258E315A
:101DCC002000BC01AF30DE000B30DF000030E00043
:101DDC00E1008C310B248E318B315B238E31013041
:101DEC00F82E003008002000E50043088F31BA2798
:101DFC008E31003A031D032F042F352F200062086B
:101E0C00D2006408D4006308D3000130D1006430E0
:101E1C00DE000E30DF005130E0008C3117248E31A3
:101E2C0020006508D9005930DA000030DB000130A1
:101E3C00DC000030DD008D3126258E312000BC0108
:101E4C00AF30DE000B30DF000030E000E1008C3101
:101E5C000B248E318B315B238E310130362F0030C9
:101E6C0008008A31DB228F31FC0020004608031960
:101E7C00402F412F452F7C08FB00C601752F803069
:101E8C007B0203184A2F4B2F582F20307B02031C48
:101E9C00502F512F712F7C08F0007B088D318B2532
:101EAC008F31712FA0307B02031C5D2F5E2F712FA1
:101EBC007B08F300F401F030F5002230F6007308D3
:101ECC007507F7007408763DF800770886007808E7
:101EDC0087007C0881000130F3007308FB070800C1
:101EEC00210037088600380887008A31ED228F31AF
:101EFC00810001302100B7070030B83D0130B90234
:101F0C000030BA3B39083A0403198D2F8E2F932FCA
:101F1C008B3113238F310530B92FBD159D2F8B318C
:101F2C0051238F31B92F8B314C238F31B92F2C0882
:101F3C00F70021088A0020080A008F31F000F10117
:101F4C007108003A0319AB2F992F7008013A031945
:101F5C00992F033A0319952F013A0319952F073A34
:101F6C000319992F992F08002000DC00DD01DD0AF0
:101F7C0021003D19C22FC32FFD2F20005C0821002A
:101F8C00B600BD103D153D100E30BB00F430B40052
:101F9C000130B500BD15D930A0000A30A100AC014C
:101FAC00D930A2000A30A300AD01D930A4000A3008
:101FBC00A500AE01D930A6000A30A700AF0102304F
:101FCC00A8000030A900B00117302000DA000B3057
:101FDC00DB008B3171238F318A31F9228F318C31B7
:101FEC003C248F318A31FC228F312000DD0120000E
:101FFC005D0808002E340B34C1340B3472340C34AD
:10200C00A034063476340F3491340B348F340E34C0
:10201C0033340B3438340B343D340B3442340B34FE
:10202C0047340B344C340B3451340B3456340B349E
:10203C003C340E341B34003400341A340034003475
:10204C001934003400341834003400341C34003497
:10205C000034803400340034A034003400345B3459
:08206C005A34593458345C3435
:020000040001F9
:08000E00EC3FFF3FFF3FFF3F05
:00000001FF
