:10000000803180280800080080317A082000A00094
:100010007B08A1007C08A2007D08A3007E08A40044
:100020007F08A5003B308600223087002100901E0B
:1000300020282000901E20289E3100268031722822
:100040002100101E2A282000101E2A289F318927EF
:10005000803172280B1F72282100111D39282000C1
:10006000111D3928210031088A0030080A0080312A
:100070007228210091192000911932282100121DA7
:100080004B282000121D4B2821002F088A002E0823
:100090000A00803172282100921920009219442808
:1000A0002100111E5D282000111E5D282200590824
:1000B0008A0058080A00803172282100911E6A289F
:1000C0002000911E6A28220057088A0056080A005C
:1000D000803172282100911C72282000911C722806
:1000E0009E31182620002508FF002408FE00230862
:1000F000FD002208FC002108FB002008FA0009008E
:100100008031822870308400233085008030F400F4
:10011000F5019E310C2680315430F301840000300B
:1001200085001630F400F5019E310C268031A03098
:100130008400003085004D30F400F5019E310C261E
:10014000803120308400013085002C30F400F5012E
:100150009E310C268031A0308400013085001030A3
:10016000F400F5019E310C26200006308600213077
:1001700087008A31932A0230A5278031E825803113
:10018000AD278031592604307E31080090311A2085
:100190008031E8258031AD278031592680317E3F7E
:1001A000FE007F3FD328FF007E0884007F08850083
:1001B000043100087E310800AE0054308D258031B6
:1001C000AF002F08031DEB28F6280330E828043081
:1001D0002100BC00F3282F08013A0319E528033A4F
:1001E0000319E728E72820002F0808002D08210020
:1001F000E80020002C082100E700E930E501E50ACD
:1002000020278031BB01BB0ABC01BC0A2000D701FA
:100210002E082100EB0001301E0000301E00EB30E4
:100220001E0000301E00E8258031572780312B2624
:100230008031292EAC0021003D088D258031AD0094
:100240002D08031D2A2935290330272904302100D0
:10025000BC0032292D08013A03192429033A031955
:100260002629262920002D0808002B082100E70058
:100270000230E801E500E93020278031BB013E274C
:1002800080312C301E0000301E00E82580315727B9
:1002900080312B268031292680313229AD00210082
:1002A0003D088D258031AE002E08031D5E29692989
:1002B00003305B2904302100BC0066292E08013A76
:1002C00003195829033A03195A295A2920002E08DC
:1002D00008002C082100E700E80120002B0821007D
:1002E000E500E930E601E535E60D85278031BB0103
:1002F0003E2780312D301E0000301E00E825803161
:10030000572780312B268031292680316629AE017E
:10031000DF2C1330B50004303402031C9429023062
:100320002000D6001730932C2000D601D60AEA2CE4
:100330003227803139302D258031003A0319A22926
:100340000230932C0130932CED248031013A0319B3
:10035000EA2C07258031003A031DB2292100B40A96
:10036000B501EA2C21000F30B401B500D51FBB291F
:10037000D5130330B500590A0319C229FF30D9003B
:100380000330B5005A0A0319C929FF30DA000330D7
:10039000B5005B0A0319D029FF30DB000330B5003C
:1003A0005C0A0319D729FF30DC000330B5005D0873
:1003B0000319DD29DD010330B5005E080319E329C7
:1003C000DE010330B500611DEA2C61110330A22C5F
:1003D0003827803139306D258031003A0319EA2CF5
:1003E0000430932CED248031013A0319EA2C0725BF
:1003F0008031003A0319AE292100B4010930932C51
:10040000962780314C258031003A0319092A06309D
:10041000932C0530932CED248031013A0319EA2CFA
:1004200007258031003A0319AE2921000130B401BB
:10043000B500D518092AEA2C3227803138302D250D
:100440008031003A0319262A0C30932C0B30932C60
:10045000ED248031013A0319EA2C07258031003A56
:100460000319AE2921000130B401B500640A031953
:100470003D2AFF30E4000D30A22C02302000E200C3
:10048000EA2C3827803138306D258031003A031945
:10049000EA2C0E30932CED248031013A0319EA2C1A
:1004A00007258031003A0319AE2921000530B40137
:1004B000B5003D2A962780314C258031003A03193A
:1004C000FE290A30932CED248031013A0319EA2CDD
:1004D00007258031003A0319AE2921000F30B401FD
:1004E000B500D518FE29EA2C322780313A302D2567
:1004F0008031003A03197E2A1030932C0F30932C50
:10050000ED248031013A0319EA2C07258031003AA5
:100510000319AE2921001930B401B50055030319A0
:10052000EA2C0130D5001130A22C382780313A3026
:100530006D258031003A0319EA2C1230932CED24FA
:100540008031013A0319EA2C07258031003A03195A
:10055000AE292100B4010730932C692780310B2587
:100560008031003A0319EA2C1430932CED248031A9
:10057000013A0319EA2C07258031003A0319AE2904
:1005800021001730B401B500A001A101EA2C6927B0
:1005900080310B258031003A0319EA2C1630932C58
:1005A000B62A200063080319002B21003308031D1D
:1005B000EB2AF6258031003A0319FE2A0430B301F4
:1005C000B30A9631822680310D30890BE52A00006E
:1005D0007A268031FE2AF6258031003A0319FE2A58
:1005E0006F26803102302702EE3003192602031CE9
:1005F000FC2A0F308B2780312100B3010330032BFD
:1006000021000230B3012000D600620BEA2C033037
:1006100056060319262AEA2C962780314C2580316C
:10062000003A0319AB2A0830932CED248031013AAB
:100630000319EA2C07258031003A0319AE2921005D
:100640001930B401B500D518AB2AEA2C7F278031C8
:10065000AC0A0B258031003A0319EA2C1A30932C8E
:10066000ED248031013A0319EA2C07258031003A44
:100670000319AE2921001B30A12C40306F27803197
:100680000B258031003A0319EA2C1C30932CED2401
:100690008031013A0319EA2C07258031003A031909
:1006A000AE2921001D30A12C3C306F2780310B2555
:1006B0008031003A0319EA2C1E30932CED2480314E
:1006C000013A0319EA2C07258031003A0319AE29B3
:1006D00021001F30C22A2000630B702B2130622CB6
:1006E0005027803103192002031CEA2C6327803134
:1006F0004C258031003A0319EA2C2030932CED244C
:100700008031013A0319EA2C07258031003A031998
:10071000AE292100B401551E902B21309127803144
:100720002100551C952B1F30A22C1330A22C3227F0
:100730008031F8302D258031003A0319A12B223069
:10074000932C2130932CED248031013A0319EA2CAB
:1007500007258031003A0319AE2921002330B40166
:10076000B500D530903199208031EA2C3227803184
:10077000FB302D258031003A0319C02B2430932CF7
:100780002330932CED248031013A0319EA2C0725FC
:100790008031003A0319AE2921002630A12C792797
:1007A00080310B258031003A0319EA2C2730932C35
:1007B000ED248031013A0319EA2C07258031003AF3
:1007C0000319AE2921002A30A12C7F2780310B2567
:1007D0008031003A0319EA2C2B30932CED24803120
:1007E000013A0319EA2C07258031003A0319AE2992
:1007F00021002830A12C40306F2780310B2580311B
:10080000003A0319EA2C2930932CED248031013A67
:100810000319EA2C07258031003A0319AE2921007B
:100820002530A12C2C30B500D530903138208031C6
:10083000EA2C38278031F8306D258031003A0319D1
:10084000EA2C2D30932CED248031013A0319EA2C47
:1008500007258031003A0319AE2921002E30A12C42
:1008600038278031FB306D258031003A0319EA2C9E
:100870002F30932CED248031013A0319EA2C0725FF
:100880008031003A0319AE2921003030A12C3C30D0
:100890006F2780310B258031003A0319EA2C313063
:1008A000932CED248031013A0319EA2C072580317D
:1008B000003A0319AE2921003230C22A2000630B0E
:1008C000662C3430210091278031EA2C502780316A
:1008D00003192002031CEA2C632780314C25803148
:1008E000003A0319EA2C3330932CED248031013A7D
:1008F0000319EA2C07258031003A0319AE2921009B
:10090000B401551E862C3430912780312100551CAE
:10091000952B3230A22C792780310B258031003A7B
:100920000319EA2C35302100A22CED248031013A44
:100930000319EA2C07258031003A0319AE2921005A
:100940001930B401B500EA2C200063080319D32C38
:1009500021003308031DBE2CF6258031003A03190F
:10096000D12C0430B301B30A9631822680310D3088
:10097000890BB82C00007A268031D12CF6258031E5
:10098000003A0319D12C6F26803102302702EE3055
:1009900003192602031CCF2C19308B27803121002C
:1009A000B3010330D62C21000230B3012000D60061
:1009B000620BEA2C02305606031DA229EA2C210004
:1009C00035088400373004020318EA2C99310435C5
:1009D000003E820020002E0808002000A601A60A82
:1009E0002200C318042D43113C30840001308500DF
:1009F000FF308000200091112100911124009512F8
:100A0000220042082000A600200026080800540802
:100A1000031901340034AD0055088D258031003AAA
:100A2000031D0034732780312D082100D6002000DB
:100A30002B082100D70020002C082100D80004300A
:100A400048278031E8258031D5302000A9000030CA
:100A5000AA00FC25803129260134AD0055088D25DA
:100A60008031003A031D00342C082100E700E80122
:100A700020002B082100E500E930202780312000EC
:100A8000D4012D0827278031E82580315D2780316A
:100A9000FC25803129260134AC0055088D25803194
:100AA000003A031D00342B082100E700E930E8017B
:100AB000E501E50A202780312000732780312C08CA
:100AC0002100D600023048278031E82580315D279B
:100AD0008031FC25803129260134AD0055088D2553
:100AE0008031003A031D00342C082100E700E801A2
:100AF00020002B082100E500E930E6018527803140
:100B00002000D4012D0827278031E82580315D277A
:100B10008031FC258031292601342000A800A9015C
:100B2000A90A22004319E52D3C30840001308500DC
:100B30002000280880002200C310431543104130D4
:100B40008400013085000E3080000130BB00F4309D
:100B5000BA00C315D530A0001D30A100AC01AD0115
:100B6000A300D530A200AE01AF011D30A500D530E5
:100B7000A400B001B1011D30A700D530A600B2011C
:100B8000B3011D30A900D830A800B401B501BC30B4
:100B90002000A6001230A700D62680312000911137
:100BA0002400951ADC2DD52DDC2D940108309500FC
:100BB0004F309601920095162100911520000130CA
:100BC000A901A6001230A700182720002908080054
:100BD0002200C31DF42D7E3FBD007F3FBE007C3F41
:100BE000BF007D3FC000C3117C31080003109D1C75
:100BF00003140030093D080029081E002A081E00C1
:100C0000C6301E0000301E0059268031D73020002B
:100C1000A6001E30A700EF30A8004F268031D73045
:100C20002000A6001E30A700EF30A800E826803183
:100C3000D7302000A6001E30A700EC30A8006526A3
:100C40008031D7302000A6001E30A7006C30A800ED
:100C5000DE2E0030F22E29081E002A081E000C305D
:100C60001E0010301E0059268031BA302000A60028
:100C70001E30A700EC30A8004F268031BA3020008B
:100C8000A6001E30A700EF30A80065268031BA30DC
:100C90002000A6001E30A7006C30A800DE2E280819
:100CA0001E0000301E0026081E0027081E0002300D
:100CB0007D2E7C3F1E007C3F1E007C3F1E007C3F43
:100CC0001E0000307D267C31080028081E00003000
:100CD0001E0026081E0027081E0001307D2E1C085D
:100CE0002000A700A60121001B082000A60703186A
:100CF000A70A080021009D1408004131FF3F7D3FF5
:100D000003197E3F0319AB2E7F3FFE002030FF0109
:100D1000FE35FF0DFC000130FD007E087C078400DD
:100D20007F087D3D85007D3F803F7E3F813F7F3F47
:100D3000FE002C30FF01FE35FF0DFC000130FD00F0
:100D40007E087C0784007F087D3D85007B3F803FD7
:100D50007C3F813FD42ED530FE001D30FF007F3F09
:100D6000FC002030FD01FC35FD0DFA000130FB00D8
:100D70007C087A0784007D087B3D85007E08803FE3
:100D80007F08813F7F3FFE002C30FF01FE35FF0DC5
:100D9000FC000130FD007E087C0784007F087D3D5B
:100DA00085000030803F813F7B310800270821000B
:100DB000B100200026082100B000080028081E000D
:100DC00001301E0026081E0027081E0004307D2E5C
:100DD00028081E0000301E0026081E0027081E00DE
:100DE00003307D2E2000A700A801A80A2200C31C02
:100DF000FC2E200028080800C31420000030A801A1
:100E000015278031132780312708413084000130B5
:100E1000850003190E2F01308000102F0230800052
:100E200024001614F92E1F150800A6009D000800C6
:100E300027082200CD00200026082200CC00080050
:100E4000E6018400003085000230800008002100A7
:100E5000EA0001301E0000301E00EA301E000030A3
:100E60001E00080010302000AB00D530AC00080098
:100E700010302000AB00D530AC000800BB0ABC012C
:100E8000BC0A20000130D7011E0000301E000800FF
:100E90001E0000301E00D5301E0000301E0008006D
:100EA0002100A00A0319A10A003021026434E530B0
:100EB0002000A9000030AA000800E5302000A900A9
:100EC0000030AA000800D530A001A1012000AB002D
:100ED00006343C302000AB002830AC000034200049
:100EE000AB00AC000034FE30D4012100D50020005E
:100EF000080040302000AB000030AC0108002000AA
:100F00000030AB01AB0AAC01080084000030850062
:100F10000430800008002100B5002000AE01AE0AB8
:100F20000800B50004302000D6000800D5302000AD
:100F3000AB0006340230A5278031E8258031AD278B
:100F40008031592602307E3108001E0000301E001C
:100F50007C3F1E007C3F1E00080000301E001E006B
:100F60001E001E0008008F31A327873102302000A9
:100F700061060319BF2F0C306106031D0800210014
:100F80004308031D0800E4278731F02F00302000BC
:100F90000C1901302100C50022006A08031D080059
:100FA0000230200061060319D92F0C306106031DA1
:100FB000080021004508031D080020005C08031DEF
:100FC0000800E4278731F02F2100BC01B801B701E8
:100FD000B601BB012000D7012100BA01B901080008
:100FE0000D302000E1002200EA01EA0A21000C1184
:100FF00022000C112100EE01EE0A22000E11080061
:101000000800220043102400961504342000A60096
:101010002100BD00BC01B801B701B601BB01200031
:10102000D70121002030BA01B9018F31262788313C
:101030002000A8002130A7018F3126278831200009
:10104000A7070318A80A2808FF002708FE007F0D3D
:10105000FF0CFE0C7F0DFF0CFE0C7F0DFF0CFE0C39
:101060007E0827022100A8007F082000283B2100DD
:10107000A90083308F31262788312100A7008430D2
:10108000A6018F31262788312100A6070318A70A59
:1010900085308F31262788312100A5008630A401B4
:1010A0008F3126272100A4070318A50A0800200075
:1010B0008130AC018F3126278831013A031D6A281F
:1010C000D320AA0082308F312627883120002A06BB
:1010D00003196D282000AC01AC0A00308F3126279F
:1010E00088312200EB006B0A031D6B08031D7B286F
:1010F0002000AC01AC0A20002C0803199B281030FA
:101100001E0000308F310C278831AA301E000130BC
:101110008F310C278831C1301E0020308F310C27D1
:10112000883180301E0021308F310C278831E32038
:1011300010302200EB0030308F312627883120001C
:10114000AB002B0A031DA72800301E00BD287730F6
:101150002B06031DAE28E001E00AC52888302B06C7
:101160000030031DBC281E0030308F310C27883121
:1011700002302000E000C3281E0030308F310C27E1
:1011800088312000E001AC01AC0A2C0803190800EA
:10119000D3201E0082308F310C27883101301E0091
:1011A00081308F310C2F2000A601A70127088F3135
:1011B000262788312000A6078030A70A2702031CB3
:1011C000D628260808002100A601A701A401A50130
:1011D0002000A601A701A801A90127081E0083304D
:1011E0008F310C2788318F31BB2788318F310C2705
:1011F00088318F31C32788318F310C2788318F3167
:10120000BF2788318F310C27A03084002330850020
:1012100000140800AF270130DD000800C8002030AE
:10122000262789312000CA002130C9012627200045
:10123000C9070318CA0A6430C200C3014808FE0087
:10124000FF01FE1BFF03C2027F08C33B4A08C10027
:101250004908C0006430C400C5019531A325893117
:101260004108CA004008C9004A082100A700200020
:1012700049082100A6002408A6022508A73B200053
:101280004A082100A300200049082100A20090275D
:101290008931210025082000A90021002408200010
:1012A000A80027081E0083300C278931BB2789310D
:1012B0000C278931C32789310C278931BF27893110
:1012C0000C270800872ABA01B801B80A922A003010
:1012D0009431EB248931003A0319922A023021001B
:1012E000B800B901922A20007330AB01AB0AAC0000
:1012F0002330AD0000308031DC208931D20052082B
:10130000031D922A0330822AD12789312000D2007E
:10131000023A031D8D290430822A52030319922AAE
:10132000CC278931031C9C290430B901B8007330E3
:101330009131EA218931922A0230832A68302000D3
:10134000AB00003081311A218931003A031D922A05
:101350000C302100B8000530B70004300F2A0230ED
:10136000BA01BA0A262789312000D200803A03192F
:10137000BE2980301E0002300C278931A030840045
:101380002330850000112000E81CC929E810063030
:10139000822A0A30822A20006830AB01AB0AAC00F6
:1013A000003081314E218931003A031D922A0C30E0
:1013B0002100B8000930B70006300F2AA0308400A1
:1013C0002330850000152408A6072508A73DA401A1
:1013D000A50190278931A801A90127081E008330A3
:1013E0000C278931BB2789310C278931C3278931E3
:1013F0000C278931BF2789310C278931C9296830E9
:101400002000AB004D3081311A218931003A031D93
:10141000922A0C302100B8000B30B7000A30B60019
:10142000922A200069082100A300200068082100FA
:10143000A20023081E0085300C27893121002208D4
:101440001E0086300C2721002308A5002208A400D6
:101450002608A2072708A33D23082000C900210071
:1014600022082000C800953171258931FF008B309A
:101470009F318327893121002908803A2000D1003B
:1014800021002308803A20005102031D4A2A21002E
:1014900022082802A030840023308500031C522A31
:1014A0008014532A80100D30822AD12789312000E0
:1014B000D200023A031D5F2A21003708832A520313
:1014C0000319922ACC278931031C782A0D30B901DF
:1014D000B8000230BA01262789312000D200520814
:1014E0000319922A00301E0002300C278931922AFB
:1014F0003608832A01309431EB248931003A0319EC
:10150000922A0E302100B800922AB801922A2100B6
:10151000380884000F3004020318852A99310435F5
:10152000AC3E8200352F2300B401B501B301B201F6
:101530002000DB01933152238931DB302000A600EB
:101540001D30A7009431E32489314B2789310030C5
:101550000C1901302100C500A3278931AF2789313B
:101560005E082200E8002100C630C0012000A6006D
:101570000730A7004327B3302000A6000730A7009C
:1015800094312B2489310A302000A6000930A700AD
:1015900094313324893143302000A6001E30A70047
:1015A00094311B24893152302000A6001E30A70040
:1015B000943123248931F7302000A6001D30A70084
:1015C000943143248931E1302000A6001030A70077
:1015D00094313B24893121000E1424000E14220082
:1015E0000C1521000C157727EE0122000E158C1624
:1015F0008B170B178831572089319F313D2789314F
:1016000055309E3161268931363088310620893146
:10161000953121258931AA278931801584006430CC
:101620008000933098278931031D352B182B352BDB
:1016300020006208031D252B1E2B252B0130E20004
:1016400077301E0080300C2789310230200062067E
:10165000031D3E2B2C2B3E2BB5278931E201003098
:101660001E0080300C2789313E2B9330C7278931EB
:1016700003193E2B3C2B3E2BB52789319030C727D1
:101680008931031D4C2B452B4C2B20008C1A4C2BE5
:101690004A2B4C2B22008C16903098278931031D41
:1016A0005A2B532B5A2B20008C1E5A2B582B5A2B5B
:1016B00022008C1220005C0803196F2B602B6F2B0B
:1016C0007D27893144084E278931031D692B053058
:1016D0007C02031C6F2B6D2B6F2B2000DC01200084
:1016E0005D080319D72B752BD72B5F082100C40089
:1016F00001302000DC005E082200680603198B2BF5
:10170000822B8B2B0530210040020318942B892B50
:10171000942BC00AD72B2100C00120005E082200B4
:10172000E8002000DD01D72B20005E080319BB2B49
:101730009A2BBB2B0B306106031DA82BA02BA82BCB
:10174000DD012100C00120005E082200E800D72B47
:101750008731E42789310D302000E1002200EA01C1
:10176000EA0A21000C1122000C112100EE01EE0A00
:1017700022000E11CF2B083061060319CD2BC12B8F
:10178000CD2B0B3061060319CD2BC72BCD2B0D3084
:101790006106031DCF2BCD2BCF2B0C30E100200099
:1017A000DD012100C00120005E082200E8002000C9
:1017B00060030319A62E210046080319292D2000D5
:1017C0005F08D300210047082000D302210046080B
:1017D00020005302031C342D2100C601342D023099
:1017E00060060319772C0A302100842789310130E3
:1017F000872C0230882C8D1B022CFF2B022CA6017B
:10180000A701052C7730A600A70171308400233092
:101810008500260880008D1A122C0F2C122CA8018E
:10182000A901152C7730A800A9017230840023305B
:101830008500280880000330882C01309531D2259E
:101840008931003A0319342D0430872C00302000F0
:10185000A60021000C1122000C11EA01EA0AE9019C
:10186000E90A200026082100ED00EE01EE0A220020
:101870000E1102302100842789310530872C023077
:101880009531D2258931003A0319342DEE01220019
:101890000E1522000C1521000C1577278931063012
:1018A000872C35278931003A0319342D0730872CCE
:1018B00032278931D30002305302031C342D083003
:1018C000882C7330840023308500013080005E084E
:1018D000031D8A2C0C30872C033021002D0244304C
:1018E00003192C020318792C0230842789310B301C
:1018F000872C1430842C003021002B026A3003190D
:101900002A020318742CFF30842789310930200003
:10191000E100342D7030840023308500033100084D
:10192000013A03196C2C033A03197B2C6A2C23000F
:101930003408031DB52C32278931023A031DC52C0A
:101940005F08D300230030082000D3022830530260
:10195000031C342D2300340803196A2C22000C15B3
:1019600021000C1577278931772C00302000A60044
:1019700021000C1122000C11EA01EA0AE901E90A2E
:10198000200026082100ED009B2C5F082300B000FA
:10199000342D2300B401B40A220069080319DB2C9A
:1019A00021006D08031DDB2C22000C1521000C15F5
:1019B00077278931E92C20007D2789316D084E2752
:1019C0008931031DE52C06307C02031CE92C210023
:1019D000ED018A278931342D23003208031D342D6F
:1019E000B4012100EE0122000E158C1623003508EB
:1019F0000319342D20005F08FE00FF017F08FD0061
:101A0000230033084E278931031D082D04307C0242
:101A1000031C342D2300B501B301772C3527893100
:101A2000003A0319342D0B302000E10022000C1580
:101A300021000C1577278931342D35278931003A5B
:101A4000031D6A2C342DE1012100EE0122000E1548
:101A5000342D2000610884000F3004020318232D68
:101A6000993104358E3E82009E3171268931003ACB
:101A700003193C2D62218931073020006102031CCB
:101A8000A82E0D3061060319A82E913098278931B0
:101A900003197C2E8131872189315808031D7F2D40
:101AA0007C2E0430262789312000DA0003302627D7
:101AB00089312000D9000230DB00D801962D063094
:101AC000262789312000DA000530572D08302627D7
:101AD00089312000DA000730572D0A302627893156
:101AE0002000DA000930572D0C30262789312000DC
:101AF000DA000B30572D9E31A0268931962D5B08D8
:101B0000B93A0319512D063A03195F2D7F3A03198B
:101B1000662D013A03196D2D033A0319742D013A0C
:101B200003197B2D073A03197B2D962D3227893116
:101B3000023A031D7C2E580B7C2E23003208031919
:101B4000462E7C2E5A081E0004300C2789312000B6
:101B500059081E0003300C278931FF302000E500B2
:101B6000792E5A081E0006300C27893120005908AA
:101B70001E000530AB2D5A081E0008300C27893195
:101B8000200059081E000730AB2D5A081E000A30ED
:101B90000C278931200059081E000930AB2D5A0846
:101BA0001E000C300C278931200059081E000B3014
:101BB000AB2D5A080319792E65305A020318792E75
:101BC0005A080E218931792E21006E08031D792EC5
:101BD00080308400233085002000582789319E27DB
:101BE0008931D300D20020005F082000A600210028
:101BF0000C1122000C11EA01EA0AE901E90A2000AD
:101C000026082100ED006D080319ED0A6E0803197E
:101C1000122E2300B501B50A20005F082300B3008F
:101C20000C30132E0B302000E100792E6327893110
:101C30005827893102302100D400033068278931C8
:101C40002000A60021000C1122000C11EA01EA0A72
:101C5000E901E90A200026082100ED00032E632790
:101C60008931582789319E27893168278931200099
:101C7000A60021000C1122000C11EA01EA0AE90178
:101C8000E90A200026082100ED00032E20005B0851
:101C9000003A0319792E013A0319792EB03A031943
:101CA000E42D033A0319E82D013A0319162E073AD9
:101CB0000319E82D013A03192F2E033A0319E82DD1
:101CC000013A03192F2E0F3A0319A22D023A0319D4
:101CD000B12D013A0319BB2D073A0319C52D013A5D
:101CE0000319CF2D033A0319D92D7B3A0319D92DA6
:101CF000792E2000DB01D8012100420803198F2E24
:101D000020007D27893141084E278931031D8A2E05
:101D100014307C02031C8F2E2100C2010E140B30E4
:101D200020006106031DA02E32278931023A031DCF
:101D3000A02E00309531D22589312300B100A82E84
:101D40002100BE012300B101B10AA82E8A278931E2
:101D50006400200065080319B92E650BB82EE50153
:101D60008831D32089311E0082300C278931B92E69
:101D7000E503200060030319112B3B278931003A4A
:101D8000031D112B40278931003A031D112B3227E7
:101D90008931023A031D112B230031080319112B3D
:101DA00035278931003A0319112B0B3020006106C9
:101DB0000319E22E0C3061060319E22E0930610688
:101DC000031D112B5C08031D112B5D08031D112B36
:101DD0000C306106031D062F23003508031D062F56
:101DE000200065080319FC2EE5018831D3208931D4
:101DF0001E0082300C27893121001710F830320084
:101E000098059813630021001714112BF830320045
:101E1000980598176300112B4131FF3F3100951849
:101E20000E2F15171515703092007F3F9100940109
:101E30007E3F93008B1355309600AA309600951480
:101E40009518202F15118B177E3108004131FF3F67
:101E500031001517703092007F3F91001514130860
:101E60007F3108002000560808000E302100380697
:101E70000319013400342200430C890C0139080095
:101E800021004908080027082200E7002000260852
:101E90002200E60008002000971708007E02FC00E0
:101EA000031CFD037D08803AF400803074020800B2
:101EB0005B088000813084005A08800082308400F2
:101EC0005908800008008030840023308500080015
:101ED000D300D2000E1022000E1001302100C200EB
:101EE00020005F082100C10020005F0808002200D8
:101EF000EA01E9012100ED0108005F08FE00FF0191
:101F00007F08FD0021000800C60020005F082100B6
:101F1000C70008002100EE01EE0A22000E110800A1
:101F200027082000A700210026082000A60008009E
:101F3000840023308500773000060800210002303D
:101F4000D401D40A0800003020000E18013021000E
:101F5000C3000800A0308400233085008B3400309B
:101F600020008E180130DE000800933084002330FA
:101F7000850080010800200026081E00843420000F
:101F800028081E008634200029081E00853484009D
:101F900023308500000808000A302100B90A390200
:101FA000080021003B080319FD2F8431ED248931FD
:101FB000013A0319FD2F2100BB0120005708031926
:101FC000F82F03305706031DE72F0430F62FD71CD8
:101FD000EC2F05302100BC002000571DF22F0630E9
:101FE0002100BC002000571CFD2F07302100FC2FD2
:101FF00021003C0BFD2F0230BC0021003C080800F2
:102000001A208531E82590318731AD27903186310E
:10201000592602307E3108001A208531E82590319A
:102020008731AD279031863159267E3FFE007F3FB4
:102030008031D3287E3F84007F3F8500003FFE0033
:10204000013FFF007E081E007F081E007C3FFE004F
:102050007D3FFF007E0884007F0885000231003F3D
:10206000FE00013FFF007E081E007F081E000800E2
:102070002000A7005B0F3D2808005B0B44282708C1
:10208000073E840044305928B1305B02031C4C28C1
:10209000C4305B02031C552802305B060319552827
:1020A0002708073E8400433059282708073E84004C
:1020B00041308501800002305B060319682827083B
:1020C000053E840080012708063E840080017328B5
:1020D0002708053E84008501590880002708063E30
:1020E00084005A0880002100B20120002708073E22
:1020F000840085010008A600D32090312000270825
:10210000063E840085010008A600D32090312000FF
:102110002708053E840085010008A600D320320868
:10212000FF0020002708043E840085017F0880000E
:1021300008002000A8002100B20120002808033E6A
:10214000840085010008A600D320903120002808D3
:10215000023E840085010008A600D32090312000B3
:102160002808840085010008A700280A84000008C8
:10217000A600D3209031320820002706031DD02866
:10218000280884008501033FDB0028088400023F03
:10219000DA0028088400013FD9000130D800080087
:1021A0000130DB0008002100320820002606003E36
:1021B000840098300318013E850000082100B20019
:1021C000080020008E1DE7289230EA210800923096
:1021D00084002330850077308000080020009211B1
:1021E00024001C0E0139003A0319FB282100C90103
:1021F00024001D16080003109C1E03140030093D26
:10220000003A0319112901302100C90024001C0CD7
:10221000890C0139003A03190F2901301B290230BA
:102220001B2924001C0C890C0139003A03191A29B6
:1022300003301B2904302100C800DB290030F000E6
:10224000240019082100CB00700803192B29292923
:102250002B290130CA00FA219031003A0319F828DD
:10226000803020006402031840293729402964087F
:102270008F3126279031F0007008240099008829BA
:10228000F021903184007F087D3D85000008F0003A
:10229000700824009900903020006406031D5F2917
:1022A00052295F292100540803195F2958295F2901
:1022B000D40B5F295C295F298030EA21903191306D
:1022C00020006406031D7329662973292100530821
:1022D000031973296C297329D30B73297029732966
:1022E0008130EA219031923020006406031D882954
:1022F0007A298829210052080319882980298829E8
:10230000D20B8829842988298230EA2190318829B2
:102310002000E40AF8280130F00024001908210008
:10232000CB00700803199829962998290130CA0012
:10233000F828FA219031003A0319F82803101E1FDB
:1023400003140030093D2D2924001C080139003AEE
:102350000319F82824001908F30021004A0803197A
:10236000B929B329B92973082000E4002100CA0162
:10237000DA298030200064020318CA29C029CA293A
:1023800073081E0064088F310C279031FF30200045
:10239000E500D929A0306402031CD929D029D92904
:1023A000F021FA007F087D3D9731FA2790317308BC
:1023B0008000E40AF8284808013A03191E29033A64
:1023C00003198B29013A03199929073A0319A429FA
:1023D000F8280800840023308500FF3080000800C2
:1023E0006408FE00F030FF01FC002230FD007E0892
:1023F0007C070800031024001C1C03140030093D56
:10240000080000301E00AC2292310831B2228A004E
:102410007E080A0070309231840099308500013FB7
:102420008A00003F0A009231FC226E30840099300D
:102430008500013F8A00003F0A009231FC2208001B
:102440002200A1228A007E080A009231013A031973
:10245000382A033A0319342A013A0319342A073A6D
:102460000319352A382A08009E2A200091150334C2
:102470009B2A220043104230840001308500023044
:10248000800030081E003108AC2292310431B222A3
:102490008A007E080A009231023A0319542A013A4E
:1024A0000319542A552A08009E2A9B2A1323923185
:1024B000003A031D5F2A782A952A982A9B2A22002F
:1024C00032081E003308AC2292310631B2228A0053
:1024D0007E080A009231013A03195E2A033A031971
:1024E0005C2A013A03195D2A073A03195E2A5E2A1B
:1024F000220043103E08FF003D08FE00BD0A0319FC
:10250000BE0A84007F0885000008F00070082400DF
:102510009100013022004C239231031D912A063094
:10252000922A0330F100F2010800240096140134CD
:102530002400961402342400161500342400961446
:102540000134C3152C081E002D081E002108FF00B1
:102550002008FE007F0808001E00203084000130A3
:1025600085000800003FFE00013FFF000800220038
:10257000C310C201F9220E34200091112200431C25
:10258000D02AC32AD02A13239231003A0319D02A21
:10259000CA2AD02A41308400013085000F308000E3
:1025A00022004318ED2AD52AED2A13239231003A4E
:1025B0000319ED2ADC2AED2A04238A00003F0A00D1
:1025C0009231FC2292310A3022004106031DF32A87
:1025D000EA2AF32AF4229231F32A04238A00003FE4
:1025E0000A009231FC2208002200C310C201F92225
:1025F0000E3420001F110800FF004130840001301C
:1026000085007F088000080022004108FE006E302F
:10261000FF01FE35FF0D7E07840019307F3D8038B5
:102620008500013F08002400160E890C890C013931
:10263000080024001108FF0022003D0884003E0825
:1026400085007F088000BD0A0319BE0A01304C23B3
:10265000923103192F2B2400961216160534A1224D
:102660008A007E080A009331013A0319432B033A8A
:102670000319422B013A0319422B073A0319432B42
:10268000432B0800482B442B2400961616160A34B8
:102690002400961616160934BF020030C03B3F08CE
:1026A000400408004B2493319F23933174239331CA
:1026B000842393319623933166249331702393318D
:1026C0006723933153249331CA2493316A2CE33026
:1026D00021009E009F019B019C0101309D0008008C
:1026E000A23022009700080021000230EC01EF0127
:1026F000EF0A2200EC0024009401083095009601B6
:102700004F3092009512080021006A259C010E307E
:102710009D0001309E001F172100CA002000E40127
:1027200010302200EB002100C901080060303200A7
:1027300099009B019D0107309F009E010800220027
:102740008C018D018E01173021008C00F0308D003E
:10275000FB308E00C03023008E008D0110308C00C5
:10276000503024008D0004308C001B308E0025007A
:102770008C018D018E01373026008C00A0308D0039
:10278000FF308E003F3027008C00F0308D00FF308E
:102790008E00131112151115961296139516951792
:1027A0009416941719109910991119121814981455
:1027B000981518161714971497151716CF30200070
:1027C000A6001D30A7008F3143279331D030200061
:1027D000A6001D30A7001B249331D1302000A60095
:1027E0001D30A70023249331D2302000A6001D30D5
:1027F000A7002B249331D3302000A6001D30A70062
:1028000033249331D4302000A6001D30A7003B2490
:10281000933100302000A6000830A70043249331F4
:102820002100101615303C00A40014303D00A30018
:102830001A305425080027082200E5002000260849
:102840002200E400080027082200E30020002608F8
:102850002200E200080027082200E10020002608EC
:102860002200E000080027082200DF0020002608E0
:102870002200DE00080027082200DD0020002608D4
:102880002200DC00080027082200DB0020002608C8
:102890002200DA00080032009101920193019401B4
:1028A0009501960108004D302000980030309600C8
:1028B000950190122100901602302000A6000030F1
:1028C000A700E32480302000970008001330210087
:1028D0009700080021009112FB302000A6001E3056
:1028E000A700BA2493312100111287302000A600DE
:1028F0001E30A700C2249331083023009F0090307F
:102900009D0004309E0040309B0003309C00CE3080
:102910002000A6001D30A700AA249331DE3020003D
:10292000A6001D30A700B2249331FA302000A60083
:102930001E30A700DB242100CD01D1012000E701DA
:1029400008302100D0002000E6012100CF01CE0197
:102950009116080027082200D50020002608220032
:10296000D400080027082200D300200026082200F7
:10297000D200080027082200D700200026082200E5
:10298000D600080027082200D900200026082200CF
:10299000D8000800FF309E009D0191102100911485
:1029A00003302000A6000030A7008731182723300D
:1029B00020009F00080027082200D10020002608E0
:1029C0002200D000080027082200CF00200026089F
:1029D0002200CE0008002000A80028080319FE2CC1
:1029E0008431ED249331003A031D003417259331CF
:1029F0001A303D0054259331212501341725183014
:102A00003D00910001303C00A00019303D009000D5
:102A10003C00A1011A303D009E000E303C009D009C
:102A20001B303D009C000C303C009E000134210016
:102A3000C9016A259C010E309D0001309E001F17C0
:102A4000080001302100CA002000E4012100C90172
:102A500022006B082000A6002608FE3924009A00F8
:102A60007F302000A600263524009B00EE30200099
:102A7000A6001030A7004C25933124009D1A492D43
:102A8000422D492D9C010E309D0001309E001F17E4
:102A90009D1621009215080027082100AF00200094
:102AA00026082100AE00080091000E303C00A00076
:102AB0001B303D0090000C303C00A10018303D0060
:102AC0009E0001303C009D0019303D009C003C0000
:102AD0009E010800921120009211121124009D12F3
:102AE000080020308F31262795312000CC0021307E
:102AF000CB018F31262795312000CB070318CC0A54
:102B00004908C1004808C0006430C200C3014C0835
:102B1000C5004B08C400A32595316430CA004008A5
:102B20004A02CD0041090318890ACE00CF01CE1B0D
:102B3000CF034F08D000D01FA12DCD01CE01CF0172
:102B4000D0014D0808004408B2004508B300890DC3
:102B5000893B8909B400B5004008A6004108A700D8
:102B6000890D893B8909A800A9004208AA004308E9
:102B7000AB00890D893B8909AC00AD0091269531E8
:102B80002908B9002808B8002708B7002608B600A9
:102B90006A273308C7003208C6004708C100460844
:102BA000C0000800BA00E02DBB01EE2DBB01BB0A3E
:102BB000EE2D0230DE2D21003F082000BB00EE2D5F
:102BC0003A08003A0319DB2D013A0319D42D033AD0
:102BD0000319D62D013A0319D92DDB2D21003E080A
:102BE0000319702E8531F6259531003A031900340A
:102BF00086316F2695312708C1002608C000462E71
:102C000041082100AD00200040082100AC00F4275D
:102C100095311130EE2795313F30AA00912695313C
:102C2000D62795317830B7002330B800B6269531D5
:102C3000512E41082100AB00200040082100AA00CD
:102C4000F42795310730EE2795318C30AA00912674
:102C50009531D62795317430B7002330B800B626A9
:102C60009531512E4008A6004108A7000130EE27FB
:102C700095310A30AA0091269531D62795317C30BE
:102C8000B7002330B800B6269531512E3B08003AE4
:102C90000319002E013A0319192E033A0319322E93
:102CA000512E3A08031D562E2100BF0A2100013083
:102CB000BE0108001730822695317C2E1630822600
:102CC00095317C2E0430822695317C2E1730822659
:102CD000953120003A08031D7C2E2100BF017C2E77
:102CE00020003B08003A03195A2E013A03195E2EC0
:102CF000033A0319622E662E2100BE01BE0A8631F8
:102D00007A2600342000A700A600A60DA60D2100FB
:102D10001D08200026060339260621009D001D14EB
:102D20000800AE01AF01B001B101261C9F2E2A0898
:102D3000AE072B08AF3D2C08B03D2D08B13DAA359C
:102D4000AB0DAC0DAD0DA936A80CA70CA60C29082F
:102D5000280427042604031D952E3108A9003008F5
:102D6000A8002F08A7002E08A60008000330B9000D
:102D70000A30A600A701A801A9013608AD00350850
:102D8000AC003408AB003308AA003427953126087C
:102D9000303EFF003908FC00FD01FC1BFD03370736
:102DA000FA007D08383DFA2795317F088000390800
:102DB0000319F12E0A30A600A701A801A9013608BF
:102DC000AD003508AC003408AB003308AA00F52686
:102DD00095312908B6002808B5002708B400260850
:102DE000B300B903B91B0800B82EAE01AF01B001A2
:102DF000B101290828042704260403192B2FB20146
:102E0000B20AA91B082FA635A70DA80DA90D002FE2
:102E1000AE35AF0DB00DB10D29082D02031D1A2FCF
:102E200028082C02031D1A2F27082B02031D1A2F16
:102E300026082A02031C252F2608AA022708AB3BD6
:102E40002808AC3B2908AD3B2E14A936A80CA70CCA
:102E5000A60CB20B082F3108A9003008A8002F08D3
:102E6000A7002E08A6000800290828042704260425
:102E70000319612FAE01AE0AA91B432FA635A70D7A
:102E8000A80DA90D3B2F29082D02031D512F28083D
:102E90002C02031D512F27082B02031D512F26083A
:102EA0002A02031C5B2F2608AA022708AB3B28082E
:102EB000AC3B2908AD3BA936A80CA70CA60CAE0B61
:102EC000432F2D08A9002C08A8002B08A7002A08CA
:102ED000A6000800BB01B51F7A2FB209B309B409D7
:102EE000B509B20A0319B30A0319B40A0319B50ADA
:102EF000BB01BB0AB91F892FB609B709B809B909BF
:102F0000B60A0319B70A0319B80A0319B90A013036
:102F1000BB06BC01BD01BE01BF013508340433044A
:102F200032040319BF2FBA01BA0AB51B9C2FB23560
:102F3000B30DB40DB50D942FBC35BD0DBE0DBF0D39
:102F400035083902031DAE2F34083802031DAE2F99
:102F500033083702031DAE2F32083602031CB92F87
:102F60003208B6023308B73B3408B83B3508B93BE2
:102F70003C14B536B40CB30CB20CBA0B9C2F3B0806
:102F80000319CD2FBC09BD09BE09BF09BC0A03192D
:102F9000BD0A0319BE0A0319BF0A3F08B5003E085F
:102FA000B4003D08B3003C08B20008002908BF0087
:102FB0002808BE002708BD002608BC000A30BF361E
:102FC000BE0CBD0CBC0C890BDF2F3F08B6003E08C1
:102FD000B5003D08B4003C08B3000800A801A901F1
:102FE000AD01AC01AB00080020004008A60041087C
:102FF000A7000800FB007A0884007B088500080011
:10300000003407340E3409341C341B3412341534A4
:1030100038343F3436343134243423342A342D3494
:10302000703477347E3479346C346B346234653484
:1030300048344F3446344134543453345A345D3474
:10304000E034E734EE34E934FC34FB34F234F53464
:10305000D834DF34D634D134C434C334CA34CD3454
:10306000903497349E3499348C348B348234853444
:10307000A834AF34A634A134B434B334BA34BD3434
:10308000C734C034C934CE34DB34DC34D534D23424
:10309000FF34F834F134F634E334E434ED34EA3414
:1030A000B734B034B934BE34AB34AC34A534A23404
:1030B0008F34883481348634933494349D349A34F4
:1030C0002734203429342E343B343C3435343234E4
:1030D0001F34183411341634033404340D340A34D4
:1030E0005734503459345E344B344C3445344234C4
:1030F0006F34683461346634733474347D347A34B4
:1031000089348E3487348034953492349B349C34A3
:10311000B134B634BF34B834AD34AA34A334A43493
:10312000F934FE34F734F034E534E234EB34EC3483
:10313000C134C634CF34C834DD34DA34D334D43473
:1031400069346E3467346034753472347B347C3463
:10315000513456345F3458344D344A344334443453
:1031600019341E3417341034053402340B340C3443
:10317000213426342F3428343D343A343334343433
:103180004E34493440344734523455345C345B3423
:103190007634713478347F346A346D346434633413
:1031A0003E34393430343734223425342C342B3403
:1031B0000634013408340F341A341D3414341334F3
:1031C000AE34A934A034A734B234B534BC34BB34E3
:1031D0009634913498349F348A348D3484348334D3
:1031E000DE34D934D034D734C234C534CC34CB34C3
:1031F000E634E134E834EF34FA34FD34F434F334B3
:1032000081318929813198298131A4298131E829A5
:103210008131F2298231002A82310B2A83310C2B31
:103220008331152B82315A2A8231632A82311C2A3A
:103230008231282A8231412A82314B2A8231742AF2
:103240008231802A8231952A82319F2A8231AD2AA9
:103250008231B62A8231C72A8231D02A8231D12ADC
:103260008431EA2C8331262B8331302B83313D2B63
:103270008331472B8331542B83315E2B83316B2B6E
:1032800083317F2B8331972B8331A32B8331B62B53
:103290008331C22B8431122C8331CF2B8331D82B35
:1032A0008331FB2B8431052C8331E52B8331EE2BCD
:1032B0008431192C8431232C8431302C84313A2CE4
:1032C0008431472C8431512C84315E2C8431752C0F
:1032D00084318B2C8431952C8431A42CF434123419
:1032E000EE341D34E6341D3456341234193413349C
:1032F00001340834203412349534123498341234A2
:103300009E3412349B341234E2341D34443413346A
:1033100048341334B7341234393412348B31EF2B30
:103320008B31F92B8B31FB2B8C311D2C8C31262CC6
:103330008C313F2C8C31512C8C31582C8C31612CA0
:103340008B31F92B8C31972C8C31C92C8C31EC2C96
:103350008D310E2D8D311D2D8931632989316729DC
:10336000893173298931842989319E298931AF298D
:103370008931CB298A31852A8A31852A8931DE290A
:103380008931FF298A31112A8A31552A8A317A2ACC
:043390008A31922AC2
:103B9C0008000800080008000800080008000130B0
:103BAC007E31080005307E3108002000DF0A080055
:103BBC0023001D121D16080024009612161605343B
:103BCC00220043143C35F0007008240091000334AB
:103BDC002200431403143C0DF000700824009100E3
:103BEC000534031020000E1E03140030031801309E
:103BFC00E3000800901222004E084F04031908003D
:103C0C004F088A004E080A009E31080064000130FB
:103C1C0080010131F4020030F53B7508740403197E
:103C2C0000340D2E91101A2E22004C084D0403194D
:103C3C0008004D088A004C080A009E31080001302B
:103C4C008731A5279E318531E8259E318731AD27F7
:103C5C009E318631592602307E3108000130873181
:103C6C00A5279E318531E8259E318731AD279E31C0
:103C7C008631592604307E31080020008D1A482EDA
:103C8C00F0014A2E7730F0007230F10184002330BD
:103C9C00850070088000080020008D1B572EF00155
:103CAC00592E7730F0007130F101840023308500FB
:103CBC007008800008002000A600D500D401E301A4
:103CCC002100B5012000D6012100B4012000E20141
:103CDC002100B3010800023020006102031C7A2E7F
:103CEC0007306102031C01340D30610603190134E5
:103CFC000C306106031901340E30610603190134CE
:103D0C00003408302100500203189E2E2000670852
:103D1C00A83E840001308500000823009A00200092
:103D2C00E70A083067020318E7012100D00A0800EF
:103D3C0011120800B7269E31003A0319B02E7030CC
:103D4C008400233085001B3100082000DA0001308C
:103D5C00D900B32E2000DA01D9010230DB00D801E2
:103D6C00080021003A080800C82E2000D714D42ED1
:103D7C0020005715D42E20005714D42E03302000C9
:103D8C00D700D42EF4269E31003A0319BB2E013AEB
:103D9C000319BE2E033A0319C12EC42E01307E31F5
:103DAC000800E52E2000D414F12E20005415F12E1D
:103DBC0020005414F12E07302000D400F12EF426EC
:103DCC009E31003A0319D82E013A0319DB2E033A1F
:103DDC000319DE2EE12E01307E3108007E3F840077
:103DEC007F3F850000080800242F36279E31800174
:103DFC0023001D1D0C2F20006608443E84008014F7
:103E0C00220055088A0054080A009F3123009D1C8B
:103E1C00172F36270015220053088A0052080A0073
:103E2C009F3136279E3100080319232F2200510899
:103E3C008A0050080A009F310800242F20006608D1
:103E4C00A03E84000130850023001908800020006A
:103E5C00E60A083066020318E6012100CE0A0800C3
:103E6C0020006608443E84000130850008002000D4
:103E7C00A6012608703EFE002330FF01FF3D7E08A0
:103E8C0084007F088500FF3080008030A60A26025F
:103E9C00031C3F2F70308400233085005530803F49
:103EAC00903084008830800184003030800089306C
:103EBC008400333080008A30840038308000210048
:103ECC008030D401D301D2018F3126279F31FF00DE
:103EDC00933083279F31000F7C2F93308400003068
:103EEC0080011E0080308F310C279F318F31AA2723
:103EFC008001840064308000080084002330850039
:103F0C007F08800008002700131D8E2FA5279F31E6
:103F1C00961E922FB2279F31961F962FBF279F3147
:103F2C00191C9A2FCC279F31991C9E2FD9279F3172
:103F3C00991DA22FE6279F31191E0800F32F22008E
:103F4C00660867040319AF2F67088A0066080A0021
:103F5C009F3127001311080022006408650403191F
:103F6C00BC2F65088A0064080A009F31270096124E
:103F7C0008002200620863040319C92F63088A0031
:103F8C0062080A009F31270096130800220060087F
:103F9C0061040319D62F61088A0060080A009F315A
:103FAC0027001910080022005E085F040319E32F94
:103FBC005F088A005E080A009F31270099100800EC
:103FCC0022005C085D040319F02F5D088A005C0870
:103FDC000A009F3127009911080022005A085B043F
:103FEC000319FD2F5B088A005A080A009F3127002D
:043FFC00191208008E
:020000040001F9
:08000000FF3FFF3FFF3FFF3F00
:08000E008C3FF53FFF3FFF3F6F
:00000001FF
