:1000000080316028053008007E1480312100901E68
:100010000A280B2814282000901E0F2810281428C6
:100020008C31832480315E282100101E1828192865
:1000300022282000101E1D281E2822288D3116255A
:1000400080315E280B1F252826285E282100111DDF
:100050002A282B2837282000111D2F283028372840
:1000600021003D088A003C080A0080315E282100FA
:10007000911D3B283C2842282000911D4028412802
:10008000422830282100121D4628472853282000E6
:10009000121D4B284C285328210031088A003008B3
:1000A0000A0080315E282100921D572858285E28BA
:1000B0002000921D5C285D285E284C287E100900D7
:1000C0008031622870308400233085008030FE004B
:1000D0000030FF008B31F8238031FB01FC01FD0172
:1000E00020308400003085003630FE000030FF00F4
:1000F0008B31F8238031A03084000030850030300F
:10010000FE000030FF008B31F82380317E1020008C
:100110008631C12E2000EE00430803199028912853
:100120009C285108EC004208EC0243086C020318BA
:100130009A289B289C28922BC301492B6E08860085
:1001400087010108031DA528A628922B6E088600AA
:1001500087018101810AC601C60A922B3230E00074
:100160009030E1000330E2000030E3000030E400B2
:10017000E5000030E600E700E801E901E90A0230A5
:10018000EA00EB01EB0A853109258031922B003022
:10019000E000E1000030E200E3007D30E4000030E8
:1001A000E5000130E6000030E700E801E80A02302F
:1001B000E9000330EA00EB01EB0A853109258031C3
:1001C000922BC0307D05EC0080306C06031DE928C1
:1001D000EA28F3280430C6003E0886003F0887005E
:1001E0007D088100922B0F30C6007D08C039EC00DD
:1001F0003E0886003F0887006C088100922B2C3057
:10020000E0009030E1000330E2000030E300003015
:10021000E400E5000230E6000030E7000230E800CC
:100220000430E9000530EA00EB01EB0A85310925CD
:100230008031922B3E0886003F0887007D088100B0
:1002400027308E31AE268031003A0319282929291A
:10025000922B39302000E0009030E1000130E200C4
:100260000030E3000030E400E5000230E60000303A
:10027000E7000430E8000530E9000630EA00EB0151
:10028000853109258031922B2930E0009030E10042
:100290000330E2000030E3000030E400E50002300B
:1002A000E6000030E7000230E8000630E9000730E1
:1002B000EA00EB01EB0A853109258031922B3E08DB
:1002C00086003F0887007D08810027308E31AE26EA
:1002D0008031003A03196D296E29922B38302000A5
:1002E000E0009030E1000130E2000030E300003037
:1002F000E400E5000230E6000030E7000430E800EA
:100300000730E9000830EA00EB018531092580312A
:10031000922B2630E0009030E1000330E200003004
:10032000E3000030E400E5000230E6000030E700C2
:100330000230E8000830E9000930EA00EB01EB0A7E
:10034000853109258031922B3E0886003F088700C1
:100350007D08810027308E31AE268031003A0319A6
:10036000B229B329922B37302000E0009030E10011
:100370000130E2000030E3000030E400E50002302C
:10038000E6000030E7000430E8000930E9000A30F8
:10039000EA00EB01853109258031922B2330E00002
:1003A0009030E1000330E2000030E3000030E40070
:1003B000E5000230E6000030E7000230E8000A30D5
:1003C000E9000B30EA00EB01EB0A853109258031A9
:1003D000922B3E0886003F0887007D088100273069
:1003E0008E31AE268031003A0319F729F829922B75
:1003F00036302000E0009030E1000130E2000030B3
:10040000E3000030E400E5000230E6000030E700E1
:100410000430E8000B30E9000C30EA00EB018531D4
:1004200009258031922B2030E0009030E10003302C
:10043000E2000030E3000030E400E5000230E600B6
:100440000030E7000230E8000C30E9000D30EA002F
:10045000EB01EB0A853109258031922B3E0886009D
:100460003F0887007D08810027308E31AE2680311D
:10047000003A03193C2A3D2A922B35302000E00037
:100480009030E1000130E2000030E3000030E40091
:10049000E5000230E6000030E7000430E8000D30EF
:1004A000E9000E30EA00EB01853109258031922BFD
:1004B0002F30E0009030E1000330E2000030E30034
:1004C0000030E400E5000030E600E700E8010E300F
:1004D000E9000F30EA00EB01EB0A85310925803194
:1004E000922B1430C3005108C2001030C6006E08B1
:1004F000860087018101922B6E0886008701010822
:10050000031D832A842A922B6E08860087018101AD
:10051000810AC3010030E000E1000030E200E300A6
:100520000030E400E5000030E600E700E8011030AC
:10053000E9001130EA00EB01EB0A85310925803131
:1005400003302000C3005108C200922B0030E000AD
:10055000E1000030E200E300C430E4000030E500D8
:100560000430E6000030E700E801E80A1130E90055
:100570001230EA00EB01EB0A853109258031922B1C
:100580006E08860087018101C030210044052000EB
:10059000EC007D083F396C04FD000F30C6003F3091
:1005A000EC003E0886003F0887006C0881052100AA
:1005B0004408C0392000EC003E0886003F08870050
:1005C0006C0881043F30EC006C082100C405200059
:1005D0003E0886003F088700413121004608C03FA1
:1005E0004708C13F20003E0886003F08870043318E
:1005F00021004408C03F4508C13F922B4108031D1C
:10060000022B032B072BC0014508C600922B440880
:10061000C600922B0130EC006C08C0074408C600ED
:1006200015304002031C152B162B922B1430C600DC
:100630003E0886003F088700FF3081003E088600A4
:100640003F0887004331FF30C03FFF30C13F3E08C5
:1006500086003F0887004131FF30C03FFF30C13F77
:10066000922B8C31FE2480312000EC00ED016D08CE
:10067000003A03193C2B0A2B6C08003A0319FE2A96
:10068000013A0319922B033A03190A2B0A2BC601CC
:10069000922B4608EC00ED016D08003A0319512B2E
:1006A000472B6C08003A03199E28013A0319AE281B
:1006B000033A0319C728013A0319E128073A031935
:1006C000FF28013A03191A29033A03194429013A68
:1006D00003195F290F3A03198929013A0319A4293B
:1006E000033A0319CE29013A0319E929073A0319F4
:1006F000132A013A03192E2A033A0319582A013AF8
:100700000319712A1F3A03197C2A013A0319A62AF0
:10071000033A0319C02A013A0319312B073A031986
:10072000772A472B080020004C080319982B992B97
:10073000A42B5108E7004B08E7024C086702031896
:10074000A22BA32BA42B082DCC01DA2CCF01CF0A8E
:10075000082D6608860087010108031DB02BB12B08
:10076000082D6608860087018101810A22000C1588
:1007700002302000CC005108CB000230CF00082D01
:1007800002302100CC00CC302000E0000130E1003C
:100790000030E20000308F3176278331003A0319B0
:1007A000D22BD32B082D0A302000CF000530CE00ED
:1007B0005108C8000230CD00082D22000C11503025
:1007C0002000CC005108CB000430CF006608860022
:1007D00087018101082D6608860087010108031D35
:1007E000F22BF32B082D6608860087018101810A10
:1007F00022000C1502302000CC005108CB0051081B
:10080000C8000530CF00082D0E1D072C082C1C2C0D
:100810000230CC005108CB006408860065088700D0
:1008200077300106031D152C162C192C0830CF002B
:10083000082D0630CF00082D5108E700E8016808B0
:10084000EA0048086702E900031CEA036A08803AE4
:10085000EB0080306B02031D2F2C28306902031C33
:10086000322C332C082D22000C1114302000CC0027
:100870005108CB00A62BCC30E0000330E100003063
:10088000E20002308E31EF268331003A0319492C01
:100890004A2C082D0A302000CF000730CE00063049
:1008A000CD00082D21002E0886002F0887004C0857
:1008B00081004D082000E70021002E08013E2000A5
:1008C000E800003021002F3D2000E9006808860084
:1008D000690887006708810021004E082000E700B2
:1008E00021002E08023E2000E800003021002F3DAC
:1008F0002000E90068088600690887006708810011
:100900000830CF00E62B6408860065088700773042
:100910000106031D8C2C8D2CAF2C2100CC01CC0AA0
:10092000CC302000E0000130E1000030E200053072
:100930008F3176278331003A03199F2CA02C082D84
:100940000A302000CF000930CE005108C800023024
:10095000CD0064088600650887008101082D0930F4
:10096000CF00082D4A080319B62CB72CBE2C023034
:10097000CC005108CB000330CF00082D0530CF004C
:100980005108C800082D8C31FE248331003A031D24
:10099000CA2CCB2C082D20004908031DD02CD12CAB
:1009A000D72C2100BE0120004E08CF00082D4D0895
:1009B000CF00082D4F08E700E8016808003A031946
:1009C000E22C082D6708003A0319A62B013A0319F7
:1009D000A92B033A0319C02B013A0319DD2B073A5F
:1009E0000319EB2B013A0319042C033A03193B2C8E
:1009F000013A0319522C0F3A0319832C013A0319B7
:100A0000B22C033A0319C32C013A0319E62B082D23
:100A1000080020006B0803190E2D0F2D182D470814
:100A20008E31AE268531003A031D172D182D8A2DE3
:100A30002000C1016008610403191F2D202D312DF4
:100A4000620863040319252D262D312D6108D70076
:100A50006008D6006308D9006208D8008C3192245F
:100A600085312000640865040319372D382D552D74
:100A70006608670403193D2D3E2D552D6808210099
:100A8000C0006430C100200067082100C3002000BE
:100A900066082100C200F8302000DC000530DD00CF
:100AA000C030DE008B31EC23853120006803031950
:100AB0005A2D5B2D692D7130DC000B30DD000030CC
:100AC000DE00DF008B31E02385318B312823853137
:100AD000832D6408650403196E2D6F2D802D660823
:100AE00067040319742D752D802D6508D7006408DF
:100AF000D6006708D9006608D8008C319224853169
:100B00008B312D23853120006A08C5006908C40097
:100B10001330C60008008A31AB2285318B31442363
:100B20008531003A0319952D962DA62D8A31EC2298
:100B30008531003A03199D2D9E2DA22D01302000F4
:100B4000D200DE2D02302000D200DE2D8A31EC22D0
:100B50008531003A0319AD2DAE2DB22D03302000A2
:100B6000D200DE2D04302000D200DE2D8B31682330
:100B700085318B314B238531003A0319C02DC12DAE
:100B8000F42D8D3182258531F42D8B31682385310B
:100B9000F42D8B314B238531003A0319D02DD12D03
:100BA000F42DC12D8A31D8228531003A0319D92D6F
:100BB000DA2DF42D8E316F268531F42D5208F9008F
:100BC000FA017A08003A0319E62DF42D7908013A62
:100BD0000319B62D033A0319C52D013A0319C92D7E
:100BE000073A0319D22DF42D8A31AE22853108003F
:100BF00079080319FC2DFD2D432E452E790886001A
:100C00008701033081007D30F0000030F1000130B9
:100C1000F2000030F3008C3138248531033021009C
:100C2000C000790886008701413FC1007908023E73
:100C300086008701403FC200413FC300F830F60004
:100C40000530F700C030F8008B31D52385310230F4
:100C50005C2E790A860087010108F000F10179080D
:100C6000023E86008701403FF200413FF3008C3195
:100C7000382485310030F600F700F8018B31D52398
:100C8000853104305C2E01305C2E790886008701A6
:100C900001082000D600D7015708003A0319512E49
:100CA000432E5608023A0319FE2D013A0319292E44
:100CB000073A0319292E432E080000308731EF2709
:100CC00086312100D800580A031D672E682E712E28
:100CD0001030D80010302000D60000308D31A6250D
:100CE000863101308731EF278631AA3A0319792EF0
:100CF0007A2E812EAA302000D60001308D31A62513
:100D0000863102308731EF278631003A0319892E68
:100D10008A2E902E2000D60102308D31A6258631F4
:100D200003308731EF278631303A0319982E992EF8
:100D3000A02E30302000D60003308D31A62586311C
:100D400004308731EF278631313A0319A82EA92EB6
:100D5000B02E31302000D60004308D31A6258631EA
:100D600005308731EF278631343A0319B82EB92E72
:100D7000C02E34302000D60005308D31A6258631B6
:100D800008002000D101A430D6000A30D7008B31F2
:100D900095238631A5302000D6000A30D7008B314C
:100DA0009E238631FF302000D6000730D7008B31DC
:100DB000A723863138302000D6000B30D7008B3186
:100DC000C22386318C31E824863186315D26863116
:100DD0008C31D42486318B170B178A31D52286317A
:100DE000210058088D314925863170302000D60009
:100DF0002330D7008C311E24863180302000D6006D
:100E00002330D7008C31C12486312000EF016F30B0
:100E100080318A20863190302000E4002330E500C4
:100E20006F30E6008331932386316400072F8031D1
:100E300060288B3132238731003A0319202F212F6C
:100E40004F2F2E2F8B31002387316E2F8B310523AF
:100E500087316E2F8B310F2387316E2F20002F08A3
:100E6000F9000630203E86008701413F8A00403F5E
:100E70000A008731F100F2017208003A0319412F8C
:100E80002A2F7108013A03192A2F033A0319222F36
:100E9000013A0319262F073A03192A2F2A2F200077
:100EA0003D103808F2003708F100B70A0319B80AF4
:100EB000710884007208850000088A31F6228731A3
:100EC00001302000B9020030BA3B39083A04031D52
:100ED0006A2F6B2F6D2F06306E2F033008008A317A
:100EE000C022873120003D1C762F772F822F8B3137
:100EF00032238731003A03197E2F7F2F822F0F3044
:100F00002000BB0020003D18862F872FAD2F8B318E
:100F100032238731003A03198E2F8F2FAD2F2000F7
:100F20003B08F300F401F335F40D0030730784003F
:100F30001030743D80388500013F8A00003F0A0070
:100F400087312000BB000A303B06031DA82FA92FC4
:100F5000C12F8A31FB228731C12F20003B08F300CB
:100F6000F401F335F40D0030730784001030743D44
:100F700080388500013F8A00003F0A008731200049
:100F8000BB0008002000BD15D22F8B310A2387310A
:100F9000EE2F8A31BD2287310330EE2F8B310F23A4
:100FA0008731EE2F2C08F90021088A0020080A005A
:100FB0008731F000F1017108003A0319E02FCE2FBC
:100FC0007008013A0319CE2F033A0319C52F013ACD
:100FD0000319C52F073A0319C92FCE2F0800200087
:100FE000D600703031009200200056083100910088
:100FF0001517151400000000310013080800080040
:1015480008000800013008002400110808002000E5
:101558009111080024001516080024009E140800A4
:1015680024001E15080024009E15080024001908F0
:10157800080020009215080020009211080024009D
:101588001E1408002000921108002100921508007E
:1015980024009D12080021009211080021009115D5
:1015A80008002000971708002400140801390800D3
:1015B80024009E161E16080024009E121E160800FF
:1015C80087316F278A3108000E3021009700080004
:1015D8002400140C890C01390800F000700824005C
:1015E80091000800F000700824009900080020000D
:1015F800BD10BC010E3008008A31B1228B31013098
:1016080008008A31B1228B31023008008A31B122B8
:101618008B31013008008A31B4228B310030080048
:101628008A31E0228B31053008008A31DC228B3187
:101638000A3008008A31DC228B310930080020008A
:10164800BD10BC010E30080000308D312F258B31C4
:10165800080001308D312F258B31080024001E0E23
:10166800890C890C013908000130F000700820004D
:10167800D10708002000D600563524009300080042
:1016880003102400941E03140030093D08000310C1
:101698002400141C03140030093D080020003D10EC
:1016A8008A31B7228B31043008002000D600560852
:1016B800FE39240092000800320091019201930142
:1016C80094019501960108008A31A8228B312100E6
:1016D800BF0001302000D30008002000C101C10A6A
:1016E8000130FA007A08C0070130080020003D14D4
:1016F8000314360D8A31F6228B310530080020009C
:1017080057082100B100200056082100B000080049
:10171800200057082100BD00200056082100BC0009
:101728000800200057082100D70020005608210093
:10173800D6000800200057082100D50020005608D0
:101748002100D4000800200057082100D300200001
:1017580056082100D200080024009C0108309D0092
:101768009E0109309A009D120800603032009900ED
:101778009B019D0103309F009E010800200057082F
:101788002100D100200056082100D00008002000C8
:10179800C901C90A0130FA007A082100BE070130E0
:1017A80008007708F1007608F0007808F2000030A9
:1017B8008D31CB258B31080020005D08D7005C08EF
:1017C800D6005E08D80002308E311B268B31080007
:1017D80020005D08D7005C08D6005E08D8000030FD
:1017E8008E311B268B3108006400800101310130E5
:1017F800FE020030FF3B7F087E04031DF92B0034F6
:10180800F00070303100920070089100151715141F
:101818000000000031001308080024009D1A152C50
:10182800162C1D2C9C0108309D009E0109309A0041
:101838009D16080027302000C7005708BF0056082B
:10184800BE00C601C501C301C101C001080049307D
:1018580020009800613096009501901221009016A2
:1018680080302000970008002000BD1D3C2C3D2C36
:10187800462C7108B8007008B7007308BA007208DF
:10188800B900BD11080020003D1436358A31F62212
:101898008C312000BD19512C522C542C0330552C5E
:1018A8000A30080021005608570403195C2C5D2CE7
:1018B800622C57088A0056080A008C3127009910B4
:1018C800080021005408550403196B2C6C2C712C4A
:1018D80055088A0054080A008C312700991108001D
:1018E80021005208530403197A2C7B2C802C5308AE
:1018F8008A0052080A008C312700191308002000BA
:10190800901221005008510403198B2C8C2C912C17
:1019180051088A0050080A008C3108002000BD1DBB
:10192800962C972CA02C5708B8005608B7005908D1
:10193800BA005808B900BD1108002400951AA52C52
:10194800A62CB02C940106302000D600560824009E
:1019580095048130960095160800240094010630FD
:101968002000D60056082400950481309600951270
:1019780001302000D300FB01080020005708210097
:10198800AF00200056082100AE002000CF01CE0194
:10199800CD01CC01CA01CA0A4130D000C9010800F2
:1019A8002000D7015708703E860087012330873D05
:1019B80081010130D6005608D70780305702031C32
:1019C800E62CE72CD62C08008B3160238C318C3127
:1019D800B1248C318B31B0238C318F31BA278C31C3
:1019E8008B31B9238C318A31E8228C318C312B240C
:1019F8008C3108002000D601D60ABD18042D052D0B
:101A0800142D3D11FF30B6008A31C6228C318A313F
:101A1800CF228C318A31CC228C3120003C08D60070
:101A2800560808002700991C1A2D1B2D1E2D8C31D5
:101A380056248D312700991D222D232D262D8C31DA
:101A480065248D312700191F2A2D2B2D2E2D8C3121
:101A580074248D3108002000D600D701D70ABD189C
:101A6800362D372D462DBD14D701560803193D2DA7
:101A78003E2D412D0130BB00432D0230BB008A3181
:101A8800C3228D312000570808002000D8008C316F
:101A9800A1248D31200058088B3159238D317F3096
:101AA8008B313E238D318B302000D6000530D70096
:101AB8008B318C238D318A31D2228D310800F1008F
:101AC80000308B1B0130F200703031009200710839
:101AD800910070089300151715158B135530960053
:101AE800AA309600951495187A2D7B2D772D15110F
:101AF800720C031C8B1303188B17080080307B02B1
:101B08000318872D882D902D7B088C3104248D3166
:101B18008A31F1228D31A12D7B08F100F201F030DC
:101B2800F3002230F4007108730786007208743DD0
:101B3800870001088A31F1228D310130F1007108E6
:101B4800FB0708002000D70000308B1B0130D800AD
:101B580070303100920020005708310091002000B9
:101B6800560831009300151715158B13553096003C
:101B7800AA30960095149518C22DC32DBF2D1511A6
:101B88002000580C031C8B1303188B170800F50052
:101B9800700871040319D12DD22DE12D7535203E21
:101BA800860087017008C03F7108C13F75082C3E48
:101BB8008600870172088100F22DA630F3000A30F2
:101BC800F4007535203E860087017308C03F74080D
:101BD800C13F75082C3E860087018101080020005E
:101BE8003D100230BC00002E8B310A238D311A2E95
:101BF8008B310F238D311A2E2E08F9000430203E28
:101C080086008701413F8A00403F0A008E31F0007C
:101C1800F1017108003A0319122EFC2D7008023ADE
:101C28000319F82D013A0319F82DFC2D080020009E
:101C3800DB00560857040319222E232E322E5B355B
:101C4800203E860087015608C03F5708C13F5B0801
:101C58002C3E8600870158088100432EA630D90003
:101C68000A30DA005B35203E860087015908C03FFC
:101C78005A08C13F5B082C3E860087018101080095
:101C880079080319482E492E6D2E790A8600870196
:101C98000108F000F1017908023E86008701403F03
:101CA800F200413FF3008C3138248E310030F600C9
:101CB800F700F8018B31D5238E317908860087012A
:101CC80001080319682E692E6B2E04306E2E02301F
:101CD8006E2E013008008A31A8228E31FC002000C7
:101CE80053080319782E792E7D2E7C08FB00D3012A
:101CF800AD2E80307B020318822E832E902E20304A
:101D08007B02031C882E892EA92E7C08F0007B08F4
:101D18008D3163258E31A92EA0307B02031C952EB0
:101D2800962EA92E7B08F300F401F030F50022303E
:101D3800F60073087507F7007408763DF800770811
:101D48008600780887007C0881000130F30073085A
:101D5800FB0708002000D800D901D90A3D19B52E83
:101D6800B62EED2E5808B600BD103D153D100E30AC
:101D7800BB000130B500F430B400BD15A630A0009A
:101D88000A30A100AC010A30A300A630A200AD01C0
:101D98000A30A500A630A400AE010A30A700A6307C
:101DA800A600AF010030A9000230A800B001E4305D
:101DB800D6000A30D7008B3183238E318A31C62270
:101DC8008E318C3111248E318A31C9228E31200016
:101DD800D901590808002000E30050088E31AE26CA
:101DE8008E31003A031DF92EFA2E302F200060089C
:101DF8002100C900200062082100CB0020006108F2
:101E08002100CA00C80144302000DC000E30DD008B
:101E1800C830DE008B31EC238E3120006308D500FA
:101E28005530D6000030D7000130D8000030D90036
:101E38008C3192248E312000C901CB30DC000B306C
:101E4800DD000030DE00DF008B31E0238E318B3186
:101E580028238E310130312F003008002000370848
:101E68008600380887008A31BA228F318100013014
:101E78002000B7070030B83D0130B9020030BA3B46
:101E880039083A040319492F4A2F4F2F8A31E02283
:101E98008F310530752FBD15592F8B311E238F318A
:101EA800752F8B3119238F31752F2C08F9002108D4
:101EB8008A0020080A008F31F000F1017108003A09
:101EC8000319672F552F7008013A0319552F033A44
:101ED8000319512F013A0319512F073A0319552FA6
:101EE800552F08002000E30050088E31AE268F31B0
:101EF800003A031D802F812FB82F20006008210091
:101F0800C900200062082100CB00200061082100E0
:101F1800CA000130C80044302000DC000E30DD006B
:101F2800C830DE008B31EC238F3120006308D500E8
:101F38005530D6000030D7000130D8000030D90025
:101F48008C3192248F312000C901CB30DC000B305A
:101F5800DD000030DE00DF008B31E0238F318B3174
:101F680028238F310130B92F0030080022008C015E
:101F78008D018E01333021008C00F0308D00FF3050
:101F88008E00913023008E008D0137308C002400A4
:101F98008D018C018E0125008C018D018E01373059
:101FA80026008C00F0308D00FF308E003F30270077
:101FB8008C00F0308D00FF308E00991099111913A4
:101FC80098109811181397149715171721001016C1
:101FD8000F303C009E000C30A00019303D009E00E0
:101FE8001B309F001A309D0018309C000E303C00BA
:101FF800A1000D309D000800FB340A347A340B34FC
:1020080047340C341934073432340F3452340B3417
:10201800C234073400340B3405340B340A340B341F
:102028000F340B3414340B3419340B341E340B3482
:1020380023340B34F3340D341B34003400341A3495
:1020480000340034193400340034183400340034B7
:102058001C3400340034803400340034A03400349C
:0C20680000345B345A34593458345C3472
:020000040001F9
:08000E00EC3FFF3FFF3FFF3F05
:00000001FF
